{
	"wLONG/wLONG.sol": {
		"wLONG": {
			"abi": [
				{
					"inputs": [],
					"stateMutability": "nonpayable",
					"type": "constructor"
				},
				{
					"anonymous": false,
					"inputs": [
						{
							"indexed": true,
							"internalType": "address",
							"name": "owner",
							"type": "address"
						},
						{
							"indexed": true,
							"internalType": "address",
							"name": "spender",
							"type": "address"
						},
						{
							"indexed": false,
							"internalType": "uint256",
							"name": "value",
							"type": "uint256"
						}
					],
					"name": "Approval",
					"type": "event"
				},
				{
					"anonymous": false,
					"inputs": [
						{
							"indexed": true,
							"internalType": "address",
							"name": "previousOwner",
							"type": "address"
						},
						{
							"indexed": true,
							"internalType": "address",
							"name": "newOwner",
							"type": "address"
						}
					],
					"name": "OwnershipTransferred",
					"type": "event"
				},
				{
					"anonymous": false,
					"inputs": [
						{
							"indexed": true,
							"internalType": "address",
							"name": "from",
							"type": "address"
						},
						{
							"indexed": true,
							"internalType": "address",
							"name": "to",
							"type": "address"
						},
						{
							"indexed": false,
							"internalType": "uint256",
							"name": "value",
							"type": "uint256"
						}
					],
					"name": "Transfer",
					"type": "event"
				},
				{
					"inputs": [
						{
							"internalType": "address",
							"name": "owner",
							"type": "address"
						},
						{
							"internalType": "address",
							"name": "spender",
							"type": "address"
						}
					],
					"name": "allowance",
					"outputs": [
						{
							"internalType": "uint256",
							"name": "",
							"type": "uint256"
						}
					],
					"stateMutability": "view",
					"type": "function"
				},
				{
					"inputs": [
						{
							"internalType": "address",
							"name": "spender",
							"type": "address"
						},
						{
							"internalType": "uint256",
							"name": "amount",
							"type": "uint256"
						}
					],
					"name": "approve",
					"outputs": [
						{
							"internalType": "bool",
							"name": "",
							"type": "bool"
						}
					],
					"stateMutability": "nonpayable",
					"type": "function"
				},
				{
					"inputs": [
						{
							"internalType": "address",
							"name": "account",
							"type": "address"
						}
					],
					"name": "balanceOf",
					"outputs": [
						{
							"internalType": "uint256",
							"name": "",
							"type": "uint256"
						}
					],
					"stateMutability": "view",
					"type": "function"
				},
				{
					"inputs": [],
					"name": "decimals",
					"outputs": [
						{
							"internalType": "uint8",
							"name": "",
							"type": "uint8"
						}
					],
					"stateMutability": "view",
					"type": "function"
				},
				{
					"inputs": [
						{
							"internalType": "address",
							"name": "spender",
							"type": "address"
						},
						{
							"internalType": "uint256",
							"name": "subtractedValue",
							"type": "uint256"
						}
					],
					"name": "decreaseAllowance",
					"outputs": [
						{
							"internalType": "bool",
							"name": "",
							"type": "bool"
						}
					],
					"stateMutability": "nonpayable",
					"type": "function"
				},
				{
					"inputs": [
						{
							"internalType": "address",
							"name": "spender",
							"type": "address"
						},
						{
							"internalType": "uint256",
							"name": "addedValue",
							"type": "uint256"
						}
					],
					"name": "increaseAllowance",
					"outputs": [
						{
							"internalType": "bool",
							"name": "",
							"type": "bool"
						}
					],
					"stateMutability": "nonpayable",
					"type": "function"
				},
				{
					"inputs": [
						{
							"internalType": "uint256",
							"name": "amount",
							"type": "uint256"
						},
						{
							"internalType": "bytes",
							"name": "signature",
							"type": "bytes"
						}
					],
					"name": "mint",
					"outputs": [
						{
							"internalType": "bool",
							"name": "",
							"type": "bool"
						}
					],
					"stateMutability": "nonpayable",
					"type": "function"
				},
				{
					"inputs": [],
					"name": "name",
					"outputs": [
						{
							"internalType": "string",
							"name": "",
							"type": "string"
						}
					],
					"stateMutability": "view",
					"type": "function"
				},
				{
					"inputs": [],
					"name": "owner",
					"outputs": [
						{
							"internalType": "address",
							"name": "",
							"type": "address"
						}
					],
					"stateMutability": "view",
					"type": "function"
				},
				{
					"inputs": [],
					"name": "symbol",
					"outputs": [
						{
							"internalType": "string",
							"name": "",
							"type": "string"
						}
					],
					"stateMutability": "view",
					"type": "function"
				},
				{
					"inputs": [],
					"name": "totalSupply",
					"outputs": [
						{
							"internalType": "uint256",
							"name": "",
							"type": "uint256"
						}
					],
					"stateMutability": "view",
					"type": "function"
				},
				{
					"inputs": [
						{
							"internalType": "address",
							"name": "to",
							"type": "address"
						},
						{
							"internalType": "uint256",
							"name": "amount",
							"type": "uint256"
						}
					],
					"name": "transfer",
					"outputs": [
						{
							"internalType": "bool",
							"name": "",
							"type": "bool"
						}
					],
					"stateMutability": "nonpayable",
					"type": "function"
				},
				{
					"inputs": [
						{
							"internalType": "address",
							"name": "from",
							"type": "address"
						},
						{
							"internalType": "address",
							"name": "to",
							"type": "address"
						},
						{
							"internalType": "uint256",
							"name": "amount",
							"type": "uint256"
						}
					],
					"name": "transferFrom",
					"outputs": [
						{
							"internalType": "bool",
							"name": "",
							"type": "bool"
						}
					],
					"stateMutability": "nonpayable",
					"type": "function"
				},
				{
					"inputs": [
						{
							"internalType": "address",
							"name": "newOwner",
							"type": "address"
						}
					],
					"name": "transferOwnership",
					"outputs": [],
					"stateMutability": "nonpayable",
					"type": "function"
				}
			],
			"devdoc": {
				"kind": "dev",
				"methods": {
					"allowance(address,address)": {
						"details": "See {IERC20-allowance}."
					},
					"approve(address,uint256)": {
						"details": "See {IERC20-approve}. NOTE: If `amount` is the maximum `uint256`, the allowance is not updated on `transferFrom`. This is semantically equivalent to an infinite approval. Requirements: - `spender` cannot be the zero address."
					},
					"balanceOf(address)": {
						"details": "See {IERC20-balanceOf}."
					},
					"decimals()": {
						"details": " decimals столькоже сколько и в орегинальном LONG coin, totalSupply изначально 0, так как токены минтятся юзерами через купоны, подтверждающие сжигание LONG"
					},
					"decreaseAllowance(address,uint256)": {
						"details": "Atomically decreases the allowance granted to `spender` by the caller. This is an alternative to {approve} that can be used as a mitigation for problems described in {IERC20-approve}. Emits an {Approval} event indicating the updated allowance. Requirements: - `spender` cannot be the zero address. - `spender` must have allowance for the caller of at least `subtractedValue`."
					},
					"increaseAllowance(address,uint256)": {
						"details": "Atomically increases the allowance granted to `spender` by the caller. This is an alternative to {approve} that can be used as a mitigation for problems described in {IERC20-approve}. Emits an {Approval} event indicating the updated allowance. Requirements: - `spender` cannot be the zero address."
					},
					"mint(uint256,bytes)": {
						"details": "Это единственный метод для минтинга wLONG. Вызывающий адрес долже предоставить валидную сигнатуру (купон), полученную после сжигагия орегинальных LONG в количестве amount"
					},
					"name()": {
						"details": "Returns the name of the token."
					},
					"owner()": {
						"details": "Returns the address of the current owner."
					},
					"symbol()": {
						"details": "Returns the symbol of the token, usually a shorter version of the name."
					},
					"totalSupply()": {
						"details": "See {IERC20-totalSupply}."
					},
					"transfer(address,uint256)": {
						"details": "See {IERC20-transfer}. Requirements: - `to` cannot be the zero address. - the caller must have a balance of at least `amount`."
					},
					"transferFrom(address,address,uint256)": {
						"details": "See {IERC20-transferFrom}. Emits an {Approval} event indicating the updated allowance. This is not required by the EIP. See the note at the beginning of {ERC20}. NOTE: Does not update the allowance if the current allowance is the maximum `uint256`. Requirements: - `from` and `to` cannot be the zero address. - `from` must have a balance of at least `amount`. - the caller must have allowance for ``from``'s tokens of at least `amount`."
					},
					"transferOwnership(address)": {
						"details": "Transfers ownership of the contract to a new account (`newOwner`). Can only be called by the current owner."
					}
				},
				"stateVariables": {
					"_rset": {
						"details": "Для проверки купонов на сожженный LONG используем механизм ECDSA-подписи,  где r-часть юзабельна как одноразовый лицензионный ключ. Чтобы не было подделок нужно r=k*G генерировать каждый раз из нового случайного k (nonce)!!! При такой схеме в хешь сообщения включается число сожженных LONG а восстанавливаемый при проверке  сигнатуры адрес (публичный ключь) - это _owner-адрес в контракте (возможна его смена при компроментации) Важно! Для предотвращения Front Running в хешь сообщения подмешивается также адрес отправителя (_msgSender()), то есть купоны на сжигание всегда именные и заюзать с другого адреса невозможно "
					}
				},
				"version": 1
			},
			"evm": {
				"assembly": "    /* \"wLONG/wLONG.sol\":448:5150  contract wLONG is ERC20, Ownable {... */\n  mstore(0x40, 0x80)\n    /* \"wLONG/wLONG.sol\":488:539  constructor() ERC20(\"wrapped LONG\",\"wLONG\") {... */\n  callvalue\n  dup1\n  iszero\n  tag_1\n  jumpi\n  0x00\n  dup1\n  revert\ntag_1:\n  pop\n    /* \"wLONG/ERC20.sol\":1957:2070  constructor(string memory name_, string memory symbol_) {... */\n  0x40\n  dup1\n  mload\n  dup1\n  dup3\n  add\n  dup3\n  mstore\n  0x0c\n  dup2\n  mstore\n  shl(0xa0, 0x77726170706564204c4f4e47)\n  0x20\n  dup1\n  dup4\n  add\n  swap2\n  dup3\n  mstore\n  dup4\n  mload\n  dup1\n  dup6\n  add\n  swap1\n  swap5\n  mstore\n  0x05\n  dup5\n  mstore\n  shl(0xd8, 0x774c4f4e47)\n  swap1\n  dup5\n  add\n  mstore\n    /* \"wLONG/ERC20.sol\":2023:2036  _name = name_ */\n  dup2\n  mload\n    /* \"wLONG/ERC20.sol\":1957:2070  constructor(string memory name_, string memory symbol_) {... */\n  swap2\n  swap3\n  swap2\n    /* \"wLONG/ERC20.sol\":2023:2036  _name = name_ */\n  tag_6\n  swap2\n    /* \"wLONG/ERC20.sol\":2023:2028  _name */\n  0x03\n  swap2\n    /* \"wLONG/ERC20.sol\":2023:2036  _name = name_ */\n  tag_7\n  jump\t// in\ntag_6:\n  pop\n    /* \"wLONG/ERC20.sol\":2046:2063  _symbol = symbol_ */\n  dup1\n  mload\n  tag_8\n  swap1\n    /* \"wLONG/ERC20.sol\":2046:2053  _symbol */\n  0x04\n  swap1\n    /* \"wLONG/ERC20.sol\":2046:2063  _symbol = symbol_ */\n  0x20\n  dup5\n  add\n  swap1\n  tag_7\n  jump\t// in\ntag_8:\n  pop\n    /* \"wLONG/ERC20.sol\":1957:2070  constructor(string memory name_, string memory symbol_) {... */\n  pop\n  pop\n    /* \"wLONG/Ownable.sol\":914:946  _transferOwnership(_msgSender()) */\n  tag_10\n    /* \"wLONG/Ownable.sol\":933:945  _msgSender() */\n  tag_11\n    /* \"wLONG/Ownable.sol\":933:943  _msgSender */\n  shl(0x20, tag_12)\n    /* \"wLONG/Ownable.sol\":933:945  _msgSender() */\n  0x20\n  shr\n  jump\t// in\ntag_11:\n    /* \"wLONG/Ownable.sol\":914:932  _transferOwnership */\n  tag_13\n    /* \"wLONG/Ownable.sol\":914:946  _transferOwnership(_msgSender()) */\n  jump\t// in\ntag_10:\n    /* \"wLONG/wLONG.sol\":448:5150  contract wLONG is ERC20, Ownable {... */\n  jump(tag_29)\n    /* \"wLONG/Context.sol\":640:736  function _msgSender() internal view virtual returns (address) {... */\ntag_12:\n    /* \"wLONG/Context.sol\":719:729  msg.sender */\n  caller\n  swap1\n    /* \"wLONG/Context.sol\":640:736  function _msgSender() internal view virtual returns (address) {... */\n  jump\t// out\n    /* \"wLONG/Ownable.sol\":2269:2456  function _transferOwnership(address newOwner) internal virtual {... */\ntag_13:\n    /* \"wLONG/Ownable.sol\":2361:2367  _owner */\n  0x05\n  dup1\n  sload\n  sub(shl(0xa0, 0x01), 0x01)\n    /* \"wLONG/Ownable.sol\":2377:2394  _owner = newOwner */\n  dup4\n  dup2\n  and\n  not(sub(shl(0xa0, 0x01), 0x01))\n  dup4\n  and\n  dup2\n  or\n  swap1\n  swap4\n  sstore\n    /* \"wLONG/Ownable.sol\":2409:2449  OwnershipTransferred(oldOwner, newOwner) */\n  mload(0x40)\n    /* \"wLONG/Ownable.sol\":2361:2367  _owner */\n  swap2\n  and\n  swap2\n    /* \"wLONG/Ownable.sol\":2377:2394  _owner = newOwner */\n  swap1\n    /* \"wLONG/Ownable.sol\":2361:2367  _owner */\n  dup3\n  swap1\n    /* \"wLONG/Ownable.sol\":2409:2449  OwnershipTransferred(oldOwner, newOwner) */\n  0x8be0079c531659141344cd1fd0a4f28419497f9722a3daafe3b4186f6b6457e0\n  swap1\n    /* \"wLONG/Ownable.sol\":2342:2358  address oldOwner */\n  0x00\n  swap1\n    /* \"wLONG/Ownable.sol\":2409:2449  OwnershipTransferred(oldOwner, newOwner) */\n  log3\n    /* \"wLONG/Ownable.sol\":2332:2456  {... */\n  pop\n    /* \"wLONG/Ownable.sol\":2269:2456  function _transferOwnership(address newOwner) internal virtual {... */\n  pop\n  jump\t// out\n    /* \"wLONG/wLONG.sol\":448:5150  contract wLONG is ERC20, Ownable {... */\ntag_7:\n  dup3\n  dup1\n  sload\n  tag_18\n  swap1\n  tag_19\n  jump\t// in\ntag_18:\n  swap1\n  0x00\n  mstore\n  keccak256(0x00, 0x20)\n  swap1\n  0x1f\n  add\n  0x20\n  swap1\n  div\n  dup2\n  add\n  swap3\n  dup3\n  tag_21\n  jumpi\n  0x00\n  dup6\n  sstore\n  jump(tag_24)\ntag_21:\n  dup3\n  0x1f\n  lt\n  tag_22\n  jumpi\n  dup1\n  mload\n  not(0xff)\n  and\n  dup4\n  dup1\n  add\n  or\n  dup6\n  sstore\n  jump(tag_24)\ntag_22:\n  dup3\n  dup1\n  add\n  0x01\n  add\n  dup6\n  sstore\n  dup3\n  iszero\n  tag_24\n  jumpi\n  swap2\n  dup3\n  add\ntag_23:\n  dup3\n  dup2\n  gt\n  iszero\n  tag_24\n  jumpi\n  dup3\n  mload\n  dup3\n  sstore\n  swap2\n  0x20\n  add\n  swap2\n  swap1\n  0x01\n  add\n  swap1\n  jump(tag_23)\ntag_24:\n  pop\n  tag_25\n  swap3\n  swap2\n  pop\n  tag_26\n  jump\t// in\ntag_25:\n  pop\n  swap1\n  jump\t// out\ntag_26:\ntag_27:\n  dup1\n  dup3\n  gt\n  iszero\n  tag_25\n  jumpi\n  0x00\n  dup2\n  sstore\n  0x01\n  add\n  jump(tag_27)\n    /* \"#utility.yul\":14:394   */\ntag_19:\n    /* \"#utility.yul\":93:94   */\n  0x01\n    /* \"#utility.yul\":89:101   */\n  dup2\n  dup2\n  shr\n  swap1\n    /* \"#utility.yul\":136:148   */\n  dup3\n  and\n  dup1\n    /* \"#utility.yul\":157:218   */\n  tag_31\n  jumpi\n    /* \"#utility.yul\":211:215   */\n  0x7f\n    /* \"#utility.yul\":203:209   */\n  dup3\n    /* \"#utility.yul\":199:216   */\n  and\n    /* \"#utility.yul\":189:216   */\n  swap2\n  pop\n    /* \"#utility.yul\":157:218   */\ntag_31:\n    /* \"#utility.yul\":264:266   */\n  0x20\n    /* \"#utility.yul\":256:262   */\n  dup3\n    /* \"#utility.yul\":253:267   */\n  lt\n    /* \"#utility.yul\":233:251   */\n  dup2\n    /* \"#utility.yul\":230:268   */\n  eq\n    /* \"#utility.yul\":227:388   */\n  iszero\n  tag_32\n  jumpi\n    /* \"#utility.yul\":310:320   */\n  0x4e487b71\n    /* \"#utility.yul\":305:308   */\n  0xe0\n    /* \"#utility.yul\":301:321   */\n  shl\n    /* \"#utility.yul\":298:299   */\n  0x00\n    /* \"#utility.yul\":291:322   */\n  mstore\n    /* \"#utility.yul\":345:349   */\n  0x22\n    /* \"#utility.yul\":342:343   */\n  0x04\n    /* \"#utility.yul\":335:350   */\n  mstore\n    /* \"#utility.yul\":373:377   */\n  0x24\n    /* \"#utility.yul\":370:371   */\n  0x00\n    /* \"#utility.yul\":363:378   */\n  revert\n    /* \"#utility.yul\":227:388   */\ntag_32:\n  pop\n    /* \"#utility.yul\":14:394   */\n  swap2\n  swap1\n  pop\n  jump\t// out\ntag_29:\n    /* \"wLONG/wLONG.sol\":448:5150  contract wLONG is ERC20, Ownable {... */\n  dataSize(sub_0)\n  dup1\n  dataOffset(sub_0)\n  0x00\n  codecopy\n  0x00\n  return\nstop\n\nsub_0: assembly {\n        /* \"wLONG/wLONG.sol\":448:5150  contract wLONG is ERC20, Ownable {... */\n      mstore(0x40, 0x80)\n      callvalue\n      dup1\n      iszero\n      tag_1\n      jumpi\n      0x00\n      dup1\n      revert\n    tag_1:\n      pop\n      jumpi(tag_2, lt(calldatasize, 0x04))\n      shr(0xe0, calldataload(0x00))\n      dup1\n      0x8da5cb5b\n      gt\n      tag_17\n      jumpi\n      dup1\n      0xa9059cbb\n      gt\n      tag_18\n      jumpi\n      dup1\n      0xa9059cbb\n      eq\n      tag_13\n      jumpi\n      dup1\n      0xdb7fd408\n      eq\n      tag_14\n      jumpi\n      dup1\n      0xdd62ed3e\n      eq\n      tag_15\n      jumpi\n      dup1\n      0xf2fde38b\n      eq\n      tag_16\n      jumpi\n      0x00\n      dup1\n      revert\n    tag_18:\n      dup1\n      0x8da5cb5b\n      eq\n      tag_10\n      jumpi\n      dup1\n      0x95d89b41\n      eq\n      tag_11\n      jumpi\n      dup1\n      0xa457c2d7\n      eq\n      tag_12\n      jumpi\n      0x00\n      dup1\n      revert\n    tag_17:\n      dup1\n      0x23b872dd\n      gt\n      tag_19\n      jumpi\n      dup1\n      0x23b872dd\n      eq\n      tag_6\n      jumpi\n      dup1\n      0x313ce567\n      eq\n      tag_7\n      jumpi\n      dup1\n      0x39509351\n      eq\n      tag_8\n      jumpi\n      dup1\n      0x70a08231\n      eq\n      tag_9\n      jumpi\n      0x00\n      dup1\n      revert\n    tag_19:\n      dup1\n      0x06fdde03\n      eq\n      tag_3\n      jumpi\n      dup1\n      0x095ea7b3\n      eq\n      tag_4\n      jumpi\n      dup1\n      0x18160ddd\n      eq\n      tag_5\n      jumpi\n    tag_2:\n      0x00\n      dup1\n      revert\n        /* \"wLONG/ERC20.sol\":2135:2233  function name() public view virtual override returns (string memory) {... */\n    tag_3:\n      tag_20\n      tag_21\n      jump\t// in\n    tag_20:\n      mload(0x40)\n      tag_22\n      swap2\n      swap1\n      tag_23\n      jump\t// in\n    tag_22:\n      mload(0x40)\n      dup1\n      swap2\n      sub\n      swap1\n      return\n        /* \"wLONG/ERC20.sol\":4412:4609  function approve(address spender, uint256 amount) public virtual override returns (bool) {... */\n    tag_4:\n      tag_24\n      tag_25\n      calldatasize\n      0x04\n      tag_26\n      jump\t// in\n    tag_25:\n      tag_27\n      jump\t// in\n    tag_24:\n      mload(0x40)\n        /* \"#utility.yul\":3052:3066   */\n      swap1\n      iszero\n        /* \"#utility.yul\":3045:3067   */\n      iszero\n        /* \"#utility.yul\":3027:3068   */\n      dup2\n      mstore\n        /* \"#utility.yul\":3015:3017   */\n      0x20\n        /* \"#utility.yul\":3000:3018   */\n      add\n        /* \"wLONG/ERC20.sol\":4412:4609  function approve(address spender, uint256 amount) public virtual override returns (bool) {... */\n      tag_22\n        /* \"#utility.yul\":2887:3074   */\n      jump\n        /* \"wLONG/ERC20.sol\":3223:3329  function totalSupply() public view virtual override returns (uint256) {... */\n    tag_5:\n        /* \"wLONG/ERC20.sol\":3310:3322  _totalSupply */\n      sload(0x02)\n        /* \"wLONG/ERC20.sol\":3223:3329  function totalSupply() public view virtual override returns (uint256) {... */\n    tag_30:\n      mload(0x40)\n        /* \"#utility.yul\":8866:8891   */\n      swap1\n      dup2\n      mstore\n        /* \"#utility.yul\":8854:8856   */\n      0x20\n        /* \"#utility.yul\":8839:8857   */\n      add\n        /* \"wLONG/ERC20.sol\":3223:3329  function totalSupply() public view virtual override returns (uint256) {... */\n      tag_22\n        /* \"#utility.yul\":8720:8897   */\n      jump\n        /* \"wLONG/ERC20.sol\":5171:5457  function transferFrom(... */\n    tag_6:\n      tag_24\n      tag_35\n      calldatasize\n      0x04\n      tag_36\n      jump\t// in\n    tag_35:\n      tag_37\n      jump\t// in\n        /* \"wLONG/wLONG.sol\":835:925  function decimals() public view virtual override returns (uint8) {... */\n    tag_7:\n      mload(0x40)\n        /* \"wLONG/wLONG.sol\":893:898  uint8 */\n      0x00\n        /* \"#utility.yul\":9044:9080   */\n      dup2\n      mstore\n        /* \"#utility.yul\":9032:9034   */\n      0x20\n        /* \"#utility.yul\":9017:9035   */\n      add\n        /* \"wLONG/wLONG.sol\":835:925  function decimals() public view virtual override returns (uint8) {... */\n      tag_22\n        /* \"#utility.yul\":8902:9086   */\n      jump\n        /* \"wLONG/ERC20.sol\":5852:6088  function increaseAllowance(address spender, uint256 addedValue) public virtual returns (bool) {... */\n    tag_8:\n      tag_24\n      tag_44\n      calldatasize\n      0x04\n      tag_26\n      jump\t// in\n    tag_44:\n      tag_45\n      jump\t// in\n        /* \"wLONG/ERC20.sol\":3387:3512  function balanceOf(address account) public view virtual override returns (uint256) {... */\n    tag_9:\n      tag_30\n      tag_48\n      calldatasize\n      0x04\n      tag_49\n      jump\t// in\n    tag_48:\n      sub(shl(0xa0, 0x01), 0x01)\n        /* \"wLONG/ERC20.sol\":3487:3505  _balances[account] */\n      and\n        /* \"wLONG/ERC20.sol\":3461:3468  uint256 */\n      0x00\n        /* \"wLONG/ERC20.sol\":3487:3505  _balances[account] */\n      swap1\n      dup2\n      mstore\n      0x20\n      dup2\n      swap1\n      mstore\n      0x40\n      swap1\n      keccak256\n      sload\n      swap1\n        /* \"wLONG/ERC20.sol\":3387:3512  function balanceOf(address account) public view virtual override returns (uint256) {... */\n      jump\n        /* \"wLONG/Ownable.sol\":1029:1114  function owner() public view virtual returns (address) {... */\n    tag_10:\n        /* \"wLONG/Ownable.sol\":1101:1107  _owner */\n      sload(0x05)\n        /* \"wLONG/Ownable.sol\":1029:1114  function owner() public view virtual returns (address) {... */\n      mload(0x40)\n      sub(shl(0xa0, 0x01), 0x01)\n        /* \"wLONG/Ownable.sol\":1101:1107  _owner */\n      swap1\n      swap2\n      and\n        /* \"#utility.yul\":2825:2876   */\n      dup2\n      mstore\n        /* \"#utility.yul\":2813:2815   */\n      0x20\n        /* \"#utility.yul\":2798:2816   */\n      add\n        /* \"wLONG/Ownable.sol\":1029:1114  function owner() public view virtual returns (address) {... */\n      tag_22\n        /* \"#utility.yul\":2679:2882   */\n      jump\n        /* \"wLONG/ERC20.sol\":2346:2448  function symbol() public view virtual override returns (string memory) {... */\n    tag_11:\n      tag_20\n      tag_57\n      jump\t// in\n        /* \"wLONG/ERC20.sol\":6575:7004  function decreaseAllowance(address spender, uint256 subtractedValue) public virtual returns (bool) {... */\n    tag_12:\n      tag_24\n      tag_60\n      calldatasize\n      0x04\n      tag_26\n      jump\t// in\n    tag_60:\n      tag_61\n      jump\t// in\n        /* \"wLONG/ERC20.sol\":3708:3897  function transfer(address to, uint256 amount) public virtual override returns (bool) {... */\n    tag_13:\n      tag_24\n      tag_64\n      calldatasize\n      0x04\n      tag_26\n      jump\t// in\n    tag_64:\n      tag_65\n      jump\t// in\n        /* \"wLONG/wLONG.sol\":3129:5148  function mint(uint256 amount, bytes memory signature) external virtual returns (bool) {... */\n    tag_14:\n      tag_24\n      tag_68\n      calldatasize\n      0x04\n      tag_69\n      jump\t// in\n    tag_68:\n      tag_70\n      jump\t// in\n        /* \"wLONG/ERC20.sol\":3955:4104  function allowance(address owner, address spender) public view virtual override returns (uint256) {... */\n    tag_15:\n      tag_30\n      tag_73\n      calldatasize\n      0x04\n      tag_74\n      jump\t// in\n    tag_73:\n      sub(shl(0xa0, 0x01), 0x01)\n        /* \"wLONG/ERC20.sol\":4070:4088  _allowances[owner] */\n      swap2\n      dup3\n      and\n        /* \"wLONG/ERC20.sol\":4044:4051  uint256 */\n      0x00\n        /* \"wLONG/ERC20.sol\":4070:4088  _allowances[owner] */\n      swap1\n      dup2\n      mstore\n        /* \"wLONG/ERC20.sol\":4070:4081  _allowances */\n      0x01\n        /* \"wLONG/ERC20.sol\":4070:4088  _allowances[owner] */\n      0x20\n      swap1\n      dup2\n      mstore\n      0x40\n      dup1\n      dup4\n      keccak256\n        /* \"wLONG/ERC20.sol\":4070:4097  _allowances[owner][spender] */\n      swap4\n      swap1\n      swap5\n      and\n      dup3\n      mstore\n      swap2\n      swap1\n      swap2\n      mstore\n      keccak256\n      sload\n      swap1\n        /* \"wLONG/ERC20.sol\":3955:4104  function allowance(address owner, address spender) public view virtual override returns (uint256) {... */\n      jump\n        /* \"wLONG/Ownable.sol\":1917:2115  function transferOwnership(address newOwner) public virtual onlyOwner {... */\n    tag_16:\n      tag_77\n      tag_78\n      calldatasize\n      0x04\n      tag_49\n      jump\t// in\n    tag_78:\n      tag_79\n      jump\t// in\n    tag_77:\n      stop\n        /* \"wLONG/ERC20.sol\":2135:2233  function name() public view virtual override returns (string memory) {... */\n    tag_21:\n        /* \"wLONG/ERC20.sol\":2189:2202  string memory */\n      0x60\n        /* \"wLONG/ERC20.sol\":2221:2226  _name */\n      0x03\n        /* \"wLONG/ERC20.sol\":2214:2226  return _name */\n      dup1\n      sload\n      tag_81\n      swap1\n      tag_82\n      jump\t// in\n    tag_81:\n      dup1\n      0x1f\n      add\n      0x20\n      dup1\n      swap2\n      div\n      mul\n      0x20\n      add\n      mload(0x40)\n      swap1\n      dup2\n      add\n      0x40\n      mstore\n      dup1\n      swap3\n      swap2\n      swap1\n      dup2\n      dup2\n      mstore\n      0x20\n      add\n      dup3\n      dup1\n      sload\n      tag_83\n      swap1\n      tag_82\n      jump\t// in\n    tag_83:\n      dup1\n      iszero\n      tag_84\n      jumpi\n      dup1\n      0x1f\n      lt\n      tag_85\n      jumpi\n      0x0100\n      dup1\n      dup4\n      sload\n      div\n      mul\n      dup4\n      mstore\n      swap2\n      0x20\n      add\n      swap2\n      jump(tag_84)\n    tag_85:\n      dup3\n      add\n      swap2\n      swap1\n      0x00\n      mstore\n      keccak256(0x00, 0x20)\n      swap1\n    tag_86:\n      dup2\n      sload\n      dup2\n      mstore\n      swap1\n      0x01\n      add\n      swap1\n      0x20\n      add\n      dup1\n      dup4\n      gt\n      tag_86\n      jumpi\n      dup3\n      swap1\n      sub\n      0x1f\n      and\n      dup3\n      add\n      swap2\n    tag_84:\n      pop\n      pop\n      pop\n      pop\n      pop\n      swap1\n      pop\n        /* \"wLONG/ERC20.sol\":2135:2233  function name() public view virtual override returns (string memory) {... */\n      swap1\n      jump\t// out\n        /* \"wLONG/ERC20.sol\":4412:4609  function approve(address spender, uint256 amount) public virtual override returns (bool) {... */\n    tag_27:\n        /* \"wLONG/ERC20.sol\":4495:4499  bool */\n      0x00\n        /* \"wLONG/Context.sol\":719:729  msg.sender */\n      caller\n        /* \"wLONG/ERC20.sol\":4549:4581  _approve(owner, spender, amount) */\n      tag_90\n        /* \"wLONG/Context.sol\":719:729  msg.sender */\n      dup2\n        /* \"wLONG/ERC20.sol\":4565:4572  spender */\n      dup6\n        /* \"wLONG/ERC20.sol\":4574:4580  amount */\n      dup6\n        /* \"wLONG/ERC20.sol\":4549:4557  _approve */\n      tag_91\n        /* \"wLONG/ERC20.sol\":4549:4581  _approve(owner, spender, amount) */\n      jump\t// in\n    tag_90:\n      pop\n        /* \"wLONG/ERC20.sol\":4598:4602  true */\n      0x01\n      swap4\n        /* \"wLONG/ERC20.sol\":4412:4609  function approve(address spender, uint256 amount) public virtual override returns (bool) {... */\n      swap3\n      pop\n      pop\n      pop\n      jump\t// out\n        /* \"wLONG/ERC20.sol\":5171:5457  function transferFrom(... */\n    tag_37:\n        /* \"wLONG/ERC20.sol\":5298:5302  bool */\n      0x00\n        /* \"wLONG/Context.sol\":719:729  msg.sender */\n      caller\n        /* \"wLONG/ERC20.sol\":5354:5392  _spendAllowance(from, spender, amount) */\n      tag_95\n        /* \"wLONG/ERC20.sol\":5370:5374  from */\n      dup6\n        /* \"wLONG/Context.sol\":719:729  msg.sender */\n      dup3\n        /* \"wLONG/ERC20.sol\":5385:5391  amount */\n      dup6\n        /* \"wLONG/ERC20.sol\":5354:5369  _spendAllowance */\n      tag_96\n        /* \"wLONG/ERC20.sol\":5354:5392  _spendAllowance(from, spender, amount) */\n      jump\t// in\n    tag_95:\n        /* \"wLONG/ERC20.sol\":5402:5429  _transfer(from, to, amount) */\n      tag_97\n        /* \"wLONG/ERC20.sol\":5412:5416  from */\n      dup6\n        /* \"wLONG/ERC20.sol\":5418:5420  to */\n      dup6\n        /* \"wLONG/ERC20.sol\":5422:5428  amount */\n      dup6\n        /* \"wLONG/ERC20.sol\":5402:5411  _transfer */\n      tag_98\n        /* \"wLONG/ERC20.sol\":5402:5429  _transfer(from, to, amount) */\n      jump\t// in\n    tag_97:\n      pop\n        /* \"wLONG/ERC20.sol\":5446:5450  true */\n      0x01\n      swap5\n        /* \"wLONG/ERC20.sol\":5171:5457  function transferFrom(... */\n      swap4\n      pop\n      pop\n      pop\n      pop\n      jump\t// out\n        /* \"wLONG/ERC20.sol\":5852:6088  function increaseAllowance(address spender, uint256 addedValue) public virtual returns (bool) {... */\n    tag_45:\n        /* \"wLONG/Context.sol\":719:729  msg.sender */\n      caller\n        /* \"wLONG/ERC20.sol\":5940:5944  bool */\n      0x00\n        /* \"wLONG/ERC20.sol\":6019:6037  _allowances[owner] */\n      dup2\n      dup2\n      mstore\n        /* \"wLONG/ERC20.sol\":6019:6030  _allowances */\n      0x01\n        /* \"wLONG/ERC20.sol\":6019:6037  _allowances[owner] */\n      0x20\n      swap1\n      dup2\n      mstore\n      0x40\n      dup1\n      dup4\n      keccak256\n      sub(shl(0xa0, 0x01), 0x01)\n        /* \"wLONG/ERC20.sol\":6019:6046  _allowances[owner][spender] */\n      dup8\n      and\n      dup5\n      mstore\n      swap1\n      swap2\n      mstore\n      dup2\n      keccak256\n      sload\n        /* \"wLONG/ERC20.sol\":5940:5944  bool */\n      swap1\n      swap2\n        /* \"wLONG/Context.sol\":719:729  msg.sender */\n      swap1\n        /* \"wLONG/ERC20.sol\":5994:6060  _approve(owner, spender, _allowances[owner][spender] + addedValue) */\n      tag_90\n      swap1\n        /* \"wLONG/Context.sol\":719:729  msg.sender */\n      dup3\n      swap1\n        /* \"wLONG/ERC20.sol\":6019:6046  _allowances[owner][spender] */\n      dup7\n      swap1\n        /* \"wLONG/ERC20.sol\":6019:6059  _allowances[owner][spender] + addedValue */\n      tag_103\n      swap1\n        /* \"wLONG/ERC20.sol\":6049:6059  addedValue */\n      dup8\n      swap1\n        /* \"wLONG/ERC20.sol\":6019:6059  _allowances[owner][spender] + addedValue */\n      tag_104\n      jump\t// in\n    tag_103:\n        /* \"wLONG/ERC20.sol\":5994:6002  _approve */\n      tag_91\n        /* \"wLONG/ERC20.sol\":5994:6060  _approve(owner, spender, _allowances[owner][spender] + addedValue) */\n      jump\t// in\n        /* \"wLONG/ERC20.sol\":2346:2448  function symbol() public view virtual override returns (string memory) {... */\n    tag_57:\n        /* \"wLONG/ERC20.sol\":2402:2415  string memory */\n      0x60\n        /* \"wLONG/ERC20.sol\":2434:2441  _symbol */\n      0x04\n        /* \"wLONG/ERC20.sol\":2427:2441  return _symbol */\n      dup1\n      sload\n      tag_81\n      swap1\n      tag_82\n      jump\t// in\n        /* \"wLONG/ERC20.sol\":6575:7004  function decreaseAllowance(address spender, uint256 subtractedValue) public virtual returns (bool) {... */\n    tag_61:\n        /* \"wLONG/Context.sol\":719:729  msg.sender */\n      caller\n        /* \"wLONG/ERC20.sol\":6668:6672  bool */\n      0x00\n        /* \"wLONG/ERC20.sol\":6749:6767  _allowances[owner] */\n      dup2\n      dup2\n      mstore\n        /* \"wLONG/ERC20.sol\":6749:6760  _allowances */\n      0x01\n        /* \"wLONG/ERC20.sol\":6749:6767  _allowances[owner] */\n      0x20\n      swap1\n      dup2\n      mstore\n      0x40\n      dup1\n      dup4\n      keccak256\n      sub(shl(0xa0, 0x01), 0x01)\n        /* \"wLONG/ERC20.sol\":6749:6776  _allowances[owner][spender] */\n      dup8\n      and\n      dup5\n      mstore\n      swap1\n      swap2\n      mstore\n      dup2\n      keccak256\n      sload\n        /* \"wLONG/ERC20.sol\":6668:6672  bool */\n      swap1\n      swap2\n        /* \"wLONG/Context.sol\":719:729  msg.sender */\n      swap1\n        /* \"wLONG/ERC20.sol\":6794:6829  currentAllowance >= subtractedValue */\n      dup4\n      dup2\n      lt\n      iszero\n        /* \"wLONG/ERC20.sol\":6786:6871  require(currentAllowance >= subtractedValue, \"ERC20: decreased allowance below zero\") */\n      tag_115\n      jumpi\n      mload(0x40)\n      shl(0xe5, 0x461bcd)\n      dup2\n      mstore\n        /* \"#utility.yul\":8156:8158   */\n      0x20\n        /* \"wLONG/ERC20.sol\":6786:6871  require(currentAllowance >= subtractedValue, \"ERC20: decreased allowance below zero\") */\n      0x04\n      dup3\n      add\n        /* \"#utility.yul\":8138:8159   */\n      mstore\n        /* \"#utility.yul\":8195:8197   */\n      0x25\n        /* \"#utility.yul\":8175:8193   */\n      0x24\n      dup3\n      add\n        /* \"#utility.yul\":8168:8198   */\n      mstore\n        /* \"#utility.yul\":8234:8268   */\n      0x45524332303a2064656372656173656420616c6c6f77616e63652062656c6f77\n        /* \"#utility.yul\":8214:8232   */\n      0x44\n      dup3\n      add\n        /* \"#utility.yul\":8207:8269   */\n      mstore\n      shl(0xd8, 0x207a65726f)\n        /* \"#utility.yul\":8285:8303   */\n      0x64\n      dup3\n      add\n        /* \"#utility.yul\":8278:8313   */\n      mstore\n        /* \"#utility.yul\":8330:8349   */\n      0x84\n      add\n        /* \"wLONG/ERC20.sol\":6786:6871  require(currentAllowance >= subtractedValue, \"ERC20: decreased allowance below zero\") */\n    tag_116:\n      mload(0x40)\n      dup1\n      swap2\n      sub\n      swap1\n      revert\n    tag_115:\n        /* \"wLONG/ERC20.sol\":6905:6965  _approve(owner, spender, currentAllowance - subtractedValue) */\n      tag_97\n        /* \"wLONG/ERC20.sol\":6914:6919  owner */\n      dup3\n        /* \"wLONG/ERC20.sol\":6921:6928  spender */\n      dup7\n        /* \"wLONG/ERC20.sol\":6949:6964  subtractedValue */\n      dup7\n        /* \"wLONG/ERC20.sol\":6930:6946  currentAllowance */\n      dup5\n        /* \"wLONG/ERC20.sol\":6930:6964  currentAllowance - subtractedValue */\n      sub\n        /* \"wLONG/ERC20.sol\":6905:6913  _approve */\n      tag_91\n        /* \"wLONG/ERC20.sol\":6905:6965  _approve(owner, spender, currentAllowance - subtractedValue) */\n      jump\t// in\n        /* \"wLONG/ERC20.sol\":3708:3897  function transfer(address to, uint256 amount) public virtual override returns (bool) {... */\n    tag_65:\n        /* \"wLONG/ERC20.sol\":3787:3791  bool */\n      0x00\n        /* \"wLONG/Context.sol\":719:729  msg.sender */\n      caller\n        /* \"wLONG/ERC20.sol\":3841:3869  _transfer(owner, to, amount) */\n      tag_90\n        /* \"wLONG/Context.sol\":719:729  msg.sender */\n      dup2\n        /* \"wLONG/ERC20.sol\":3858:3860  to */\n      dup6\n        /* \"wLONG/ERC20.sol\":3862:3868  amount */\n      dup6\n        /* \"wLONG/ERC20.sol\":3841:3850  _transfer */\n      tag_98\n        /* \"wLONG/ERC20.sol\":3841:3869  _transfer(owner, to, amount) */\n      jump\t// in\n        /* \"wLONG/wLONG.sol\":3129:5148  function mint(uint256 amount, bytes memory signature) external virtual returns (bool) {... */\n    tag_70:\n        /* \"wLONG/wLONG.sol\":3422:3426  0x20 */\n      0x20\n        /* \"wLONG/wLONG.sol\":3407:3427  add(signature, 0x20) */\n      dup2\n      dup2\n      add\n        /* \"wLONG/wLONG.sol\":3401:3428  mload(add(signature, 0x20)) */\n      mload\n        /* \"wLONG/wLONG.sol\":3467:3471  0x40 */\n      0x40\n        /* \"wLONG/wLONG.sol\":3452:3472  add(signature, 0x40) */\n      dup1\n      dup5\n      add\n        /* \"wLONG/wLONG.sol\":3446:3473  mload(add(signature, 0x40)) */\n      mload\n        /* \"wLONG/wLONG.sol\":3209:3213  bool */\n      0x00\n        /* \"wLONG/wLONG.sol\":3501:3509  _rset[r] */\n      dup4\n      dup2\n      mstore\n        /* \"wLONG/wLONG.sol\":3501:3506  _rset */\n      0x06\n        /* \"wLONG/wLONG.sol\":3501:3509  _rset[r] */\n      swap1\n      swap5\n      mstore\n      swap1\n      dup4\n      keccak256\n      sload\n        /* \"wLONG/Context.sol\":719:729  msg.sender */\n      caller\n      swap3\n        /* \"wLONG/wLONG.sol\":3401:3428  mload(add(signature, 0x20)) */\n      swap2\n        /* \"wLONG/wLONG.sol\":3446:3473  mload(add(signature, 0x40)) */\n      swap1\n        /* \"wLONG/wLONG.sol\":3501:3509  _rset[r] */\n      0xff\n      and\n        /* \"wLONG/wLONG.sol\":3500:3509  !_rset[r] */\n      iszero\n        /* \"wLONG/wLONG.sol\":3492:3546  require(!_rset[r], \"wLONG: key has already been used\") */\n      tag_124\n      jumpi\n      mload(0x40)\n      shl(0xe5, 0x461bcd)\n      dup2\n      mstore\n        /* \"#utility.yul\":6626:6628   */\n      0x20\n        /* \"wLONG/wLONG.sol\":3492:3546  require(!_rset[r], \"wLONG: key has already been used\") */\n      0x04\n      dup3\n      add\n        /* \"#utility.yul\":6608:6629   */\n      dup2\n      swap1\n      mstore\n        /* \"#utility.yul\":6645:6663   */\n      0x24\n      dup3\n      add\n        /* \"#utility.yul\":6638:6668   */\n      mstore\n        /* \"#utility.yul\":6704:6738   */\n      0x774c4f4e473a206b65792068617320616c7265616479206265656e2075736564\n        /* \"#utility.yul\":6684:6702   */\n      0x44\n      dup3\n      add\n        /* \"#utility.yul\":6677:6739   */\n      mstore\n        /* \"#utility.yul\":6756:6774   */\n      0x64\n      add\n        /* \"wLONG/wLONG.sol\":3492:3546  require(!_rset[r], \"wLONG: key has already been used\") */\n      tag_116\n        /* \"#utility.yul\":6424:6780   */\n      jump\n        /* \"wLONG/wLONG.sol\":3492:3546  require(!_rset[r], \"wLONG: key has already been used\") */\n    tag_124:\n        /* \"wLONG/wLONG.sol\":3579:3621  abi.encodePacked(minter,\"\\x19\\x01\",amount) */\n      mload(0x40)\n      not(0xffffffffffffffffffffffff)\n        /* \"#utility.yul\":2512:2514   */\n      0x60\n        /* \"#utility.yul\":2508:2523   */\n      dup6\n      swap1\n      shl\n        /* \"#utility.yul\":2504:2557   */\n      and\n        /* \"wLONG/wLONG.sol\":3579:3621  abi.encodePacked(minter,\"\\x19\\x01\",amount) */\n      0x20\n      dup3\n      add\n        /* \"#utility.yul\":2492:2558   */\n      mstore\n      shl(0xf0, 0x1901)\n        /* \"#utility.yul\":2574:2586   */\n      0x34\n      dup3\n      add\n        /* \"#utility.yul\":2567:2603   */\n      mstore\n        /* \"#utility.yul\":2619:2631   */\n      0x36\n      dup2\n      add\n        /* \"#utility.yul\":2612:2640   */\n      dup8\n      swap1\n      mstore\n        /* \"wLONG/wLONG.sol\":3557:3566  bytes32 h */\n      0x00\n      swap1\n        /* \"#utility.yul\":2656:2668   */\n      0x56\n      add\n        /* \"wLONG/wLONG.sol\":3579:3621  abi.encodePacked(minter,\"\\x19\\x01\",amount) */\n      0x40\n      dup1\n      mload\n      not(0x1f)\n      dup2\n      dup5\n      sub\n      add\n      dup2\n      mstore\n      dup3\n      dup3\n      mstore\n        /* \"wLONG/wLONG.sol\":3569:3622  keccak256(abi.encodePacked(minter,\"\\x19\\x01\",amount)) */\n      dup1\n      mload\n        /* \"wLONG/wLONG.sol\":3579:3621  abi.encodePacked(minter,\"\\x19\\x01\",amount) */\n      0x20\n        /* \"wLONG/wLONG.sol\":3569:3622  keccak256(abi.encodePacked(minter,\"\\x19\\x01\",amount)) */\n      swap2\n      dup3\n      add\n      keccak256\n        /* \"wLONG/wLONG.sol\":4575:4590  address signer1 */\n      0x00\n        /* \"wLONG/wLONG.sol\":4593:4622  ecrecover(h, uint8(27), r, s) */\n      dup1\n      dup6\n      mstore\n      swap2\n      dup5\n      add\n      dup1\n      dup5\n      mstore\n        /* \"#utility.yul\":3306:3331   */\n      dup2\n      swap1\n      mstore\n        /* \"wLONG/wLONG.sol\":4612:4614  27 */\n      0x1b\n        /* \"#utility.yul\":3347:3365   */\n      swap3\n      dup5\n      add\n        /* \"#utility.yul\":3340:3385   */\n      swap3\n      swap1\n      swap3\n      mstore\n        /* \"#utility.yul\":3401:3419   */\n      0x60\n      dup4\n      add\n        /* \"#utility.yul\":3394:3428   */\n      dup7\n      swap1\n      mstore\n        /* \"#utility.yul\":3444:3462   */\n      0x80\n      dup4\n      add\n        /* \"#utility.yul\":3437:3471   */\n      dup6\n      swap1\n      mstore\n        /* \"wLONG/wLONG.sol\":3569:3622  keccak256(abi.encodePacked(minter,\"\\x19\\x01\",amount)) */\n      swap1\n      swap3\n      pop\n        /* \"wLONG/wLONG.sol\":4575:4590  address signer1 */\n      swap1\n        /* \"wLONG/wLONG.sol\":4593:4622  ecrecover(h, uint8(27), r, s) */\n      0x01\n      swap1\n        /* \"#utility.yul\":3278:3297   */\n      0xa0\n      add\n        /* \"wLONG/wLONG.sol\":4593:4622  ecrecover(h, uint8(27), r, s) */\n      0x20\n      mload(0x40)\n      0x20\n      dup2\n      sub\n      swap1\n      dup1\n      dup5\n      sub\n      swap1\n      dup6\n      gas\n      staticcall\n      iszero\n      dup1\n      iszero\n      tag_132\n      jumpi\n      returndatasize\n      0x00\n      dup1\n      returndatacopy\n      revert(0x00, returndatasize)\n    tag_132:\n      pop\n      pop\n      0x40\n      dup1\n      mload\n      not(0x1f)\n      dup2\n      add\n      mload\n        /* \"wLONG/wLONG.sol\":4624:4639  address signer2 */\n      0x00\n        /* \"wLONG/wLONG.sol\":4642:4671  ecrecover(h, uint8(28), r, s) */\n      dup1\n      dup4\n      mstore\n        /* \"wLONG/wLONG.sol\":4593:4622  ecrecover(h, uint8(27), r, s) */\n      0x20\n        /* \"wLONG/wLONG.sol\":4642:4671  ecrecover(h, uint8(28), r, s) */\n      dup4\n      add\n      dup1\n      dup6\n      mstore\n        /* \"#utility.yul\":3306:3331   */\n      dup8\n      swap1\n      mstore\n        /* \"wLONG/wLONG.sol\":4661:4663  28 */\n      0x1c\n        /* \"#utility.yul\":3347:3365   */\n      swap4\n      dup4\n      add\n        /* \"#utility.yul\":3340:3385   */\n      swap4\n      swap1\n      swap4\n      mstore\n        /* \"#utility.yul\":3401:3419   */\n      0x60\n      dup3\n      add\n        /* \"#utility.yul\":3394:3428   */\n      dup9\n      swap1\n      mstore\n        /* \"#utility.yul\":3444:3462   */\n      0x80\n      dup3\n      add\n        /* \"#utility.yul\":3437:3471   */\n      dup8\n      swap1\n      mstore\n        /* \"wLONG/wLONG.sol\":4593:4622  ecrecover(h, uint8(27), r, s) */\n      swap4\n      pop\n        /* \"wLONG/wLONG.sol\":4624:4639  address signer2 */\n      swap1\n      swap2\n      pop\n        /* \"wLONG/wLONG.sol\":4642:4671  ecrecover(h, uint8(28), r, s) */\n      0x01\n      swap1\n        /* \"#utility.yul\":3278:3297   */\n      0xa0\n      add\n        /* \"wLONG/wLONG.sol\":4642:4671  ecrecover(h, uint8(28), r, s) */\n      0x20\n      mload(0x40)\n      0x20\n      dup2\n      sub\n      swap1\n      dup1\n      dup5\n      sub\n      swap1\n      dup6\n      gas\n      staticcall\n      iszero\n      dup1\n      iszero\n      tag_135\n      jumpi\n      returndatasize\n      0x00\n      dup1\n      returndatacopy\n      revert(0x00, returndatasize)\n    tag_135:\n      pop\n      pop\n      pop\n      mload(sub(mload(0x40), 0x20))\n        /* \"wLONG/wLONG.sol\":4624:4671  address signer2 = ecrecover(h, uint8(28), r, s) */\n      swap1\n      pop\n        /* \"wLONG/wLONG.sol\":4698:4705  owner() */\n      tag_136\n        /* \"wLONG/Ownable.sol\":1101:1107  _owner */\n      and(sub(shl(0xa0, 0x01), 0x01), sload(0x05))\n      swap1\n        /* \"wLONG/Ownable.sol\":1029:1114  function owner() public view virtual returns (address) {... */\n      jump\n        /* \"wLONG/wLONG.sol\":4698:4705  owner() */\n    tag_136:\n      sub(shl(0xa0, 0x01), 0x01)\n        /* \"wLONG/wLONG.sol\":4689:4705  signer1==owner() */\n      and\n        /* \"wLONG/wLONG.sol\":4689:4696  signer1 */\n      dup3\n      sub(shl(0xa0, 0x01), 0x01)\n        /* \"wLONG/wLONG.sol\":4689:4705  signer1==owner() */\n      and\n      eq\n        /* \"wLONG/wLONG.sol\":4689:4725  signer1==owner() || signer2==owner() */\n      dup1\n      tag_137\n      jumpi\n      pop\n        /* \"wLONG/Ownable.sol\":1101:1107  _owner */\n      sload(0x05)\n      sub(shl(0xa0, 0x01), 0x01)\n        /* \"wLONG/wLONG.sol\":4709:4725  signer2==owner() */\n      dup3\n      dup2\n      and\n        /* \"wLONG/Ownable.sol\":1101:1107  _owner */\n      swap2\n      and\n        /* \"wLONG/wLONG.sol\":4709:4725  signer2==owner() */\n      eq\n        /* \"wLONG/wLONG.sol\":4689:4725  signer1==owner() || signer2==owner() */\n    tag_137:\n        /* \"wLONG/wLONG.sol\":4681:4759  require(signer1==owner() || signer2==owner(), \"wLONG: signature is not valid\") */\n      tag_139\n      jumpi\n      mload(0x40)\n      shl(0xe5, 0x461bcd)\n      dup2\n      mstore\n        /* \"#utility.yul\":7798:7800   */\n      0x20\n        /* \"wLONG/wLONG.sol\":4681:4759  require(signer1==owner() || signer2==owner(), \"wLONG: signature is not valid\") */\n      0x04\n      dup3\n      add\n        /* \"#utility.yul\":7780:7801   */\n      mstore\n        /* \"#utility.yul\":7837:7839   */\n      0x1d\n        /* \"#utility.yul\":7817:7835   */\n      0x24\n      dup3\n      add\n        /* \"#utility.yul\":7810:7840   */\n      mstore\n        /* \"#utility.yul\":7876:7907   */\n      0x774c4f4e473a207369676e6174757265206973206e6f742076616c6964000000\n        /* \"#utility.yul\":7856:7874   */\n      0x44\n      dup3\n      add\n        /* \"#utility.yul\":7849:7908   */\n      mstore\n        /* \"#utility.yul\":7925:7943   */\n      0x64\n      add\n        /* \"wLONG/wLONG.sol\":4681:4759  require(signer1==owner() || signer2==owner(), \"wLONG: signature is not valid\") */\n      tag_116\n        /* \"#utility.yul\":7596:7949   */\n      jump\n        /* \"wLONG/wLONG.sol\":4681:4759  require(signer1==owner() || signer2==owner(), \"wLONG: signature is not valid\") */\n    tag_139:\n        /* \"wLONG/wLONG.sol\":4921:4929  _rset[r] */\n      0x00\n      dup6\n      dup2\n      mstore\n        /* \"wLONG/wLONG.sol\":4921:4926  _rset */\n      0x06\n        /* \"wLONG/wLONG.sol\":4921:4929  _rset[r] */\n      0x20\n      mstore\n      0x40\n      swap1\n      keccak256\n        /* \"wLONG/wLONG.sol\":4921:4934  _rset[r]=true */\n      dup1\n      sload\n      not(0xff)\n      and\n        /* \"wLONG/wLONG.sol\":4930:4934  true */\n      0x01\n        /* \"wLONG/wLONG.sol\":4921:4934  _rset[r]=true */\n      or\n      swap1\n      sstore\n        /* \"wLONG/wLONG.sol\":5020:5041  _mint(minter, amount) */\n      tag_142\n        /* \"wLONG/wLONG.sol\":5026:5032  minter */\n      dup7\n        /* \"wLONG/wLONG.sol\":5034:5040  amount */\n      dup11\n        /* \"wLONG/wLONG.sol\":5020:5025  _mint */\n      tag_143\n        /* \"wLONG/wLONG.sol\":5020:5041  _mint(minter, amount) */\n      jump\t// in\n    tag_142:\n      pop\n        /* \"wLONG/wLONG.sol\":5137:5141  true */\n      0x01\n      swap9\n        /* \"wLONG/wLONG.sol\":3129:5148  function mint(uint256 amount, bytes memory signature) external virtual returns (bool) {... */\n      swap8\n      pop\n      pop\n      pop\n      pop\n      pop\n      pop\n      pop\n      pop\n      jump\t// out\n        /* \"wLONG/Ownable.sol\":1917:2115  function transferOwnership(address newOwner) public virtual onlyOwner {... */\n    tag_79:\n        /* \"wLONG/Ownable.sol\":1101:1107  _owner */\n      and(sub(shl(0xa0, 0x01), 0x01), sload(0x05))\n        /* \"wLONG/Context.sol\":719:729  msg.sender */\n      caller\n        /* \"wLONG/Ownable.sol\":1241:1264  owner() == _msgSender() */\n      eq\n        /* \"wLONG/Ownable.sol\":1233:1301  require(owner() == _msgSender(), \"Ownable: caller is not the owner\") */\n      tag_148\n      jumpi\n      mload(0x40)\n      shl(0xe5, 0x461bcd)\n      dup2\n      mstore\n        /* \"#utility.yul\":6265:6267   */\n      0x20\n        /* \"wLONG/Ownable.sol\":1233:1301  require(owner() == _msgSender(), \"Ownable: caller is not the owner\") */\n      0x04\n      dup3\n      add\n        /* \"#utility.yul\":6247:6268   */\n      dup2\n      swap1\n      mstore\n        /* \"#utility.yul\":6284:6302   */\n      0x24\n      dup3\n      add\n        /* \"#utility.yul\":6277:6307   */\n      mstore\n        /* \"#utility.yul\":6343:6377   */\n      0x4f776e61626c653a2063616c6c6572206973206e6f7420746865206f776e6572\n        /* \"#utility.yul\":6323:6341   */\n      0x44\n      dup3\n      add\n        /* \"#utility.yul\":6316:6378   */\n      mstore\n        /* \"#utility.yul\":6395:6413   */\n      0x64\n      add\n        /* \"wLONG/Ownable.sol\":1233:1301  require(owner() == _msgSender(), \"Ownable: caller is not the owner\") */\n      tag_116\n        /* \"#utility.yul\":6063:6419   */\n      jump\n        /* \"wLONG/Ownable.sol\":1233:1301  require(owner() == _msgSender(), \"Ownable: caller is not the owner\") */\n    tag_148:\n      sub(shl(0xa0, 0x01), 0x01)\n        /* \"wLONG/Ownable.sol\":2005:2027  newOwner != address(0) */\n      dup2\n      and\n        /* \"wLONG/Ownable.sol\":1997:2070  require(newOwner != address(0), \"Ownable: new owner is the zero address\") */\n      tag_152\n      jumpi\n      mload(0x40)\n      shl(0xe5, 0x461bcd)\n      dup2\n      mstore\n        /* \"#utility.yul\":4690:4692   */\n      0x20\n        /* \"wLONG/Ownable.sol\":1997:2070  require(newOwner != address(0), \"Ownable: new owner is the zero address\") */\n      0x04\n      dup3\n      add\n        /* \"#utility.yul\":4672:4693   */\n      mstore\n        /* \"#utility.yul\":4729:4731   */\n      0x26\n        /* \"#utility.yul\":4709:4727   */\n      0x24\n      dup3\n      add\n        /* \"#utility.yul\":4702:4732   */\n      mstore\n        /* \"#utility.yul\":4768:4802   */\n      0x4f776e61626c653a206e6577206f776e657220697320746865207a65726f2061\n        /* \"#utility.yul\":4748:4766   */\n      0x44\n      dup3\n      add\n        /* \"#utility.yul\":4741:4803   */\n      mstore\n      shl(0xd0, 0x646472657373)\n        /* \"#utility.yul\":4819:4837   */\n      0x64\n      dup3\n      add\n        /* \"#utility.yul\":4812:4848   */\n      mstore\n        /* \"#utility.yul\":4865:4884   */\n      0x84\n      add\n        /* \"wLONG/Ownable.sol\":1997:2070  require(newOwner != address(0), \"Ownable: new owner is the zero address\") */\n      tag_116\n        /* \"#utility.yul\":4488:4890   */\n      jump\n        /* \"wLONG/Ownable.sol\":1997:2070  require(newOwner != address(0), \"Ownable: new owner is the zero address\") */\n    tag_152:\n        /* \"wLONG/Ownable.sol\":2080:2108  _transferOwnership(newOwner) */\n      tag_155\n        /* \"wLONG/Ownable.sol\":2099:2107  newOwner */\n      dup2\n        /* \"wLONG/Ownable.sol\":2080:2098  _transferOwnership */\n      tag_156\n        /* \"wLONG/Ownable.sol\":2080:2108  _transferOwnership(newOwner) */\n      jump\t// in\n    tag_155:\n        /* \"wLONG/Ownable.sol\":1917:2115  function transferOwnership(address newOwner) public virtual onlyOwner {... */\n      pop\n      jump\t// out\n        /* \"wLONG/ERC20.sol\":10118:10488  function _approve(... */\n    tag_91:\n      sub(shl(0xa0, 0x01), 0x01)\n        /* \"wLONG/ERC20.sol\":10249:10268  owner != address(0) */\n      dup4\n      and\n        /* \"wLONG/ERC20.sol\":10241:10309  require(owner != address(0), \"ERC20: approve from the zero address\") */\n      tag_159\n      jumpi\n      mload(0x40)\n      shl(0xe5, 0x461bcd)\n      dup2\n      mstore\n        /* \"#utility.yul\":7393:7395   */\n      0x20\n        /* \"wLONG/ERC20.sol\":10241:10309  require(owner != address(0), \"ERC20: approve from the zero address\") */\n      0x04\n      dup3\n      add\n        /* \"#utility.yul\":7375:7396   */\n      mstore\n        /* \"#utility.yul\":7432:7434   */\n      0x24\n        /* \"#utility.yul\":7412:7430   */\n      dup1\n      dup3\n      add\n        /* \"#utility.yul\":7405:7435   */\n      mstore\n        /* \"#utility.yul\":7471:7505   */\n      0x45524332303a20617070726f76652066726f6d20746865207a65726f20616464\n        /* \"#utility.yul\":7451:7469   */\n      0x44\n      dup3\n      add\n        /* \"#utility.yul\":7444:7506   */\n      mstore\n      shl(0xe0, 0x72657373)\n        /* \"#utility.yul\":7522:7540   */\n      0x64\n      dup3\n      add\n        /* \"#utility.yul\":7515:7549   */\n      mstore\n        /* \"#utility.yul\":7566:7585   */\n      0x84\n      add\n        /* \"wLONG/ERC20.sol\":10241:10309  require(owner != address(0), \"ERC20: approve from the zero address\") */\n      tag_116\n        /* \"#utility.yul\":7191:7591   */\n      jump\n        /* \"wLONG/ERC20.sol\":10241:10309  require(owner != address(0), \"ERC20: approve from the zero address\") */\n    tag_159:\n      sub(shl(0xa0, 0x01), 0x01)\n        /* \"wLONG/ERC20.sol\":10327:10348  spender != address(0) */\n      dup3\n      and\n        /* \"wLONG/ERC20.sol\":10319:10387  require(spender != address(0), \"ERC20: approve to the zero address\") */\n      tag_162\n      jumpi\n      mload(0x40)\n      shl(0xe5, 0x461bcd)\n      dup2\n      mstore\n        /* \"#utility.yul\":5097:5099   */\n      0x20\n        /* \"wLONG/ERC20.sol\":10319:10387  require(spender != address(0), \"ERC20: approve to the zero address\") */\n      0x04\n      dup3\n      add\n        /* \"#utility.yul\":5079:5100   */\n      mstore\n        /* \"#utility.yul\":5136:5138   */\n      0x22\n        /* \"#utility.yul\":5116:5134   */\n      0x24\n      dup3\n      add\n        /* \"#utility.yul\":5109:5139   */\n      mstore\n        /* \"#utility.yul\":5175:5209   */\n      0x45524332303a20617070726f766520746f20746865207a65726f206164647265\n        /* \"#utility.yul\":5155:5173   */\n      0x44\n      dup3\n      add\n        /* \"#utility.yul\":5148:5210   */\n      mstore\n      shl(0xf0, 0x7373)\n        /* \"#utility.yul\":5226:5244   */\n      0x64\n      dup3\n      add\n        /* \"#utility.yul\":5219:5251   */\n      mstore\n        /* \"#utility.yul\":5268:5287   */\n      0x84\n      add\n        /* \"wLONG/ERC20.sol\":10319:10387  require(spender != address(0), \"ERC20: approve to the zero address\") */\n      tag_116\n        /* \"#utility.yul\":4895:5293   */\n      jump\n        /* \"wLONG/ERC20.sol\":10319:10387  require(spender != address(0), \"ERC20: approve to the zero address\") */\n    tag_162:\n      sub(shl(0xa0, 0x01), 0x01)\n        /* \"wLONG/ERC20.sol\":10398:10416  _allowances[owner] */\n      dup4\n      dup2\n      and\n      0x00\n      dup2\n      dup2\n      mstore\n        /* \"wLONG/ERC20.sol\":10398:10409  _allowances */\n      0x01\n        /* \"wLONG/ERC20.sol\":10398:10416  _allowances[owner] */\n      0x20\n      swap1\n      dup2\n      mstore\n      0x40\n      dup1\n      dup4\n      keccak256\n        /* \"wLONG/ERC20.sol\":10398:10425  _allowances[owner][spender] */\n      swap5\n      dup8\n      and\n      dup1\n      dup5\n      mstore\n      swap5\n      dup3\n      mstore\n      swap2\n      dup3\n      swap1\n      keccak256\n        /* \"wLONG/ERC20.sol\":10398:10434  _allowances[owner][spender] = amount */\n      dup6\n      swap1\n      sstore\n        /* \"wLONG/ERC20.sol\":10449:10481  Approval(owner, spender, amount) */\n      swap1\n      mload\n        /* \"#utility.yul\":8866:8891   */\n      dup5\n      dup2\n      mstore\n        /* \"wLONG/ERC20.sol\":10449:10481  Approval(owner, spender, amount) */\n      0x8c5be1e5ebec7d5bd14f71427d1e84f3dd0314c0f7b2291e5b200ac8c7c3b925\n      swap2\n        /* \"#utility.yul\":8839:8857   */\n      add\n        /* \"wLONG/ERC20.sol\":10449:10481  Approval(owner, spender, amount) */\n      mload(0x40)\n      dup1\n      swap2\n      sub\n      swap1\n      log3\n        /* \"wLONG/ERC20.sol\":10118:10488  function _approve(... */\n      pop\n      pop\n      pop\n      jump\t// out\n        /* \"wLONG/ERC20.sol\":10765:11206  function _spendAllowance(... */\n    tag_96:\n      sub(shl(0xa0, 0x01), 0x01)\n        /* \"wLONG/ERC20.sol\":4070:4088  _allowances[owner] */\n      dup4\n      dup2\n      and\n        /* \"wLONG/ERC20.sol\":10895:10919  uint256 currentAllowance */\n      0x00\n        /* \"wLONG/ERC20.sol\":4070:4088  _allowances[owner] */\n      swap1\n      dup2\n      mstore\n        /* \"wLONG/ERC20.sol\":4070:4081  _allowances */\n      0x01\n        /* \"wLONG/ERC20.sol\":4070:4088  _allowances[owner] */\n      0x20\n      swap1\n      dup2\n      mstore\n      0x40\n      dup1\n      dup4\n      keccak256\n        /* \"wLONG/ERC20.sol\":4070:4097  _allowances[owner][spender] */\n      swap4\n      dup7\n      and\n      dup4\n      mstore\n      swap3\n      swap1\n      mstore\n      keccak256\n      sload\n      not(0x00)\n        /* \"wLONG/ERC20.sol\":10961:10998  currentAllowance != type(uint256).max */\n      dup2\n      eq\n        /* \"wLONG/ERC20.sol\":10957:11200  if (currentAllowance != type(uint256).max) {... */\n      tag_172\n      jumpi\n        /* \"wLONG/ERC20.sol\":11042:11048  amount */\n      dup2\n        /* \"wLONG/ERC20.sol\":11022:11038  currentAllowance */\n      dup2\n        /* \"wLONG/ERC20.sol\":11022:11048  currentAllowance >= amount */\n      lt\n      iszero\n        /* \"wLONG/ERC20.sol\":11014:11082  require(currentAllowance >= amount, \"ERC20: insufficient allowance\") */\n      tag_169\n      jumpi\n      mload(0x40)\n      shl(0xe5, 0x461bcd)\n      dup2\n      mstore\n        /* \"#utility.yul\":5500:5502   */\n      0x20\n        /* \"wLONG/ERC20.sol\":11014:11082  require(currentAllowance >= amount, \"ERC20: insufficient allowance\") */\n      0x04\n      dup3\n      add\n        /* \"#utility.yul\":5482:5503   */\n      mstore\n        /* \"#utility.yul\":5539:5541   */\n      0x1d\n        /* \"#utility.yul\":5519:5537   */\n      0x24\n      dup3\n      add\n        /* \"#utility.yul\":5512:5542   */\n      mstore\n        /* \"#utility.yul\":5578:5609   */\n      0x45524332303a20696e73756666696369656e7420616c6c6f77616e6365000000\n        /* \"#utility.yul\":5558:5576   */\n      0x44\n      dup3\n      add\n        /* \"#utility.yul\":5551:5610   */\n      mstore\n        /* \"#utility.yul\":5627:5645   */\n      0x64\n      add\n        /* \"wLONG/ERC20.sol\":11014:11082  require(currentAllowance >= amount, \"ERC20: insufficient allowance\") */\n      tag_116\n        /* \"#utility.yul\":5298:5651   */\n      jump\n        /* \"wLONG/ERC20.sol\":11014:11082  require(currentAllowance >= amount, \"ERC20: insufficient allowance\") */\n    tag_169:\n        /* \"wLONG/ERC20.sol\":11124:11175  _approve(owner, spender, currentAllowance - amount) */\n      tag_172\n        /* \"wLONG/ERC20.sol\":11133:11138  owner */\n      dup5\n        /* \"wLONG/ERC20.sol\":11140:11147  spender */\n      dup5\n        /* \"wLONG/ERC20.sol\":11168:11174  amount */\n      dup5\n        /* \"wLONG/ERC20.sol\":11149:11165  currentAllowance */\n      dup5\n        /* \"wLONG/ERC20.sol\":11149:11174  currentAllowance - amount */\n      sub\n        /* \"wLONG/ERC20.sol\":11124:11132  _approve */\n      tag_91\n        /* \"wLONG/ERC20.sol\":11124:11175  _approve(owner, spender, currentAllowance - amount) */\n      jump\t// in\n    tag_172:\n        /* \"wLONG/ERC20.sol\":10885:11206  {... */\n      pop\n        /* \"wLONG/ERC20.sol\":10765:11206  function _spendAllowance(... */\n      pop\n      pop\n      pop\n      jump\t// out\n        /* \"wLONG/ERC20.sol\":7467:8122  function _transfer(... */\n    tag_98:\n      sub(shl(0xa0, 0x01), 0x01)\n        /* \"wLONG/ERC20.sol\":7593:7611  from != address(0) */\n      dup4\n      and\n        /* \"wLONG/ERC20.sol\":7585:7653  require(from != address(0), \"ERC20: transfer from the zero address\") */\n      tag_174\n      jumpi\n      mload(0x40)\n      shl(0xe5, 0x461bcd)\n      dup2\n      mstore\n        /* \"#utility.yul\":6987:6989   */\n      0x20\n        /* \"wLONG/ERC20.sol\":7585:7653  require(from != address(0), \"ERC20: transfer from the zero address\") */\n      0x04\n      dup3\n      add\n        /* \"#utility.yul\":6969:6990   */\n      mstore\n        /* \"#utility.yul\":7026:7028   */\n      0x25\n        /* \"#utility.yul\":7006:7024   */\n      0x24\n      dup3\n      add\n        /* \"#utility.yul\":6999:7029   */\n      mstore\n        /* \"#utility.yul\":7065:7099   */\n      0x45524332303a207472616e736665722066726f6d20746865207a65726f206164\n        /* \"#utility.yul\":7045:7063   */\n      0x44\n      dup3\n      add\n        /* \"#utility.yul\":7038:7100   */\n      mstore\n      shl(0xd8, 0x6472657373)\n        /* \"#utility.yul\":7116:7134   */\n      0x64\n      dup3\n      add\n        /* \"#utility.yul\":7109:7144   */\n      mstore\n        /* \"#utility.yul\":7161:7180   */\n      0x84\n      add\n        /* \"wLONG/ERC20.sol\":7585:7653  require(from != address(0), \"ERC20: transfer from the zero address\") */\n      tag_116\n        /* \"#utility.yul\":6785:7186   */\n      jump\n        /* \"wLONG/ERC20.sol\":7585:7653  require(from != address(0), \"ERC20: transfer from the zero address\") */\n    tag_174:\n      sub(shl(0xa0, 0x01), 0x01)\n        /* \"wLONG/ERC20.sol\":7671:7687  to != address(0) */\n      dup3\n      and\n        /* \"wLONG/ERC20.sol\":7663:7727  require(to != address(0), \"ERC20: transfer to the zero address\") */\n      tag_177\n      jumpi\n      mload(0x40)\n      shl(0xe5, 0x461bcd)\n      dup2\n      mstore\n        /* \"#utility.yul\":4286:4288   */\n      0x20\n        /* \"wLONG/ERC20.sol\":7663:7727  require(to != address(0), \"ERC20: transfer to the zero address\") */\n      0x04\n      dup3\n      add\n        /* \"#utility.yul\":4268:4289   */\n      mstore\n        /* \"#utility.yul\":4325:4327   */\n      0x23\n        /* \"#utility.yul\":4305:4323   */\n      0x24\n      dup3\n      add\n        /* \"#utility.yul\":4298:4328   */\n      mstore\n        /* \"#utility.yul\":4364:4398   */\n      0x45524332303a207472616e7366657220746f20746865207a65726f2061646472\n        /* \"#utility.yul\":4344:4362   */\n      0x44\n      dup3\n      add\n        /* \"#utility.yul\":4337:4399   */\n      mstore\n      shl(0xe8, 0x657373)\n        /* \"#utility.yul\":4415:4433   */\n      0x64\n      dup3\n      add\n        /* \"#utility.yul\":4408:4441   */\n      mstore\n        /* \"#utility.yul\":4458:4477   */\n      0x84\n      add\n        /* \"wLONG/ERC20.sol\":7663:7727  require(to != address(0), \"ERC20: transfer to the zero address\") */\n      tag_116\n        /* \"#utility.yul\":4084:4483   */\n      jump\n        /* \"wLONG/ERC20.sol\":7663:7727  require(to != address(0), \"ERC20: transfer to the zero address\") */\n    tag_177:\n      sub(shl(0xa0, 0x01), 0x01)\n        /* \"wLONG/ERC20.sol\":7811:7826  _balances[from] */\n      dup4\n      and\n        /* \"wLONG/ERC20.sol\":7789:7808  uint256 fromBalance */\n      0x00\n        /* \"wLONG/ERC20.sol\":7811:7826  _balances[from] */\n      swap1\n      dup2\n      mstore\n      0x20\n      dup2\n      swap1\n      mstore\n      0x40\n      swap1\n      keccak256\n      sload\n        /* \"wLONG/ERC20.sol\":7844:7865  fromBalance >= amount */\n      dup2\n      dup2\n      lt\n      iszero\n        /* \"wLONG/ERC20.sol\":7836:7908  require(fromBalance >= amount, \"ERC20: transfer amount exceeds balance\") */\n      tag_180\n      jumpi\n      mload(0x40)\n      shl(0xe5, 0x461bcd)\n      dup2\n      mstore\n        /* \"#utility.yul\":5858:5860   */\n      0x20\n        /* \"wLONG/ERC20.sol\":7836:7908  require(fromBalance >= amount, \"ERC20: transfer amount exceeds balance\") */\n      0x04\n      dup3\n      add\n        /* \"#utility.yul\":5840:5861   */\n      mstore\n        /* \"#utility.yul\":5897:5899   */\n      0x26\n        /* \"#utility.yul\":5877:5895   */\n      0x24\n      dup3\n      add\n        /* \"#utility.yul\":5870:5900   */\n      mstore\n        /* \"#utility.yul\":5936:5970   */\n      0x45524332303a207472616e7366657220616d6f756e7420657863656564732062\n        /* \"#utility.yul\":5916:5934   */\n      0x44\n      dup3\n      add\n        /* \"#utility.yul\":5909:5971   */\n      mstore\n      shl(0xd0, 0x616c616e6365)\n        /* \"#utility.yul\":5987:6005   */\n      0x64\n      dup3\n      add\n        /* \"#utility.yul\":5980:6016   */\n      mstore\n        /* \"#utility.yul\":6033:6052   */\n      0x84\n      add\n        /* \"wLONG/ERC20.sol\":7836:7908  require(fromBalance >= amount, \"ERC20: transfer amount exceeds balance\") */\n      tag_116\n        /* \"#utility.yul\":5656:6058   */\n      jump\n        /* \"wLONG/ERC20.sol\":7836:7908  require(fromBalance >= amount, \"ERC20: transfer amount exceeds balance\") */\n    tag_180:\n      sub(shl(0xa0, 0x01), 0x01)\n        /* \"wLONG/ERC20.sol\":7942:7957  _balances[from] */\n      dup1\n      dup6\n      and\n        /* \"wLONG/ERC20.sol\":7942:7951  _balances */\n      0x00\n        /* \"wLONG/ERC20.sol\":7942:7957  _balances[from] */\n      swap1\n      dup2\n      mstore\n      0x20\n      dup2\n      swap1\n      mstore\n      0x40\n      dup1\n      dup3\n      keccak256\n        /* \"wLONG/ERC20.sol\":7960:7980  fromBalance - amount */\n      dup6\n      dup6\n      sub\n        /* \"wLONG/ERC20.sol\":7942:7980  _balances[from] = fromBalance - amount */\n      swap1\n      sstore\n        /* \"wLONG/ERC20.sol\":8000:8013  _balances[to] */\n      swap2\n      dup6\n      and\n      dup2\n      mstore\n      swap1\n      dup2\n      keccak256\n        /* \"wLONG/ERC20.sol\":8000:8023  _balances[to] += amount */\n      dup1\n      sload\n        /* \"wLONG/ERC20.sol\":7974:7980  amount */\n      dup5\n      swap3\n        /* \"wLONG/ERC20.sol\":7942:7951  _balances */\n      swap1\n        /* \"wLONG/ERC20.sol\":8000:8023  _balances[to] += amount */\n      tag_183\n      swap1\n        /* \"wLONG/ERC20.sol\":7974:7980  amount */\n      dup5\n      swap1\n        /* \"wLONG/ERC20.sol\":8000:8023  _balances[to] += amount */\n      tag_104\n      jump\t// in\n    tag_183:\n      swap3\n      pop\n      pop\n      dup2\n      swap1\n      sstore\n      pop\n        /* \"wLONG/ERC20.sol\":8054:8056  to */\n      dup3\n      sub(shl(0xa0, 0x01), 0x01)\n        /* \"wLONG/ERC20.sol\":8039:8065  Transfer(from, to, amount) */\n      and\n        /* \"wLONG/ERC20.sol\":8048:8052  from */\n      dup5\n      sub(shl(0xa0, 0x01), 0x01)\n        /* \"wLONG/ERC20.sol\":8039:8065  Transfer(from, to, amount) */\n      and\n      0xddf252ad1be2c89b69c2b068fc378daa952ba7f163c4a11628f55a4df523b3ef\n        /* \"wLONG/ERC20.sol\":8058:8064  amount */\n      dup5\n        /* \"wLONG/ERC20.sol\":8039:8065  Transfer(from, to, amount) */\n      mload(0x40)\n      tag_184\n      swap2\n        /* \"#utility.yul\":8866:8891   */\n      dup2\n      mstore\n        /* \"#utility.yul\":8854:8856   */\n      0x20\n        /* \"#utility.yul\":8839:8857   */\n      add\n      swap1\n        /* \"#utility.yul\":8720:8897   */\n      jump\n        /* \"wLONG/ERC20.sol\":8039:8065  Transfer(from, to, amount) */\n    tag_184:\n      mload(0x40)\n      dup1\n      swap2\n      sub\n      swap1\n      log3\n        /* \"wLONG/ERC20.sol\":7575:8122  {... */\n      pop\n        /* \"wLONG/ERC20.sol\":7467:8122  function _transfer(... */\n      pop\n      pop\n      pop\n      jump\t// out\n        /* \"wLONG/ERC20.sol\":8398:8791  function _mint(address account, uint256 amount) internal virtual {... */\n    tag_143:\n      sub(shl(0xa0, 0x01), 0x01)\n        /* \"wLONG/ERC20.sol\":8481:8502  account != address(0) */\n      dup3\n      and\n        /* \"wLONG/ERC20.sol\":8473:8538  require(account != address(0), \"ERC20: mint to the zero address\") */\n      tag_186\n      jumpi\n      mload(0x40)\n      shl(0xe5, 0x461bcd)\n      dup2\n      mstore\n        /* \"#utility.yul\":8562:8564   */\n      0x20\n        /* \"wLONG/ERC20.sol\":8473:8538  require(account != address(0), \"ERC20: mint to the zero address\") */\n      0x04\n      dup3\n      add\n        /* \"#utility.yul\":8544:8565   */\n      mstore\n        /* \"#utility.yul\":8601:8603   */\n      0x1f\n        /* \"#utility.yul\":8581:8599   */\n      0x24\n      dup3\n      add\n        /* \"#utility.yul\":8574:8604   */\n      mstore\n        /* \"#utility.yul\":8640:8673   */\n      0x45524332303a206d696e7420746f20746865207a65726f206164647265737300\n        /* \"#utility.yul\":8620:8638   */\n      0x44\n      dup3\n      add\n        /* \"#utility.yul\":8613:8674   */\n      mstore\n        /* \"#utility.yul\":8691:8709   */\n      0x64\n      add\n        /* \"wLONG/ERC20.sol\":8473:8538  require(account != address(0), \"ERC20: mint to the zero address\") */\n      tag_116\n        /* \"#utility.yul\":8360:8715   */\n      jump\n        /* \"wLONG/ERC20.sol\":8473:8538  require(account != address(0), \"ERC20: mint to the zero address\") */\n    tag_186:\n        /* \"wLONG/ERC20.sol\":8627:8633  amount */\n      dup1\n        /* \"wLONG/ERC20.sol\":8611:8623  _totalSupply */\n      0x02\n      0x00\n        /* \"wLONG/ERC20.sol\":8611:8633  _totalSupply += amount */\n      dup3\n      dup3\n      sload\n      tag_189\n      swap2\n      swap1\n      tag_104\n      jump\t// in\n    tag_189:\n      swap1\n      swap2\n      sstore\n      pop\n      pop\n      sub(shl(0xa0, 0x01), 0x01)\n        /* \"wLONG/ERC20.sol\":8643:8661  _balances[account] */\n      dup3\n      and\n        /* \"wLONG/ERC20.sol\":8643:8652  _balances */\n      0x00\n        /* \"wLONG/ERC20.sol\":8643:8661  _balances[account] */\n      swap1\n      dup2\n      mstore\n      0x20\n      dup2\n      swap1\n      mstore\n      0x40\n      dup2\n      keccak256\n        /* \"wLONG/ERC20.sol\":8643:8671  _balances[account] += amount */\n      dup1\n      sload\n        /* \"wLONG/ERC20.sol\":8665:8671  amount */\n      dup4\n      swap3\n        /* \"wLONG/ERC20.sol\":8643:8652  _balances */\n      swap1\n        /* \"wLONG/ERC20.sol\":8643:8671  _balances[account] += amount */\n      tag_190\n      swap1\n        /* \"wLONG/ERC20.sol\":8665:8671  amount */\n      dup5\n      swap1\n        /* \"wLONG/ERC20.sol\":8643:8671  _balances[account] += amount */\n      tag_104\n      jump\t// in\n    tag_190:\n      swap1\n      swap2\n      sstore\n      pop\n      pop\n        /* \"wLONG/ERC20.sol\":8686:8723  Transfer(address(0), account, amount) */\n      mload(0x40)\n        /* \"#utility.yul\":8866:8891   */\n      dup2\n      dup2\n      mstore\n      sub(shl(0xa0, 0x01), 0x01)\n        /* \"wLONG/ERC20.sol\":8686:8723  Transfer(address(0), account, amount) */\n      dup4\n      and\n      swap1\n        /* \"wLONG/ERC20.sol\":8703:8704  0 */\n      0x00\n      swap1\n        /* \"wLONG/ERC20.sol\":8686:8723  Transfer(address(0), account, amount) */\n      0xddf252ad1be2c89b69c2b068fc378daa952ba7f163c4a11628f55a4df523b3ef\n      swap1\n        /* \"#utility.yul\":8854:8856   */\n      0x20\n        /* \"#utility.yul\":8839:8857   */\n      add\n        /* \"wLONG/ERC20.sol\":8686:8723  Transfer(address(0), account, amount) */\n      mload(0x40)\n      dup1\n      swap2\n      sub\n      swap1\n      log3\n        /* \"wLONG/ERC20.sol\":8398:8791  function _mint(address account, uint256 amount) internal virtual {... */\n      pop\n      pop\n      jump\t// out\n        /* \"wLONG/Ownable.sol\":2269:2456  function _transferOwnership(address newOwner) internal virtual {... */\n    tag_156:\n        /* \"wLONG/Ownable.sol\":2361:2367  _owner */\n      0x05\n      dup1\n      sload\n      sub(shl(0xa0, 0x01), 0x01)\n        /* \"wLONG/Ownable.sol\":2377:2394  _owner = newOwner */\n      dup4\n      dup2\n      and\n      not(sub(shl(0xa0, 0x01), 0x01))\n      dup4\n      and\n      dup2\n      or\n      swap1\n      swap4\n      sstore\n        /* \"wLONG/Ownable.sol\":2409:2449  OwnershipTransferred(oldOwner, newOwner) */\n      mload(0x40)\n        /* \"wLONG/Ownable.sol\":2361:2367  _owner */\n      swap2\n      and\n      swap2\n        /* \"wLONG/Ownable.sol\":2377:2394  _owner = newOwner */\n      swap1\n        /* \"wLONG/Ownable.sol\":2361:2367  _owner */\n      dup3\n      swap1\n        /* \"wLONG/Ownable.sol\":2409:2449  OwnershipTransferred(oldOwner, newOwner) */\n      0x8be0079c531659141344cd1fd0a4f28419497f9722a3daafe3b4186f6b6457e0\n      swap1\n        /* \"wLONG/Ownable.sol\":2342:2358  address oldOwner */\n      0x00\n      swap1\n        /* \"wLONG/Ownable.sol\":2409:2449  OwnershipTransferred(oldOwner, newOwner) */\n      log3\n        /* \"wLONG/Ownable.sol\":2332:2456  {... */\n      pop\n        /* \"wLONG/Ownable.sol\":2269:2456  function _transferOwnership(address newOwner) internal virtual {... */\n      pop\n      jump\t// out\n        /* \"#utility.yul\":14:187   */\n    tag_194:\n        /* \"#utility.yul\":82:102   */\n      dup1\n      calldataload\n      sub(shl(0xa0, 0x01), 0x01)\n        /* \"#utility.yul\":131:162   */\n      dup2\n      and\n        /* \"#utility.yul\":121:163   */\n      dup2\n      eq\n        /* \"#utility.yul\":111:181   */\n      tag_196\n      jumpi\n        /* \"#utility.yul\":177:178   */\n      0x00\n        /* \"#utility.yul\":174:175   */\n      dup1\n        /* \"#utility.yul\":167:179   */\n      revert\n        /* \"#utility.yul\":111:181   */\n    tag_196:\n        /* \"#utility.yul\":14:187   */\n      swap2\n      swap1\n      pop\n      jump\t// out\n        /* \"#utility.yul\":192:378   */\n    tag_49:\n        /* \"#utility.yul\":251:257   */\n      0x00\n        /* \"#utility.yul\":304:306   */\n      0x20\n        /* \"#utility.yul\":292:301   */\n      dup3\n        /* \"#utility.yul\":283:290   */\n      dup5\n        /* \"#utility.yul\":279:302   */\n      sub\n        /* \"#utility.yul\":275:307   */\n      slt\n        /* \"#utility.yul\":272:324   */\n      iszero\n      tag_198\n      jumpi\n        /* \"#utility.yul\":320:321   */\n      0x00\n        /* \"#utility.yul\":317:318   */\n      dup1\n        /* \"#utility.yul\":310:322   */\n      revert\n        /* \"#utility.yul\":272:324   */\n    tag_198:\n        /* \"#utility.yul\":343:372   */\n      tag_199\n        /* \"#utility.yul\":362:371   */\n      dup3\n        /* \"#utility.yul\":343:372   */\n      tag_194\n      jump\t// in\n    tag_199:\n        /* \"#utility.yul\":333:372   */\n      swap4\n        /* \"#utility.yul\":192:378   */\n      swap3\n      pop\n      pop\n      pop\n      jump\t// out\n        /* \"#utility.yul\":383:643   */\n    tag_74:\n        /* \"#utility.yul\":451:457   */\n      0x00\n        /* \"#utility.yul\":459:465   */\n      dup1\n        /* \"#utility.yul\":512:514   */\n      0x40\n        /* \"#utility.yul\":500:509   */\n      dup4\n        /* \"#utility.yul\":491:498   */\n      dup6\n        /* \"#utility.yul\":487:510   */\n      sub\n        /* \"#utility.yul\":483:515   */\n      slt\n        /* \"#utility.yul\":480:532   */\n      iszero\n      tag_201\n      jumpi\n        /* \"#utility.yul\":528:529   */\n      0x00\n        /* \"#utility.yul\":525:526   */\n      dup1\n        /* \"#utility.yul\":518:530   */\n      revert\n        /* \"#utility.yul\":480:532   */\n    tag_201:\n        /* \"#utility.yul\":551:580   */\n      tag_202\n        /* \"#utility.yul\":570:579   */\n      dup4\n        /* \"#utility.yul\":551:580   */\n      tag_194\n      jump\t// in\n    tag_202:\n        /* \"#utility.yul\":541:580   */\n      swap2\n      pop\n        /* \"#utility.yul\":599:637   */\n      tag_203\n        /* \"#utility.yul\":633:635   */\n      0x20\n        /* \"#utility.yul\":622:631   */\n      dup5\n        /* \"#utility.yul\":618:636   */\n      add\n        /* \"#utility.yul\":599:637   */\n      tag_194\n      jump\t// in\n    tag_203:\n        /* \"#utility.yul\":589:637   */\n      swap1\n      pop\n        /* \"#utility.yul\":383:643   */\n      swap3\n      pop\n      swap3\n      swap1\n      pop\n      jump\t// out\n        /* \"#utility.yul\":648:976   */\n    tag_36:\n        /* \"#utility.yul\":725:731   */\n      0x00\n        /* \"#utility.yul\":733:739   */\n      dup1\n        /* \"#utility.yul\":741:747   */\n      0x00\n        /* \"#utility.yul\":794:796   */\n      0x60\n        /* \"#utility.yul\":782:791   */\n      dup5\n        /* \"#utility.yul\":773:780   */\n      dup7\n        /* \"#utility.yul\":769:792   */\n      sub\n        /* \"#utility.yul\":765:797   */\n      slt\n        /* \"#utility.yul\":762:814   */\n      iszero\n      tag_205\n      jumpi\n        /* \"#utility.yul\":810:811   */\n      0x00\n        /* \"#utility.yul\":807:808   */\n      dup1\n        /* \"#utility.yul\":800:812   */\n      revert\n        /* \"#utility.yul\":762:814   */\n    tag_205:\n        /* \"#utility.yul\":833:862   */\n      tag_206\n        /* \"#utility.yul\":852:861   */\n      dup5\n        /* \"#utility.yul\":833:862   */\n      tag_194\n      jump\t// in\n    tag_206:\n        /* \"#utility.yul\":823:862   */\n      swap3\n      pop\n        /* \"#utility.yul\":881:919   */\n      tag_207\n        /* \"#utility.yul\":915:917   */\n      0x20\n        /* \"#utility.yul\":904:913   */\n      dup6\n        /* \"#utility.yul\":900:918   */\n      add\n        /* \"#utility.yul\":881:919   */\n      tag_194\n      jump\t// in\n    tag_207:\n        /* \"#utility.yul\":871:919   */\n      swap2\n      pop\n        /* \"#utility.yul\":966:968   */\n      0x40\n        /* \"#utility.yul\":955:964   */\n      dup5\n        /* \"#utility.yul\":951:969   */\n      add\n        /* \"#utility.yul\":938:970   */\n      calldataload\n        /* \"#utility.yul\":928:970   */\n      swap1\n      pop\n        /* \"#utility.yul\":648:976   */\n      swap3\n      pop\n      swap3\n      pop\n      swap3\n      jump\t// out\n        /* \"#utility.yul\":981:1235   */\n    tag_26:\n        /* \"#utility.yul\":1049:1055   */\n      0x00\n        /* \"#utility.yul\":1057:1063   */\n      dup1\n        /* \"#utility.yul\":1110:1112   */\n      0x40\n        /* \"#utility.yul\":1098:1107   */\n      dup4\n        /* \"#utility.yul\":1089:1096   */\n      dup6\n        /* \"#utility.yul\":1085:1108   */\n      sub\n        /* \"#utility.yul\":1081:1113   */\n      slt\n        /* \"#utility.yul\":1078:1130   */\n      iszero\n      tag_209\n      jumpi\n        /* \"#utility.yul\":1126:1127   */\n      0x00\n        /* \"#utility.yul\":1123:1124   */\n      dup1\n        /* \"#utility.yul\":1116:1128   */\n      revert\n        /* \"#utility.yul\":1078:1130   */\n    tag_209:\n        /* \"#utility.yul\":1149:1178   */\n      tag_210\n        /* \"#utility.yul\":1168:1177   */\n      dup4\n        /* \"#utility.yul\":1149:1178   */\n      tag_194\n      jump\t// in\n    tag_210:\n        /* \"#utility.yul\":1139:1178   */\n      swap5\n        /* \"#utility.yul\":1225:1227   */\n      0x20\n        /* \"#utility.yul\":1210:1228   */\n      swap4\n      swap1\n      swap4\n      add\n        /* \"#utility.yul\":1197:1229   */\n      calldataload\n      swap4\n      pop\n      pop\n      pop\n        /* \"#utility.yul\":981:1235   */\n      jump\t// out\n        /* \"#utility.yul\":1240:2229   */\n    tag_69:\n        /* \"#utility.yul\":1317:1323   */\n      0x00\n        /* \"#utility.yul\":1325:1331   */\n      dup1\n        /* \"#utility.yul\":1378:1380   */\n      0x40\n        /* \"#utility.yul\":1366:1375   */\n      dup4\n        /* \"#utility.yul\":1357:1364   */\n      dup6\n        /* \"#utility.yul\":1353:1376   */\n      sub\n        /* \"#utility.yul\":1349:1381   */\n      slt\n        /* \"#utility.yul\":1346:1398   */\n      iszero\n      tag_212\n      jumpi\n        /* \"#utility.yul\":1394:1395   */\n      0x00\n        /* \"#utility.yul\":1391:1392   */\n      dup1\n        /* \"#utility.yul\":1384:1396   */\n      revert\n        /* \"#utility.yul\":1346:1398   */\n    tag_212:\n        /* \"#utility.yul\":1430:1439   */\n      dup3\n        /* \"#utility.yul\":1417:1440   */\n      calldataload\n        /* \"#utility.yul\":1407:1440   */\n      swap2\n      pop\n        /* \"#utility.yul\":1491:1493   */\n      0x20\n        /* \"#utility.yul\":1480:1489   */\n      dup4\n        /* \"#utility.yul\":1476:1494   */\n      add\n        /* \"#utility.yul\":1463:1495   */\n      calldataload\n        /* \"#utility.yul\":1514:1532   */\n      0xffffffffffffffff\n        /* \"#utility.yul\":1555:1557   */\n      dup1\n        /* \"#utility.yul\":1547:1553   */\n      dup3\n        /* \"#utility.yul\":1544:1558   */\n      gt\n        /* \"#utility.yul\":1541:1575   */\n      iszero\n      tag_213\n      jumpi\n        /* \"#utility.yul\":1571:1572   */\n      0x00\n        /* \"#utility.yul\":1568:1569   */\n      dup1\n        /* \"#utility.yul\":1561:1573   */\n      revert\n        /* \"#utility.yul\":1541:1575   */\n    tag_213:\n        /* \"#utility.yul\":1609:1615   */\n      dup2\n        /* \"#utility.yul\":1598:1607   */\n      dup6\n        /* \"#utility.yul\":1594:1616   */\n      add\n        /* \"#utility.yul\":1584:1616   */\n      swap2\n      pop\n        /* \"#utility.yul\":1654:1661   */\n      dup6\n        /* \"#utility.yul\":1647:1651   */\n      0x1f\n        /* \"#utility.yul\":1643:1645   */\n      dup4\n        /* \"#utility.yul\":1639:1652   */\n      add\n        /* \"#utility.yul\":1635:1662   */\n      slt\n        /* \"#utility.yul\":1625:1680   */\n      tag_214\n      jumpi\n        /* \"#utility.yul\":1676:1677   */\n      0x00\n        /* \"#utility.yul\":1673:1674   */\n      dup1\n        /* \"#utility.yul\":1666:1678   */\n      revert\n        /* \"#utility.yul\":1625:1680   */\n    tag_214:\n        /* \"#utility.yul\":1712:1714   */\n      dup2\n        /* \"#utility.yul\":1699:1715   */\n      calldataload\n        /* \"#utility.yul\":1734:1736   */\n      dup2\n        /* \"#utility.yul\":1730:1732   */\n      dup2\n        /* \"#utility.yul\":1727:1737   */\n      gt\n        /* \"#utility.yul\":1724:1760   */\n      iszero\n      tag_216\n      jumpi\n        /* \"#utility.yul\":1740:1758   */\n      tag_216\n      tag_217\n      jump\t// in\n    tag_216:\n        /* \"#utility.yul\":1815:1817   */\n      0x40\n        /* \"#utility.yul\":1809:1818   */\n      mload\n        /* \"#utility.yul\":1783:1785   */\n      0x1f\n        /* \"#utility.yul\":1869:1882   */\n      dup3\n      add\n      not(0x1f)\n        /* \"#utility.yul\":1865:1887   */\n      swap1\n      dup2\n      and\n        /* \"#utility.yul\":1889:1891   */\n      0x3f\n        /* \"#utility.yul\":1861:1892   */\n      add\n        /* \"#utility.yul\":1857:1897   */\n      and\n        /* \"#utility.yul\":1845:1898   */\n      dup2\n      add\n      swap1\n        /* \"#utility.yul\":1913:1931   */\n      dup4\n      dup3\n      gt\n        /* \"#utility.yul\":1933:1955   */\n      dup2\n      dup4\n      lt\n        /* \"#utility.yul\":1910:1956   */\n      or\n        /* \"#utility.yul\":1907:1979   */\n      iszero\n      tag_219\n      jumpi\n        /* \"#utility.yul\":1959:1977   */\n      tag_219\n      tag_217\n      jump\t// in\n    tag_219:\n        /* \"#utility.yul\":1999:2009   */\n      dup2\n        /* \"#utility.yul\":1995:1997   */\n      0x40\n        /* \"#utility.yul\":1988:2010   */\n      mstore\n        /* \"#utility.yul\":2034:2036   */\n      dup3\n        /* \"#utility.yul\":2026:2032   */\n      dup2\n        /* \"#utility.yul\":2019:2037   */\n      mstore\n        /* \"#utility.yul\":2074:2081   */\n      dup9\n        /* \"#utility.yul\":2069:2071   */\n      0x20\n        /* \"#utility.yul\":2064:2066   */\n      dup5\n        /* \"#utility.yul\":2060:2062   */\n      dup8\n        /* \"#utility.yul\":2056:2067   */\n      add\n        /* \"#utility.yul\":2052:2072   */\n      add\n        /* \"#utility.yul\":2049:2082   */\n      gt\n        /* \"#utility.yul\":2046:2099   */\n      iszero\n      tag_220\n      jumpi\n        /* \"#utility.yul\":2095:2096   */\n      0x00\n        /* \"#utility.yul\":2092:2093   */\n      dup1\n        /* \"#utility.yul\":2085:2097   */\n      revert\n        /* \"#utility.yul\":2046:2099   */\n    tag_220:\n        /* \"#utility.yul\":2151:2153   */\n      dup3\n        /* \"#utility.yul\":2146:2148   */\n      0x20\n        /* \"#utility.yul\":2142:2144   */\n      dup7\n        /* \"#utility.yul\":2138:2149   */\n      add\n        /* \"#utility.yul\":2133:2135   */\n      0x20\n        /* \"#utility.yul\":2125:2131   */\n      dup4\n        /* \"#utility.yul\":2121:2136   */\n      add\n        /* \"#utility.yul\":2108:2154   */\n      calldatacopy\n        /* \"#utility.yul\":2196:2197   */\n      0x00\n        /* \"#utility.yul\":2191:2193   */\n      0x20\n        /* \"#utility.yul\":2186:2188   */\n      dup5\n        /* \"#utility.yul\":2178:2184   */\n      dup4\n        /* \"#utility.yul\":2174:2189   */\n      add\n        /* \"#utility.yul\":2170:2194   */\n      add\n        /* \"#utility.yul\":2163:2198   */\n      mstore\n        /* \"#utility.yul\":2217:2223   */\n      dup1\n        /* \"#utility.yul\":2207:2223   */\n      swap6\n      pop\n      pop\n      pop\n      pop\n      pop\n      pop\n        /* \"#utility.yul\":1240:2229   */\n      swap3\n      pop\n      swap3\n      swap1\n      pop\n      jump\t// out\n        /* \"#utility.yul\":3482:4079   */\n    tag_23:\n        /* \"#utility.yul\":3594:3598   */\n      0x00\n        /* \"#utility.yul\":3623:3625   */\n      0x20\n        /* \"#utility.yul\":3652:3654   */\n      dup1\n        /* \"#utility.yul\":3641:3650   */\n      dup4\n        /* \"#utility.yul\":3634:3655   */\n      mstore\n        /* \"#utility.yul\":3684:3690   */\n      dup4\n        /* \"#utility.yul\":3678:3691   */\n      mload\n        /* \"#utility.yul\":3727:3733   */\n      dup1\n        /* \"#utility.yul\":3722:3724   */\n      dup3\n        /* \"#utility.yul\":3711:3720   */\n      dup6\n        /* \"#utility.yul\":3707:3725   */\n      add\n        /* \"#utility.yul\":3700:3734   */\n      mstore\n        /* \"#utility.yul\":3752:3753   */\n      0x00\n        /* \"#utility.yul\":3762:3902   */\n    tag_226:\n        /* \"#utility.yul\":3776:3782   */\n      dup2\n        /* \"#utility.yul\":3773:3774   */\n      dup2\n        /* \"#utility.yul\":3770:3783   */\n      lt\n        /* \"#utility.yul\":3762:3902   */\n      iszero\n      tag_228\n      jumpi\n        /* \"#utility.yul\":3871:3885   */\n      dup6\n      dup2\n      add\n        /* \"#utility.yul\":3867:3890   */\n      dup4\n      add\n        /* \"#utility.yul\":3861:3891   */\n      mload\n        /* \"#utility.yul\":3837:3854   */\n      dup6\n      dup3\n      add\n        /* \"#utility.yul\":3856:3858   */\n      0x40\n        /* \"#utility.yul\":3833:3859   */\n      add\n        /* \"#utility.yul\":3826:3892   */\n      mstore\n        /* \"#utility.yul\":3791:3801   */\n      dup3\n      add\n        /* \"#utility.yul\":3762:3902   */\n      jump(tag_226)\n    tag_228:\n        /* \"#utility.yul\":3920:3926   */\n      dup2\n        /* \"#utility.yul\":3917:3918   */\n      dup2\n        /* \"#utility.yul\":3914:3927   */\n      gt\n        /* \"#utility.yul\":3911:4002   */\n      iszero\n      tag_229\n      jumpi\n        /* \"#utility.yul\":3990:3991   */\n      0x00\n        /* \"#utility.yul\":3985:3987   */\n      0x40\n        /* \"#utility.yul\":3976:3982   */\n      dup4\n        /* \"#utility.yul\":3965:3974   */\n      dup8\n        /* \"#utility.yul\":3961:3983   */\n      add\n        /* \"#utility.yul\":3957:3988   */\n      add\n        /* \"#utility.yul\":3950:3992   */\n      mstore\n        /* \"#utility.yul\":3911:4002   */\n    tag_229:\n      pop\n        /* \"#utility.yul\":4063:4065   */\n      0x1f\n        /* \"#utility.yul\":4042:4057   */\n      add\n      not(0x1f)\n        /* \"#utility.yul\":4038:4067   */\n      and\n        /* \"#utility.yul\":4023:4068   */\n      swap3\n      swap1\n      swap3\n      add\n        /* \"#utility.yul\":4070:4072   */\n      0x40\n        /* \"#utility.yul\":4019:4073   */\n      add\n      swap4\n        /* \"#utility.yul\":3482:4079   */\n      swap3\n      pop\n      pop\n      pop\n      jump\t// out\n        /* \"#utility.yul\":9091:9316   */\n    tag_104:\n        /* \"#utility.yul\":9131:9134   */\n      0x00\n        /* \"#utility.yul\":9162:9163   */\n      dup3\n        /* \"#utility.yul\":9158:9164   */\n      not\n        /* \"#utility.yul\":9155:9156   */\n      dup3\n        /* \"#utility.yul\":9152:9165   */\n      gt\n        /* \"#utility.yul\":9149:9285   */\n      iszero\n      tag_245\n      jumpi\n        /* \"#utility.yul\":9207:9217   */\n      0x4e487b71\n        /* \"#utility.yul\":9202:9205   */\n      0xe0\n        /* \"#utility.yul\":9198:9218   */\n      shl\n        /* \"#utility.yul\":9195:9196   */\n      0x00\n        /* \"#utility.yul\":9188:9219   */\n      mstore\n        /* \"#utility.yul\":9242:9246   */\n      0x11\n        /* \"#utility.yul\":9239:9240   */\n      0x04\n        /* \"#utility.yul\":9232:9247   */\n      mstore\n        /* \"#utility.yul\":9270:9274   */\n      0x24\n        /* \"#utility.yul\":9267:9268   */\n      0x00\n        /* \"#utility.yul\":9260:9275   */\n      revert\n        /* \"#utility.yul\":9149:9285   */\n    tag_245:\n      pop\n        /* \"#utility.yul\":9301:9310   */\n      add\n      swap1\n        /* \"#utility.yul\":9091:9316   */\n      jump\t// out\n        /* \"#utility.yul\":9321:9701   */\n    tag_82:\n        /* \"#utility.yul\":9400:9401   */\n      0x01\n        /* \"#utility.yul\":9396:9408   */\n      dup2\n      dup2\n      shr\n      swap1\n        /* \"#utility.yul\":9443:9455   */\n      dup3\n      and\n      dup1\n        /* \"#utility.yul\":9464:9525   */\n      tag_247\n      jumpi\n        /* \"#utility.yul\":9518:9522   */\n      0x7f\n        /* \"#utility.yul\":9510:9516   */\n      dup3\n        /* \"#utility.yul\":9506:9523   */\n      and\n        /* \"#utility.yul\":9496:9523   */\n      swap2\n      pop\n        /* \"#utility.yul\":9464:9525   */\n    tag_247:\n        /* \"#utility.yul\":9571:9573   */\n      0x20\n        /* \"#utility.yul\":9563:9569   */\n      dup3\n        /* \"#utility.yul\":9560:9574   */\n      lt\n        /* \"#utility.yul\":9540:9558   */\n      dup2\n        /* \"#utility.yul\":9537:9575   */\n      eq\n        /* \"#utility.yul\":9534:9695   */\n      iszero\n      tag_248\n      jumpi\n        /* \"#utility.yul\":9617:9627   */\n      0x4e487b71\n        /* \"#utility.yul\":9612:9615   */\n      0xe0\n        /* \"#utility.yul\":9608:9628   */\n      shl\n        /* \"#utility.yul\":9605:9606   */\n      0x00\n        /* \"#utility.yul\":9598:9629   */\n      mstore\n        /* \"#utility.yul\":9652:9656   */\n      0x22\n        /* \"#utility.yul\":9649:9650   */\n      0x04\n        /* \"#utility.yul\":9642:9657   */\n      mstore\n        /* \"#utility.yul\":9680:9684   */\n      0x24\n        /* \"#utility.yul\":9677:9678   */\n      0x00\n        /* \"#utility.yul\":9670:9685   */\n      revert\n        /* \"#utility.yul\":9534:9695   */\n    tag_248:\n      pop\n        /* \"#utility.yul\":9321:9701   */\n      swap2\n      swap1\n      pop\n      jump\t// out\n        /* \"#utility.yul\":9706:9833   */\n    tag_217:\n        /* \"#utility.yul\":9767:9777   */\n      0x4e487b71\n        /* \"#utility.yul\":9762:9765   */\n      0xe0\n        /* \"#utility.yul\":9758:9778   */\n      shl\n        /* \"#utility.yul\":9755:9756   */\n      0x00\n        /* \"#utility.yul\":9748:9779   */\n      mstore\n        /* \"#utility.yul\":9798:9802   */\n      0x41\n        /* \"#utility.yul\":9795:9796   */\n      0x04\n        /* \"#utility.yul\":9788:9803   */\n      mstore\n        /* \"#utility.yul\":9822:9826   */\n      0x24\n        /* \"#utility.yul\":9819:9820   */\n      0x00\n        /* \"#utility.yul\":9812:9827   */\n      revert\n\n    auxdata: 0xa2646970667358221220909c05d01c5ac483746f3215ab089001e5aecf84ae97b29c21619bd54215377964736f6c63430008070033\n}\n",
				"bytecode": {
					"linkReferences": {},
					"object": "60806040523480156200001157600080fd5b50604080518082018252600c81526b77726170706564204c4f4e4760a01b602080830191825283518085019094526005845264774c4f4e4760d81b9084015281519192916200006391600391620000f2565b50805162000079906004906020840190620000f2565b50505062000096620000906200009c60201b60201c565b620000a0565b620001d5565b3390565b600580546001600160a01b038381166001600160a01b0319831681179093556040519116919082907f8be0079c531659141344cd1fd0a4f28419497f9722a3daafe3b4186f6b6457e090600090a35050565b828054620001009062000198565b90600052602060002090601f0160209004810192826200012457600085556200016f565b82601f106200013f57805160ff19168380011785556200016f565b828001600101855582156200016f579182015b828111156200016f57825182559160200191906001019062000152565b506200017d92915062000181565b5090565b5b808211156200017d576000815560010162000182565b600181811c90821680620001ad57607f821691505b60208210811415620001cf57634e487b7160e01b600052602260045260246000fd5b50919050565b610e5280620001e56000396000f3fe608060405234801561001057600080fd5b50600436106100ea5760003560e01c80638da5cb5b1161008c578063a9059cbb11610066578063a9059cbb146101d6578063db7fd408146101e9578063dd62ed3e146101fc578063f2fde38b1461023557600080fd5b80638da5cb5b146101a057806395d89b41146101bb578063a457c2d7146101c357600080fd5b806323b872dd116100c857806323b872dd14610142578063313ce56714610155578063395093511461016457806370a082311461017757600080fd5b806306fdde03146100ef578063095ea7b31461010d57806318160ddd14610130575b600080fd5b6100f761024a565b6040516101049190610d50565b60405180910390f35b61012061011b366004610c6b565b6102dc565b6040519015158152602001610104565b6002545b604051908152602001610104565b610120610150366004610c2f565b6102f4565b60405160008152602001610104565b610120610172366004610c6b565b610318565b610134610185366004610bda565b6001600160a01b031660009081526020819052604090205490565b6005546040516001600160a01b039091168152602001610104565b6100f7610357565b6101206101d1366004610c6b565b610366565b6101206101e4366004610c6b565b6103fd565b6101206101f7366004610c95565b61040b565b61013461020a366004610bfc565b6001600160a01b03918216600090815260016020908152604080832093909416825291909152205490565b610248610243366004610bda565b61063d565b005b60606003805461025990610dcb565b80601f016020809104026020016040519081016040528092919081815260200182805461028590610dcb565b80156102d25780601f106102a7576101008083540402835291602001916102d2565b820191906000526020600020905b8154815290600101906020018083116102b557829003601f168201915b5050505050905090565b6000336102ea818585610708565b5060019392505050565b60003361030285828561082c565b61030d8585856108be565b506001949350505050565b3360008181526001602090815260408083206001600160a01b03871684529091528120549091906102ea9082908690610352908790610da5565b610708565b60606004805461025990610dcb565b3360008181526001602090815260408083206001600160a01b0387168452909152812054909190838110156103f05760405162461bcd60e51b815260206004820152602560248201527f45524332303a2064656372656173656420616c6c6f77616e63652062656c6f77604482015264207a65726f60d81b60648201526084015b60405180910390fd5b61030d8286868403610708565b6000336102ea8185856108be565b60208181015160408084015160008381526006909452908320543392919060ff16156104795760405162461bcd60e51b815260206004820181905260248201527f774c4f4e473a206b65792068617320616c7265616479206265656e207573656460448201526064016103e7565b6040516bffffffffffffffffffffffff19606085901b16602082015261190160f01b60348201526036810187905260009060560160408051601f1981840301815282825280516020918201206000808552918401808452819052601b9284019290925260608301869052608083018590529092509060019060a0016020604051602081039080840390855afa158015610516573d6000803e3d6000fd5b505060408051601f19810151600080835260208301808552879052601c938301939093526060820188905260808201879052935090915060019060a0016020604051602081039080840390855afa158015610575573d6000803e3d6000fd5b5050506020604051035190506105936005546001600160a01b031690565b6001600160a01b0316826001600160a01b031614806105bf57506005546001600160a01b038281169116145b61060b5760405162461bcd60e51b815260206004820152601d60248201527f774c4f4e473a207369676e6174757265206973206e6f742076616c696400000060448201526064016103e7565b6000858152600660205260409020805460ff1916600117905561062e868a610a8d565b50600198975050505050505050565b6005546001600160a01b031633146106975760405162461bcd60e51b815260206004820181905260248201527f4f776e61626c653a2063616c6c6572206973206e6f7420746865206f776e657260448201526064016103e7565b6001600160a01b0381166106fc5760405162461bcd60e51b815260206004820152602660248201527f4f776e61626c653a206e6577206f776e657220697320746865207a65726f206160448201526564647265737360d01b60648201526084016103e7565b61070581610b6c565b50565b6001600160a01b03831661076a5760405162461bcd60e51b8152602060048201526024808201527f45524332303a20617070726f76652066726f6d20746865207a65726f206164646044820152637265737360e01b60648201526084016103e7565b6001600160a01b0382166107cb5760405162461bcd60e51b815260206004820152602260248201527f45524332303a20617070726f766520746f20746865207a65726f206164647265604482015261737360f01b60648201526084016103e7565b6001600160a01b0383811660008181526001602090815260408083209487168084529482529182902085905590518481527f8c5be1e5ebec7d5bd14f71427d1e84f3dd0314c0f7b2291e5b200ac8c7c3b925910160405180910390a3505050565b6001600160a01b0383811660009081526001602090815260408083209386168352929052205460001981146108b857818110156108ab5760405162461bcd60e51b815260206004820152601d60248201527f45524332303a20696e73756666696369656e7420616c6c6f77616e636500000060448201526064016103e7565b6108b88484848403610708565b50505050565b6001600160a01b0383166109225760405162461bcd60e51b815260206004820152602560248201527f45524332303a207472616e736665722066726f6d20746865207a65726f206164604482015264647265737360d81b60648201526084016103e7565b6001600160a01b0382166109845760405162461bcd60e51b815260206004820152602360248201527f45524332303a207472616e7366657220746f20746865207a65726f206164647260448201526265737360e81b60648201526084016103e7565b6001600160a01b038316600090815260208190526040902054818110156109fc5760405162461bcd60e51b815260206004820152602660248201527f45524332303a207472616e7366657220616d6f756e7420657863656564732062604482015265616c616e636560d01b60648201526084016103e7565b6001600160a01b03808516600090815260208190526040808220858503905591851681529081208054849290610a33908490610da5565b92505081905550826001600160a01b0316846001600160a01b03167fddf252ad1be2c89b69c2b068fc378daa952ba7f163c4a11628f55a4df523b3ef84604051610a7f91815260200190565b60405180910390a350505050565b6001600160a01b038216610ae35760405162461bcd60e51b815260206004820152601f60248201527f45524332303a206d696e7420746f20746865207a65726f20616464726573730060448201526064016103e7565b8060026000828254610af59190610da5565b90915550506001600160a01b03821660009081526020819052604081208054839290610b22908490610da5565b90915550506040518181526001600160a01b038316906000907fddf252ad1be2c89b69c2b068fc378daa952ba7f163c4a11628f55a4df523b3ef9060200160405180910390a35050565b600580546001600160a01b038381166001600160a01b0319831681179093556040519116919082907f8be0079c531659141344cd1fd0a4f28419497f9722a3daafe3b4186f6b6457e090600090a35050565b80356001600160a01b0381168114610bd557600080fd5b919050565b600060208284031215610bec57600080fd5b610bf582610bbe565b9392505050565b60008060408385031215610c0f57600080fd5b610c1883610bbe565b9150610c2660208401610bbe565b90509250929050565b600080600060608486031215610c4457600080fd5b610c4d84610bbe565b9250610c5b60208501610bbe565b9150604084013590509250925092565b60008060408385031215610c7e57600080fd5b610c8783610bbe565b946020939093013593505050565b60008060408385031215610ca857600080fd5b82359150602083013567ffffffffffffffff80821115610cc757600080fd5b818501915085601f830112610cdb57600080fd5b813581811115610ced57610ced610e06565b604051601f8201601f19908116603f01168101908382118183101715610d1557610d15610e06565b81604052828152886020848701011115610d2e57600080fd5b8260208601602083013760006020848301015280955050505050509250929050565b600060208083528351808285015260005b81811015610d7d57858101830151858201604001528201610d61565b81811115610d8f576000604083870101525b50601f01601f1916929092016040019392505050565b60008219821115610dc657634e487b7160e01b600052601160045260246000fd5b500190565b600181811c90821680610ddf57607f821691505b60208210811415610e0057634e487b7160e01b600052602260045260246000fd5b50919050565b634e487b7160e01b600052604160045260246000fdfea2646970667358221220909c05d01c5ac483746f3215ab089001e5aecf84ae97b29c21619bd54215377964736f6c63430008070033",
					"opcodes": "PUSH1 0x80 PUSH1 0x40 MSTORE CALLVALUE DUP1 ISZERO PUSH3 0x11 JUMPI PUSH1 0x0 DUP1 REVERT JUMPDEST POP PUSH1 0x40 DUP1 MLOAD DUP1 DUP3 ADD DUP3 MSTORE PUSH1 0xC DUP2 MSTORE PUSH12 0x77726170706564204C4F4E47 PUSH1 0xA0 SHL PUSH1 0x20 DUP1 DUP4 ADD SWAP2 DUP3 MSTORE DUP4 MLOAD DUP1 DUP6 ADD SWAP1 SWAP5 MSTORE PUSH1 0x5 DUP5 MSTORE PUSH5 0x774C4F4E47 PUSH1 0xD8 SHL SWAP1 DUP5 ADD MSTORE DUP2 MLOAD SWAP2 SWAP3 SWAP2 PUSH3 0x63 SWAP2 PUSH1 0x3 SWAP2 PUSH3 0xF2 JUMP JUMPDEST POP DUP1 MLOAD PUSH3 0x79 SWAP1 PUSH1 0x4 SWAP1 PUSH1 0x20 DUP5 ADD SWAP1 PUSH3 0xF2 JUMP JUMPDEST POP POP POP PUSH3 0x96 PUSH3 0x90 PUSH3 0x9C PUSH1 0x20 SHL PUSH1 0x20 SHR JUMP JUMPDEST PUSH3 0xA0 JUMP JUMPDEST PUSH3 0x1D5 JUMP JUMPDEST CALLER SWAP1 JUMP JUMPDEST PUSH1 0x5 DUP1 SLOAD PUSH1 0x1 PUSH1 0x1 PUSH1 0xA0 SHL SUB DUP4 DUP2 AND PUSH1 0x1 PUSH1 0x1 PUSH1 0xA0 SHL SUB NOT DUP4 AND DUP2 OR SWAP1 SWAP4 SSTORE PUSH1 0x40 MLOAD SWAP2 AND SWAP2 SWAP1 DUP3 SWAP1 PUSH32 0x8BE0079C531659141344CD1FD0A4F28419497F9722A3DAAFE3B4186F6B6457E0 SWAP1 PUSH1 0x0 SWAP1 LOG3 POP POP JUMP JUMPDEST DUP3 DUP1 SLOAD PUSH3 0x100 SWAP1 PUSH3 0x198 JUMP JUMPDEST SWAP1 PUSH1 0x0 MSTORE PUSH1 0x20 PUSH1 0x0 KECCAK256 SWAP1 PUSH1 0x1F ADD PUSH1 0x20 SWAP1 DIV DUP2 ADD SWAP3 DUP3 PUSH3 0x124 JUMPI PUSH1 0x0 DUP6 SSTORE PUSH3 0x16F JUMP JUMPDEST DUP3 PUSH1 0x1F LT PUSH3 0x13F JUMPI DUP1 MLOAD PUSH1 0xFF NOT AND DUP4 DUP1 ADD OR DUP6 SSTORE PUSH3 0x16F JUMP JUMPDEST DUP3 DUP1 ADD PUSH1 0x1 ADD DUP6 SSTORE DUP3 ISZERO PUSH3 0x16F JUMPI SWAP2 DUP3 ADD JUMPDEST DUP3 DUP2 GT ISZERO PUSH3 0x16F JUMPI DUP3 MLOAD DUP3 SSTORE SWAP2 PUSH1 0x20 ADD SWAP2 SWAP1 PUSH1 0x1 ADD SWAP1 PUSH3 0x152 JUMP JUMPDEST POP PUSH3 0x17D SWAP3 SWAP2 POP PUSH3 0x181 JUMP JUMPDEST POP SWAP1 JUMP JUMPDEST JUMPDEST DUP1 DUP3 GT ISZERO PUSH3 0x17D JUMPI PUSH1 0x0 DUP2 SSTORE PUSH1 0x1 ADD PUSH3 0x182 JUMP JUMPDEST PUSH1 0x1 DUP2 DUP2 SHR SWAP1 DUP3 AND DUP1 PUSH3 0x1AD JUMPI PUSH1 0x7F DUP3 AND SWAP2 POP JUMPDEST PUSH1 0x20 DUP3 LT DUP2 EQ ISZERO PUSH3 0x1CF JUMPI PUSH4 0x4E487B71 PUSH1 0xE0 SHL PUSH1 0x0 MSTORE PUSH1 0x22 PUSH1 0x4 MSTORE PUSH1 0x24 PUSH1 0x0 REVERT JUMPDEST POP SWAP2 SWAP1 POP JUMP JUMPDEST PUSH2 0xE52 DUP1 PUSH3 0x1E5 PUSH1 0x0 CODECOPY PUSH1 0x0 RETURN INVALID PUSH1 0x80 PUSH1 0x40 MSTORE CALLVALUE DUP1 ISZERO PUSH2 0x10 JUMPI PUSH1 0x0 DUP1 REVERT JUMPDEST POP PUSH1 0x4 CALLDATASIZE LT PUSH2 0xEA JUMPI PUSH1 0x0 CALLDATALOAD PUSH1 0xE0 SHR DUP1 PUSH4 0x8DA5CB5B GT PUSH2 0x8C JUMPI DUP1 PUSH4 0xA9059CBB GT PUSH2 0x66 JUMPI DUP1 PUSH4 0xA9059CBB EQ PUSH2 0x1D6 JUMPI DUP1 PUSH4 0xDB7FD408 EQ PUSH2 0x1E9 JUMPI DUP1 PUSH4 0xDD62ED3E EQ PUSH2 0x1FC JUMPI DUP1 PUSH4 0xF2FDE38B EQ PUSH2 0x235 JUMPI PUSH1 0x0 DUP1 REVERT JUMPDEST DUP1 PUSH4 0x8DA5CB5B EQ PUSH2 0x1A0 JUMPI DUP1 PUSH4 0x95D89B41 EQ PUSH2 0x1BB JUMPI DUP1 PUSH4 0xA457C2D7 EQ PUSH2 0x1C3 JUMPI PUSH1 0x0 DUP1 REVERT JUMPDEST DUP1 PUSH4 0x23B872DD GT PUSH2 0xC8 JUMPI DUP1 PUSH4 0x23B872DD EQ PUSH2 0x142 JUMPI DUP1 PUSH4 0x313CE567 EQ PUSH2 0x155 JUMPI DUP1 PUSH4 0x39509351 EQ PUSH2 0x164 JUMPI DUP1 PUSH4 0x70A08231 EQ PUSH2 0x177 JUMPI PUSH1 0x0 DUP1 REVERT JUMPDEST DUP1 PUSH4 0x6FDDE03 EQ PUSH2 0xEF JUMPI DUP1 PUSH4 0x95EA7B3 EQ PUSH2 0x10D JUMPI DUP1 PUSH4 0x18160DDD EQ PUSH2 0x130 JUMPI JUMPDEST PUSH1 0x0 DUP1 REVERT JUMPDEST PUSH2 0xF7 PUSH2 0x24A JUMP JUMPDEST PUSH1 0x40 MLOAD PUSH2 0x104 SWAP2 SWAP1 PUSH2 0xD50 JUMP JUMPDEST PUSH1 0x40 MLOAD DUP1 SWAP2 SUB SWAP1 RETURN JUMPDEST PUSH2 0x120 PUSH2 0x11B CALLDATASIZE PUSH1 0x4 PUSH2 0xC6B JUMP JUMPDEST PUSH2 0x2DC JUMP JUMPDEST PUSH1 0x40 MLOAD SWAP1 ISZERO ISZERO DUP2 MSTORE PUSH1 0x20 ADD PUSH2 0x104 JUMP JUMPDEST PUSH1 0x2 SLOAD JUMPDEST PUSH1 0x40 MLOAD SWAP1 DUP2 MSTORE PUSH1 0x20 ADD PUSH2 0x104 JUMP JUMPDEST PUSH2 0x120 PUSH2 0x150 CALLDATASIZE PUSH1 0x4 PUSH2 0xC2F JUMP JUMPDEST PUSH2 0x2F4 JUMP JUMPDEST PUSH1 0x40 MLOAD PUSH1 0x0 DUP2 MSTORE PUSH1 0x20 ADD PUSH2 0x104 JUMP JUMPDEST PUSH2 0x120 PUSH2 0x172 CALLDATASIZE PUSH1 0x4 PUSH2 0xC6B JUMP JUMPDEST PUSH2 0x318 JUMP JUMPDEST PUSH2 0x134 PUSH2 0x185 CALLDATASIZE PUSH1 0x4 PUSH2 0xBDA JUMP JUMPDEST PUSH1 0x1 PUSH1 0x1 PUSH1 0xA0 SHL SUB AND PUSH1 0x0 SWAP1 DUP2 MSTORE PUSH1 0x20 DUP2 SWAP1 MSTORE PUSH1 0x40 SWAP1 KECCAK256 SLOAD SWAP1 JUMP JUMPDEST PUSH1 0x5 SLOAD PUSH1 0x40 MLOAD PUSH1 0x1 PUSH1 0x1 PUSH1 0xA0 SHL SUB SWAP1 SWAP2 AND DUP2 MSTORE PUSH1 0x20 ADD PUSH2 0x104 JUMP JUMPDEST PUSH2 0xF7 PUSH2 0x357 JUMP JUMPDEST PUSH2 0x120 PUSH2 0x1D1 CALLDATASIZE PUSH1 0x4 PUSH2 0xC6B JUMP JUMPDEST PUSH2 0x366 JUMP JUMPDEST PUSH2 0x120 PUSH2 0x1E4 CALLDATASIZE PUSH1 0x4 PUSH2 0xC6B JUMP JUMPDEST PUSH2 0x3FD JUMP JUMPDEST PUSH2 0x120 PUSH2 0x1F7 CALLDATASIZE PUSH1 0x4 PUSH2 0xC95 JUMP JUMPDEST PUSH2 0x40B JUMP JUMPDEST PUSH2 0x134 PUSH2 0x20A CALLDATASIZE PUSH1 0x4 PUSH2 0xBFC JUMP JUMPDEST PUSH1 0x1 PUSH1 0x1 PUSH1 0xA0 SHL SUB SWAP2 DUP3 AND PUSH1 0x0 SWAP1 DUP2 MSTORE PUSH1 0x1 PUSH1 0x20 SWAP1 DUP2 MSTORE PUSH1 0x40 DUP1 DUP4 KECCAK256 SWAP4 SWAP1 SWAP5 AND DUP3 MSTORE SWAP2 SWAP1 SWAP2 MSTORE KECCAK256 SLOAD SWAP1 JUMP JUMPDEST PUSH2 0x248 PUSH2 0x243 CALLDATASIZE PUSH1 0x4 PUSH2 0xBDA JUMP JUMPDEST PUSH2 0x63D JUMP JUMPDEST STOP JUMPDEST PUSH1 0x60 PUSH1 0x3 DUP1 SLOAD PUSH2 0x259 SWAP1 PUSH2 0xDCB JUMP JUMPDEST DUP1 PUSH1 0x1F ADD PUSH1 0x20 DUP1 SWAP2 DIV MUL PUSH1 0x20 ADD PUSH1 0x40 MLOAD SWAP1 DUP2 ADD PUSH1 0x40 MSTORE DUP1 SWAP3 SWAP2 SWAP1 DUP2 DUP2 MSTORE PUSH1 0x20 ADD DUP3 DUP1 SLOAD PUSH2 0x285 SWAP1 PUSH2 0xDCB JUMP JUMPDEST DUP1 ISZERO PUSH2 0x2D2 JUMPI DUP1 PUSH1 0x1F LT PUSH2 0x2A7 JUMPI PUSH2 0x100 DUP1 DUP4 SLOAD DIV MUL DUP4 MSTORE SWAP2 PUSH1 0x20 ADD SWAP2 PUSH2 0x2D2 JUMP JUMPDEST DUP3 ADD SWAP2 SWAP1 PUSH1 0x0 MSTORE PUSH1 0x20 PUSH1 0x0 KECCAK256 SWAP1 JUMPDEST DUP2 SLOAD DUP2 MSTORE SWAP1 PUSH1 0x1 ADD SWAP1 PUSH1 0x20 ADD DUP1 DUP4 GT PUSH2 0x2B5 JUMPI DUP3 SWAP1 SUB PUSH1 0x1F AND DUP3 ADD SWAP2 JUMPDEST POP POP POP POP POP SWAP1 POP SWAP1 JUMP JUMPDEST PUSH1 0x0 CALLER PUSH2 0x2EA DUP2 DUP6 DUP6 PUSH2 0x708 JUMP JUMPDEST POP PUSH1 0x1 SWAP4 SWAP3 POP POP POP JUMP JUMPDEST PUSH1 0x0 CALLER PUSH2 0x302 DUP6 DUP3 DUP6 PUSH2 0x82C JUMP JUMPDEST PUSH2 0x30D DUP6 DUP6 DUP6 PUSH2 0x8BE JUMP JUMPDEST POP PUSH1 0x1 SWAP5 SWAP4 POP POP POP POP JUMP JUMPDEST CALLER PUSH1 0x0 DUP2 DUP2 MSTORE PUSH1 0x1 PUSH1 0x20 SWAP1 DUP2 MSTORE PUSH1 0x40 DUP1 DUP4 KECCAK256 PUSH1 0x1 PUSH1 0x1 PUSH1 0xA0 SHL SUB DUP8 AND DUP5 MSTORE SWAP1 SWAP2 MSTORE DUP2 KECCAK256 SLOAD SWAP1 SWAP2 SWAP1 PUSH2 0x2EA SWAP1 DUP3 SWAP1 DUP7 SWAP1 PUSH2 0x352 SWAP1 DUP8 SWAP1 PUSH2 0xDA5 JUMP JUMPDEST PUSH2 0x708 JUMP JUMPDEST PUSH1 0x60 PUSH1 0x4 DUP1 SLOAD PUSH2 0x259 SWAP1 PUSH2 0xDCB JUMP JUMPDEST CALLER PUSH1 0x0 DUP2 DUP2 MSTORE PUSH1 0x1 PUSH1 0x20 SWAP1 DUP2 MSTORE PUSH1 0x40 DUP1 DUP4 KECCAK256 PUSH1 0x1 PUSH1 0x1 PUSH1 0xA0 SHL SUB DUP8 AND DUP5 MSTORE SWAP1 SWAP2 MSTORE DUP2 KECCAK256 SLOAD SWAP1 SWAP2 SWAP1 DUP4 DUP2 LT ISZERO PUSH2 0x3F0 JUMPI PUSH1 0x40 MLOAD PUSH3 0x461BCD PUSH1 0xE5 SHL DUP2 MSTORE PUSH1 0x20 PUSH1 0x4 DUP3 ADD MSTORE PUSH1 0x25 PUSH1 0x24 DUP3 ADD MSTORE PUSH32 0x45524332303A2064656372656173656420616C6C6F77616E63652062656C6F77 PUSH1 0x44 DUP3 ADD MSTORE PUSH5 0x207A65726F PUSH1 0xD8 SHL PUSH1 0x64 DUP3 ADD MSTORE PUSH1 0x84 ADD JUMPDEST PUSH1 0x40 MLOAD DUP1 SWAP2 SUB SWAP1 REVERT JUMPDEST PUSH2 0x30D DUP3 DUP7 DUP7 DUP5 SUB PUSH2 0x708 JUMP JUMPDEST PUSH1 0x0 CALLER PUSH2 0x2EA DUP2 DUP6 DUP6 PUSH2 0x8BE JUMP JUMPDEST PUSH1 0x20 DUP2 DUP2 ADD MLOAD PUSH1 0x40 DUP1 DUP5 ADD MLOAD PUSH1 0x0 DUP4 DUP2 MSTORE PUSH1 0x6 SWAP1 SWAP5 MSTORE SWAP1 DUP4 KECCAK256 SLOAD CALLER SWAP3 SWAP2 SWAP1 PUSH1 0xFF AND ISZERO PUSH2 0x479 JUMPI PUSH1 0x40 MLOAD PUSH3 0x461BCD PUSH1 0xE5 SHL DUP2 MSTORE PUSH1 0x20 PUSH1 0x4 DUP3 ADD DUP2 SWAP1 MSTORE PUSH1 0x24 DUP3 ADD MSTORE PUSH32 0x774C4F4E473A206B65792068617320616C7265616479206265656E2075736564 PUSH1 0x44 DUP3 ADD MSTORE PUSH1 0x64 ADD PUSH2 0x3E7 JUMP JUMPDEST PUSH1 0x40 MLOAD PUSH12 0xFFFFFFFFFFFFFFFFFFFFFFFF NOT PUSH1 0x60 DUP6 SWAP1 SHL AND PUSH1 0x20 DUP3 ADD MSTORE PUSH2 0x1901 PUSH1 0xF0 SHL PUSH1 0x34 DUP3 ADD MSTORE PUSH1 0x36 DUP2 ADD DUP8 SWAP1 MSTORE PUSH1 0x0 SWAP1 PUSH1 0x56 ADD PUSH1 0x40 DUP1 MLOAD PUSH1 0x1F NOT DUP2 DUP5 SUB ADD DUP2 MSTORE DUP3 DUP3 MSTORE DUP1 MLOAD PUSH1 0x20 SWAP2 DUP3 ADD KECCAK256 PUSH1 0x0 DUP1 DUP6 MSTORE SWAP2 DUP5 ADD DUP1 DUP5 MSTORE DUP2 SWAP1 MSTORE PUSH1 0x1B SWAP3 DUP5 ADD SWAP3 SWAP1 SWAP3 MSTORE PUSH1 0x60 DUP4 ADD DUP7 SWAP1 MSTORE PUSH1 0x80 DUP4 ADD DUP6 SWAP1 MSTORE SWAP1 SWAP3 POP SWAP1 PUSH1 0x1 SWAP1 PUSH1 0xA0 ADD PUSH1 0x20 PUSH1 0x40 MLOAD PUSH1 0x20 DUP2 SUB SWAP1 DUP1 DUP5 SUB SWAP1 DUP6 GAS STATICCALL ISZERO DUP1 ISZERO PUSH2 0x516 JUMPI RETURNDATASIZE PUSH1 0x0 DUP1 RETURNDATACOPY RETURNDATASIZE PUSH1 0x0 REVERT JUMPDEST POP POP PUSH1 0x40 DUP1 MLOAD PUSH1 0x1F NOT DUP2 ADD MLOAD PUSH1 0x0 DUP1 DUP4 MSTORE PUSH1 0x20 DUP4 ADD DUP1 DUP6 MSTORE DUP8 SWAP1 MSTORE PUSH1 0x1C SWAP4 DUP4 ADD SWAP4 SWAP1 SWAP4 MSTORE PUSH1 0x60 DUP3 ADD DUP9 SWAP1 MSTORE PUSH1 0x80 DUP3 ADD DUP8 SWAP1 MSTORE SWAP4 POP SWAP1 SWAP2 POP PUSH1 0x1 SWAP1 PUSH1 0xA0 ADD PUSH1 0x20 PUSH1 0x40 MLOAD PUSH1 0x20 DUP2 SUB SWAP1 DUP1 DUP5 SUB SWAP1 DUP6 GAS STATICCALL ISZERO DUP1 ISZERO PUSH2 0x575 JUMPI RETURNDATASIZE PUSH1 0x0 DUP1 RETURNDATACOPY RETURNDATASIZE PUSH1 0x0 REVERT JUMPDEST POP POP POP PUSH1 0x20 PUSH1 0x40 MLOAD SUB MLOAD SWAP1 POP PUSH2 0x593 PUSH1 0x5 SLOAD PUSH1 0x1 PUSH1 0x1 PUSH1 0xA0 SHL SUB AND SWAP1 JUMP JUMPDEST PUSH1 0x1 PUSH1 0x1 PUSH1 0xA0 SHL SUB AND DUP3 PUSH1 0x1 PUSH1 0x1 PUSH1 0xA0 SHL SUB AND EQ DUP1 PUSH2 0x5BF JUMPI POP PUSH1 0x5 SLOAD PUSH1 0x1 PUSH1 0x1 PUSH1 0xA0 SHL SUB DUP3 DUP2 AND SWAP2 AND EQ JUMPDEST PUSH2 0x60B JUMPI PUSH1 0x40 MLOAD PUSH3 0x461BCD PUSH1 0xE5 SHL DUP2 MSTORE PUSH1 0x20 PUSH1 0x4 DUP3 ADD MSTORE PUSH1 0x1D PUSH1 0x24 DUP3 ADD MSTORE PUSH32 0x774C4F4E473A207369676E6174757265206973206E6F742076616C6964000000 PUSH1 0x44 DUP3 ADD MSTORE PUSH1 0x64 ADD PUSH2 0x3E7 JUMP JUMPDEST PUSH1 0x0 DUP6 DUP2 MSTORE PUSH1 0x6 PUSH1 0x20 MSTORE PUSH1 0x40 SWAP1 KECCAK256 DUP1 SLOAD PUSH1 0xFF NOT AND PUSH1 0x1 OR SWAP1 SSTORE PUSH2 0x62E DUP7 DUP11 PUSH2 0xA8D JUMP JUMPDEST POP PUSH1 0x1 SWAP9 SWAP8 POP POP POP POP POP POP POP POP JUMP JUMPDEST PUSH1 0x5 SLOAD PUSH1 0x1 PUSH1 0x1 PUSH1 0xA0 SHL SUB AND CALLER EQ PUSH2 0x697 JUMPI PUSH1 0x40 MLOAD PUSH3 0x461BCD PUSH1 0xE5 SHL DUP2 MSTORE PUSH1 0x20 PUSH1 0x4 DUP3 ADD DUP2 SWAP1 MSTORE PUSH1 0x24 DUP3 ADD MSTORE PUSH32 0x4F776E61626C653A2063616C6C6572206973206E6F7420746865206F776E6572 PUSH1 0x44 DUP3 ADD MSTORE PUSH1 0x64 ADD PUSH2 0x3E7 JUMP JUMPDEST PUSH1 0x1 PUSH1 0x1 PUSH1 0xA0 SHL SUB DUP2 AND PUSH2 0x6FC JUMPI PUSH1 0x40 MLOAD PUSH3 0x461BCD PUSH1 0xE5 SHL DUP2 MSTORE PUSH1 0x20 PUSH1 0x4 DUP3 ADD MSTORE PUSH1 0x26 PUSH1 0x24 DUP3 ADD MSTORE PUSH32 0x4F776E61626C653A206E6577206F776E657220697320746865207A65726F2061 PUSH1 0x44 DUP3 ADD MSTORE PUSH6 0x646472657373 PUSH1 0xD0 SHL PUSH1 0x64 DUP3 ADD MSTORE PUSH1 0x84 ADD PUSH2 0x3E7 JUMP JUMPDEST PUSH2 0x705 DUP2 PUSH2 0xB6C JUMP JUMPDEST POP JUMP JUMPDEST PUSH1 0x1 PUSH1 0x1 PUSH1 0xA0 SHL SUB DUP4 AND PUSH2 0x76A JUMPI PUSH1 0x40 MLOAD PUSH3 0x461BCD PUSH1 0xE5 SHL DUP2 MSTORE PUSH1 0x20 PUSH1 0x4 DUP3 ADD MSTORE PUSH1 0x24 DUP1 DUP3 ADD MSTORE PUSH32 0x45524332303A20617070726F76652066726F6D20746865207A65726F20616464 PUSH1 0x44 DUP3 ADD MSTORE PUSH4 0x72657373 PUSH1 0xE0 SHL PUSH1 0x64 DUP3 ADD MSTORE PUSH1 0x84 ADD PUSH2 0x3E7 JUMP JUMPDEST PUSH1 0x1 PUSH1 0x1 PUSH1 0xA0 SHL SUB DUP3 AND PUSH2 0x7CB JUMPI PUSH1 0x40 MLOAD PUSH3 0x461BCD PUSH1 0xE5 SHL DUP2 MSTORE PUSH1 0x20 PUSH1 0x4 DUP3 ADD MSTORE PUSH1 0x22 PUSH1 0x24 DUP3 ADD MSTORE PUSH32 0x45524332303A20617070726F766520746F20746865207A65726F206164647265 PUSH1 0x44 DUP3 ADD MSTORE PUSH2 0x7373 PUSH1 0xF0 SHL PUSH1 0x64 DUP3 ADD MSTORE PUSH1 0x84 ADD PUSH2 0x3E7 JUMP JUMPDEST PUSH1 0x1 PUSH1 0x1 PUSH1 0xA0 SHL SUB DUP4 DUP2 AND PUSH1 0x0 DUP2 DUP2 MSTORE PUSH1 0x1 PUSH1 0x20 SWAP1 DUP2 MSTORE PUSH1 0x40 DUP1 DUP4 KECCAK256 SWAP5 DUP8 AND DUP1 DUP5 MSTORE SWAP5 DUP3 MSTORE SWAP2 DUP3 SWAP1 KECCAK256 DUP6 SWAP1 SSTORE SWAP1 MLOAD DUP5 DUP2 MSTORE PUSH32 0x8C5BE1E5EBEC7D5BD14F71427D1E84F3DD0314C0F7B2291E5B200AC8C7C3B925 SWAP2 ADD PUSH1 0x40 MLOAD DUP1 SWAP2 SUB SWAP1 LOG3 POP POP POP JUMP JUMPDEST PUSH1 0x1 PUSH1 0x1 PUSH1 0xA0 SHL SUB DUP4 DUP2 AND PUSH1 0x0 SWAP1 DUP2 MSTORE PUSH1 0x1 PUSH1 0x20 SWAP1 DUP2 MSTORE PUSH1 0x40 DUP1 DUP4 KECCAK256 SWAP4 DUP7 AND DUP4 MSTORE SWAP3 SWAP1 MSTORE KECCAK256 SLOAD PUSH1 0x0 NOT DUP2 EQ PUSH2 0x8B8 JUMPI DUP2 DUP2 LT ISZERO PUSH2 0x8AB JUMPI PUSH1 0x40 MLOAD PUSH3 0x461BCD PUSH1 0xE5 SHL DUP2 MSTORE PUSH1 0x20 PUSH1 0x4 DUP3 ADD MSTORE PUSH1 0x1D PUSH1 0x24 DUP3 ADD MSTORE PUSH32 0x45524332303A20696E73756666696369656E7420616C6C6F77616E6365000000 PUSH1 0x44 DUP3 ADD MSTORE PUSH1 0x64 ADD PUSH2 0x3E7 JUMP JUMPDEST PUSH2 0x8B8 DUP5 DUP5 DUP5 DUP5 SUB PUSH2 0x708 JUMP JUMPDEST POP POP POP POP JUMP JUMPDEST PUSH1 0x1 PUSH1 0x1 PUSH1 0xA0 SHL SUB DUP4 AND PUSH2 0x922 JUMPI PUSH1 0x40 MLOAD PUSH3 0x461BCD PUSH1 0xE5 SHL DUP2 MSTORE PUSH1 0x20 PUSH1 0x4 DUP3 ADD MSTORE PUSH1 0x25 PUSH1 0x24 DUP3 ADD MSTORE PUSH32 0x45524332303A207472616E736665722066726F6D20746865207A65726F206164 PUSH1 0x44 DUP3 ADD MSTORE PUSH5 0x6472657373 PUSH1 0xD8 SHL PUSH1 0x64 DUP3 ADD MSTORE PUSH1 0x84 ADD PUSH2 0x3E7 JUMP JUMPDEST PUSH1 0x1 PUSH1 0x1 PUSH1 0xA0 SHL SUB DUP3 AND PUSH2 0x984 JUMPI PUSH1 0x40 MLOAD PUSH3 0x461BCD PUSH1 0xE5 SHL DUP2 MSTORE PUSH1 0x20 PUSH1 0x4 DUP3 ADD MSTORE PUSH1 0x23 PUSH1 0x24 DUP3 ADD MSTORE PUSH32 0x45524332303A207472616E7366657220746F20746865207A65726F2061646472 PUSH1 0x44 DUP3 ADD MSTORE PUSH3 0x657373 PUSH1 0xE8 SHL PUSH1 0x64 DUP3 ADD MSTORE PUSH1 0x84 ADD PUSH2 0x3E7 JUMP JUMPDEST PUSH1 0x1 PUSH1 0x1 PUSH1 0xA0 SHL SUB DUP4 AND PUSH1 0x0 SWAP1 DUP2 MSTORE PUSH1 0x20 DUP2 SWAP1 MSTORE PUSH1 0x40 SWAP1 KECCAK256 SLOAD DUP2 DUP2 LT ISZERO PUSH2 0x9FC JUMPI PUSH1 0x40 MLOAD PUSH3 0x461BCD PUSH1 0xE5 SHL DUP2 MSTORE PUSH1 0x20 PUSH1 0x4 DUP3 ADD MSTORE PUSH1 0x26 PUSH1 0x24 DUP3 ADD MSTORE PUSH32 0x45524332303A207472616E7366657220616D6F756E7420657863656564732062 PUSH1 0x44 DUP3 ADD MSTORE PUSH6 0x616C616E6365 PUSH1 0xD0 SHL PUSH1 0x64 DUP3 ADD MSTORE PUSH1 0x84 ADD PUSH2 0x3E7 JUMP JUMPDEST PUSH1 0x1 PUSH1 0x1 PUSH1 0xA0 SHL SUB DUP1 DUP6 AND PUSH1 0x0 SWAP1 DUP2 MSTORE PUSH1 0x20 DUP2 SWAP1 MSTORE PUSH1 0x40 DUP1 DUP3 KECCAK256 DUP6 DUP6 SUB SWAP1 SSTORE SWAP2 DUP6 AND DUP2 MSTORE SWAP1 DUP2 KECCAK256 DUP1 SLOAD DUP5 SWAP3 SWAP1 PUSH2 0xA33 SWAP1 DUP5 SWAP1 PUSH2 0xDA5 JUMP JUMPDEST SWAP3 POP POP DUP2 SWAP1 SSTORE POP DUP3 PUSH1 0x1 PUSH1 0x1 PUSH1 0xA0 SHL SUB AND DUP5 PUSH1 0x1 PUSH1 0x1 PUSH1 0xA0 SHL SUB AND PUSH32 0xDDF252AD1BE2C89B69C2B068FC378DAA952BA7F163C4A11628F55A4DF523B3EF DUP5 PUSH1 0x40 MLOAD PUSH2 0xA7F SWAP2 DUP2 MSTORE PUSH1 0x20 ADD SWAP1 JUMP JUMPDEST PUSH1 0x40 MLOAD DUP1 SWAP2 SUB SWAP1 LOG3 POP POP POP POP JUMP JUMPDEST PUSH1 0x1 PUSH1 0x1 PUSH1 0xA0 SHL SUB DUP3 AND PUSH2 0xAE3 JUMPI PUSH1 0x40 MLOAD PUSH3 0x461BCD PUSH1 0xE5 SHL DUP2 MSTORE PUSH1 0x20 PUSH1 0x4 DUP3 ADD MSTORE PUSH1 0x1F PUSH1 0x24 DUP3 ADD MSTORE PUSH32 0x45524332303A206D696E7420746F20746865207A65726F206164647265737300 PUSH1 0x44 DUP3 ADD MSTORE PUSH1 0x64 ADD PUSH2 0x3E7 JUMP JUMPDEST DUP1 PUSH1 0x2 PUSH1 0x0 DUP3 DUP3 SLOAD PUSH2 0xAF5 SWAP2 SWAP1 PUSH2 0xDA5 JUMP JUMPDEST SWAP1 SWAP2 SSTORE POP POP PUSH1 0x1 PUSH1 0x1 PUSH1 0xA0 SHL SUB DUP3 AND PUSH1 0x0 SWAP1 DUP2 MSTORE PUSH1 0x20 DUP2 SWAP1 MSTORE PUSH1 0x40 DUP2 KECCAK256 DUP1 SLOAD DUP4 SWAP3 SWAP1 PUSH2 0xB22 SWAP1 DUP5 SWAP1 PUSH2 0xDA5 JUMP JUMPDEST SWAP1 SWAP2 SSTORE POP POP PUSH1 0x40 MLOAD DUP2 DUP2 MSTORE PUSH1 0x1 PUSH1 0x1 PUSH1 0xA0 SHL SUB DUP4 AND SWAP1 PUSH1 0x0 SWAP1 PUSH32 0xDDF252AD1BE2C89B69C2B068FC378DAA952BA7F163C4A11628F55A4DF523B3EF SWAP1 PUSH1 0x20 ADD PUSH1 0x40 MLOAD DUP1 SWAP2 SUB SWAP1 LOG3 POP POP JUMP JUMPDEST PUSH1 0x5 DUP1 SLOAD PUSH1 0x1 PUSH1 0x1 PUSH1 0xA0 SHL SUB DUP4 DUP2 AND PUSH1 0x1 PUSH1 0x1 PUSH1 0xA0 SHL SUB NOT DUP4 AND DUP2 OR SWAP1 SWAP4 SSTORE PUSH1 0x40 MLOAD SWAP2 AND SWAP2 SWAP1 DUP3 SWAP1 PUSH32 0x8BE0079C531659141344CD1FD0A4F28419497F9722A3DAAFE3B4186F6B6457E0 SWAP1 PUSH1 0x0 SWAP1 LOG3 POP POP JUMP JUMPDEST DUP1 CALLDATALOAD PUSH1 0x1 PUSH1 0x1 PUSH1 0xA0 SHL SUB DUP2 AND DUP2 EQ PUSH2 0xBD5 JUMPI PUSH1 0x0 DUP1 REVERT JUMPDEST SWAP2 SWAP1 POP JUMP JUMPDEST PUSH1 0x0 PUSH1 0x20 DUP3 DUP5 SUB SLT ISZERO PUSH2 0xBEC JUMPI PUSH1 0x0 DUP1 REVERT JUMPDEST PUSH2 0xBF5 DUP3 PUSH2 0xBBE JUMP JUMPDEST SWAP4 SWAP3 POP POP POP JUMP JUMPDEST PUSH1 0x0 DUP1 PUSH1 0x40 DUP4 DUP6 SUB SLT ISZERO PUSH2 0xC0F JUMPI PUSH1 0x0 DUP1 REVERT JUMPDEST PUSH2 0xC18 DUP4 PUSH2 0xBBE JUMP JUMPDEST SWAP2 POP PUSH2 0xC26 PUSH1 0x20 DUP5 ADD PUSH2 0xBBE JUMP JUMPDEST SWAP1 POP SWAP3 POP SWAP3 SWAP1 POP JUMP JUMPDEST PUSH1 0x0 DUP1 PUSH1 0x0 PUSH1 0x60 DUP5 DUP7 SUB SLT ISZERO PUSH2 0xC44 JUMPI PUSH1 0x0 DUP1 REVERT JUMPDEST PUSH2 0xC4D DUP5 PUSH2 0xBBE JUMP JUMPDEST SWAP3 POP PUSH2 0xC5B PUSH1 0x20 DUP6 ADD PUSH2 0xBBE JUMP JUMPDEST SWAP2 POP PUSH1 0x40 DUP5 ADD CALLDATALOAD SWAP1 POP SWAP3 POP SWAP3 POP SWAP3 JUMP JUMPDEST PUSH1 0x0 DUP1 PUSH1 0x40 DUP4 DUP6 SUB SLT ISZERO PUSH2 0xC7E JUMPI PUSH1 0x0 DUP1 REVERT JUMPDEST PUSH2 0xC87 DUP4 PUSH2 0xBBE JUMP JUMPDEST SWAP5 PUSH1 0x20 SWAP4 SWAP1 SWAP4 ADD CALLDATALOAD SWAP4 POP POP POP JUMP JUMPDEST PUSH1 0x0 DUP1 PUSH1 0x40 DUP4 DUP6 SUB SLT ISZERO PUSH2 0xCA8 JUMPI PUSH1 0x0 DUP1 REVERT JUMPDEST DUP3 CALLDATALOAD SWAP2 POP PUSH1 0x20 DUP4 ADD CALLDATALOAD PUSH8 0xFFFFFFFFFFFFFFFF DUP1 DUP3 GT ISZERO PUSH2 0xCC7 JUMPI PUSH1 0x0 DUP1 REVERT JUMPDEST DUP2 DUP6 ADD SWAP2 POP DUP6 PUSH1 0x1F DUP4 ADD SLT PUSH2 0xCDB JUMPI PUSH1 0x0 DUP1 REVERT JUMPDEST DUP2 CALLDATALOAD DUP2 DUP2 GT ISZERO PUSH2 0xCED JUMPI PUSH2 0xCED PUSH2 0xE06 JUMP JUMPDEST PUSH1 0x40 MLOAD PUSH1 0x1F DUP3 ADD PUSH1 0x1F NOT SWAP1 DUP2 AND PUSH1 0x3F ADD AND DUP2 ADD SWAP1 DUP4 DUP3 GT DUP2 DUP4 LT OR ISZERO PUSH2 0xD15 JUMPI PUSH2 0xD15 PUSH2 0xE06 JUMP JUMPDEST DUP2 PUSH1 0x40 MSTORE DUP3 DUP2 MSTORE DUP9 PUSH1 0x20 DUP5 DUP8 ADD ADD GT ISZERO PUSH2 0xD2E JUMPI PUSH1 0x0 DUP1 REVERT JUMPDEST DUP3 PUSH1 0x20 DUP7 ADD PUSH1 0x20 DUP4 ADD CALLDATACOPY PUSH1 0x0 PUSH1 0x20 DUP5 DUP4 ADD ADD MSTORE DUP1 SWAP6 POP POP POP POP POP POP SWAP3 POP SWAP3 SWAP1 POP JUMP JUMPDEST PUSH1 0x0 PUSH1 0x20 DUP1 DUP4 MSTORE DUP4 MLOAD DUP1 DUP3 DUP6 ADD MSTORE PUSH1 0x0 JUMPDEST DUP2 DUP2 LT ISZERO PUSH2 0xD7D JUMPI DUP6 DUP2 ADD DUP4 ADD MLOAD DUP6 DUP3 ADD PUSH1 0x40 ADD MSTORE DUP3 ADD PUSH2 0xD61 JUMP JUMPDEST DUP2 DUP2 GT ISZERO PUSH2 0xD8F JUMPI PUSH1 0x0 PUSH1 0x40 DUP4 DUP8 ADD ADD MSTORE JUMPDEST POP PUSH1 0x1F ADD PUSH1 0x1F NOT AND SWAP3 SWAP1 SWAP3 ADD PUSH1 0x40 ADD SWAP4 SWAP3 POP POP POP JUMP JUMPDEST PUSH1 0x0 DUP3 NOT DUP3 GT ISZERO PUSH2 0xDC6 JUMPI PUSH4 0x4E487B71 PUSH1 0xE0 SHL PUSH1 0x0 MSTORE PUSH1 0x11 PUSH1 0x4 MSTORE PUSH1 0x24 PUSH1 0x0 REVERT JUMPDEST POP ADD SWAP1 JUMP JUMPDEST PUSH1 0x1 DUP2 DUP2 SHR SWAP1 DUP3 AND DUP1 PUSH2 0xDDF JUMPI PUSH1 0x7F DUP3 AND SWAP2 POP JUMPDEST PUSH1 0x20 DUP3 LT DUP2 EQ ISZERO PUSH2 0xE00 JUMPI PUSH4 0x4E487B71 PUSH1 0xE0 SHL PUSH1 0x0 MSTORE PUSH1 0x22 PUSH1 0x4 MSTORE PUSH1 0x24 PUSH1 0x0 REVERT JUMPDEST POP SWAP2 SWAP1 POP JUMP JUMPDEST PUSH4 0x4E487B71 PUSH1 0xE0 SHL PUSH1 0x0 MSTORE PUSH1 0x41 PUSH1 0x4 MSTORE PUSH1 0x24 PUSH1 0x0 REVERT INVALID LOG2 PUSH5 0x6970667358 0x22 SLT KECCAK256 SWAP1 SWAP13 SDIV 0xD0 SHR GAS 0xC4 DUP4 PUSH21 0x6F3215AB089001E5AECF84AE97B29C21619BD54215 CALLDATACOPY PUSH26 0x64736F6C63430008070033000000000000000000000000000000 "
				},
				"gasEstimates": {
					"creation": {
						"codeDepositCost": "733200",
						"executionCost": "infinite",
						"totalCost": "infinite"
					},
					"external": {
						"allowance(address,address)": "infinite",
						"approve(address,uint256)": "24647",
						"balanceOf(address)": "2629",
						"decimals()": "222",
						"decreaseAllowance(address,uint256)": "26967",
						"increaseAllowance(address,uint256)": "27012",
						"mint(uint256,bytes)": "infinite",
						"name()": "infinite",
						"owner()": "2324",
						"symbol()": "infinite",
						"totalSupply()": "2349",
						"transfer(address,uint256)": "51192",
						"transferFrom(address,address,uint256)": "infinite",
						"transferOwnership(address)": "28400"
					}
				},
				"methodIdentifiers": {
					"allowance(address,address)": "dd62ed3e",
					"approve(address,uint256)": "095ea7b3",
					"balanceOf(address)": "70a08231",
					"decimals()": "313ce567",
					"decreaseAllowance(address,uint256)": "a457c2d7",
					"increaseAllowance(address,uint256)": "39509351",
					"mint(uint256,bytes)": "db7fd408",
					"name()": "06fdde03",
					"owner()": "8da5cb5b",
					"symbol()": "95d89b41",
					"totalSupply()": "18160ddd",
					"transfer(address,uint256)": "a9059cbb",
					"transferFrom(address,address,uint256)": "23b872dd",
					"transferOwnership(address)": "f2fde38b"
				}
			},
			"userdoc": {
				"kind": "user",
				"methods": {},
				"version": 1
			}
		}
	}
}