{
	"wLONG/wLONG.sol": {
		"wLONG": {
			"abi": [
				{
					"inputs": [],
					"stateMutability": "nonpayable",
					"type": "constructor"
				},
				{
					"anonymous": false,
					"inputs": [
						{
							"indexed": true,
							"internalType": "address",
							"name": "owner",
							"type": "address"
						},
						{
							"indexed": true,
							"internalType": "address",
							"name": "spender",
							"type": "address"
						},
						{
							"indexed": false,
							"internalType": "uint256",
							"name": "value",
							"type": "uint256"
						}
					],
					"name": "Approval",
					"type": "event"
				},
				{
					"anonymous": false,
					"inputs": [
						{
							"indexed": true,
							"internalType": "address",
							"name": "previousOwner",
							"type": "address"
						},
						{
							"indexed": true,
							"internalType": "address",
							"name": "newOwner",
							"type": "address"
						}
					],
					"name": "OwnershipTransferred",
					"type": "event"
				},
				{
					"anonymous": false,
					"inputs": [
						{
							"indexed": true,
							"internalType": "address",
							"name": "from",
							"type": "address"
						},
						{
							"indexed": true,
							"internalType": "address",
							"name": "to",
							"type": "address"
						},
						{
							"indexed": false,
							"internalType": "uint256",
							"name": "value",
							"type": "uint256"
						}
					],
					"name": "Transfer",
					"type": "event"
				},
				{
					"inputs": [
						{
							"internalType": "address",
							"name": "owner",
							"type": "address"
						},
						{
							"internalType": "address",
							"name": "spender",
							"type": "address"
						}
					],
					"name": "allowance",
					"outputs": [
						{
							"internalType": "uint256",
							"name": "",
							"type": "uint256"
						}
					],
					"stateMutability": "view",
					"type": "function"
				},
				{
					"inputs": [
						{
							"internalType": "address",
							"name": "spender",
							"type": "address"
						},
						{
							"internalType": "uint256",
							"name": "amount",
							"type": "uint256"
						}
					],
					"name": "approve",
					"outputs": [
						{
							"internalType": "bool",
							"name": "",
							"type": "bool"
						}
					],
					"stateMutability": "nonpayable",
					"type": "function"
				},
				{
					"inputs": [
						{
							"internalType": "address",
							"name": "account",
							"type": "address"
						}
					],
					"name": "balanceOf",
					"outputs": [
						{
							"internalType": "uint256",
							"name": "",
							"type": "uint256"
						}
					],
					"stateMutability": "view",
					"type": "function"
				},
				{
					"inputs": [],
					"name": "decimals",
					"outputs": [
						{
							"internalType": "uint8",
							"name": "",
							"type": "uint8"
						}
					],
					"stateMutability": "view",
					"type": "function"
				},
				{
					"inputs": [
						{
							"internalType": "address",
							"name": "spender",
							"type": "address"
						},
						{
							"internalType": "uint256",
							"name": "subtractedValue",
							"type": "uint256"
						}
					],
					"name": "decreaseAllowance",
					"outputs": [
						{
							"internalType": "bool",
							"name": "",
							"type": "bool"
						}
					],
					"stateMutability": "nonpayable",
					"type": "function"
				},
				{
					"inputs": [
						{
							"internalType": "address",
							"name": "spender",
							"type": "address"
						},
						{
							"internalType": "uint256",
							"name": "addedValue",
							"type": "uint256"
						}
					],
					"name": "increaseAllowance",
					"outputs": [
						{
							"internalType": "bool",
							"name": "",
							"type": "bool"
						}
					],
					"stateMutability": "nonpayable",
					"type": "function"
				},
				{
					"inputs": [
						{
							"internalType": "uint256",
							"name": "amount",
							"type": "uint256"
						},
						{
							"internalType": "bytes",
							"name": "signature",
							"type": "bytes"
						}
					],
					"name": "mint",
					"outputs": [
						{
							"internalType": "bool",
							"name": "",
							"type": "bool"
						}
					],
					"stateMutability": "nonpayable",
					"type": "function"
				},
				{
					"inputs": [],
					"name": "name",
					"outputs": [
						{
							"internalType": "string",
							"name": "",
							"type": "string"
						}
					],
					"stateMutability": "view",
					"type": "function"
				},
				{
					"inputs": [],
					"name": "owner",
					"outputs": [
						{
							"internalType": "address",
							"name": "",
							"type": "address"
						}
					],
					"stateMutability": "view",
					"type": "function"
				},
				{
					"inputs": [],
					"name": "symbol",
					"outputs": [
						{
							"internalType": "string",
							"name": "",
							"type": "string"
						}
					],
					"stateMutability": "view",
					"type": "function"
				},
				{
					"inputs": [],
					"name": "totalSupply",
					"outputs": [
						{
							"internalType": "uint256",
							"name": "",
							"type": "uint256"
						}
					],
					"stateMutability": "view",
					"type": "function"
				},
				{
					"inputs": [
						{
							"internalType": "address",
							"name": "to",
							"type": "address"
						},
						{
							"internalType": "uint256",
							"name": "amount",
							"type": "uint256"
						}
					],
					"name": "transfer",
					"outputs": [
						{
							"internalType": "bool",
							"name": "",
							"type": "bool"
						}
					],
					"stateMutability": "nonpayable",
					"type": "function"
				},
				{
					"inputs": [
						{
							"internalType": "address",
							"name": "from",
							"type": "address"
						},
						{
							"internalType": "address",
							"name": "to",
							"type": "address"
						},
						{
							"internalType": "uint256",
							"name": "amount",
							"type": "uint256"
						}
					],
					"name": "transferFrom",
					"outputs": [
						{
							"internalType": "bool",
							"name": "",
							"type": "bool"
						}
					],
					"stateMutability": "nonpayable",
					"type": "function"
				},
				{
					"inputs": [
						{
							"internalType": "address",
							"name": "newOwner",
							"type": "address"
						}
					],
					"name": "transferOwnership",
					"outputs": [],
					"stateMutability": "nonpayable",
					"type": "function"
				}
			],
			"devdoc": {
				"kind": "dev",
				"methods": {
					"allowance(address,address)": {
						"details": "See {IERC20-allowance}."
					},
					"approve(address,uint256)": {
						"details": "See {IERC20-approve}. NOTE: If `amount` is the maximum `uint256`, the allowance is not updated on `transferFrom`. This is semantically equivalent to an infinite approval. Requirements: - `spender` cannot be the zero address."
					},
					"balanceOf(address)": {
						"details": "See {IERC20-balanceOf}."
					},
					"decimals()": {
						"details": " decimals столькоже сколько и в орегинальном LONG coin, totalSupply изначально 0, так как токены минтятся юзерами через купоны, подтверждающие сжигание LONG"
					},
					"decreaseAllowance(address,uint256)": {
						"details": "Atomically decreases the allowance granted to `spender` by the caller. This is an alternative to {approve} that can be used as a mitigation for problems described in {IERC20-approve}. Emits an {Approval} event indicating the updated allowance. Requirements: - `spender` cannot be the zero address. - `spender` must have allowance for the caller of at least `subtractedValue`."
					},
					"increaseAllowance(address,uint256)": {
						"details": "Atomically increases the allowance granted to `spender` by the caller. This is an alternative to {approve} that can be used as a mitigation for problems described in {IERC20-approve}. Emits an {Approval} event indicating the updated allowance. Requirements: - `spender` cannot be the zero address."
					},
					"mint(uint256,bytes)": {
						"details": "Это единственный метод для минтинга wLONG. Вызывающий адрес долже предоставить валидную сигнатуру (купон), полученную после сжигагия орегинальных LONG в количестве amount"
					},
					"name()": {
						"details": "Returns the name of the token."
					},
					"owner()": {
						"details": "Returns the address of the current owner."
					},
					"symbol()": {
						"details": "Returns the symbol of the token, usually a shorter version of the name."
					},
					"totalSupply()": {
						"details": "See {IERC20-totalSupply}."
					},
					"transfer(address,uint256)": {
						"details": "See {IERC20-transfer}. Requirements: - `to` cannot be the zero address. - the caller must have a balance of at least `amount`."
					},
					"transferFrom(address,address,uint256)": {
						"details": "See {IERC20-transferFrom}. Emits an {Approval} event indicating the updated allowance. This is not required by the EIP. See the note at the beginning of {ERC20}. NOTE: Does not update the allowance if the current allowance is the maximum `uint256`. Requirements: - `from` and `to` cannot be the zero address. - `from` must have a balance of at least `amount`. - the caller must have allowance for ``from``'s tokens of at least `amount`."
					},
					"transferOwnership(address)": {
						"details": "Transfers ownership of the contract to a new account (`newOwner`). Can only be called by the current owner."
					}
				},
				"stateVariables": {
					"_rset": {
						"details": "Для проверки купонов на сожженный LONG используем механизм ECDSA-подписи,  где r-часть юзабельна как одноразовый лицензионный ключ. Чтобы не было подделок нужно r=k*G генерировать каждый раз из нового случайного k (nonce)!!! При такой схеме в хешь сообщения включается число сожженных LONG а восстанавливаемый при проверке  сигнатуры адрес (публичный ключь) - это _owner-адрес в контракте (возможна его смена при компроментации) Важно! Для предотвращения Front Running в хешь сообщения подмешивается также адрес отправителя (_msgSender()), то есть купоны на сжигание всегда именные и заюзать с другого адреса невозможно "
					}
				},
				"version": 1
			},
			"evm": {
				"assembly": "    /* \"wLONG/wLONG.sol\":448:5748  contract wLONG is ERC20, Ownable {... */\n  mstore(0x40, 0x80)\n    /* \"wLONG/wLONG.sol\":488:539  constructor() ERC20(\"wrapped LONG\",\"wLONG\") {... */\n  callvalue\n  dup1\n  iszero\n  tag_1\n  jumpi\n  0x00\n  dup1\n  revert\ntag_1:\n  pop\n    /* \"wLONG/ERC20.sol\":1957:2070  constructor(string memory name_, string memory symbol_) {... */\n  mload(0x40)\n  dup1\n  0x40\n  add\n  0x40\n  mstore\n  dup1\n  0x0c\n  dup2\n  mstore\n  0x20\n  add\n  0x77726170706564204c4f4e470000000000000000000000000000000000000000\n  dup2\n  mstore\n  pop\n  mload(0x40)\n  dup1\n  0x40\n  add\n  0x40\n  mstore\n  dup1\n  0x05\n  dup2\n  mstore\n  0x20\n  add\n  0x774c4f4e47000000000000000000000000000000000000000000000000000000\n  dup2\n  mstore\n  pop\n    /* \"wLONG/ERC20.sol\":2031:2036  name_ */\n  dup2\n    /* \"wLONG/ERC20.sol\":2023:2028  _name */\n  0x03\n    /* \"wLONG/ERC20.sol\":2023:2036  _name = name_ */\n  swap1\n  dup1\n  mload\n  swap1\n  0x20\n  add\n  swap1\n  tag_6\n  swap3\n  swap2\n  swap1\n  tag_7\n  jump\t// in\ntag_6:\n  pop\n    /* \"wLONG/ERC20.sol\":2056:2063  symbol_ */\n  dup1\n    /* \"wLONG/ERC20.sol\":2046:2053  _symbol */\n  0x04\n    /* \"wLONG/ERC20.sol\":2046:2063  _symbol = symbol_ */\n  swap1\n  dup1\n  mload\n  swap1\n  0x20\n  add\n  swap1\n  tag_8\n  swap3\n  swap2\n  swap1\n  tag_7\n  jump\t// in\ntag_8:\n  pop\n    /* \"wLONG/ERC20.sol\":1957:2070  constructor(string memory name_, string memory symbol_) {... */\n  pop\n  pop\n    /* \"wLONG/Ownable.sol\":914:946  _transferOwnership(_msgSender()) */\n  tag_10\n    /* \"wLONG/Ownable.sol\":933:945  _msgSender() */\n  tag_11\n    /* \"wLONG/Ownable.sol\":933:943  _msgSender */\n  shl(0x20, tag_12)\n    /* \"wLONG/Ownable.sol\":933:945  _msgSender() */\n  0x20\n  shr\n  jump\t// in\ntag_11:\n    /* \"wLONG/Ownable.sol\":914:932  _transferOwnership */\n  shl(0x20, tag_13)\n    /* \"wLONG/Ownable.sol\":914:946  _transferOwnership(_msgSender()) */\n  0x20\n  shr\n  jump\t// in\ntag_10:\n    /* \"wLONG/wLONG.sol\":448:5748  contract wLONG is ERC20, Ownable {... */\n  jump(tag_15)\n    /* \"wLONG/Context.sol\":640:736  function _msgSender() internal view virtual returns (address) {... */\ntag_12:\n    /* \"wLONG/Context.sol\":693:700  address */\n  0x00\n    /* \"wLONG/Context.sol\":719:729  msg.sender */\n  caller\n    /* \"wLONG/Context.sol\":712:729  return msg.sender */\n  swap1\n  pop\n    /* \"wLONG/Context.sol\":640:736  function _msgSender() internal view virtual returns (address) {... */\n  swap1\n  jump\t// out\n    /* \"wLONG/Ownable.sol\":2269:2456  function _transferOwnership(address newOwner) internal virtual {... */\ntag_13:\n    /* \"wLONG/Ownable.sol\":2342:2358  address oldOwner */\n  0x00\n    /* \"wLONG/Ownable.sol\":2361:2367  _owner */\n  0x05\n  0x00\n  swap1\n  sload\n  swap1\n  0x0100\n  exp\n  swap1\n  div\n  0xffffffffffffffffffffffffffffffffffffffff\n  and\n    /* \"wLONG/Ownable.sol\":2342:2367  address oldOwner = _owner */\n  swap1\n  pop\n    /* \"wLONG/Ownable.sol\":2386:2394  newOwner */\n  dup2\n    /* \"wLONG/Ownable.sol\":2377:2383  _owner */\n  0x05\n  0x00\n    /* \"wLONG/Ownable.sol\":2377:2394  _owner = newOwner */\n  0x0100\n  exp\n  dup2\n  sload\n  dup2\n  0xffffffffffffffffffffffffffffffffffffffff\n  mul\n  not\n  and\n  swap1\n  dup4\n  0xffffffffffffffffffffffffffffffffffffffff\n  and\n  mul\n  or\n  swap1\n  sstore\n  pop\n    /* \"wLONG/Ownable.sol\":2440:2448  newOwner */\n  dup2\n    /* \"wLONG/Ownable.sol\":2409:2449  OwnershipTransferred(oldOwner, newOwner) */\n  0xffffffffffffffffffffffffffffffffffffffff\n  and\n    /* \"wLONG/Ownable.sol\":2430:2438  oldOwner */\n  dup2\n    /* \"wLONG/Ownable.sol\":2409:2449  OwnershipTransferred(oldOwner, newOwner) */\n  0xffffffffffffffffffffffffffffffffffffffff\n  and\n  0x8be0079c531659141344cd1fd0a4f28419497f9722a3daafe3b4186f6b6457e0\n  mload(0x40)\n  mload(0x40)\n  dup1\n  swap2\n  sub\n  swap1\n  log3\n    /* \"wLONG/Ownable.sol\":2332:2456  {... */\n  pop\n    /* \"wLONG/Ownable.sol\":2269:2456  function _transferOwnership(address newOwner) internal virtual {... */\n  pop\n  jump\t// out\n    /* \"wLONG/wLONG.sol\":448:5748  contract wLONG is ERC20, Ownable {... */\ntag_7:\n  dup3\n  dup1\n  sload\n  tag_18\n  swap1\n  tag_19\n  jump\t// in\ntag_18:\n  swap1\n  0x00\n  mstore\n  keccak256(0x00, 0x20)\n  swap1\n  0x1f\n  add\n  0x20\n  swap1\n  div\n  dup2\n  add\n  swap3\n  dup3\n  tag_21\n  jumpi\n  0x00\n  dup6\n  sstore\n  jump(tag_20)\ntag_21:\n  dup3\n  0x1f\n  lt\n  tag_22\n  jumpi\n  dup1\n  mload\n  not(0xff)\n  and\n  dup4\n  dup1\n  add\n  or\n  dup6\n  sstore\n  jump(tag_20)\ntag_22:\n  dup3\n  dup1\n  add\n  0x01\n  add\n  dup6\n  sstore\n  dup3\n  iszero\n  tag_20\n  jumpi\n  swap2\n  dup3\n  add\ntag_23:\n  dup3\n  dup2\n  gt\n  iszero\n  tag_24\n  jumpi\n  dup3\n  mload\n  dup3\n  sstore\n  swap2\n  0x20\n  add\n  swap2\n  swap1\n  0x01\n  add\n  swap1\n  jump(tag_23)\ntag_24:\ntag_20:\n  pop\n  swap1\n  pop\n  tag_25\n  swap2\n  swap1\n  tag_26\n  jump\t// in\ntag_25:\n  pop\n  swap1\n  jump\t// out\ntag_26:\ntag_27:\n  dup1\n  dup3\n  gt\n  iszero\n  tag_28\n  jumpi\n  0x00\n  dup2\n  0x00\n  swap1\n  sstore\n  pop\n  0x01\n  add\n  jump(tag_27)\ntag_28:\n  pop\n  swap1\n  jump\t// out\n    /* \"#utility.yul\":7:327   */\ntag_19:\n    /* \"#utility.yul\":51:57   */\n  0x00\n    /* \"#utility.yul\":88:89   */\n  0x02\n    /* \"#utility.yul\":82:86   */\n  dup3\n    /* \"#utility.yul\":78:90   */\n  div\n    /* \"#utility.yul\":68:90   */\n  swap1\n  pop\n    /* \"#utility.yul\":135:136   */\n  0x01\n    /* \"#utility.yul\":129:133   */\n  dup3\n    /* \"#utility.yul\":125:137   */\n  and\n    /* \"#utility.yul\":156:174   */\n  dup1\n    /* \"#utility.yul\":146:227   */\n  tag_31\n  jumpi\n    /* \"#utility.yul\":212:216   */\n  0x7f\n    /* \"#utility.yul\":204:210   */\n  dup3\n    /* \"#utility.yul\":200:217   */\n  and\n    /* \"#utility.yul\":190:217   */\n  swap2\n  pop\n    /* \"#utility.yul\":146:227   */\ntag_31:\n    /* \"#utility.yul\":274:276   */\n  0x20\n    /* \"#utility.yul\":266:272   */\n  dup3\n    /* \"#utility.yul\":263:277   */\n  lt\n    /* \"#utility.yul\":243:261   */\n  dup2\n    /* \"#utility.yul\":240:278   */\n  eq\n    /* \"#utility.yul\":237:321   */\n  iszero\n  tag_32\n  jumpi\n    /* \"#utility.yul\":293:311   */\n  tag_33\n  tag_34\n  jump\t// in\ntag_33:\n    /* \"#utility.yul\":237:321   */\ntag_32:\n    /* \"#utility.yul\":58:327   */\n  pop\n    /* \"#utility.yul\":7:327   */\n  swap2\n  swap1\n  pop\n  jump\t// out\n    /* \"#utility.yul\":333:513   */\ntag_34:\n    /* \"#utility.yul\":381:458   */\n  0x4e487b7100000000000000000000000000000000000000000000000000000000\n    /* \"#utility.yul\":378:379   */\n  0x00\n    /* \"#utility.yul\":371:459   */\n  mstore\n    /* \"#utility.yul\":478:482   */\n  0x22\n    /* \"#utility.yul\":475:476   */\n  0x04\n    /* \"#utility.yul\":468:483   */\n  mstore\n    /* \"#utility.yul\":502:506   */\n  0x24\n    /* \"#utility.yul\":499:500   */\n  0x00\n    /* \"#utility.yul\":492:507   */\n  revert\n    /* \"wLONG/wLONG.sol\":448:5748  contract wLONG is ERC20, Ownable {... */\ntag_15:\n  dataSize(sub_0)\n  dup1\n  dataOffset(sub_0)\n  0x00\n  codecopy\n  0x00\n  return\nstop\n\nsub_0: assembly {\n        /* \"wLONG/wLONG.sol\":448:5748  contract wLONG is ERC20, Ownable {... */\n      mstore(0x40, 0x80)\n      callvalue\n      dup1\n      iszero\n      tag_1\n      jumpi\n      0x00\n      dup1\n      revert\n    tag_1:\n      pop\n      jumpi(tag_2, lt(calldatasize, 0x04))\n      shr(0xe0, calldataload(0x00))\n      dup1\n      0x8da5cb5b\n      gt\n      tag_17\n      jumpi\n      dup1\n      0xa9059cbb\n      gt\n      tag_18\n      jumpi\n      dup1\n      0xa9059cbb\n      eq\n      tag_13\n      jumpi\n      dup1\n      0xdb7fd408\n      eq\n      tag_14\n      jumpi\n      dup1\n      0xdd62ed3e\n      eq\n      tag_15\n      jumpi\n      dup1\n      0xf2fde38b\n      eq\n      tag_16\n      jumpi\n      jump(tag_2)\n    tag_18:\n      dup1\n      0x8da5cb5b\n      eq\n      tag_10\n      jumpi\n      dup1\n      0x95d89b41\n      eq\n      tag_11\n      jumpi\n      dup1\n      0xa457c2d7\n      eq\n      tag_12\n      jumpi\n      jump(tag_2)\n    tag_17:\n      dup1\n      0x23b872dd\n      gt\n      tag_19\n      jumpi\n      dup1\n      0x23b872dd\n      eq\n      tag_6\n      jumpi\n      dup1\n      0x313ce567\n      eq\n      tag_7\n      jumpi\n      dup1\n      0x39509351\n      eq\n      tag_8\n      jumpi\n      dup1\n      0x70a08231\n      eq\n      tag_9\n      jumpi\n      jump(tag_2)\n    tag_19:\n      dup1\n      0x06fdde03\n      eq\n      tag_3\n      jumpi\n      dup1\n      0x095ea7b3\n      eq\n      tag_4\n      jumpi\n      dup1\n      0x18160ddd\n      eq\n      tag_5\n      jumpi\n    tag_2:\n      0x00\n      dup1\n      revert\n        /* \"wLONG/ERC20.sol\":2135:2233  function name() public view virtual override returns (string memory) {... */\n    tag_3:\n      tag_20\n      tag_21\n      jump\t// in\n    tag_20:\n      mload(0x40)\n      tag_22\n      swap2\n      swap1\n      tag_23\n      jump\t// in\n    tag_22:\n      mload(0x40)\n      dup1\n      swap2\n      sub\n      swap1\n      return\n        /* \"wLONG/ERC20.sol\":4412:4609  function approve(address spender, uint256 amount) public virtual override returns (bool) {... */\n    tag_4:\n      tag_24\n      0x04\n      dup1\n      calldatasize\n      sub\n      dup2\n      add\n      swap1\n      tag_25\n      swap2\n      swap1\n      tag_26\n      jump\t// in\n    tag_25:\n      tag_27\n      jump\t// in\n    tag_24:\n      mload(0x40)\n      tag_28\n      swap2\n      swap1\n      tag_29\n      jump\t// in\n    tag_28:\n      mload(0x40)\n      dup1\n      swap2\n      sub\n      swap1\n      return\n        /* \"wLONG/ERC20.sol\":3223:3329  function totalSupply() public view virtual override returns (uint256) {... */\n    tag_5:\n      tag_30\n      tag_31\n      jump\t// in\n    tag_30:\n      mload(0x40)\n      tag_32\n      swap2\n      swap1\n      tag_33\n      jump\t// in\n    tag_32:\n      mload(0x40)\n      dup1\n      swap2\n      sub\n      swap1\n      return\n        /* \"wLONG/ERC20.sol\":5171:5457  function transferFrom(... */\n    tag_6:\n      tag_34\n      0x04\n      dup1\n      calldatasize\n      sub\n      dup2\n      add\n      swap1\n      tag_35\n      swap2\n      swap1\n      tag_36\n      jump\t// in\n    tag_35:\n      tag_37\n      jump\t// in\n    tag_34:\n      mload(0x40)\n      tag_38\n      swap2\n      swap1\n      tag_29\n      jump\t// in\n    tag_38:\n      mload(0x40)\n      dup1\n      swap2\n      sub\n      swap1\n      return\n        /* \"wLONG/wLONG.sol\":835:925  function decimals() public view virtual override returns (uint8) {... */\n    tag_7:\n      tag_39\n      tag_40\n      jump\t// in\n    tag_39:\n      mload(0x40)\n      tag_41\n      swap2\n      swap1\n      tag_42\n      jump\t// in\n    tag_41:\n      mload(0x40)\n      dup1\n      swap2\n      sub\n      swap1\n      return\n        /* \"wLONG/ERC20.sol\":5852:6088  function increaseAllowance(address spender, uint256 addedValue) public virtual returns (bool) {... */\n    tag_8:\n      tag_43\n      0x04\n      dup1\n      calldatasize\n      sub\n      dup2\n      add\n      swap1\n      tag_44\n      swap2\n      swap1\n      tag_26\n      jump\t// in\n    tag_44:\n      tag_45\n      jump\t// in\n    tag_43:\n      mload(0x40)\n      tag_46\n      swap2\n      swap1\n      tag_29\n      jump\t// in\n    tag_46:\n      mload(0x40)\n      dup1\n      swap2\n      sub\n      swap1\n      return\n        /* \"wLONG/ERC20.sol\":3387:3512  function balanceOf(address account) public view virtual override returns (uint256) {... */\n    tag_9:\n      tag_47\n      0x04\n      dup1\n      calldatasize\n      sub\n      dup2\n      add\n      swap1\n      tag_48\n      swap2\n      swap1\n      tag_49\n      jump\t// in\n    tag_48:\n      tag_50\n      jump\t// in\n    tag_47:\n      mload(0x40)\n      tag_51\n      swap2\n      swap1\n      tag_33\n      jump\t// in\n    tag_51:\n      mload(0x40)\n      dup1\n      swap2\n      sub\n      swap1\n      return\n        /* \"wLONG/Ownable.sol\":1029:1114  function owner() public view virtual returns (address) {... */\n    tag_10:\n      tag_52\n      tag_53\n      jump\t// in\n    tag_52:\n      mload(0x40)\n      tag_54\n      swap2\n      swap1\n      tag_55\n      jump\t// in\n    tag_54:\n      mload(0x40)\n      dup1\n      swap2\n      sub\n      swap1\n      return\n        /* \"wLONG/ERC20.sol\":2346:2448  function symbol() public view virtual override returns (string memory) {... */\n    tag_11:\n      tag_56\n      tag_57\n      jump\t// in\n    tag_56:\n      mload(0x40)\n      tag_58\n      swap2\n      swap1\n      tag_23\n      jump\t// in\n    tag_58:\n      mload(0x40)\n      dup1\n      swap2\n      sub\n      swap1\n      return\n        /* \"wLONG/ERC20.sol\":6575:7004  function decreaseAllowance(address spender, uint256 subtractedValue) public virtual returns (bool) {... */\n    tag_12:\n      tag_59\n      0x04\n      dup1\n      calldatasize\n      sub\n      dup2\n      add\n      swap1\n      tag_60\n      swap2\n      swap1\n      tag_26\n      jump\t// in\n    tag_60:\n      tag_61\n      jump\t// in\n    tag_59:\n      mload(0x40)\n      tag_62\n      swap2\n      swap1\n      tag_29\n      jump\t// in\n    tag_62:\n      mload(0x40)\n      dup1\n      swap2\n      sub\n      swap1\n      return\n        /* \"wLONG/ERC20.sol\":3708:3897  function transfer(address to, uint256 amount) public virtual override returns (bool) {... */\n    tag_13:\n      tag_63\n      0x04\n      dup1\n      calldatasize\n      sub\n      dup2\n      add\n      swap1\n      tag_64\n      swap2\n      swap1\n      tag_26\n      jump\t// in\n    tag_64:\n      tag_65\n      jump\t// in\n    tag_63:\n      mload(0x40)\n      tag_66\n      swap2\n      swap1\n      tag_29\n      jump\t// in\n    tag_66:\n      mload(0x40)\n      dup1\n      swap2\n      sub\n      swap1\n      return\n        /* \"wLONG/wLONG.sol\":3129:5100  function mint(uint256 amount, bytes memory signature) external virtual returns (bool) {... */\n    tag_14:\n      tag_67\n      0x04\n      dup1\n      calldatasize\n      sub\n      dup2\n      add\n      swap1\n      tag_68\n      swap2\n      swap1\n      tag_69\n      jump\t// in\n    tag_68:\n      tag_70\n      jump\t// in\n    tag_67:\n      mload(0x40)\n      tag_71\n      swap2\n      swap1\n      tag_29\n      jump\t// in\n    tag_71:\n      mload(0x40)\n      dup1\n      swap2\n      sub\n      swap1\n      return\n        /* \"wLONG/ERC20.sol\":3955:4104  function allowance(address owner, address spender) public view virtual override returns (uint256) {... */\n    tag_15:\n      tag_72\n      0x04\n      dup1\n      calldatasize\n      sub\n      dup2\n      add\n      swap1\n      tag_73\n      swap2\n      swap1\n      tag_74\n      jump\t// in\n    tag_73:\n      tag_75\n      jump\t// in\n    tag_72:\n      mload(0x40)\n      tag_76\n      swap2\n      swap1\n      tag_33\n      jump\t// in\n    tag_76:\n      mload(0x40)\n      dup1\n      swap2\n      sub\n      swap1\n      return\n        /* \"wLONG/Ownable.sol\":1917:2115  function transferOwnership(address newOwner) public virtual onlyOwner {... */\n    tag_16:\n      tag_77\n      0x04\n      dup1\n      calldatasize\n      sub\n      dup2\n      add\n      swap1\n      tag_78\n      swap2\n      swap1\n      tag_49\n      jump\t// in\n    tag_78:\n      tag_79\n      jump\t// in\n    tag_77:\n      stop\n        /* \"wLONG/ERC20.sol\":2135:2233  function name() public view virtual override returns (string memory) {... */\n    tag_21:\n        /* \"wLONG/ERC20.sol\":2189:2202  string memory */\n      0x60\n        /* \"wLONG/ERC20.sol\":2221:2226  _name */\n      0x03\n        /* \"wLONG/ERC20.sol\":2214:2226  return _name */\n      dup1\n      sload\n      tag_81\n      swap1\n      tag_82\n      jump\t// in\n    tag_81:\n      dup1\n      0x1f\n      add\n      0x20\n      dup1\n      swap2\n      div\n      mul\n      0x20\n      add\n      mload(0x40)\n      swap1\n      dup2\n      add\n      0x40\n      mstore\n      dup1\n      swap3\n      swap2\n      swap1\n      dup2\n      dup2\n      mstore\n      0x20\n      add\n      dup3\n      dup1\n      sload\n      tag_83\n      swap1\n      tag_82\n      jump\t// in\n    tag_83:\n      dup1\n      iszero\n      tag_84\n      jumpi\n      dup1\n      0x1f\n      lt\n      tag_85\n      jumpi\n      0x0100\n      dup1\n      dup4\n      sload\n      div\n      mul\n      dup4\n      mstore\n      swap2\n      0x20\n      add\n      swap2\n      jump(tag_84)\n    tag_85:\n      dup3\n      add\n      swap2\n      swap1\n      0x00\n      mstore\n      keccak256(0x00, 0x20)\n      swap1\n    tag_86:\n      dup2\n      sload\n      dup2\n      mstore\n      swap1\n      0x01\n      add\n      swap1\n      0x20\n      add\n      dup1\n      dup4\n      gt\n      tag_86\n      jumpi\n      dup3\n      swap1\n      sub\n      0x1f\n      and\n      dup3\n      add\n      swap2\n    tag_84:\n      pop\n      pop\n      pop\n      pop\n      pop\n      swap1\n      pop\n        /* \"wLONG/ERC20.sol\":2135:2233  function name() public view virtual override returns (string memory) {... */\n      swap1\n      jump\t// out\n        /* \"wLONG/ERC20.sol\":4412:4609  function approve(address spender, uint256 amount) public virtual override returns (bool) {... */\n    tag_27:\n        /* \"wLONG/ERC20.sol\":4495:4499  bool */\n      0x00\n        /* \"wLONG/ERC20.sol\":4511:4524  address owner */\n      dup1\n        /* \"wLONG/ERC20.sol\":4527:4539  _msgSender() */\n      tag_88\n        /* \"wLONG/ERC20.sol\":4527:4537  _msgSender */\n      tag_89\n        /* \"wLONG/ERC20.sol\":4527:4539  _msgSender() */\n      jump\t// in\n    tag_88:\n        /* \"wLONG/ERC20.sol\":4511:4539  address owner = _msgSender() */\n      swap1\n      pop\n        /* \"wLONG/ERC20.sol\":4549:4581  _approve(owner, spender, amount) */\n      tag_90\n        /* \"wLONG/ERC20.sol\":4558:4563  owner */\n      dup2\n        /* \"wLONG/ERC20.sol\":4565:4572  spender */\n      dup6\n        /* \"wLONG/ERC20.sol\":4574:4580  amount */\n      dup6\n        /* \"wLONG/ERC20.sol\":4549:4557  _approve */\n      tag_91\n        /* \"wLONG/ERC20.sol\":4549:4581  _approve(owner, spender, amount) */\n      jump\t// in\n    tag_90:\n        /* \"wLONG/ERC20.sol\":4598:4602  true */\n      0x01\n        /* \"wLONG/ERC20.sol\":4591:4602  return true */\n      swap2\n      pop\n      pop\n        /* \"wLONG/ERC20.sol\":4412:4609  function approve(address spender, uint256 amount) public virtual override returns (bool) {... */\n      swap3\n      swap2\n      pop\n      pop\n      jump\t// out\n        /* \"wLONG/ERC20.sol\":3223:3329  function totalSupply() public view virtual override returns (uint256) {... */\n    tag_31:\n        /* \"wLONG/ERC20.sol\":3284:3291  uint256 */\n      0x00\n        /* \"wLONG/ERC20.sol\":3310:3322  _totalSupply */\n      sload(0x02)\n        /* \"wLONG/ERC20.sol\":3303:3322  return _totalSupply */\n      swap1\n      pop\n        /* \"wLONG/ERC20.sol\":3223:3329  function totalSupply() public view virtual override returns (uint256) {... */\n      swap1\n      jump\t// out\n        /* \"wLONG/ERC20.sol\":5171:5457  function transferFrom(... */\n    tag_37:\n        /* \"wLONG/ERC20.sol\":5298:5302  bool */\n      0x00\n        /* \"wLONG/ERC20.sol\":5314:5329  address spender */\n      dup1\n        /* \"wLONG/ERC20.sol\":5332:5344  _msgSender() */\n      tag_94\n        /* \"wLONG/ERC20.sol\":5332:5342  _msgSender */\n      tag_89\n        /* \"wLONG/ERC20.sol\":5332:5344  _msgSender() */\n      jump\t// in\n    tag_94:\n        /* \"wLONG/ERC20.sol\":5314:5344  address spender = _msgSender() */\n      swap1\n      pop\n        /* \"wLONG/ERC20.sol\":5354:5392  _spendAllowance(from, spender, amount) */\n      tag_95\n        /* \"wLONG/ERC20.sol\":5370:5374  from */\n      dup6\n        /* \"wLONG/ERC20.sol\":5376:5383  spender */\n      dup3\n        /* \"wLONG/ERC20.sol\":5385:5391  amount */\n      dup6\n        /* \"wLONG/ERC20.sol\":5354:5369  _spendAllowance */\n      tag_96\n        /* \"wLONG/ERC20.sol\":5354:5392  _spendAllowance(from, spender, amount) */\n      jump\t// in\n    tag_95:\n        /* \"wLONG/ERC20.sol\":5402:5429  _transfer(from, to, amount) */\n      tag_97\n        /* \"wLONG/ERC20.sol\":5412:5416  from */\n      dup6\n        /* \"wLONG/ERC20.sol\":5418:5420  to */\n      dup6\n        /* \"wLONG/ERC20.sol\":5422:5428  amount */\n      dup6\n        /* \"wLONG/ERC20.sol\":5402:5411  _transfer */\n      tag_98\n        /* \"wLONG/ERC20.sol\":5402:5429  _transfer(from, to, amount) */\n      jump\t// in\n    tag_97:\n        /* \"wLONG/ERC20.sol\":5446:5450  true */\n      0x01\n        /* \"wLONG/ERC20.sol\":5439:5450  return true */\n      swap2\n      pop\n      pop\n        /* \"wLONG/ERC20.sol\":5171:5457  function transferFrom(... */\n      swap4\n      swap3\n      pop\n      pop\n      pop\n      jump\t// out\n        /* \"wLONG/wLONG.sol\":835:925  function decimals() public view virtual override returns (uint8) {... */\n    tag_40:\n        /* \"wLONG/wLONG.sol\":893:898  uint8 */\n      0x00\n        /* \"wLONG/wLONG.sol\":835:925  function decimals() public view virtual override returns (uint8) {... */\n      swap1\n      jump\t// out\n        /* \"wLONG/ERC20.sol\":5852:6088  function increaseAllowance(address spender, uint256 addedValue) public virtual returns (bool) {... */\n    tag_45:\n        /* \"wLONG/ERC20.sol\":5940:5944  bool */\n      0x00\n        /* \"wLONG/ERC20.sol\":5956:5969  address owner */\n      dup1\n        /* \"wLONG/ERC20.sol\":5972:5984  _msgSender() */\n      tag_101\n        /* \"wLONG/ERC20.sol\":5972:5982  _msgSender */\n      tag_89\n        /* \"wLONG/ERC20.sol\":5972:5984  _msgSender() */\n      jump\t// in\n    tag_101:\n        /* \"wLONG/ERC20.sol\":5956:5984  address owner = _msgSender() */\n      swap1\n      pop\n        /* \"wLONG/ERC20.sol\":5994:6060  _approve(owner, spender, _allowances[owner][spender] + addedValue) */\n      tag_102\n        /* \"wLONG/ERC20.sol\":6003:6008  owner */\n      dup2\n        /* \"wLONG/ERC20.sol\":6010:6017  spender */\n      dup6\n        /* \"wLONG/ERC20.sol\":6049:6059  addedValue */\n      dup6\n        /* \"wLONG/ERC20.sol\":6019:6030  _allowances */\n      0x01\n        /* \"wLONG/ERC20.sol\":6019:6037  _allowances[owner] */\n      0x00\n        /* \"wLONG/ERC20.sol\":6031:6036  owner */\n      dup7\n        /* \"wLONG/ERC20.sol\":6019:6037  _allowances[owner] */\n      0xffffffffffffffffffffffffffffffffffffffff\n      and\n      0xffffffffffffffffffffffffffffffffffffffff\n      and\n      dup2\n      mstore\n      0x20\n      add\n      swap1\n      dup2\n      mstore\n      0x20\n      add\n      0x00\n      keccak256\n        /* \"wLONG/ERC20.sol\":6019:6046  _allowances[owner][spender] */\n      0x00\n        /* \"wLONG/ERC20.sol\":6038:6045  spender */\n      dup10\n        /* \"wLONG/ERC20.sol\":6019:6046  _allowances[owner][spender] */\n      0xffffffffffffffffffffffffffffffffffffffff\n      and\n      0xffffffffffffffffffffffffffffffffffffffff\n      and\n      dup2\n      mstore\n      0x20\n      add\n      swap1\n      dup2\n      mstore\n      0x20\n      add\n      0x00\n      keccak256\n      sload\n        /* \"wLONG/ERC20.sol\":6019:6059  _allowances[owner][spender] + addedValue */\n      tag_103\n      swap2\n      swap1\n      tag_104\n      jump\t// in\n    tag_103:\n        /* \"wLONG/ERC20.sol\":5994:6002  _approve */\n      tag_91\n        /* \"wLONG/ERC20.sol\":5994:6060  _approve(owner, spender, _allowances[owner][spender] + addedValue) */\n      jump\t// in\n    tag_102:\n        /* \"wLONG/ERC20.sol\":6077:6081  true */\n      0x01\n        /* \"wLONG/ERC20.sol\":6070:6081  return true */\n      swap2\n      pop\n      pop\n        /* \"wLONG/ERC20.sol\":5852:6088  function increaseAllowance(address spender, uint256 addedValue) public virtual returns (bool) {... */\n      swap3\n      swap2\n      pop\n      pop\n      jump\t// out\n        /* \"wLONG/ERC20.sol\":3387:3512  function balanceOf(address account) public view virtual override returns (uint256) {... */\n    tag_50:\n        /* \"wLONG/ERC20.sol\":3461:3468  uint256 */\n      0x00\n        /* \"wLONG/ERC20.sol\":3487:3496  _balances */\n      dup1\n        /* \"wLONG/ERC20.sol\":3487:3505  _balances[account] */\n      0x00\n        /* \"wLONG/ERC20.sol\":3497:3504  account */\n      dup4\n        /* \"wLONG/ERC20.sol\":3487:3505  _balances[account] */\n      0xffffffffffffffffffffffffffffffffffffffff\n      and\n      0xffffffffffffffffffffffffffffffffffffffff\n      and\n      dup2\n      mstore\n      0x20\n      add\n      swap1\n      dup2\n      mstore\n      0x20\n      add\n      0x00\n      keccak256\n      sload\n        /* \"wLONG/ERC20.sol\":3480:3505  return _balances[account] */\n      swap1\n      pop\n        /* \"wLONG/ERC20.sol\":3387:3512  function balanceOf(address account) public view virtual override returns (uint256) {... */\n      swap2\n      swap1\n      pop\n      jump\t// out\n        /* \"wLONG/Ownable.sol\":1029:1114  function owner() public view virtual returns (address) {... */\n    tag_53:\n        /* \"wLONG/Ownable.sol\":1075:1082  address */\n      0x00\n        /* \"wLONG/Ownable.sol\":1101:1107  _owner */\n      0x05\n      0x00\n      swap1\n      sload\n      swap1\n      0x0100\n      exp\n      swap1\n      div\n      0xffffffffffffffffffffffffffffffffffffffff\n      and\n        /* \"wLONG/Ownable.sol\":1094:1107  return _owner */\n      swap1\n      pop\n        /* \"wLONG/Ownable.sol\":1029:1114  function owner() public view virtual returns (address) {... */\n      swap1\n      jump\t// out\n        /* \"wLONG/ERC20.sol\":2346:2448  function symbol() public view virtual override returns (string memory) {... */\n    tag_57:\n        /* \"wLONG/ERC20.sol\":2402:2415  string memory */\n      0x60\n        /* \"wLONG/ERC20.sol\":2434:2441  _symbol */\n      0x04\n        /* \"wLONG/ERC20.sol\":2427:2441  return _symbol */\n      dup1\n      sload\n      tag_108\n      swap1\n      tag_82\n      jump\t// in\n    tag_108:\n      dup1\n      0x1f\n      add\n      0x20\n      dup1\n      swap2\n      div\n      mul\n      0x20\n      add\n      mload(0x40)\n      swap1\n      dup2\n      add\n      0x40\n      mstore\n      dup1\n      swap3\n      swap2\n      swap1\n      dup2\n      dup2\n      mstore\n      0x20\n      add\n      dup3\n      dup1\n      sload\n      tag_109\n      swap1\n      tag_82\n      jump\t// in\n    tag_109:\n      dup1\n      iszero\n      tag_110\n      jumpi\n      dup1\n      0x1f\n      lt\n      tag_111\n      jumpi\n      0x0100\n      dup1\n      dup4\n      sload\n      div\n      mul\n      dup4\n      mstore\n      swap2\n      0x20\n      add\n      swap2\n      jump(tag_110)\n    tag_111:\n      dup3\n      add\n      swap2\n      swap1\n      0x00\n      mstore\n      keccak256(0x00, 0x20)\n      swap1\n    tag_112:\n      dup2\n      sload\n      dup2\n      mstore\n      swap1\n      0x01\n      add\n      swap1\n      0x20\n      add\n      dup1\n      dup4\n      gt\n      tag_112\n      jumpi\n      dup3\n      swap1\n      sub\n      0x1f\n      and\n      dup3\n      add\n      swap2\n    tag_110:\n      pop\n      pop\n      pop\n      pop\n      pop\n      swap1\n      pop\n        /* \"wLONG/ERC20.sol\":2346:2448  function symbol() public view virtual override returns (string memory) {... */\n      swap1\n      jump\t// out\n        /* \"wLONG/ERC20.sol\":6575:7004  function decreaseAllowance(address spender, uint256 subtractedValue) public virtual returns (bool) {... */\n    tag_61:\n        /* \"wLONG/ERC20.sol\":6668:6672  bool */\n      0x00\n        /* \"wLONG/ERC20.sol\":6684:6697  address owner */\n      dup1\n        /* \"wLONG/ERC20.sol\":6700:6712  _msgSender() */\n      tag_114\n        /* \"wLONG/ERC20.sol\":6700:6710  _msgSender */\n      tag_89\n        /* \"wLONG/ERC20.sol\":6700:6712  _msgSender() */\n      jump\t// in\n    tag_114:\n        /* \"wLONG/ERC20.sol\":6684:6712  address owner = _msgSender() */\n      swap1\n      pop\n        /* \"wLONG/ERC20.sol\":6722:6746  uint256 currentAllowance */\n      0x00\n        /* \"wLONG/ERC20.sol\":6749:6760  _allowances */\n      0x01\n        /* \"wLONG/ERC20.sol\":6749:6767  _allowances[owner] */\n      0x00\n        /* \"wLONG/ERC20.sol\":6761:6766  owner */\n      dup4\n        /* \"wLONG/ERC20.sol\":6749:6767  _allowances[owner] */\n      0xffffffffffffffffffffffffffffffffffffffff\n      and\n      0xffffffffffffffffffffffffffffffffffffffff\n      and\n      dup2\n      mstore\n      0x20\n      add\n      swap1\n      dup2\n      mstore\n      0x20\n      add\n      0x00\n      keccak256\n        /* \"wLONG/ERC20.sol\":6749:6776  _allowances[owner][spender] */\n      0x00\n        /* \"wLONG/ERC20.sol\":6768:6775  spender */\n      dup7\n        /* \"wLONG/ERC20.sol\":6749:6776  _allowances[owner][spender] */\n      0xffffffffffffffffffffffffffffffffffffffff\n      and\n      0xffffffffffffffffffffffffffffffffffffffff\n      and\n      dup2\n      mstore\n      0x20\n      add\n      swap1\n      dup2\n      mstore\n      0x20\n      add\n      0x00\n      keccak256\n      sload\n        /* \"wLONG/ERC20.sol\":6722:6776  uint256 currentAllowance = _allowances[owner][spender] */\n      swap1\n      pop\n        /* \"wLONG/ERC20.sol\":6814:6829  subtractedValue */\n      dup4\n        /* \"wLONG/ERC20.sol\":6794:6810  currentAllowance */\n      dup2\n        /* \"wLONG/ERC20.sol\":6794:6829  currentAllowance >= subtractedValue */\n      lt\n      iszero\n        /* \"wLONG/ERC20.sol\":6786:6871  require(currentAllowance >= subtractedValue, \"ERC20: decreased allowance below zero\") */\n      tag_115\n      jumpi\n      mload(0x40)\n      0x08c379a000000000000000000000000000000000000000000000000000000000\n      dup2\n      mstore\n      0x04\n      add\n      tag_116\n      swap1\n      tag_117\n      jump\t// in\n    tag_116:\n      mload(0x40)\n      dup1\n      swap2\n      sub\n      swap1\n      revert\n    tag_115:\n        /* \"wLONG/ERC20.sol\":6905:6965  _approve(owner, spender, currentAllowance - subtractedValue) */\n      tag_118\n        /* \"wLONG/ERC20.sol\":6914:6919  owner */\n      dup3\n        /* \"wLONG/ERC20.sol\":6921:6928  spender */\n      dup7\n        /* \"wLONG/ERC20.sol\":6949:6964  subtractedValue */\n      dup7\n        /* \"wLONG/ERC20.sol\":6930:6946  currentAllowance */\n      dup5\n        /* \"wLONG/ERC20.sol\":6930:6964  currentAllowance - subtractedValue */\n      sub\n        /* \"wLONG/ERC20.sol\":6905:6913  _approve */\n      tag_91\n        /* \"wLONG/ERC20.sol\":6905:6965  _approve(owner, spender, currentAllowance - subtractedValue) */\n      jump\t// in\n    tag_118:\n        /* \"wLONG/ERC20.sol\":6993:6997  true */\n      0x01\n        /* \"wLONG/ERC20.sol\":6986:6997  return true */\n      swap3\n      pop\n      pop\n      pop\n        /* \"wLONG/ERC20.sol\":6575:7004  function decreaseAllowance(address spender, uint256 subtractedValue) public virtual returns (bool) {... */\n      swap3\n      swap2\n      pop\n      pop\n      jump\t// out\n        /* \"wLONG/ERC20.sol\":3708:3897  function transfer(address to, uint256 amount) public virtual override returns (bool) {... */\n    tag_65:\n        /* \"wLONG/ERC20.sol\":3787:3791  bool */\n      0x00\n        /* \"wLONG/ERC20.sol\":3803:3816  address owner */\n      dup1\n        /* \"wLONG/ERC20.sol\":3819:3831  _msgSender() */\n      tag_120\n        /* \"wLONG/ERC20.sol\":3819:3829  _msgSender */\n      tag_89\n        /* \"wLONG/ERC20.sol\":3819:3831  _msgSender() */\n      jump\t// in\n    tag_120:\n        /* \"wLONG/ERC20.sol\":3803:3831  address owner = _msgSender() */\n      swap1\n      pop\n        /* \"wLONG/ERC20.sol\":3841:3869  _transfer(owner, to, amount) */\n      tag_121\n        /* \"wLONG/ERC20.sol\":3851:3856  owner */\n      dup2\n        /* \"wLONG/ERC20.sol\":3858:3860  to */\n      dup6\n        /* \"wLONG/ERC20.sol\":3862:3868  amount */\n      dup6\n        /* \"wLONG/ERC20.sol\":3841:3850  _transfer */\n      tag_98\n        /* \"wLONG/ERC20.sol\":3841:3869  _transfer(owner, to, amount) */\n      jump\t// in\n    tag_121:\n        /* \"wLONG/ERC20.sol\":3886:3890  true */\n      0x01\n        /* \"wLONG/ERC20.sol\":3879:3890  return true */\n      swap2\n      pop\n      pop\n        /* \"wLONG/ERC20.sol\":3708:3897  function transfer(address to, uint256 amount) public virtual override returns (bool) {... */\n      swap3\n      swap2\n      pop\n      pop\n      jump\t// out\n        /* \"wLONG/wLONG.sol\":3129:5100  function mint(uint256 amount, bytes memory signature) external virtual returns (bool) {... */\n    tag_70:\n        /* \"wLONG/wLONG.sol\":3209:3213  bool */\n      0x00\n        /* \"wLONG/wLONG.sol\":3304:3318  address minter */\n      dup1\n        /* \"wLONG/wLONG.sol\":3319:3331  _msgSender() */\n      tag_123\n        /* \"wLONG/wLONG.sol\":3319:3329  _msgSender */\n      tag_89\n        /* \"wLONG/wLONG.sol\":3319:3331  _msgSender() */\n      jump\t// in\n    tag_123:\n        /* \"wLONG/wLONG.sol\":3304:3331  address minter=_msgSender() */\n      swap1\n      pop\n        /* \"wLONG/wLONG.sol\":3342:3351  bytes32 r */\n      0x00\n        /* \"wLONG/wLONG.sol\":3353:3362  bytes32 s */\n      dup1\n        /* \"wLONG/wLONG.sol\":3422:3426  0x20 */\n      0x20\n        /* \"wLONG/wLONG.sol\":3411:3420  signature */\n      dup6\n        /* \"wLONG/wLONG.sol\":3407:3427  add(signature, 0x20) */\n      add\n        /* \"wLONG/wLONG.sol\":3401:3428  mload(add(signature, 0x20)) */\n      mload\n        /* \"wLONG/wLONG.sol\":3396:3428  r := mload(add(signature, 0x20)) */\n      swap2\n      pop\n        /* \"wLONG/wLONG.sol\":3467:3471  0x40 */\n      0x40\n        /* \"wLONG/wLONG.sol\":3456:3465  signature */\n      dup6\n        /* \"wLONG/wLONG.sol\":3452:3472  add(signature, 0x40) */\n      add\n        /* \"wLONG/wLONG.sol\":3446:3473  mload(add(signature, 0x40)) */\n      mload\n        /* \"wLONG/wLONG.sol\":3441:3473  s := mload(add(signature, 0x40)) */\n      swap1\n      pop\n        /* \"wLONG/wLONG.sol\":3501:3506  _rset */\n      0x06\n        /* \"wLONG/wLONG.sol\":3501:3509  _rset[r] */\n      0x00\n        /* \"wLONG/wLONG.sol\":3507:3508  r */\n      dup4\n        /* \"wLONG/wLONG.sol\":3501:3509  _rset[r] */\n      dup2\n      mstore\n      0x20\n      add\n      swap1\n      dup2\n      mstore\n      0x20\n      add\n      0x00\n      keccak256\n      0x00\n      swap1\n      sload\n      swap1\n      0x0100\n      exp\n      swap1\n      div\n      0xff\n      and\n        /* \"wLONG/wLONG.sol\":3500:3509  !_rset[r] */\n      iszero\n        /* \"wLONG/wLONG.sol\":3492:3546  require(!_rset[r], \"wLONG: key has already been used\") */\n      tag_124\n      jumpi\n      mload(0x40)\n      0x08c379a000000000000000000000000000000000000000000000000000000000\n      dup2\n      mstore\n      0x04\n      add\n      tag_125\n      swap1\n      tag_126\n      jump\t// in\n    tag_125:\n      mload(0x40)\n      dup1\n      swap2\n      sub\n      swap1\n      revert\n    tag_124:\n        /* \"wLONG/wLONG.sol\":3557:3566  bytes32 h */\n      0x00\n        /* \"wLONG/wLONG.sol\":3596:3602  minter */\n      dup4\n        /* \"wLONG/wLONG.sol\":3603:3609  amount */\n      dup8\n        /* \"wLONG/wLONG.sol\":3579:3610  abi.encodePacked(minter,amount) */\n      add(0x20, mload(0x40))\n      tag_127\n      swap3\n      swap2\n      swap1\n      tag_128\n      jump\t// in\n    tag_127:\n      mload(0x40)\n      0x20\n      dup2\n      dup4\n      sub\n      sub\n      dup2\n      mstore\n      swap1\n      0x40\n      mstore\n        /* \"wLONG/wLONG.sol\":3569:3611  keccak256(abi.encodePacked(minter,amount)) */\n      dup1\n      mload\n      swap1\n      0x20\n      add\n      keccak256\n        /* \"wLONG/wLONG.sol\":3557:3611  bytes32 h = keccak256(abi.encodePacked(minter,amount)) */\n      swap1\n      pop\n        /* \"wLONG/wLONG.sol\":4564:4579  address signer1 */\n      0x00\n        /* \"wLONG/wLONG.sol\":4582:4611  ecrecover(h, uint8(27), r, s) */\n      0x01\n        /* \"wLONG/wLONG.sol\":4592:4593  h */\n      dup3\n        /* \"wLONG/wLONG.sol\":4601:4603  27 */\n      0x1b\n        /* \"wLONG/wLONG.sol\":4606:4607  r */\n      dup7\n        /* \"wLONG/wLONG.sol\":4609:4610  s */\n      dup7\n        /* \"wLONG/wLONG.sol\":4582:4611  ecrecover(h, uint8(27), r, s) */\n      mload(0x40)\n      0x00\n      dup2\n      mstore\n      0x20\n      add\n      0x40\n      mstore\n      mload(0x40)\n      tag_129\n      swap5\n      swap4\n      swap3\n      swap2\n      swap1\n      tag_130\n      jump\t// in\n    tag_129:\n      0x20\n      mload(0x40)\n      0x20\n      dup2\n      sub\n      swap1\n      dup1\n      dup5\n      sub\n      swap1\n      dup6\n      gas\n      staticcall\n      iszero\n      dup1\n      iszero\n      tag_132\n      jumpi\n      returndatasize\n      0x00\n      dup1\n      returndatacopy\n      revert(0x00, returndatasize)\n    tag_132:\n      pop\n      pop\n      pop\n      mload(sub(mload(0x40), 0x20))\n        /* \"wLONG/wLONG.sol\":4564:4611  address signer1 = ecrecover(h, uint8(27), r, s) */\n      swap1\n      pop\n        /* \"wLONG/wLONG.sol\":4613:4628  address signer2 */\n      0x00\n        /* \"wLONG/wLONG.sol\":4631:4660  ecrecover(h, uint8(28), r, s) */\n      0x01\n        /* \"wLONG/wLONG.sol\":4641:4642  h */\n      dup4\n        /* \"wLONG/wLONG.sol\":4650:4652  28 */\n      0x1c\n        /* \"wLONG/wLONG.sol\":4655:4656  r */\n      dup8\n        /* \"wLONG/wLONG.sol\":4658:4659  s */\n      dup8\n        /* \"wLONG/wLONG.sol\":4631:4660  ecrecover(h, uint8(28), r, s) */\n      mload(0x40)\n      0x00\n      dup2\n      mstore\n      0x20\n      add\n      0x40\n      mstore\n      mload(0x40)\n      tag_133\n      swap5\n      swap4\n      swap3\n      swap2\n      swap1\n      tag_130\n      jump\t// in\n    tag_133:\n      0x20\n      mload(0x40)\n      0x20\n      dup2\n      sub\n      swap1\n      dup1\n      dup5\n      sub\n      swap1\n      dup6\n      gas\n      staticcall\n      iszero\n      dup1\n      iszero\n      tag_135\n      jumpi\n      returndatasize\n      0x00\n      dup1\n      returndatacopy\n      revert(0x00, returndatasize)\n    tag_135:\n      pop\n      pop\n      pop\n      mload(sub(mload(0x40), 0x20))\n        /* \"wLONG/wLONG.sol\":4613:4660  address signer2 = ecrecover(h, uint8(28), r, s) */\n      swap1\n      pop\n        /* \"wLONG/wLONG.sol\":4687:4694  owner() */\n      tag_136\n        /* \"wLONG/wLONG.sol\":4687:4692  owner */\n      tag_53\n        /* \"wLONG/wLONG.sol\":4687:4694  owner() */\n      jump\t// in\n    tag_136:\n        /* \"wLONG/wLONG.sol\":4678:4694  signer1==owner() */\n      0xffffffffffffffffffffffffffffffffffffffff\n      and\n        /* \"wLONG/wLONG.sol\":4678:4685  signer1 */\n      dup3\n        /* \"wLONG/wLONG.sol\":4678:4694  signer1==owner() */\n      0xffffffffffffffffffffffffffffffffffffffff\n      and\n      eq\n        /* \"wLONG/wLONG.sol\":4678:4714  signer1==owner() || signer2==owner() */\n      dup1\n      tag_137\n      jumpi\n      pop\n        /* \"wLONG/wLONG.sol\":4707:4714  owner() */\n      tag_138\n        /* \"wLONG/wLONG.sol\":4707:4712  owner */\n      tag_53\n        /* \"wLONG/wLONG.sol\":4707:4714  owner() */\n      jump\t// in\n    tag_138:\n        /* \"wLONG/wLONG.sol\":4698:4714  signer2==owner() */\n      0xffffffffffffffffffffffffffffffffffffffff\n      and\n        /* \"wLONG/wLONG.sol\":4698:4705  signer2 */\n      dup2\n        /* \"wLONG/wLONG.sol\":4698:4714  signer2==owner() */\n      0xffffffffffffffffffffffffffffffffffffffff\n      and\n      eq\n        /* \"wLONG/wLONG.sol\":4678:4714  signer1==owner() || signer2==owner() */\n    tag_137:\n        /* \"wLONG/wLONG.sol\":4670:4748  require(signer1==owner() || signer2==owner(), \"wLONG: signature is not valid\") */\n      tag_139\n      jumpi\n      mload(0x40)\n      0x08c379a000000000000000000000000000000000000000000000000000000000\n      dup2\n      mstore\n      0x04\n      add\n      tag_140\n      swap1\n      tag_141\n      jump\t// in\n    tag_140:\n      mload(0x40)\n      dup1\n      swap2\n      sub\n      swap1\n      revert\n    tag_139:\n        /* \"wLONG/wLONG.sol\":4919:4923  true */\n      0x01\n        /* \"wLONG/wLONG.sol\":4910:4915  _rset */\n      0x06\n        /* \"wLONG/wLONG.sol\":4910:4918  _rset[r] */\n      0x00\n        /* \"wLONG/wLONG.sol\":4916:4917  r */\n      dup8\n        /* \"wLONG/wLONG.sol\":4910:4918  _rset[r] */\n      dup2\n      mstore\n      0x20\n      add\n      swap1\n      dup2\n      mstore\n      0x20\n      add\n      0x00\n      keccak256\n      0x00\n        /* \"wLONG/wLONG.sol\":4910:4923  _rset[r]=true */\n      0x0100\n      exp\n      dup2\n      sload\n      dup2\n      0xff\n      mul\n      not\n      and\n      swap1\n      dup4\n      iszero\n      iszero\n      mul\n      or\n      swap1\n      sstore\n      pop\n        /* \"wLONG/wLONG.sol\":5009:5030  _mint(minter, amount) */\n      tag_142\n        /* \"wLONG/wLONG.sol\":5015:5021  minter */\n      dup7\n        /* \"wLONG/wLONG.sol\":5023:5029  amount */\n      dup11\n        /* \"wLONG/wLONG.sol\":5009:5014  _mint */\n      tag_143\n        /* \"wLONG/wLONG.sol\":5009:5030  _mint(minter, amount) */\n      jump\t// in\n    tag_142:\n        /* \"wLONG/wLONG.sol\":5089:5093  true */\n      0x01\n        /* \"wLONG/wLONG.sol\":5082:5093  return true */\n      swap7\n      pop\n      pop\n      pop\n      pop\n      pop\n      pop\n      pop\n        /* \"wLONG/wLONG.sol\":3129:5100  function mint(uint256 amount, bytes memory signature) external virtual returns (bool) {... */\n      swap3\n      swap2\n      pop\n      pop\n      jump\t// out\n        /* \"wLONG/ERC20.sol\":3955:4104  function allowance(address owner, address spender) public view virtual override returns (uint256) {... */\n    tag_75:\n        /* \"wLONG/ERC20.sol\":4044:4051  uint256 */\n      0x00\n        /* \"wLONG/ERC20.sol\":4070:4081  _allowances */\n      0x01\n        /* \"wLONG/ERC20.sol\":4070:4088  _allowances[owner] */\n      0x00\n        /* \"wLONG/ERC20.sol\":4082:4087  owner */\n      dup5\n        /* \"wLONG/ERC20.sol\":4070:4088  _allowances[owner] */\n      0xffffffffffffffffffffffffffffffffffffffff\n      and\n      0xffffffffffffffffffffffffffffffffffffffff\n      and\n      dup2\n      mstore\n      0x20\n      add\n      swap1\n      dup2\n      mstore\n      0x20\n      add\n      0x00\n      keccak256\n        /* \"wLONG/ERC20.sol\":4070:4097  _allowances[owner][spender] */\n      0x00\n        /* \"wLONG/ERC20.sol\":4089:4096  spender */\n      dup4\n        /* \"wLONG/ERC20.sol\":4070:4097  _allowances[owner][spender] */\n      0xffffffffffffffffffffffffffffffffffffffff\n      and\n      0xffffffffffffffffffffffffffffffffffffffff\n      and\n      dup2\n      mstore\n      0x20\n      add\n      swap1\n      dup2\n      mstore\n      0x20\n      add\n      0x00\n      keccak256\n      sload\n        /* \"wLONG/ERC20.sol\":4063:4097  return _allowances[owner][spender] */\n      swap1\n      pop\n        /* \"wLONG/ERC20.sol\":3955:4104  function allowance(address owner, address spender) public view virtual override returns (uint256) {... */\n      swap3\n      swap2\n      pop\n      pop\n      jump\t// out\n        /* \"wLONG/Ownable.sol\":1917:2115  function transferOwnership(address newOwner) public virtual onlyOwner {... */\n    tag_79:\n        /* \"wLONG/Ownable.sol\":1252:1264  _msgSender() */\n      tag_146\n        /* \"wLONG/Ownable.sol\":1252:1262  _msgSender */\n      tag_89\n        /* \"wLONG/Ownable.sol\":1252:1264  _msgSender() */\n      jump\t// in\n    tag_146:\n        /* \"wLONG/Ownable.sol\":1241:1264  owner() == _msgSender() */\n      0xffffffffffffffffffffffffffffffffffffffff\n      and\n        /* \"wLONG/Ownable.sol\":1241:1248  owner() */\n      tag_147\n        /* \"wLONG/Ownable.sol\":1241:1246  owner */\n      tag_53\n        /* \"wLONG/Ownable.sol\":1241:1248  owner() */\n      jump\t// in\n    tag_147:\n        /* \"wLONG/Ownable.sol\":1241:1264  owner() == _msgSender() */\n      0xffffffffffffffffffffffffffffffffffffffff\n      and\n      eq\n        /* \"wLONG/Ownable.sol\":1233:1301  require(owner() == _msgSender(), \"Ownable: caller is not the owner\") */\n      tag_148\n      jumpi\n      mload(0x40)\n      0x08c379a000000000000000000000000000000000000000000000000000000000\n      dup2\n      mstore\n      0x04\n      add\n      tag_149\n      swap1\n      tag_150\n      jump\t// in\n    tag_149:\n      mload(0x40)\n      dup1\n      swap2\n      sub\n      swap1\n      revert\n    tag_148:\n        /* \"wLONG/Ownable.sol\":2025:2026  0 */\n      0x00\n        /* \"wLONG/Ownable.sol\":2005:2027  newOwner != address(0) */\n      0xffffffffffffffffffffffffffffffffffffffff\n      and\n        /* \"wLONG/Ownable.sol\":2005:2013  newOwner */\n      dup2\n        /* \"wLONG/Ownable.sol\":2005:2027  newOwner != address(0) */\n      0xffffffffffffffffffffffffffffffffffffffff\n      and\n      eq\n      iszero\n        /* \"wLONG/Ownable.sol\":1997:2070  require(newOwner != address(0), \"Ownable: new owner is the zero address\") */\n      tag_152\n      jumpi\n      mload(0x40)\n      0x08c379a000000000000000000000000000000000000000000000000000000000\n      dup2\n      mstore\n      0x04\n      add\n      tag_153\n      swap1\n      tag_154\n      jump\t// in\n    tag_153:\n      mload(0x40)\n      dup1\n      swap2\n      sub\n      swap1\n      revert\n    tag_152:\n        /* \"wLONG/Ownable.sol\":2080:2108  _transferOwnership(newOwner) */\n      tag_155\n        /* \"wLONG/Ownable.sol\":2099:2107  newOwner */\n      dup2\n        /* \"wLONG/Ownable.sol\":2080:2098  _transferOwnership */\n      tag_156\n        /* \"wLONG/Ownable.sol\":2080:2108  _transferOwnership(newOwner) */\n      jump\t// in\n    tag_155:\n        /* \"wLONG/Ownable.sol\":1917:2115  function transferOwnership(address newOwner) public virtual onlyOwner {... */\n      pop\n      jump\t// out\n        /* \"wLONG/Context.sol\":640:736  function _msgSender() internal view virtual returns (address) {... */\n    tag_89:\n        /* \"wLONG/Context.sol\":693:700  address */\n      0x00\n        /* \"wLONG/Context.sol\":719:729  msg.sender */\n      caller\n        /* \"wLONG/Context.sol\":712:729  return msg.sender */\n      swap1\n      pop\n        /* \"wLONG/Context.sol\":640:736  function _msgSender() internal view virtual returns (address) {... */\n      swap1\n      jump\t// out\n        /* \"wLONG/ERC20.sol\":10118:10488  function _approve(... */\n    tag_91:\n        /* \"wLONG/ERC20.sol\":10266:10267  0 */\n      0x00\n        /* \"wLONG/ERC20.sol\":10249:10268  owner != address(0) */\n      0xffffffffffffffffffffffffffffffffffffffff\n      and\n        /* \"wLONG/ERC20.sol\":10249:10254  owner */\n      dup4\n        /* \"wLONG/ERC20.sol\":10249:10268  owner != address(0) */\n      0xffffffffffffffffffffffffffffffffffffffff\n      and\n      eq\n      iszero\n        /* \"wLONG/ERC20.sol\":10241:10309  require(owner != address(0), \"ERC20: approve from the zero address\") */\n      tag_159\n      jumpi\n      mload(0x40)\n      0x08c379a000000000000000000000000000000000000000000000000000000000\n      dup2\n      mstore\n      0x04\n      add\n      tag_160\n      swap1\n      tag_161\n      jump\t// in\n    tag_160:\n      mload(0x40)\n      dup1\n      swap2\n      sub\n      swap1\n      revert\n    tag_159:\n        /* \"wLONG/ERC20.sol\":10346:10347  0 */\n      0x00\n        /* \"wLONG/ERC20.sol\":10327:10348  spender != address(0) */\n      0xffffffffffffffffffffffffffffffffffffffff\n      and\n        /* \"wLONG/ERC20.sol\":10327:10334  spender */\n      dup3\n        /* \"wLONG/ERC20.sol\":10327:10348  spender != address(0) */\n      0xffffffffffffffffffffffffffffffffffffffff\n      and\n      eq\n      iszero\n        /* \"wLONG/ERC20.sol\":10319:10387  require(spender != address(0), \"ERC20: approve to the zero address\") */\n      tag_162\n      jumpi\n      mload(0x40)\n      0x08c379a000000000000000000000000000000000000000000000000000000000\n      dup2\n      mstore\n      0x04\n      add\n      tag_163\n      swap1\n      tag_164\n      jump\t// in\n    tag_163:\n      mload(0x40)\n      dup1\n      swap2\n      sub\n      swap1\n      revert\n    tag_162:\n        /* \"wLONG/ERC20.sol\":10428:10434  amount */\n      dup1\n        /* \"wLONG/ERC20.sol\":10398:10409  _allowances */\n      0x01\n        /* \"wLONG/ERC20.sol\":10398:10416  _allowances[owner] */\n      0x00\n        /* \"wLONG/ERC20.sol\":10410:10415  owner */\n      dup6\n        /* \"wLONG/ERC20.sol\":10398:10416  _allowances[owner] */\n      0xffffffffffffffffffffffffffffffffffffffff\n      and\n      0xffffffffffffffffffffffffffffffffffffffff\n      and\n      dup2\n      mstore\n      0x20\n      add\n      swap1\n      dup2\n      mstore\n      0x20\n      add\n      0x00\n      keccak256\n        /* \"wLONG/ERC20.sol\":10398:10425  _allowances[owner][spender] */\n      0x00\n        /* \"wLONG/ERC20.sol\":10417:10424  spender */\n      dup5\n        /* \"wLONG/ERC20.sol\":10398:10425  _allowances[owner][spender] */\n      0xffffffffffffffffffffffffffffffffffffffff\n      and\n      0xffffffffffffffffffffffffffffffffffffffff\n      and\n      dup2\n      mstore\n      0x20\n      add\n      swap1\n      dup2\n      mstore\n      0x20\n      add\n      0x00\n      keccak256\n        /* \"wLONG/ERC20.sol\":10398:10434  _allowances[owner][spender] = amount */\n      dup2\n      swap1\n      sstore\n      pop\n        /* \"wLONG/ERC20.sol\":10465:10472  spender */\n      dup2\n        /* \"wLONG/ERC20.sol\":10449:10481  Approval(owner, spender, amount) */\n      0xffffffffffffffffffffffffffffffffffffffff\n      and\n        /* \"wLONG/ERC20.sol\":10458:10463  owner */\n      dup4\n        /* \"wLONG/ERC20.sol\":10449:10481  Approval(owner, spender, amount) */\n      0xffffffffffffffffffffffffffffffffffffffff\n      and\n      0x8c5be1e5ebec7d5bd14f71427d1e84f3dd0314c0f7b2291e5b200ac8c7c3b925\n        /* \"wLONG/ERC20.sol\":10474:10480  amount */\n      dup4\n        /* \"wLONG/ERC20.sol\":10449:10481  Approval(owner, spender, amount) */\n      mload(0x40)\n      tag_165\n      swap2\n      swap1\n      tag_33\n      jump\t// in\n    tag_165:\n      mload(0x40)\n      dup1\n      swap2\n      sub\n      swap1\n      log3\n        /* \"wLONG/ERC20.sol\":10118:10488  function _approve(... */\n      pop\n      pop\n      pop\n      jump\t// out\n        /* \"wLONG/ERC20.sol\":10765:11206  function _spendAllowance(... */\n    tag_96:\n        /* \"wLONG/ERC20.sol\":10895:10919  uint256 currentAllowance */\n      0x00\n        /* \"wLONG/ERC20.sol\":10922:10947  allowance(owner, spender) */\n      tag_167\n        /* \"wLONG/ERC20.sol\":10932:10937  owner */\n      dup5\n        /* \"wLONG/ERC20.sol\":10939:10946  spender */\n      dup5\n        /* \"wLONG/ERC20.sol\":10922:10931  allowance */\n      tag_75\n        /* \"wLONG/ERC20.sol\":10922:10947  allowance(owner, spender) */\n      jump\t// in\n    tag_167:\n        /* \"wLONG/ERC20.sol\":10895:10947  uint256 currentAllowance = allowance(owner, spender) */\n      swap1\n      pop\n        /* \"wLONG/ERC20.sol\":10981:10998  type(uint256).max */\n      0xffffffffffffffffffffffffffffffffffffffffffffffffffffffffffffffff\n        /* \"wLONG/ERC20.sol\":10961:10977  currentAllowance */\n      dup2\n        /* \"wLONG/ERC20.sol\":10961:10998  currentAllowance != type(uint256).max */\n      eq\n        /* \"wLONG/ERC20.sol\":10957:11200  if (currentAllowance != type(uint256).max) {... */\n      tag_168\n      jumpi\n        /* \"wLONG/ERC20.sol\":11042:11048  amount */\n      dup2\n        /* \"wLONG/ERC20.sol\":11022:11038  currentAllowance */\n      dup2\n        /* \"wLONG/ERC20.sol\":11022:11048  currentAllowance >= amount */\n      lt\n      iszero\n        /* \"wLONG/ERC20.sol\":11014:11082  require(currentAllowance >= amount, \"ERC20: insufficient allowance\") */\n      tag_169\n      jumpi\n      mload(0x40)\n      0x08c379a000000000000000000000000000000000000000000000000000000000\n      dup2\n      mstore\n      0x04\n      add\n      tag_170\n      swap1\n      tag_171\n      jump\t// in\n    tag_170:\n      mload(0x40)\n      dup1\n      swap2\n      sub\n      swap1\n      revert\n    tag_169:\n        /* \"wLONG/ERC20.sol\":11124:11175  _approve(owner, spender, currentAllowance - amount) */\n      tag_172\n        /* \"wLONG/ERC20.sol\":11133:11138  owner */\n      dup5\n        /* \"wLONG/ERC20.sol\":11140:11147  spender */\n      dup5\n        /* \"wLONG/ERC20.sol\":11168:11174  amount */\n      dup5\n        /* \"wLONG/ERC20.sol\":11149:11165  currentAllowance */\n      dup5\n        /* \"wLONG/ERC20.sol\":11149:11174  currentAllowance - amount */\n      sub\n        /* \"wLONG/ERC20.sol\":11124:11132  _approve */\n      tag_91\n        /* \"wLONG/ERC20.sol\":11124:11175  _approve(owner, spender, currentAllowance - amount) */\n      jump\t// in\n    tag_172:\n        /* \"wLONG/ERC20.sol\":10957:11200  if (currentAllowance != type(uint256).max) {... */\n    tag_168:\n        /* \"wLONG/ERC20.sol\":10885:11206  {... */\n      pop\n        /* \"wLONG/ERC20.sol\":10765:11206  function _spendAllowance(... */\n      pop\n      pop\n      pop\n      jump\t// out\n        /* \"wLONG/ERC20.sol\":7467:8122  function _transfer(... */\n    tag_98:\n        /* \"wLONG/ERC20.sol\":7609:7610  0 */\n      0x00\n        /* \"wLONG/ERC20.sol\":7593:7611  from != address(0) */\n      0xffffffffffffffffffffffffffffffffffffffff\n      and\n        /* \"wLONG/ERC20.sol\":7593:7597  from */\n      dup4\n        /* \"wLONG/ERC20.sol\":7593:7611  from != address(0) */\n      0xffffffffffffffffffffffffffffffffffffffff\n      and\n      eq\n      iszero\n        /* \"wLONG/ERC20.sol\":7585:7653  require(from != address(0), \"ERC20: transfer from the zero address\") */\n      tag_174\n      jumpi\n      mload(0x40)\n      0x08c379a000000000000000000000000000000000000000000000000000000000\n      dup2\n      mstore\n      0x04\n      add\n      tag_175\n      swap1\n      tag_176\n      jump\t// in\n    tag_175:\n      mload(0x40)\n      dup1\n      swap2\n      sub\n      swap1\n      revert\n    tag_174:\n        /* \"wLONG/ERC20.sol\":7685:7686  0 */\n      0x00\n        /* \"wLONG/ERC20.sol\":7671:7687  to != address(0) */\n      0xffffffffffffffffffffffffffffffffffffffff\n      and\n        /* \"wLONG/ERC20.sol\":7671:7673  to */\n      dup3\n        /* \"wLONG/ERC20.sol\":7671:7687  to != address(0) */\n      0xffffffffffffffffffffffffffffffffffffffff\n      and\n      eq\n      iszero\n        /* \"wLONG/ERC20.sol\":7663:7727  require(to != address(0), \"ERC20: transfer to the zero address\") */\n      tag_177\n      jumpi\n      mload(0x40)\n      0x08c379a000000000000000000000000000000000000000000000000000000000\n      dup2\n      mstore\n      0x04\n      add\n      tag_178\n      swap1\n      tag_179\n      jump\t// in\n    tag_178:\n      mload(0x40)\n      dup1\n      swap2\n      sub\n      swap1\n      revert\n    tag_177:\n        /* \"wLONG/ERC20.sol\":7789:7808  uint256 fromBalance */\n      0x00\n        /* \"wLONG/ERC20.sol\":7811:7820  _balances */\n      dup1\n        /* \"wLONG/ERC20.sol\":7811:7826  _balances[from] */\n      0x00\n        /* \"wLONG/ERC20.sol\":7821:7825  from */\n      dup6\n        /* \"wLONG/ERC20.sol\":7811:7826  _balances[from] */\n      0xffffffffffffffffffffffffffffffffffffffff\n      and\n      0xffffffffffffffffffffffffffffffffffffffff\n      and\n      dup2\n      mstore\n      0x20\n      add\n      swap1\n      dup2\n      mstore\n      0x20\n      add\n      0x00\n      keccak256\n      sload\n        /* \"wLONG/ERC20.sol\":7789:7826  uint256 fromBalance = _balances[from] */\n      swap1\n      pop\n        /* \"wLONG/ERC20.sol\":7859:7865  amount */\n      dup2\n        /* \"wLONG/ERC20.sol\":7844:7855  fromBalance */\n      dup2\n        /* \"wLONG/ERC20.sol\":7844:7865  fromBalance >= amount */\n      lt\n      iszero\n        /* \"wLONG/ERC20.sol\":7836:7908  require(fromBalance >= amount, \"ERC20: transfer amount exceeds balance\") */\n      tag_180\n      jumpi\n      mload(0x40)\n      0x08c379a000000000000000000000000000000000000000000000000000000000\n      dup2\n      mstore\n      0x04\n      add\n      tag_181\n      swap1\n      tag_182\n      jump\t// in\n    tag_181:\n      mload(0x40)\n      dup1\n      swap2\n      sub\n      swap1\n      revert\n    tag_180:\n        /* \"wLONG/ERC20.sol\":7974:7980  amount */\n      dup2\n        /* \"wLONG/ERC20.sol\":7960:7971  fromBalance */\n      dup2\n        /* \"wLONG/ERC20.sol\":7960:7980  fromBalance - amount */\n      sub\n        /* \"wLONG/ERC20.sol\":7942:7951  _balances */\n      0x00\n        /* \"wLONG/ERC20.sol\":7942:7957  _balances[from] */\n      dup1\n        /* \"wLONG/ERC20.sol\":7952:7956  from */\n      dup7\n        /* \"wLONG/ERC20.sol\":7942:7957  _balances[from] */\n      0xffffffffffffffffffffffffffffffffffffffff\n      and\n      0xffffffffffffffffffffffffffffffffffffffff\n      and\n      dup2\n      mstore\n      0x20\n      add\n      swap1\n      dup2\n      mstore\n      0x20\n      add\n      0x00\n      keccak256\n        /* \"wLONG/ERC20.sol\":7942:7980  _balances[from] = fromBalance - amount */\n      dup2\n      swap1\n      sstore\n      pop\n        /* \"wLONG/ERC20.sol\":8017:8023  amount */\n      dup2\n        /* \"wLONG/ERC20.sol\":8000:8009  _balances */\n      0x00\n        /* \"wLONG/ERC20.sol\":8000:8013  _balances[to] */\n      dup1\n        /* \"wLONG/ERC20.sol\":8010:8012  to */\n      dup6\n        /* \"wLONG/ERC20.sol\":8000:8013  _balances[to] */\n      0xffffffffffffffffffffffffffffffffffffffff\n      and\n      0xffffffffffffffffffffffffffffffffffffffff\n      and\n      dup2\n      mstore\n      0x20\n      add\n      swap1\n      dup2\n      mstore\n      0x20\n      add\n      0x00\n      keccak256\n      0x00\n        /* \"wLONG/ERC20.sol\":8000:8023  _balances[to] += amount */\n      dup3\n      dup3\n      sload\n      tag_183\n      swap2\n      swap1\n      tag_104\n      jump\t// in\n    tag_183:\n      swap3\n      pop\n      pop\n      dup2\n      swap1\n      sstore\n      pop\n        /* \"wLONG/ERC20.sol\":8054:8056  to */\n      dup3\n        /* \"wLONG/ERC20.sol\":8039:8065  Transfer(from, to, amount) */\n      0xffffffffffffffffffffffffffffffffffffffff\n      and\n        /* \"wLONG/ERC20.sol\":8048:8052  from */\n      dup5\n        /* \"wLONG/ERC20.sol\":8039:8065  Transfer(from, to, amount) */\n      0xffffffffffffffffffffffffffffffffffffffff\n      and\n      0xddf252ad1be2c89b69c2b068fc378daa952ba7f163c4a11628f55a4df523b3ef\n        /* \"wLONG/ERC20.sol\":8058:8064  amount */\n      dup5\n        /* \"wLONG/ERC20.sol\":8039:8065  Transfer(from, to, amount) */\n      mload(0x40)\n      tag_184\n      swap2\n      swap1\n      tag_33\n      jump\t// in\n    tag_184:\n      mload(0x40)\n      dup1\n      swap2\n      sub\n      swap1\n      log3\n        /* \"wLONG/ERC20.sol\":7575:8122  {... */\n      pop\n        /* \"wLONG/ERC20.sol\":7467:8122  function _transfer(... */\n      pop\n      pop\n      pop\n      jump\t// out\n        /* \"wLONG/ERC20.sol\":8398:8791  function _mint(address account, uint256 amount) internal virtual {... */\n    tag_143:\n        /* \"wLONG/ERC20.sol\":8500:8501  0 */\n      0x00\n        /* \"wLONG/ERC20.sol\":8481:8502  account != address(0) */\n      0xffffffffffffffffffffffffffffffffffffffff\n      and\n        /* \"wLONG/ERC20.sol\":8481:8488  account */\n      dup3\n        /* \"wLONG/ERC20.sol\":8481:8502  account != address(0) */\n      0xffffffffffffffffffffffffffffffffffffffff\n      and\n      eq\n      iszero\n        /* \"wLONG/ERC20.sol\":8473:8538  require(account != address(0), \"ERC20: mint to the zero address\") */\n      tag_186\n      jumpi\n      mload(0x40)\n      0x08c379a000000000000000000000000000000000000000000000000000000000\n      dup2\n      mstore\n      0x04\n      add\n      tag_187\n      swap1\n      tag_188\n      jump\t// in\n    tag_187:\n      mload(0x40)\n      dup1\n      swap2\n      sub\n      swap1\n      revert\n    tag_186:\n        /* \"wLONG/ERC20.sol\":8627:8633  amount */\n      dup1\n        /* \"wLONG/ERC20.sol\":8611:8623  _totalSupply */\n      0x02\n      0x00\n        /* \"wLONG/ERC20.sol\":8611:8633  _totalSupply += amount */\n      dup3\n      dup3\n      sload\n      tag_189\n      swap2\n      swap1\n      tag_104\n      jump\t// in\n    tag_189:\n      swap3\n      pop\n      pop\n      dup2\n      swap1\n      sstore\n      pop\n        /* \"wLONG/ERC20.sol\":8665:8671  amount */\n      dup1\n        /* \"wLONG/ERC20.sol\":8643:8652  _balances */\n      0x00\n        /* \"wLONG/ERC20.sol\":8643:8661  _balances[account] */\n      dup1\n        /* \"wLONG/ERC20.sol\":8653:8660  account */\n      dup5\n        /* \"wLONG/ERC20.sol\":8643:8661  _balances[account] */\n      0xffffffffffffffffffffffffffffffffffffffff\n      and\n      0xffffffffffffffffffffffffffffffffffffffff\n      and\n      dup2\n      mstore\n      0x20\n      add\n      swap1\n      dup2\n      mstore\n      0x20\n      add\n      0x00\n      keccak256\n      0x00\n        /* \"wLONG/ERC20.sol\":8643:8671  _balances[account] += amount */\n      dup3\n      dup3\n      sload\n      tag_190\n      swap2\n      swap1\n      tag_104\n      jump\t// in\n    tag_190:\n      swap3\n      pop\n      pop\n      dup2\n      swap1\n      sstore\n      pop\n        /* \"wLONG/ERC20.sol\":8707:8714  account */\n      dup2\n        /* \"wLONG/ERC20.sol\":8686:8723  Transfer(address(0), account, amount) */\n      0xffffffffffffffffffffffffffffffffffffffff\n      and\n        /* \"wLONG/ERC20.sol\":8703:8704  0 */\n      0x00\n        /* \"wLONG/ERC20.sol\":8686:8723  Transfer(address(0), account, amount) */\n      0xffffffffffffffffffffffffffffffffffffffff\n      and\n      0xddf252ad1be2c89b69c2b068fc378daa952ba7f163c4a11628f55a4df523b3ef\n        /* \"wLONG/ERC20.sol\":8716:8722  amount */\n      dup4\n        /* \"wLONG/ERC20.sol\":8686:8723  Transfer(address(0), account, amount) */\n      mload(0x40)\n      tag_191\n      swap2\n      swap1\n      tag_33\n      jump\t// in\n    tag_191:\n      mload(0x40)\n      dup1\n      swap2\n      sub\n      swap1\n      log3\n        /* \"wLONG/ERC20.sol\":8398:8791  function _mint(address account, uint256 amount) internal virtual {... */\n      pop\n      pop\n      jump\t// out\n        /* \"wLONG/Ownable.sol\":2269:2456  function _transferOwnership(address newOwner) internal virtual {... */\n    tag_156:\n        /* \"wLONG/Ownable.sol\":2342:2358  address oldOwner */\n      0x00\n        /* \"wLONG/Ownable.sol\":2361:2367  _owner */\n      0x05\n      0x00\n      swap1\n      sload\n      swap1\n      0x0100\n      exp\n      swap1\n      div\n      0xffffffffffffffffffffffffffffffffffffffff\n      and\n        /* \"wLONG/Ownable.sol\":2342:2367  address oldOwner = _owner */\n      swap1\n      pop\n        /* \"wLONG/Ownable.sol\":2386:2394  newOwner */\n      dup2\n        /* \"wLONG/Ownable.sol\":2377:2383  _owner */\n      0x05\n      0x00\n        /* \"wLONG/Ownable.sol\":2377:2394  _owner = newOwner */\n      0x0100\n      exp\n      dup2\n      sload\n      dup2\n      0xffffffffffffffffffffffffffffffffffffffff\n      mul\n      not\n      and\n      swap1\n      dup4\n      0xffffffffffffffffffffffffffffffffffffffff\n      and\n      mul\n      or\n      swap1\n      sstore\n      pop\n        /* \"wLONG/Ownable.sol\":2440:2448  newOwner */\n      dup2\n        /* \"wLONG/Ownable.sol\":2409:2449  OwnershipTransferred(oldOwner, newOwner) */\n      0xffffffffffffffffffffffffffffffffffffffff\n      and\n        /* \"wLONG/Ownable.sol\":2430:2438  oldOwner */\n      dup2\n        /* \"wLONG/Ownable.sol\":2409:2449  OwnershipTransferred(oldOwner, newOwner) */\n      0xffffffffffffffffffffffffffffffffffffffff\n      and\n      0x8be0079c531659141344cd1fd0a4f28419497f9722a3daafe3b4186f6b6457e0\n      mload(0x40)\n      mload(0x40)\n      dup1\n      swap2\n      sub\n      swap1\n      log3\n        /* \"wLONG/Ownable.sol\":2332:2456  {... */\n      pop\n        /* \"wLONG/Ownable.sol\":2269:2456  function _transferOwnership(address newOwner) internal virtual {... */\n      pop\n      jump\t// out\n        /* \"#utility.yul\":7:417   */\n    tag_194:\n        /* \"#utility.yul\":84:89   */\n      0x00\n        /* \"#utility.yul\":109:174   */\n      tag_196\n        /* \"#utility.yul\":125:173   */\n      tag_197\n        /* \"#utility.yul\":166:172   */\n      dup5\n        /* \"#utility.yul\":125:173   */\n      tag_198\n      jump\t// in\n    tag_197:\n        /* \"#utility.yul\":109:174   */\n      tag_199\n      jump\t// in\n    tag_196:\n        /* \"#utility.yul\":100:174   */\n      swap1\n      pop\n        /* \"#utility.yul\":197:203   */\n      dup3\n        /* \"#utility.yul\":190:195   */\n      dup2\n        /* \"#utility.yul\":183:204   */\n      mstore\n        /* \"#utility.yul\":235:239   */\n      0x20\n        /* \"#utility.yul\":228:233   */\n      dup2\n        /* \"#utility.yul\":224:240   */\n      add\n        /* \"#utility.yul\":273:276   */\n      dup5\n        /* \"#utility.yul\":264:270   */\n      dup5\n        /* \"#utility.yul\":259:262   */\n      dup5\n        /* \"#utility.yul\":255:271   */\n      add\n        /* \"#utility.yul\":252:277   */\n      gt\n        /* \"#utility.yul\":249:361   */\n      iszero\n      tag_200\n      jumpi\n        /* \"#utility.yul\":280:359   */\n      tag_201\n      tag_202\n      jump\t// in\n    tag_201:\n        /* \"#utility.yul\":249:361   */\n    tag_200:\n        /* \"#utility.yul\":370:411   */\n      tag_203\n        /* \"#utility.yul\":404:410   */\n      dup5\n        /* \"#utility.yul\":399:402   */\n      dup3\n        /* \"#utility.yul\":394:397   */\n      dup6\n        /* \"#utility.yul\":370:411   */\n      tag_204\n      jump\t// in\n    tag_203:\n        /* \"#utility.yul\":90:417   */\n      pop\n        /* \"#utility.yul\":7:417   */\n      swap4\n      swap3\n      pop\n      pop\n      pop\n      jump\t// out\n        /* \"#utility.yul\":423:562   */\n    tag_205:\n        /* \"#utility.yul\":469:474   */\n      0x00\n        /* \"#utility.yul\":507:513   */\n      dup2\n        /* \"#utility.yul\":494:514   */\n      calldataload\n        /* \"#utility.yul\":485:514   */\n      swap1\n      pop\n        /* \"#utility.yul\":523:556   */\n      tag_207\n        /* \"#utility.yul\":550:555   */\n      dup2\n        /* \"#utility.yul\":523:556   */\n      tag_208\n      jump\t// in\n    tag_207:\n        /* \"#utility.yul\":423:562   */\n      swap3\n      swap2\n      pop\n      pop\n      jump\t// out\n        /* \"#utility.yul\":581:919   */\n    tag_209:\n        /* \"#utility.yul\":636:641   */\n      0x00\n        /* \"#utility.yul\":685:688   */\n      dup3\n        /* \"#utility.yul\":678:682   */\n      0x1f\n        /* \"#utility.yul\":670:676   */\n      dup4\n        /* \"#utility.yul\":666:683   */\n      add\n        /* \"#utility.yul\":662:689   */\n      slt\n        /* \"#utility.yul\":652:774   */\n      tag_211\n      jumpi\n        /* \"#utility.yul\":693:772   */\n      tag_212\n      tag_213\n      jump\t// in\n    tag_212:\n        /* \"#utility.yul\":652:774   */\n    tag_211:\n        /* \"#utility.yul\":810:816   */\n      dup2\n        /* \"#utility.yul\":797:817   */\n      calldataload\n        /* \"#utility.yul\":835:913   */\n      tag_214\n        /* \"#utility.yul\":909:912   */\n      dup5\n        /* \"#utility.yul\":901:907   */\n      dup3\n        /* \"#utility.yul\":894:898   */\n      0x20\n        /* \"#utility.yul\":886:892   */\n      dup7\n        /* \"#utility.yul\":882:899   */\n      add\n        /* \"#utility.yul\":835:913   */\n      tag_194\n      jump\t// in\n    tag_214:\n        /* \"#utility.yul\":826:913   */\n      swap2\n      pop\n        /* \"#utility.yul\":642:919   */\n      pop\n        /* \"#utility.yul\":581:919   */\n      swap3\n      swap2\n      pop\n      pop\n      jump\t// out\n        /* \"#utility.yul\":925:1064   */\n    tag_215:\n        /* \"#utility.yul\":971:976   */\n      0x00\n        /* \"#utility.yul\":1009:1015   */\n      dup2\n        /* \"#utility.yul\":996:1016   */\n      calldataload\n        /* \"#utility.yul\":987:1016   */\n      swap1\n      pop\n        /* \"#utility.yul\":1025:1058   */\n      tag_217\n        /* \"#utility.yul\":1052:1057   */\n      dup2\n        /* \"#utility.yul\":1025:1058   */\n      tag_218\n      jump\t// in\n    tag_217:\n        /* \"#utility.yul\":925:1064   */\n      swap3\n      swap2\n      pop\n      pop\n      jump\t// out\n        /* \"#utility.yul\":1070:1399   */\n    tag_49:\n        /* \"#utility.yul\":1129:1135   */\n      0x00\n        /* \"#utility.yul\":1178:1180   */\n      0x20\n        /* \"#utility.yul\":1166:1175   */\n      dup3\n        /* \"#utility.yul\":1157:1164   */\n      dup5\n        /* \"#utility.yul\":1153:1176   */\n      sub\n        /* \"#utility.yul\":1149:1181   */\n      slt\n        /* \"#utility.yul\":1146:1265   */\n      iszero\n      tag_220\n      jumpi\n        /* \"#utility.yul\":1184:1263   */\n      tag_221\n      tag_222\n      jump\t// in\n    tag_221:\n        /* \"#utility.yul\":1146:1265   */\n    tag_220:\n        /* \"#utility.yul\":1304:1305   */\n      0x00\n        /* \"#utility.yul\":1329:1382   */\n      tag_223\n        /* \"#utility.yul\":1374:1381   */\n      dup5\n        /* \"#utility.yul\":1365:1371   */\n      dup3\n        /* \"#utility.yul\":1354:1363   */\n      dup6\n        /* \"#utility.yul\":1350:1372   */\n      add\n        /* \"#utility.yul\":1329:1382   */\n      tag_205\n      jump\t// in\n    tag_223:\n        /* \"#utility.yul\":1319:1382   */\n      swap2\n      pop\n        /* \"#utility.yul\":1275:1392   */\n      pop\n        /* \"#utility.yul\":1070:1399   */\n      swap3\n      swap2\n      pop\n      pop\n      jump\t// out\n        /* \"#utility.yul\":1405:1879   */\n    tag_74:\n        /* \"#utility.yul\":1473:1479   */\n      0x00\n        /* \"#utility.yul\":1481:1487   */\n      dup1\n        /* \"#utility.yul\":1530:1532   */\n      0x40\n        /* \"#utility.yul\":1518:1527   */\n      dup4\n        /* \"#utility.yul\":1509:1516   */\n      dup6\n        /* \"#utility.yul\":1505:1528   */\n      sub\n        /* \"#utility.yul\":1501:1533   */\n      slt\n        /* \"#utility.yul\":1498:1617   */\n      iszero\n      tag_225\n      jumpi\n        /* \"#utility.yul\":1536:1615   */\n      tag_226\n      tag_222\n      jump\t// in\n    tag_226:\n        /* \"#utility.yul\":1498:1617   */\n    tag_225:\n        /* \"#utility.yul\":1656:1657   */\n      0x00\n        /* \"#utility.yul\":1681:1734   */\n      tag_227\n        /* \"#utility.yul\":1726:1733   */\n      dup6\n        /* \"#utility.yul\":1717:1723   */\n      dup3\n        /* \"#utility.yul\":1706:1715   */\n      dup7\n        /* \"#utility.yul\":1702:1724   */\n      add\n        /* \"#utility.yul\":1681:1734   */\n      tag_205\n      jump\t// in\n    tag_227:\n        /* \"#utility.yul\":1671:1734   */\n      swap3\n      pop\n        /* \"#utility.yul\":1627:1744   */\n      pop\n        /* \"#utility.yul\":1783:1785   */\n      0x20\n        /* \"#utility.yul\":1809:1862   */\n      tag_228\n        /* \"#utility.yul\":1854:1861   */\n      dup6\n        /* \"#utility.yul\":1845:1851   */\n      dup3\n        /* \"#utility.yul\":1834:1843   */\n      dup7\n        /* \"#utility.yul\":1830:1852   */\n      add\n        /* \"#utility.yul\":1809:1862   */\n      tag_205\n      jump\t// in\n    tag_228:\n        /* \"#utility.yul\":1799:1862   */\n      swap2\n      pop\n        /* \"#utility.yul\":1754:1872   */\n      pop\n        /* \"#utility.yul\":1405:1879   */\n      swap3\n      pop\n      swap3\n      swap1\n      pop\n      jump\t// out\n        /* \"#utility.yul\":1885:2504   */\n    tag_36:\n        /* \"#utility.yul\":1962:1968   */\n      0x00\n        /* \"#utility.yul\":1970:1976   */\n      dup1\n        /* \"#utility.yul\":1978:1984   */\n      0x00\n        /* \"#utility.yul\":2027:2029   */\n      0x60\n        /* \"#utility.yul\":2015:2024   */\n      dup5\n        /* \"#utility.yul\":2006:2013   */\n      dup7\n        /* \"#utility.yul\":2002:2025   */\n      sub\n        /* \"#utility.yul\":1998:2030   */\n      slt\n        /* \"#utility.yul\":1995:2114   */\n      iszero\n      tag_230\n      jumpi\n        /* \"#utility.yul\":2033:2112   */\n      tag_231\n      tag_222\n      jump\t// in\n    tag_231:\n        /* \"#utility.yul\":1995:2114   */\n    tag_230:\n        /* \"#utility.yul\":2153:2154   */\n      0x00\n        /* \"#utility.yul\":2178:2231   */\n      tag_232\n        /* \"#utility.yul\":2223:2230   */\n      dup7\n        /* \"#utility.yul\":2214:2220   */\n      dup3\n        /* \"#utility.yul\":2203:2212   */\n      dup8\n        /* \"#utility.yul\":2199:2221   */\n      add\n        /* \"#utility.yul\":2178:2231   */\n      tag_205\n      jump\t// in\n    tag_232:\n        /* \"#utility.yul\":2168:2231   */\n      swap4\n      pop\n        /* \"#utility.yul\":2124:2241   */\n      pop\n        /* \"#utility.yul\":2280:2282   */\n      0x20\n        /* \"#utility.yul\":2306:2359   */\n      tag_233\n        /* \"#utility.yul\":2351:2358   */\n      dup7\n        /* \"#utility.yul\":2342:2348   */\n      dup3\n        /* \"#utility.yul\":2331:2340   */\n      dup8\n        /* \"#utility.yul\":2327:2349   */\n      add\n        /* \"#utility.yul\":2306:2359   */\n      tag_205\n      jump\t// in\n    tag_233:\n        /* \"#utility.yul\":2296:2359   */\n      swap3\n      pop\n        /* \"#utility.yul\":2251:2369   */\n      pop\n        /* \"#utility.yul\":2408:2410   */\n      0x40\n        /* \"#utility.yul\":2434:2487   */\n      tag_234\n        /* \"#utility.yul\":2479:2486   */\n      dup7\n        /* \"#utility.yul\":2470:2476   */\n      dup3\n        /* \"#utility.yul\":2459:2468   */\n      dup8\n        /* \"#utility.yul\":2455:2477   */\n      add\n        /* \"#utility.yul\":2434:2487   */\n      tag_215\n      jump\t// in\n    tag_234:\n        /* \"#utility.yul\":2424:2487   */\n      swap2\n      pop\n        /* \"#utility.yul\":2379:2497   */\n      pop\n        /* \"#utility.yul\":1885:2504   */\n      swap3\n      pop\n      swap3\n      pop\n      swap3\n      jump\t// out\n        /* \"#utility.yul\":2510:2984   */\n    tag_26:\n        /* \"#utility.yul\":2578:2584   */\n      0x00\n        /* \"#utility.yul\":2586:2592   */\n      dup1\n        /* \"#utility.yul\":2635:2637   */\n      0x40\n        /* \"#utility.yul\":2623:2632   */\n      dup4\n        /* \"#utility.yul\":2614:2621   */\n      dup6\n        /* \"#utility.yul\":2610:2633   */\n      sub\n        /* \"#utility.yul\":2606:2638   */\n      slt\n        /* \"#utility.yul\":2603:2722   */\n      iszero\n      tag_236\n      jumpi\n        /* \"#utility.yul\":2641:2720   */\n      tag_237\n      tag_222\n      jump\t// in\n    tag_237:\n        /* \"#utility.yul\":2603:2722   */\n    tag_236:\n        /* \"#utility.yul\":2761:2762   */\n      0x00\n        /* \"#utility.yul\":2786:2839   */\n      tag_238\n        /* \"#utility.yul\":2831:2838   */\n      dup6\n        /* \"#utility.yul\":2822:2828   */\n      dup3\n        /* \"#utility.yul\":2811:2820   */\n      dup7\n        /* \"#utility.yul\":2807:2829   */\n      add\n        /* \"#utility.yul\":2786:2839   */\n      tag_205\n      jump\t// in\n    tag_238:\n        /* \"#utility.yul\":2776:2839   */\n      swap3\n      pop\n        /* \"#utility.yul\":2732:2849   */\n      pop\n        /* \"#utility.yul\":2888:2890   */\n      0x20\n        /* \"#utility.yul\":2914:2967   */\n      tag_239\n        /* \"#utility.yul\":2959:2966   */\n      dup6\n        /* \"#utility.yul\":2950:2956   */\n      dup3\n        /* \"#utility.yul\":2939:2948   */\n      dup7\n        /* \"#utility.yul\":2935:2957   */\n      add\n        /* \"#utility.yul\":2914:2967   */\n      tag_215\n      jump\t// in\n    tag_239:\n        /* \"#utility.yul\":2904:2967   */\n      swap2\n      pop\n        /* \"#utility.yul\":2859:2977   */\n      pop\n        /* \"#utility.yul\":2510:2984   */\n      swap3\n      pop\n      swap3\n      swap1\n      pop\n      jump\t// out\n        /* \"#utility.yul\":2990:3642   */\n    tag_69:\n        /* \"#utility.yul\":3067:3073   */\n      0x00\n        /* \"#utility.yul\":3075:3081   */\n      dup1\n        /* \"#utility.yul\":3124:3126   */\n      0x40\n        /* \"#utility.yul\":3112:3121   */\n      dup4\n        /* \"#utility.yul\":3103:3110   */\n      dup6\n        /* \"#utility.yul\":3099:3122   */\n      sub\n        /* \"#utility.yul\":3095:3127   */\n      slt\n        /* \"#utility.yul\":3092:3211   */\n      iszero\n      tag_241\n      jumpi\n        /* \"#utility.yul\":3130:3209   */\n      tag_242\n      tag_222\n      jump\t// in\n    tag_242:\n        /* \"#utility.yul\":3092:3211   */\n    tag_241:\n        /* \"#utility.yul\":3250:3251   */\n      0x00\n        /* \"#utility.yul\":3275:3328   */\n      tag_243\n        /* \"#utility.yul\":3320:3327   */\n      dup6\n        /* \"#utility.yul\":3311:3317   */\n      dup3\n        /* \"#utility.yul\":3300:3309   */\n      dup7\n        /* \"#utility.yul\":3296:3318   */\n      add\n        /* \"#utility.yul\":3275:3328   */\n      tag_215\n      jump\t// in\n    tag_243:\n        /* \"#utility.yul\":3265:3328   */\n      swap3\n      pop\n        /* \"#utility.yul\":3221:3338   */\n      pop\n        /* \"#utility.yul\":3405:3407   */\n      0x20\n        /* \"#utility.yul\":3394:3403   */\n      dup4\n        /* \"#utility.yul\":3390:3408   */\n      add\n        /* \"#utility.yul\":3377:3409   */\n      calldataload\n        /* \"#utility.yul\":3436:3454   */\n      0xffffffffffffffff\n        /* \"#utility.yul\":3428:3434   */\n      dup2\n        /* \"#utility.yul\":3425:3455   */\n      gt\n        /* \"#utility.yul\":3422:3539   */\n      iszero\n      tag_244\n      jumpi\n        /* \"#utility.yul\":3458:3537   */\n      tag_245\n      tag_246\n      jump\t// in\n    tag_245:\n        /* \"#utility.yul\":3422:3539   */\n    tag_244:\n        /* \"#utility.yul\":3563:3625   */\n      tag_247\n        /* \"#utility.yul\":3617:3624   */\n      dup6\n        /* \"#utility.yul\":3608:3614   */\n      dup3\n        /* \"#utility.yul\":3597:3606   */\n      dup7\n        /* \"#utility.yul\":3593:3615   */\n      add\n        /* \"#utility.yul\":3563:3625   */\n      tag_209\n      jump\t// in\n    tag_247:\n        /* \"#utility.yul\":3553:3625   */\n      swap2\n      pop\n        /* \"#utility.yul\":3348:3635   */\n      pop\n        /* \"#utility.yul\":2990:3642   */\n      swap3\n      pop\n      swap3\n      swap1\n      pop\n      jump\t// out\n        /* \"#utility.yul\":3648:3766   */\n    tag_248:\n        /* \"#utility.yul\":3735:3759   */\n      tag_250\n        /* \"#utility.yul\":3753:3758   */\n      dup2\n        /* \"#utility.yul\":3735:3759   */\n      tag_251\n      jump\t// in\n    tag_250:\n        /* \"#utility.yul\":3730:3733   */\n      dup3\n        /* \"#utility.yul\":3723:3760   */\n      mstore\n        /* \"#utility.yul\":3648:3766   */\n      pop\n      pop\n      jump\t// out\n        /* \"#utility.yul\":3772:3929   */\n    tag_252:\n        /* \"#utility.yul\":3877:3922   */\n      tag_254\n        /* \"#utility.yul\":3897:3921   */\n      tag_255\n        /* \"#utility.yul\":3915:3920   */\n      dup3\n        /* \"#utility.yul\":3897:3921   */\n      tag_251\n      jump\t// in\n    tag_255:\n        /* \"#utility.yul\":3877:3922   */\n      tag_256\n      jump\t// in\n    tag_254:\n        /* \"#utility.yul\":3872:3875   */\n      dup3\n        /* \"#utility.yul\":3865:3923   */\n      mstore\n        /* \"#utility.yul\":3772:3929   */\n      pop\n      pop\n      jump\t// out\n        /* \"#utility.yul\":3935:4044   */\n    tag_257:\n        /* \"#utility.yul\":4016:4037   */\n      tag_259\n        /* \"#utility.yul\":4031:4036   */\n      dup2\n        /* \"#utility.yul\":4016:4037   */\n      tag_260\n      jump\t// in\n    tag_259:\n        /* \"#utility.yul\":4011:4014   */\n      dup3\n        /* \"#utility.yul\":4004:4038   */\n      mstore\n        /* \"#utility.yul\":3935:4044   */\n      pop\n      pop\n      jump\t// out\n        /* \"#utility.yul\":4050:4168   */\n    tag_261:\n        /* \"#utility.yul\":4137:4161   */\n      tag_263\n        /* \"#utility.yul\":4155:4160   */\n      dup2\n        /* \"#utility.yul\":4137:4161   */\n      tag_264\n      jump\t// in\n    tag_263:\n        /* \"#utility.yul\":4132:4135   */\n      dup3\n        /* \"#utility.yul\":4125:4162   */\n      mstore\n        /* \"#utility.yul\":4050:4168   */\n      pop\n      pop\n      jump\t// out\n        /* \"#utility.yul\":4174:4538   */\n    tag_265:\n        /* \"#utility.yul\":4262:4265   */\n      0x00\n        /* \"#utility.yul\":4290:4329   */\n      tag_267\n        /* \"#utility.yul\":4323:4328   */\n      dup3\n        /* \"#utility.yul\":4290:4329   */\n      tag_268\n      jump\t// in\n    tag_267:\n        /* \"#utility.yul\":4345:4416   */\n      tag_269\n        /* \"#utility.yul\":4409:4415   */\n      dup2\n        /* \"#utility.yul\":4404:4407   */\n      dup6\n        /* \"#utility.yul\":4345:4416   */\n      tag_270\n      jump\t// in\n    tag_269:\n        /* \"#utility.yul\":4338:4416   */\n      swap4\n      pop\n        /* \"#utility.yul\":4425:4477   */\n      tag_271\n        /* \"#utility.yul\":4470:4476   */\n      dup2\n        /* \"#utility.yul\":4465:4468   */\n      dup6\n        /* \"#utility.yul\":4458:4462   */\n      0x20\n        /* \"#utility.yul\":4451:4456   */\n      dup7\n        /* \"#utility.yul\":4447:4463   */\n      add\n        /* \"#utility.yul\":4425:4477   */\n      tag_272\n      jump\t// in\n    tag_271:\n        /* \"#utility.yul\":4502:4531   */\n      tag_273\n        /* \"#utility.yul\":4524:4530   */\n      dup2\n        /* \"#utility.yul\":4502:4531   */\n      tag_274\n      jump\t// in\n    tag_273:\n        /* \"#utility.yul\":4497:4500   */\n      dup5\n        /* \"#utility.yul\":4493:4532   */\n      add\n        /* \"#utility.yul\":4486:4532   */\n      swap2\n      pop\n        /* \"#utility.yul\":4266:4538   */\n      pop\n        /* \"#utility.yul\":4174:4538   */\n      swap3\n      swap2\n      pop\n      pop\n      jump\t// out\n        /* \"#utility.yul\":4544:4910   */\n    tag_275:\n        /* \"#utility.yul\":4686:4689   */\n      0x00\n        /* \"#utility.yul\":4707:4774   */\n      tag_277\n        /* \"#utility.yul\":4771:4773   */\n      0x23\n        /* \"#utility.yul\":4766:4769   */\n      dup4\n        /* \"#utility.yul\":4707:4774   */\n      tag_270\n      jump\t// in\n    tag_277:\n        /* \"#utility.yul\":4700:4774   */\n      swap2\n      pop\n        /* \"#utility.yul\":4783:4876   */\n      tag_278\n        /* \"#utility.yul\":4872:4875   */\n      dup3\n        /* \"#utility.yul\":4783:4876   */\n      tag_279\n      jump\t// in\n    tag_278:\n        /* \"#utility.yul\":4901:4903   */\n      0x40\n        /* \"#utility.yul\":4896:4899   */\n      dup3\n        /* \"#utility.yul\":4892:4904   */\n      add\n        /* \"#utility.yul\":4885:4904   */\n      swap1\n      pop\n        /* \"#utility.yul\":4544:4910   */\n      swap2\n      swap1\n      pop\n      jump\t// out\n        /* \"#utility.yul\":4916:5282   */\n    tag_280:\n        /* \"#utility.yul\":5058:5061   */\n      0x00\n        /* \"#utility.yul\":5079:5146   */\n      tag_282\n        /* \"#utility.yul\":5143:5145   */\n      0x26\n        /* \"#utility.yul\":5138:5141   */\n      dup4\n        /* \"#utility.yul\":5079:5146   */\n      tag_270\n      jump\t// in\n    tag_282:\n        /* \"#utility.yul\":5072:5146   */\n      swap2\n      pop\n        /* \"#utility.yul\":5155:5248   */\n      tag_283\n        /* \"#utility.yul\":5244:5247   */\n      dup3\n        /* \"#utility.yul\":5155:5248   */\n      tag_284\n      jump\t// in\n    tag_283:\n        /* \"#utility.yul\":5273:5275   */\n      0x40\n        /* \"#utility.yul\":5268:5271   */\n      dup3\n        /* \"#utility.yul\":5264:5276   */\n      add\n        /* \"#utility.yul\":5257:5276   */\n      swap1\n      pop\n        /* \"#utility.yul\":4916:5282   */\n      swap2\n      swap1\n      pop\n      jump\t// out\n        /* \"#utility.yul\":5288:5654   */\n    tag_285:\n        /* \"#utility.yul\":5430:5433   */\n      0x00\n        /* \"#utility.yul\":5451:5518   */\n      tag_287\n        /* \"#utility.yul\":5515:5517   */\n      0x22\n        /* \"#utility.yul\":5510:5513   */\n      dup4\n        /* \"#utility.yul\":5451:5518   */\n      tag_270\n      jump\t// in\n    tag_287:\n        /* \"#utility.yul\":5444:5518   */\n      swap2\n      pop\n        /* \"#utility.yul\":5527:5620   */\n      tag_288\n        /* \"#utility.yul\":5616:5619   */\n      dup3\n        /* \"#utility.yul\":5527:5620   */\n      tag_289\n      jump\t// in\n    tag_288:\n        /* \"#utility.yul\":5645:5647   */\n      0x40\n        /* \"#utility.yul\":5640:5643   */\n      dup3\n        /* \"#utility.yul\":5636:5648   */\n      add\n        /* \"#utility.yul\":5629:5648   */\n      swap1\n      pop\n        /* \"#utility.yul\":5288:5654   */\n      swap2\n      swap1\n      pop\n      jump\t// out\n        /* \"#utility.yul\":5660:6026   */\n    tag_290:\n        /* \"#utility.yul\":5802:5805   */\n      0x00\n        /* \"#utility.yul\":5823:5890   */\n      tag_292\n        /* \"#utility.yul\":5887:5889   */\n      0x1d\n        /* \"#utility.yul\":5882:5885   */\n      dup4\n        /* \"#utility.yul\":5823:5890   */\n      tag_270\n      jump\t// in\n    tag_292:\n        /* \"#utility.yul\":5816:5890   */\n      swap2\n      pop\n        /* \"#utility.yul\":5899:5992   */\n      tag_293\n        /* \"#utility.yul\":5988:5991   */\n      dup3\n        /* \"#utility.yul\":5899:5992   */\n      tag_294\n      jump\t// in\n    tag_293:\n        /* \"#utility.yul\":6017:6019   */\n      0x20\n        /* \"#utility.yul\":6012:6015   */\n      dup3\n        /* \"#utility.yul\":6008:6020   */\n      add\n        /* \"#utility.yul\":6001:6020   */\n      swap1\n      pop\n        /* \"#utility.yul\":5660:6026   */\n      swap2\n      swap1\n      pop\n      jump\t// out\n        /* \"#utility.yul\":6032:6398   */\n    tag_295:\n        /* \"#utility.yul\":6174:6177   */\n      0x00\n        /* \"#utility.yul\":6195:6262   */\n      tag_297\n        /* \"#utility.yul\":6259:6261   */\n      0x26\n        /* \"#utility.yul\":6254:6257   */\n      dup4\n        /* \"#utility.yul\":6195:6262   */\n      tag_270\n      jump\t// in\n    tag_297:\n        /* \"#utility.yul\":6188:6262   */\n      swap2\n      pop\n        /* \"#utility.yul\":6271:6364   */\n      tag_298\n        /* \"#utility.yul\":6360:6363   */\n      dup3\n        /* \"#utility.yul\":6271:6364   */\n      tag_299\n      jump\t// in\n    tag_298:\n        /* \"#utility.yul\":6389:6391   */\n      0x40\n        /* \"#utility.yul\":6384:6387   */\n      dup3\n        /* \"#utility.yul\":6380:6392   */\n      add\n        /* \"#utility.yul\":6373:6392   */\n      swap1\n      pop\n        /* \"#utility.yul\":6032:6398   */\n      swap2\n      swap1\n      pop\n      jump\t// out\n        /* \"#utility.yul\":6404:6770   */\n    tag_300:\n        /* \"#utility.yul\":6546:6549   */\n      0x00\n        /* \"#utility.yul\":6567:6634   */\n      tag_302\n        /* \"#utility.yul\":6631:6633   */\n      0x20\n        /* \"#utility.yul\":6626:6629   */\n      dup4\n        /* \"#utility.yul\":6567:6634   */\n      tag_270\n      jump\t// in\n    tag_302:\n        /* \"#utility.yul\":6560:6634   */\n      swap2\n      pop\n        /* \"#utility.yul\":6643:6736   */\n      tag_303\n        /* \"#utility.yul\":6732:6735   */\n      dup3\n        /* \"#utility.yul\":6643:6736   */\n      tag_304\n      jump\t// in\n    tag_303:\n        /* \"#utility.yul\":6761:6763   */\n      0x20\n        /* \"#utility.yul\":6756:6759   */\n      dup3\n        /* \"#utility.yul\":6752:6764   */\n      add\n        /* \"#utility.yul\":6745:6764   */\n      swap1\n      pop\n        /* \"#utility.yul\":6404:6770   */\n      swap2\n      swap1\n      pop\n      jump\t// out\n        /* \"#utility.yul\":6776:7142   */\n    tag_305:\n        /* \"#utility.yul\":6918:6921   */\n      0x00\n        /* \"#utility.yul\":6939:7006   */\n      tag_307\n        /* \"#utility.yul\":7003:7005   */\n      0x20\n        /* \"#utility.yul\":6998:7001   */\n      dup4\n        /* \"#utility.yul\":6939:7006   */\n      tag_270\n      jump\t// in\n    tag_307:\n        /* \"#utility.yul\":6932:7006   */\n      swap2\n      pop\n        /* \"#utility.yul\":7015:7108   */\n      tag_308\n        /* \"#utility.yul\":7104:7107   */\n      dup3\n        /* \"#utility.yul\":7015:7108   */\n      tag_309\n      jump\t// in\n    tag_308:\n        /* \"#utility.yul\":7133:7135   */\n      0x20\n        /* \"#utility.yul\":7128:7131   */\n      dup3\n        /* \"#utility.yul\":7124:7136   */\n      add\n        /* \"#utility.yul\":7117:7136   */\n      swap1\n      pop\n        /* \"#utility.yul\":6776:7142   */\n      swap2\n      swap1\n      pop\n      jump\t// out\n        /* \"#utility.yul\":7148:7514   */\n    tag_310:\n        /* \"#utility.yul\":7290:7293   */\n      0x00\n        /* \"#utility.yul\":7311:7378   */\n      tag_312\n        /* \"#utility.yul\":7375:7377   */\n      0x25\n        /* \"#utility.yul\":7370:7373   */\n      dup4\n        /* \"#utility.yul\":7311:7378   */\n      tag_270\n      jump\t// in\n    tag_312:\n        /* \"#utility.yul\":7304:7378   */\n      swap2\n      pop\n        /* \"#utility.yul\":7387:7480   */\n      tag_313\n        /* \"#utility.yul\":7476:7479   */\n      dup3\n        /* \"#utility.yul\":7387:7480   */\n      tag_314\n      jump\t// in\n    tag_313:\n        /* \"#utility.yul\":7505:7507   */\n      0x40\n        /* \"#utility.yul\":7500:7503   */\n      dup3\n        /* \"#utility.yul\":7496:7508   */\n      add\n        /* \"#utility.yul\":7489:7508   */\n      swap1\n      pop\n        /* \"#utility.yul\":7148:7514   */\n      swap2\n      swap1\n      pop\n      jump\t// out\n        /* \"#utility.yul\":7520:7886   */\n    tag_315:\n        /* \"#utility.yul\":7662:7665   */\n      0x00\n        /* \"#utility.yul\":7683:7750   */\n      tag_317\n        /* \"#utility.yul\":7747:7749   */\n      0x24\n        /* \"#utility.yul\":7742:7745   */\n      dup4\n        /* \"#utility.yul\":7683:7750   */\n      tag_270\n      jump\t// in\n    tag_317:\n        /* \"#utility.yul\":7676:7750   */\n      swap2\n      pop\n        /* \"#utility.yul\":7759:7852   */\n      tag_318\n        /* \"#utility.yul\":7848:7851   */\n      dup3\n        /* \"#utility.yul\":7759:7852   */\n      tag_319\n      jump\t// in\n    tag_318:\n        /* \"#utility.yul\":7877:7879   */\n      0x40\n        /* \"#utility.yul\":7872:7875   */\n      dup3\n        /* \"#utility.yul\":7868:7880   */\n      add\n        /* \"#utility.yul\":7861:7880   */\n      swap1\n      pop\n        /* \"#utility.yul\":7520:7886   */\n      swap2\n      swap1\n      pop\n      jump\t// out\n        /* \"#utility.yul\":7892:8258   */\n    tag_320:\n        /* \"#utility.yul\":8034:8037   */\n      0x00\n        /* \"#utility.yul\":8055:8122   */\n      tag_322\n        /* \"#utility.yul\":8119:8121   */\n      0x1d\n        /* \"#utility.yul\":8114:8117   */\n      dup4\n        /* \"#utility.yul\":8055:8122   */\n      tag_270\n      jump\t// in\n    tag_322:\n        /* \"#utility.yul\":8048:8122   */\n      swap2\n      pop\n        /* \"#utility.yul\":8131:8224   */\n      tag_323\n        /* \"#utility.yul\":8220:8223   */\n      dup3\n        /* \"#utility.yul\":8131:8224   */\n      tag_324\n      jump\t// in\n    tag_323:\n        /* \"#utility.yul\":8249:8251   */\n      0x20\n        /* \"#utility.yul\":8244:8247   */\n      dup3\n        /* \"#utility.yul\":8240:8252   */\n      add\n        /* \"#utility.yul\":8233:8252   */\n      swap1\n      pop\n        /* \"#utility.yul\":7892:8258   */\n      swap2\n      swap1\n      pop\n      jump\t// out\n        /* \"#utility.yul\":8264:8630   */\n    tag_325:\n        /* \"#utility.yul\":8406:8409   */\n      0x00\n        /* \"#utility.yul\":8427:8494   */\n      tag_327\n        /* \"#utility.yul\":8491:8493   */\n      0x25\n        /* \"#utility.yul\":8486:8489   */\n      dup4\n        /* \"#utility.yul\":8427:8494   */\n      tag_270\n      jump\t// in\n    tag_327:\n        /* \"#utility.yul\":8420:8494   */\n      swap2\n      pop\n        /* \"#utility.yul\":8503:8596   */\n      tag_328\n        /* \"#utility.yul\":8592:8595   */\n      dup3\n        /* \"#utility.yul\":8503:8596   */\n      tag_329\n      jump\t// in\n    tag_328:\n        /* \"#utility.yul\":8621:8623   */\n      0x40\n        /* \"#utility.yul\":8616:8619   */\n      dup3\n        /* \"#utility.yul\":8612:8624   */\n      add\n        /* \"#utility.yul\":8605:8624   */\n      swap1\n      pop\n        /* \"#utility.yul\":8264:8630   */\n      swap2\n      swap1\n      pop\n      jump\t// out\n        /* \"#utility.yul\":8636:9002   */\n    tag_330:\n        /* \"#utility.yul\":8778:8781   */\n      0x00\n        /* \"#utility.yul\":8799:8866   */\n      tag_332\n        /* \"#utility.yul\":8863:8865   */\n      0x1f\n        /* \"#utility.yul\":8858:8861   */\n      dup4\n        /* \"#utility.yul\":8799:8866   */\n      tag_270\n      jump\t// in\n    tag_332:\n        /* \"#utility.yul\":8792:8866   */\n      swap2\n      pop\n        /* \"#utility.yul\":8875:8968   */\n      tag_333\n        /* \"#utility.yul\":8964:8967   */\n      dup3\n        /* \"#utility.yul\":8875:8968   */\n      tag_334\n      jump\t// in\n    tag_333:\n        /* \"#utility.yul\":8993:8995   */\n      0x20\n        /* \"#utility.yul\":8988:8991   */\n      dup3\n        /* \"#utility.yul\":8984:8996   */\n      add\n        /* \"#utility.yul\":8977:8996   */\n      swap1\n      pop\n        /* \"#utility.yul\":8636:9002   */\n      swap2\n      swap1\n      pop\n      jump\t// out\n        /* \"#utility.yul\":9008:9126   */\n    tag_335:\n        /* \"#utility.yul\":9095:9119   */\n      tag_337\n        /* \"#utility.yul\":9113:9118   */\n      dup2\n        /* \"#utility.yul\":9095:9119   */\n      tag_338\n      jump\t// in\n    tag_337:\n        /* \"#utility.yul\":9090:9093   */\n      dup3\n        /* \"#utility.yul\":9083:9120   */\n      mstore\n        /* \"#utility.yul\":9008:9126   */\n      pop\n      pop\n      jump\t// out\n        /* \"#utility.yul\":9132:9289   */\n    tag_339:\n        /* \"#utility.yul\":9237:9282   */\n      tag_341\n        /* \"#utility.yul\":9257:9281   */\n      tag_342\n        /* \"#utility.yul\":9275:9280   */\n      dup3\n        /* \"#utility.yul\":9257:9281   */\n      tag_338\n      jump\t// in\n    tag_342:\n        /* \"#utility.yul\":9237:9282   */\n      tag_343\n      jump\t// in\n    tag_341:\n        /* \"#utility.yul\":9232:9235   */\n      dup3\n        /* \"#utility.yul\":9225:9283   */\n      mstore\n        /* \"#utility.yul\":9132:9289   */\n      pop\n      pop\n      jump\t// out\n        /* \"#utility.yul\":9295:9407   */\n    tag_344:\n        /* \"#utility.yul\":9378:9400   */\n      tag_346\n        /* \"#utility.yul\":9394:9399   */\n      dup2\n        /* \"#utility.yul\":9378:9400   */\n      tag_347\n      jump\t// in\n    tag_346:\n        /* \"#utility.yul\":9373:9376   */\n      dup3\n        /* \"#utility.yul\":9366:9401   */\n      mstore\n        /* \"#utility.yul\":9295:9407   */\n      pop\n      pop\n      jump\t// out\n        /* \"#utility.yul\":9413:9810   */\n    tag_128:\n        /* \"#utility.yul\":9553:9556   */\n      0x00\n        /* \"#utility.yul\":9568:9643   */\n      tag_349\n        /* \"#utility.yul\":9639:9642   */\n      dup3\n        /* \"#utility.yul\":9630:9636   */\n      dup6\n        /* \"#utility.yul\":9568:9643   */\n      tag_252\n      jump\t// in\n    tag_349:\n        /* \"#utility.yul\":9668:9670   */\n      0x14\n        /* \"#utility.yul\":9663:9666   */\n      dup3\n        /* \"#utility.yul\":9659:9671   */\n      add\n        /* \"#utility.yul\":9652:9671   */\n      swap2\n      pop\n        /* \"#utility.yul\":9681:9756   */\n      tag_350\n        /* \"#utility.yul\":9752:9755   */\n      dup3\n        /* \"#utility.yul\":9743:9749   */\n      dup5\n        /* \"#utility.yul\":9681:9756   */\n      tag_339\n      jump\t// in\n    tag_350:\n        /* \"#utility.yul\":9781:9783   */\n      0x20\n        /* \"#utility.yul\":9776:9779   */\n      dup3\n        /* \"#utility.yul\":9772:9784   */\n      add\n        /* \"#utility.yul\":9765:9784   */\n      swap2\n      pop\n        /* \"#utility.yul\":9801:9804   */\n      dup2\n        /* \"#utility.yul\":9794:9804   */\n      swap1\n      pop\n        /* \"#utility.yul\":9413:9810   */\n      swap4\n      swap3\n      pop\n      pop\n      pop\n      jump\t// out\n        /* \"#utility.yul\":9816:10038   */\n    tag_55:\n        /* \"#utility.yul\":9909:9913   */\n      0x00\n        /* \"#utility.yul\":9947:9949   */\n      0x20\n        /* \"#utility.yul\":9936:9945   */\n      dup3\n        /* \"#utility.yul\":9932:9950   */\n      add\n        /* \"#utility.yul\":9924:9950   */\n      swap1\n      pop\n        /* \"#utility.yul\":9960:10031   */\n      tag_352\n        /* \"#utility.yul\":10028:10029   */\n      0x00\n        /* \"#utility.yul\":10017:10026   */\n      dup4\n        /* \"#utility.yul\":10013:10030   */\n      add\n        /* \"#utility.yul\":10004:10010   */\n      dup5\n        /* \"#utility.yul\":9960:10031   */\n      tag_248\n      jump\t// in\n    tag_352:\n        /* \"#utility.yul\":9816:10038   */\n      swap3\n      swap2\n      pop\n      pop\n      jump\t// out\n        /* \"#utility.yul\":10044:10254   */\n    tag_29:\n        /* \"#utility.yul\":10131:10135   */\n      0x00\n        /* \"#utility.yul\":10169:10171   */\n      0x20\n        /* \"#utility.yul\":10158:10167   */\n      dup3\n        /* \"#utility.yul\":10154:10172   */\n      add\n        /* \"#utility.yul\":10146:10172   */\n      swap1\n      pop\n        /* \"#utility.yul\":10182:10247   */\n      tag_354\n        /* \"#utility.yul\":10244:10245   */\n      0x00\n        /* \"#utility.yul\":10233:10242   */\n      dup4\n        /* \"#utility.yul\":10229:10246   */\n      add\n        /* \"#utility.yul\":10220:10226   */\n      dup5\n        /* \"#utility.yul\":10182:10247   */\n      tag_257\n      jump\t// in\n    tag_354:\n        /* \"#utility.yul\":10044:10254   */\n      swap3\n      swap2\n      pop\n      pop\n      jump\t// out\n        /* \"#utility.yul\":10260:10805   */\n    tag_130:\n        /* \"#utility.yul\":10433:10437   */\n      0x00\n        /* \"#utility.yul\":10471:10474   */\n      0x80\n        /* \"#utility.yul\":10460:10469   */\n      dup3\n        /* \"#utility.yul\":10456:10475   */\n      add\n        /* \"#utility.yul\":10448:10475   */\n      swap1\n      pop\n        /* \"#utility.yul\":10485:10556   */\n      tag_356\n        /* \"#utility.yul\":10553:10554   */\n      0x00\n        /* \"#utility.yul\":10542:10551   */\n      dup4\n        /* \"#utility.yul\":10538:10555   */\n      add\n        /* \"#utility.yul\":10529:10535   */\n      dup8\n        /* \"#utility.yul\":10485:10556   */\n      tag_261\n      jump\t// in\n    tag_356:\n        /* \"#utility.yul\":10566:10634   */\n      tag_357\n        /* \"#utility.yul\":10630:10632   */\n      0x20\n        /* \"#utility.yul\":10619:10628   */\n      dup4\n        /* \"#utility.yul\":10615:10633   */\n      add\n        /* \"#utility.yul\":10606:10612   */\n      dup7\n        /* \"#utility.yul\":10566:10634   */\n      tag_344\n      jump\t// in\n    tag_357:\n        /* \"#utility.yul\":10644:10716   */\n      tag_358\n        /* \"#utility.yul\":10712:10714   */\n      0x40\n        /* \"#utility.yul\":10701:10710   */\n      dup4\n        /* \"#utility.yul\":10697:10715   */\n      add\n        /* \"#utility.yul\":10688:10694   */\n      dup6\n        /* \"#utility.yul\":10644:10716   */\n      tag_261\n      jump\t// in\n    tag_358:\n        /* \"#utility.yul\":10726:10798   */\n      tag_359\n        /* \"#utility.yul\":10794:10796   */\n      0x60\n        /* \"#utility.yul\":10783:10792   */\n      dup4\n        /* \"#utility.yul\":10779:10797   */\n      add\n        /* \"#utility.yul\":10770:10776   */\n      dup5\n        /* \"#utility.yul\":10726:10798   */\n      tag_261\n      jump\t// in\n    tag_359:\n        /* \"#utility.yul\":10260:10805   */\n      swap6\n      swap5\n      pop\n      pop\n      pop\n      pop\n      pop\n      jump\t// out\n        /* \"#utility.yul\":10811:11124   */\n    tag_23:\n        /* \"#utility.yul\":10924:10928   */\n      0x00\n        /* \"#utility.yul\":10962:10964   */\n      0x20\n        /* \"#utility.yul\":10951:10960   */\n      dup3\n        /* \"#utility.yul\":10947:10965   */\n      add\n        /* \"#utility.yul\":10939:10965   */\n      swap1\n      pop\n        /* \"#utility.yul\":11011:11020   */\n      dup2\n        /* \"#utility.yul\":11005:11009   */\n      dup2\n        /* \"#utility.yul\":11001:11021   */\n      sub\n        /* \"#utility.yul\":10997:10998   */\n      0x00\n        /* \"#utility.yul\":10986:10995   */\n      dup4\n        /* \"#utility.yul\":10982:10999   */\n      add\n        /* \"#utility.yul\":10975:11022   */\n      mstore\n        /* \"#utility.yul\":11039:11117   */\n      tag_361\n        /* \"#utility.yul\":11112:11116   */\n      dup2\n        /* \"#utility.yul\":11103:11109   */\n      dup5\n        /* \"#utility.yul\":11039:11117   */\n      tag_265\n      jump\t// in\n    tag_361:\n        /* \"#utility.yul\":11031:11117   */\n      swap1\n      pop\n        /* \"#utility.yul\":10811:11124   */\n      swap3\n      swap2\n      pop\n      pop\n      jump\t// out\n        /* \"#utility.yul\":11130:11549   */\n    tag_179:\n        /* \"#utility.yul\":11296:11300   */\n      0x00\n        /* \"#utility.yul\":11334:11336   */\n      0x20\n        /* \"#utility.yul\":11323:11332   */\n      dup3\n        /* \"#utility.yul\":11319:11337   */\n      add\n        /* \"#utility.yul\":11311:11337   */\n      swap1\n      pop\n        /* \"#utility.yul\":11383:11392   */\n      dup2\n        /* \"#utility.yul\":11377:11381   */\n      dup2\n        /* \"#utility.yul\":11373:11393   */\n      sub\n        /* \"#utility.yul\":11369:11370   */\n      0x00\n        /* \"#utility.yul\":11358:11367   */\n      dup4\n        /* \"#utility.yul\":11354:11371   */\n      add\n        /* \"#utility.yul\":11347:11394   */\n      mstore\n        /* \"#utility.yul\":11411:11542   */\n      tag_363\n        /* \"#utility.yul\":11537:11541   */\n      dup2\n        /* \"#utility.yul\":11411:11542   */\n      tag_275\n      jump\t// in\n    tag_363:\n        /* \"#utility.yul\":11403:11542   */\n      swap1\n      pop\n        /* \"#utility.yul\":11130:11549   */\n      swap2\n      swap1\n      pop\n      jump\t// out\n        /* \"#utility.yul\":11555:11974   */\n    tag_154:\n        /* \"#utility.yul\":11721:11725   */\n      0x00\n        /* \"#utility.yul\":11759:11761   */\n      0x20\n        /* \"#utility.yul\":11748:11757   */\n      dup3\n        /* \"#utility.yul\":11744:11762   */\n      add\n        /* \"#utility.yul\":11736:11762   */\n      swap1\n      pop\n        /* \"#utility.yul\":11808:11817   */\n      dup2\n        /* \"#utility.yul\":11802:11806   */\n      dup2\n        /* \"#utility.yul\":11798:11818   */\n      sub\n        /* \"#utility.yul\":11794:11795   */\n      0x00\n        /* \"#utility.yul\":11783:11792   */\n      dup4\n        /* \"#utility.yul\":11779:11796   */\n      add\n        /* \"#utility.yul\":11772:11819   */\n      mstore\n        /* \"#utility.yul\":11836:11967   */\n      tag_365\n        /* \"#utility.yul\":11962:11966   */\n      dup2\n        /* \"#utility.yul\":11836:11967   */\n      tag_280\n      jump\t// in\n    tag_365:\n        /* \"#utility.yul\":11828:11967   */\n      swap1\n      pop\n        /* \"#utility.yul\":11555:11974   */\n      swap2\n      swap1\n      pop\n      jump\t// out\n        /* \"#utility.yul\":11980:12399   */\n    tag_164:\n        /* \"#utility.yul\":12146:12150   */\n      0x00\n        /* \"#utility.yul\":12184:12186   */\n      0x20\n        /* \"#utility.yul\":12173:12182   */\n      dup3\n        /* \"#utility.yul\":12169:12187   */\n      add\n        /* \"#utility.yul\":12161:12187   */\n      swap1\n      pop\n        /* \"#utility.yul\":12233:12242   */\n      dup2\n        /* \"#utility.yul\":12227:12231   */\n      dup2\n        /* \"#utility.yul\":12223:12243   */\n      sub\n        /* \"#utility.yul\":12219:12220   */\n      0x00\n        /* \"#utility.yul\":12208:12217   */\n      dup4\n        /* \"#utility.yul\":12204:12221   */\n      add\n        /* \"#utility.yul\":12197:12244   */\n      mstore\n        /* \"#utility.yul\":12261:12392   */\n      tag_367\n        /* \"#utility.yul\":12387:12391   */\n      dup2\n        /* \"#utility.yul\":12261:12392   */\n      tag_285\n      jump\t// in\n    tag_367:\n        /* \"#utility.yul\":12253:12392   */\n      swap1\n      pop\n        /* \"#utility.yul\":11980:12399   */\n      swap2\n      swap1\n      pop\n      jump\t// out\n        /* \"#utility.yul\":12405:12824   */\n    tag_171:\n        /* \"#utility.yul\":12571:12575   */\n      0x00\n        /* \"#utility.yul\":12609:12611   */\n      0x20\n        /* \"#utility.yul\":12598:12607   */\n      dup3\n        /* \"#utility.yul\":12594:12612   */\n      add\n        /* \"#utility.yul\":12586:12612   */\n      swap1\n      pop\n        /* \"#utility.yul\":12658:12667   */\n      dup2\n        /* \"#utility.yul\":12652:12656   */\n      dup2\n        /* \"#utility.yul\":12648:12668   */\n      sub\n        /* \"#utility.yul\":12644:12645   */\n      0x00\n        /* \"#utility.yul\":12633:12642   */\n      dup4\n        /* \"#utility.yul\":12629:12646   */\n      add\n        /* \"#utility.yul\":12622:12669   */\n      mstore\n        /* \"#utility.yul\":12686:12817   */\n      tag_369\n        /* \"#utility.yul\":12812:12816   */\n      dup2\n        /* \"#utility.yul\":12686:12817   */\n      tag_290\n      jump\t// in\n    tag_369:\n        /* \"#utility.yul\":12678:12817   */\n      swap1\n      pop\n        /* \"#utility.yul\":12405:12824   */\n      swap2\n      swap1\n      pop\n      jump\t// out\n        /* \"#utility.yul\":12830:13249   */\n    tag_182:\n        /* \"#utility.yul\":12996:13000   */\n      0x00\n        /* \"#utility.yul\":13034:13036   */\n      0x20\n        /* \"#utility.yul\":13023:13032   */\n      dup3\n        /* \"#utility.yul\":13019:13037   */\n      add\n        /* \"#utility.yul\":13011:13037   */\n      swap1\n      pop\n        /* \"#utility.yul\":13083:13092   */\n      dup2\n        /* \"#utility.yul\":13077:13081   */\n      dup2\n        /* \"#utility.yul\":13073:13093   */\n      sub\n        /* \"#utility.yul\":13069:13070   */\n      0x00\n        /* \"#utility.yul\":13058:13067   */\n      dup4\n        /* \"#utility.yul\":13054:13071   */\n      add\n        /* \"#utility.yul\":13047:13094   */\n      mstore\n        /* \"#utility.yul\":13111:13242   */\n      tag_371\n        /* \"#utility.yul\":13237:13241   */\n      dup2\n        /* \"#utility.yul\":13111:13242   */\n      tag_295\n      jump\t// in\n    tag_371:\n        /* \"#utility.yul\":13103:13242   */\n      swap1\n      pop\n        /* \"#utility.yul\":12830:13249   */\n      swap2\n      swap1\n      pop\n      jump\t// out\n        /* \"#utility.yul\":13255:13674   */\n    tag_150:\n        /* \"#utility.yul\":13421:13425   */\n      0x00\n        /* \"#utility.yul\":13459:13461   */\n      0x20\n        /* \"#utility.yul\":13448:13457   */\n      dup3\n        /* \"#utility.yul\":13444:13462   */\n      add\n        /* \"#utility.yul\":13436:13462   */\n      swap1\n      pop\n        /* \"#utility.yul\":13508:13517   */\n      dup2\n        /* \"#utility.yul\":13502:13506   */\n      dup2\n        /* \"#utility.yul\":13498:13518   */\n      sub\n        /* \"#utility.yul\":13494:13495   */\n      0x00\n        /* \"#utility.yul\":13483:13492   */\n      dup4\n        /* \"#utility.yul\":13479:13496   */\n      add\n        /* \"#utility.yul\":13472:13519   */\n      mstore\n        /* \"#utility.yul\":13536:13667   */\n      tag_373\n        /* \"#utility.yul\":13662:13666   */\n      dup2\n        /* \"#utility.yul\":13536:13667   */\n      tag_300\n      jump\t// in\n    tag_373:\n        /* \"#utility.yul\":13528:13667   */\n      swap1\n      pop\n        /* \"#utility.yul\":13255:13674   */\n      swap2\n      swap1\n      pop\n      jump\t// out\n        /* \"#utility.yul\":13680:14099   */\n    tag_126:\n        /* \"#utility.yul\":13846:13850   */\n      0x00\n        /* \"#utility.yul\":13884:13886   */\n      0x20\n        /* \"#utility.yul\":13873:13882   */\n      dup3\n        /* \"#utility.yul\":13869:13887   */\n      add\n        /* \"#utility.yul\":13861:13887   */\n      swap1\n      pop\n        /* \"#utility.yul\":13933:13942   */\n      dup2\n        /* \"#utility.yul\":13927:13931   */\n      dup2\n        /* \"#utility.yul\":13923:13943   */\n      sub\n        /* \"#utility.yul\":13919:13920   */\n      0x00\n        /* \"#utility.yul\":13908:13917   */\n      dup4\n        /* \"#utility.yul\":13904:13921   */\n      add\n        /* \"#utility.yul\":13897:13944   */\n      mstore\n        /* \"#utility.yul\":13961:14092   */\n      tag_375\n        /* \"#utility.yul\":14087:14091   */\n      dup2\n        /* \"#utility.yul\":13961:14092   */\n      tag_305\n      jump\t// in\n    tag_375:\n        /* \"#utility.yul\":13953:14092   */\n      swap1\n      pop\n        /* \"#utility.yul\":13680:14099   */\n      swap2\n      swap1\n      pop\n      jump\t// out\n        /* \"#utility.yul\":14105:14524   */\n    tag_176:\n        /* \"#utility.yul\":14271:14275   */\n      0x00\n        /* \"#utility.yul\":14309:14311   */\n      0x20\n        /* \"#utility.yul\":14298:14307   */\n      dup3\n        /* \"#utility.yul\":14294:14312   */\n      add\n        /* \"#utility.yul\":14286:14312   */\n      swap1\n      pop\n        /* \"#utility.yul\":14358:14367   */\n      dup2\n        /* \"#utility.yul\":14352:14356   */\n      dup2\n        /* \"#utility.yul\":14348:14368   */\n      sub\n        /* \"#utility.yul\":14344:14345   */\n      0x00\n        /* \"#utility.yul\":14333:14342   */\n      dup4\n        /* \"#utility.yul\":14329:14346   */\n      add\n        /* \"#utility.yul\":14322:14369   */\n      mstore\n        /* \"#utility.yul\":14386:14517   */\n      tag_377\n        /* \"#utility.yul\":14512:14516   */\n      dup2\n        /* \"#utility.yul\":14386:14517   */\n      tag_310\n      jump\t// in\n    tag_377:\n        /* \"#utility.yul\":14378:14517   */\n      swap1\n      pop\n        /* \"#utility.yul\":14105:14524   */\n      swap2\n      swap1\n      pop\n      jump\t// out\n        /* \"#utility.yul\":14530:14949   */\n    tag_161:\n        /* \"#utility.yul\":14696:14700   */\n      0x00\n        /* \"#utility.yul\":14734:14736   */\n      0x20\n        /* \"#utility.yul\":14723:14732   */\n      dup3\n        /* \"#utility.yul\":14719:14737   */\n      add\n        /* \"#utility.yul\":14711:14737   */\n      swap1\n      pop\n        /* \"#utility.yul\":14783:14792   */\n      dup2\n        /* \"#utility.yul\":14777:14781   */\n      dup2\n        /* \"#utility.yul\":14773:14793   */\n      sub\n        /* \"#utility.yul\":14769:14770   */\n      0x00\n        /* \"#utility.yul\":14758:14767   */\n      dup4\n        /* \"#utility.yul\":14754:14771   */\n      add\n        /* \"#utility.yul\":14747:14794   */\n      mstore\n        /* \"#utility.yul\":14811:14942   */\n      tag_379\n        /* \"#utility.yul\":14937:14941   */\n      dup2\n        /* \"#utility.yul\":14811:14942   */\n      tag_315\n      jump\t// in\n    tag_379:\n        /* \"#utility.yul\":14803:14942   */\n      swap1\n      pop\n        /* \"#utility.yul\":14530:14949   */\n      swap2\n      swap1\n      pop\n      jump\t// out\n        /* \"#utility.yul\":14955:15374   */\n    tag_141:\n        /* \"#utility.yul\":15121:15125   */\n      0x00\n        /* \"#utility.yul\":15159:15161   */\n      0x20\n        /* \"#utility.yul\":15148:15157   */\n      dup3\n        /* \"#utility.yul\":15144:15162   */\n      add\n        /* \"#utility.yul\":15136:15162   */\n      swap1\n      pop\n        /* \"#utility.yul\":15208:15217   */\n      dup2\n        /* \"#utility.yul\":15202:15206   */\n      dup2\n        /* \"#utility.yul\":15198:15218   */\n      sub\n        /* \"#utility.yul\":15194:15195   */\n      0x00\n        /* \"#utility.yul\":15183:15192   */\n      dup4\n        /* \"#utility.yul\":15179:15196   */\n      add\n        /* \"#utility.yul\":15172:15219   */\n      mstore\n        /* \"#utility.yul\":15236:15367   */\n      tag_381\n        /* \"#utility.yul\":15362:15366   */\n      dup2\n        /* \"#utility.yul\":15236:15367   */\n      tag_320\n      jump\t// in\n    tag_381:\n        /* \"#utility.yul\":15228:15367   */\n      swap1\n      pop\n        /* \"#utility.yul\":14955:15374   */\n      swap2\n      swap1\n      pop\n      jump\t// out\n        /* \"#utility.yul\":15380:15799   */\n    tag_117:\n        /* \"#utility.yul\":15546:15550   */\n      0x00\n        /* \"#utility.yul\":15584:15586   */\n      0x20\n        /* \"#utility.yul\":15573:15582   */\n      dup3\n        /* \"#utility.yul\":15569:15587   */\n      add\n        /* \"#utility.yul\":15561:15587   */\n      swap1\n      pop\n        /* \"#utility.yul\":15633:15642   */\n      dup2\n        /* \"#utility.yul\":15627:15631   */\n      dup2\n        /* \"#utility.yul\":15623:15643   */\n      sub\n        /* \"#utility.yul\":15619:15620   */\n      0x00\n        /* \"#utility.yul\":15608:15617   */\n      dup4\n        /* \"#utility.yul\":15604:15621   */\n      add\n        /* \"#utility.yul\":15597:15644   */\n      mstore\n        /* \"#utility.yul\":15661:15792   */\n      tag_383\n        /* \"#utility.yul\":15787:15791   */\n      dup2\n        /* \"#utility.yul\":15661:15792   */\n      tag_325\n      jump\t// in\n    tag_383:\n        /* \"#utility.yul\":15653:15792   */\n      swap1\n      pop\n        /* \"#utility.yul\":15380:15799   */\n      swap2\n      swap1\n      pop\n      jump\t// out\n        /* \"#utility.yul\":15805:16224   */\n    tag_188:\n        /* \"#utility.yul\":15971:15975   */\n      0x00\n        /* \"#utility.yul\":16009:16011   */\n      0x20\n        /* \"#utility.yul\":15998:16007   */\n      dup3\n        /* \"#utility.yul\":15994:16012   */\n      add\n        /* \"#utility.yul\":15986:16012   */\n      swap1\n      pop\n        /* \"#utility.yul\":16058:16067   */\n      dup2\n        /* \"#utility.yul\":16052:16056   */\n      dup2\n        /* \"#utility.yul\":16048:16068   */\n      sub\n        /* \"#utility.yul\":16044:16045   */\n      0x00\n        /* \"#utility.yul\":16033:16042   */\n      dup4\n        /* \"#utility.yul\":16029:16046   */\n      add\n        /* \"#utility.yul\":16022:16069   */\n      mstore\n        /* \"#utility.yul\":16086:16217   */\n      tag_385\n        /* \"#utility.yul\":16212:16216   */\n      dup2\n        /* \"#utility.yul\":16086:16217   */\n      tag_330\n      jump\t// in\n    tag_385:\n        /* \"#utility.yul\":16078:16217   */\n      swap1\n      pop\n        /* \"#utility.yul\":15805:16224   */\n      swap2\n      swap1\n      pop\n      jump\t// out\n        /* \"#utility.yul\":16230:16452   */\n    tag_33:\n        /* \"#utility.yul\":16323:16327   */\n      0x00\n        /* \"#utility.yul\":16361:16363   */\n      0x20\n        /* \"#utility.yul\":16350:16359   */\n      dup3\n        /* \"#utility.yul\":16346:16364   */\n      add\n        /* \"#utility.yul\":16338:16364   */\n      swap1\n      pop\n        /* \"#utility.yul\":16374:16445   */\n      tag_387\n        /* \"#utility.yul\":16442:16443   */\n      0x00\n        /* \"#utility.yul\":16431:16440   */\n      dup4\n        /* \"#utility.yul\":16427:16444   */\n      add\n        /* \"#utility.yul\":16418:16424   */\n      dup5\n        /* \"#utility.yul\":16374:16445   */\n      tag_335\n      jump\t// in\n    tag_387:\n        /* \"#utility.yul\":16230:16452   */\n      swap3\n      swap2\n      pop\n      pop\n      jump\t// out\n        /* \"#utility.yul\":16458:16672   */\n    tag_42:\n        /* \"#utility.yul\":16547:16551   */\n      0x00\n        /* \"#utility.yul\":16585:16587   */\n      0x20\n        /* \"#utility.yul\":16574:16583   */\n      dup3\n        /* \"#utility.yul\":16570:16588   */\n      add\n        /* \"#utility.yul\":16562:16588   */\n      swap1\n      pop\n        /* \"#utility.yul\":16598:16665   */\n      tag_389\n        /* \"#utility.yul\":16662:16663   */\n      0x00\n        /* \"#utility.yul\":16651:16660   */\n      dup4\n        /* \"#utility.yul\":16647:16664   */\n      add\n        /* \"#utility.yul\":16638:16644   */\n      dup5\n        /* \"#utility.yul\":16598:16665   */\n      tag_344\n      jump\t// in\n    tag_389:\n        /* \"#utility.yul\":16458:16672   */\n      swap3\n      swap2\n      pop\n      pop\n      jump\t// out\n        /* \"#utility.yul\":16678:16807   */\n    tag_199:\n        /* \"#utility.yul\":16712:16718   */\n      0x00\n        /* \"#utility.yul\":16739:16759   */\n      tag_391\n      tag_392\n      jump\t// in\n    tag_391:\n        /* \"#utility.yul\":16729:16759   */\n      swap1\n      pop\n        /* \"#utility.yul\":16768:16801   */\n      tag_393\n        /* \"#utility.yul\":16796:16800   */\n      dup3\n        /* \"#utility.yul\":16788:16794   */\n      dup3\n        /* \"#utility.yul\":16768:16801   */\n      tag_394\n      jump\t// in\n    tag_393:\n        /* \"#utility.yul\":16678:16807   */\n      swap2\n      swap1\n      pop\n      jump\t// out\n        /* \"#utility.yul\":16813:16888   */\n    tag_392:\n        /* \"#utility.yul\":16846:16852   */\n      0x00\n        /* \"#utility.yul\":16879:16881   */\n      0x40\n        /* \"#utility.yul\":16873:16882   */\n      mload\n        /* \"#utility.yul\":16863:16882   */\n      swap1\n      pop\n        /* \"#utility.yul\":16813:16888   */\n      swap1\n      jump\t// out\n        /* \"#utility.yul\":16894:17201   */\n    tag_198:\n        /* \"#utility.yul\":16955:16959   */\n      0x00\n        /* \"#utility.yul\":17045:17063   */\n      0xffffffffffffffff\n        /* \"#utility.yul\":17037:17043   */\n      dup3\n        /* \"#utility.yul\":17034:17064   */\n      gt\n        /* \"#utility.yul\":17031:17087   */\n      iszero\n      tag_397\n      jumpi\n        /* \"#utility.yul\":17067:17085   */\n      tag_398\n      tag_399\n      jump\t// in\n    tag_398:\n        /* \"#utility.yul\":17031:17087   */\n    tag_397:\n        /* \"#utility.yul\":17105:17134   */\n      tag_400\n        /* \"#utility.yul\":17127:17133   */\n      dup3\n        /* \"#utility.yul\":17105:17134   */\n      tag_274\n      jump\t// in\n    tag_400:\n        /* \"#utility.yul\":17097:17134   */\n      swap1\n      pop\n        /* \"#utility.yul\":17189:17193   */\n      0x20\n        /* \"#utility.yul\":17183:17187   */\n      dup2\n        /* \"#utility.yul\":17179:17194   */\n      add\n        /* \"#utility.yul\":17171:17194   */\n      swap1\n      pop\n        /* \"#utility.yul\":16894:17201   */\n      swap2\n      swap1\n      pop\n      jump\t// out\n        /* \"#utility.yul\":17207:17306   */\n    tag_268:\n        /* \"#utility.yul\":17259:17265   */\n      0x00\n        /* \"#utility.yul\":17293:17298   */\n      dup2\n        /* \"#utility.yul\":17287:17299   */\n      mload\n        /* \"#utility.yul\":17277:17299   */\n      swap1\n      pop\n        /* \"#utility.yul\":17207:17306   */\n      swap2\n      swap1\n      pop\n      jump\t// out\n        /* \"#utility.yul\":17312:17481   */\n    tag_270:\n        /* \"#utility.yul\":17396:17407   */\n      0x00\n        /* \"#utility.yul\":17430:17436   */\n      dup3\n        /* \"#utility.yul\":17425:17428   */\n      dup3\n        /* \"#utility.yul\":17418:17437   */\n      mstore\n        /* \"#utility.yul\":17470:17474   */\n      0x20\n        /* \"#utility.yul\":17465:17468   */\n      dup3\n        /* \"#utility.yul\":17461:17475   */\n      add\n        /* \"#utility.yul\":17446:17475   */\n      swap1\n      pop\n        /* \"#utility.yul\":17312:17481   */\n      swap3\n      swap2\n      pop\n      pop\n      jump\t// out\n        /* \"#utility.yul\":17487:17792   */\n    tag_104:\n        /* \"#utility.yul\":17527:17530   */\n      0x00\n        /* \"#utility.yul\":17546:17566   */\n      tag_404\n        /* \"#utility.yul\":17564:17565   */\n      dup3\n        /* \"#utility.yul\":17546:17566   */\n      tag_338\n      jump\t// in\n    tag_404:\n        /* \"#utility.yul\":17541:17566   */\n      swap2\n      pop\n        /* \"#utility.yul\":17580:17600   */\n      tag_405\n        /* \"#utility.yul\":17598:17599   */\n      dup4\n        /* \"#utility.yul\":17580:17600   */\n      tag_338\n      jump\t// in\n    tag_405:\n        /* \"#utility.yul\":17575:17600   */\n      swap3\n      pop\n        /* \"#utility.yul\":17734:17735   */\n      dup3\n        /* \"#utility.yul\":17666:17732   */\n      0xffffffffffffffffffffffffffffffffffffffffffffffffffffffffffffffff\n        /* \"#utility.yul\":17662:17736   */\n      sub\n        /* \"#utility.yul\":17659:17660   */\n      dup3\n        /* \"#utility.yul\":17656:17737   */\n      gt\n        /* \"#utility.yul\":17653:17760   */\n      iszero\n      tag_406\n      jumpi\n        /* \"#utility.yul\":17740:17758   */\n      tag_407\n      tag_408\n      jump\t// in\n    tag_407:\n        /* \"#utility.yul\":17653:17760   */\n    tag_406:\n        /* \"#utility.yul\":17784:17785   */\n      dup3\n        /* \"#utility.yul\":17781:17782   */\n      dup3\n        /* \"#utility.yul\":17777:17786   */\n      add\n        /* \"#utility.yul\":17770:17786   */\n      swap1\n      pop\n        /* \"#utility.yul\":17487:17792   */\n      swap3\n      swap2\n      pop\n      pop\n      jump\t// out\n        /* \"#utility.yul\":17798:17894   */\n    tag_251:\n        /* \"#utility.yul\":17835:17842   */\n      0x00\n        /* \"#utility.yul\":17864:17888   */\n      tag_410\n        /* \"#utility.yul\":17882:17887   */\n      dup3\n        /* \"#utility.yul\":17864:17888   */\n      tag_411\n      jump\t// in\n    tag_410:\n        /* \"#utility.yul\":17853:17888   */\n      swap1\n      pop\n        /* \"#utility.yul\":17798:17894   */\n      swap2\n      swap1\n      pop\n      jump\t// out\n        /* \"#utility.yul\":17900:17990   */\n    tag_260:\n        /* \"#utility.yul\":17934:17941   */\n      0x00\n        /* \"#utility.yul\":17977:17982   */\n      dup2\n        /* \"#utility.yul\":17970:17983   */\n      iszero\n        /* \"#utility.yul\":17963:17984   */\n      iszero\n        /* \"#utility.yul\":17952:17984   */\n      swap1\n      pop\n        /* \"#utility.yul\":17900:17990   */\n      swap2\n      swap1\n      pop\n      jump\t// out\n        /* \"#utility.yul\":17996:18073   */\n    tag_264:\n        /* \"#utility.yul\":18033:18040   */\n      0x00\n        /* \"#utility.yul\":18062:18067   */\n      dup2\n        /* \"#utility.yul\":18051:18067   */\n      swap1\n      pop\n        /* \"#utility.yul\":17996:18073   */\n      swap2\n      swap1\n      pop\n      jump\t// out\n        /* \"#utility.yul\":18079:18205   */\n    tag_411:\n        /* \"#utility.yul\":18116:18123   */\n      0x00\n        /* \"#utility.yul\":18156:18198   */\n      0xffffffffffffffffffffffffffffffffffffffff\n        /* \"#utility.yul\":18149:18154   */\n      dup3\n        /* \"#utility.yul\":18145:18199   */\n      and\n        /* \"#utility.yul\":18134:18199   */\n      swap1\n      pop\n        /* \"#utility.yul\":18079:18205   */\n      swap2\n      swap1\n      pop\n      jump\t// out\n        /* \"#utility.yul\":18211:18288   */\n    tag_338:\n        /* \"#utility.yul\":18248:18255   */\n      0x00\n        /* \"#utility.yul\":18277:18282   */\n      dup2\n        /* \"#utility.yul\":18266:18282   */\n      swap1\n      pop\n        /* \"#utility.yul\":18211:18288   */\n      swap2\n      swap1\n      pop\n      jump\t// out\n        /* \"#utility.yul\":18294:18380   */\n    tag_347:\n        /* \"#utility.yul\":18329:18336   */\n      0x00\n        /* \"#utility.yul\":18369:18373   */\n      0xff\n        /* \"#utility.yul\":18362:18367   */\n      dup3\n        /* \"#utility.yul\":18358:18374   */\n      and\n        /* \"#utility.yul\":18347:18374   */\n      swap1\n      pop\n        /* \"#utility.yul\":18294:18380   */\n      swap2\n      swap1\n      pop\n      jump\t// out\n        /* \"#utility.yul\":18386:18540   */\n    tag_204:\n        /* \"#utility.yul\":18470:18476   */\n      dup3\n        /* \"#utility.yul\":18465:18468   */\n      dup2\n        /* \"#utility.yul\":18460:18463   */\n      dup4\n        /* \"#utility.yul\":18447:18477   */\n      calldatacopy\n        /* \"#utility.yul\":18532:18533   */\n      0x00\n        /* \"#utility.yul\":18523:18529   */\n      dup4\n        /* \"#utility.yul\":18518:18521   */\n      dup4\n        /* \"#utility.yul\":18514:18530   */\n      add\n        /* \"#utility.yul\":18507:18534   */\n      mstore\n        /* \"#utility.yul\":18386:18540   */\n      pop\n      pop\n      pop\n      jump\t// out\n        /* \"#utility.yul\":18546:18853   */\n    tag_272:\n        /* \"#utility.yul\":18614:18615   */\n      0x00\n        /* \"#utility.yul\":18624:18737   */\n    tag_419:\n        /* \"#utility.yul\":18638:18644   */\n      dup4\n        /* \"#utility.yul\":18635:18636   */\n      dup2\n        /* \"#utility.yul\":18632:18645   */\n      lt\n        /* \"#utility.yul\":18624:18737   */\n      iszero\n      tag_421\n      jumpi\n        /* \"#utility.yul\":18723:18724   */\n      dup1\n        /* \"#utility.yul\":18718:18721   */\n      dup3\n        /* \"#utility.yul\":18714:18725   */\n      add\n        /* \"#utility.yul\":18708:18726   */\n      mload\n        /* \"#utility.yul\":18704:18705   */\n      dup2\n        /* \"#utility.yul\":18699:18702   */\n      dup5\n        /* \"#utility.yul\":18695:18706   */\n      add\n        /* \"#utility.yul\":18688:18727   */\n      mstore\n        /* \"#utility.yul\":18660:18662   */\n      0x20\n        /* \"#utility.yul\":18657:18658   */\n      dup2\n        /* \"#utility.yul\":18653:18663   */\n      add\n        /* \"#utility.yul\":18648:18663   */\n      swap1\n      pop\n        /* \"#utility.yul\":18624:18737   */\n      jump(tag_419)\n    tag_421:\n        /* \"#utility.yul\":18755:18761   */\n      dup4\n        /* \"#utility.yul\":18752:18753   */\n      dup2\n        /* \"#utility.yul\":18749:18762   */\n      gt\n        /* \"#utility.yul\":18746:18847   */\n      iszero\n      tag_422\n      jumpi\n        /* \"#utility.yul\":18835:18836   */\n      0x00\n        /* \"#utility.yul\":18826:18832   */\n      dup5\n        /* \"#utility.yul\":18821:18824   */\n      dup5\n        /* \"#utility.yul\":18817:18833   */\n      add\n        /* \"#utility.yul\":18810:18837   */\n      mstore\n        /* \"#utility.yul\":18746:18847   */\n    tag_422:\n        /* \"#utility.yul\":18595:18853   */\n      pop\n        /* \"#utility.yul\":18546:18853   */\n      pop\n      pop\n      pop\n      jump\t// out\n        /* \"#utility.yul\":18859:19179   */\n    tag_82:\n        /* \"#utility.yul\":18903:18909   */\n      0x00\n        /* \"#utility.yul\":18940:18941   */\n      0x02\n        /* \"#utility.yul\":18934:18938   */\n      dup3\n        /* \"#utility.yul\":18930:18942   */\n      div\n        /* \"#utility.yul\":18920:18942   */\n      swap1\n      pop\n        /* \"#utility.yul\":18987:18988   */\n      0x01\n        /* \"#utility.yul\":18981:18985   */\n      dup3\n        /* \"#utility.yul\":18977:18989   */\n      and\n        /* \"#utility.yul\":19008:19026   */\n      dup1\n        /* \"#utility.yul\":18998:19079   */\n      tag_424\n      jumpi\n        /* \"#utility.yul\":19064:19068   */\n      0x7f\n        /* \"#utility.yul\":19056:19062   */\n      dup3\n        /* \"#utility.yul\":19052:19069   */\n      and\n        /* \"#utility.yul\":19042:19069   */\n      swap2\n      pop\n        /* \"#utility.yul\":18998:19079   */\n    tag_424:\n        /* \"#utility.yul\":19126:19128   */\n      0x20\n        /* \"#utility.yul\":19118:19124   */\n      dup3\n        /* \"#utility.yul\":19115:19129   */\n      lt\n        /* \"#utility.yul\":19095:19113   */\n      dup2\n        /* \"#utility.yul\":19092:19130   */\n      eq\n        /* \"#utility.yul\":19089:19173   */\n      iszero\n      tag_425\n      jumpi\n        /* \"#utility.yul\":19145:19163   */\n      tag_426\n      tag_427\n      jump\t// in\n    tag_426:\n        /* \"#utility.yul\":19089:19173   */\n    tag_425:\n        /* \"#utility.yul\":18910:19179   */\n      pop\n        /* \"#utility.yul\":18859:19179   */\n      swap2\n      swap1\n      pop\n      jump\t// out\n        /* \"#utility.yul\":19185:19466   */\n    tag_394:\n        /* \"#utility.yul\":19268:19295   */\n      tag_429\n        /* \"#utility.yul\":19290:19294   */\n      dup3\n        /* \"#utility.yul\":19268:19295   */\n      tag_274\n      jump\t// in\n    tag_429:\n        /* \"#utility.yul\":19260:19266   */\n      dup2\n        /* \"#utility.yul\":19256:19296   */\n      add\n        /* \"#utility.yul\":19398:19404   */\n      dup2\n        /* \"#utility.yul\":19386:19396   */\n      dup2\n        /* \"#utility.yul\":19383:19405   */\n      lt\n        /* \"#utility.yul\":19362:19380   */\n      0xffffffffffffffff\n        /* \"#utility.yul\":19350:19360   */\n      dup3\n        /* \"#utility.yul\":19347:19381   */\n      gt\n        /* \"#utility.yul\":19344:19406   */\n      or\n        /* \"#utility.yul\":19341:19429   */\n      iszero\n      tag_430\n      jumpi\n        /* \"#utility.yul\":19409:19427   */\n      tag_431\n      tag_399\n      jump\t// in\n    tag_431:\n        /* \"#utility.yul\":19341:19429   */\n    tag_430:\n        /* \"#utility.yul\":19449:19459   */\n      dup1\n        /* \"#utility.yul\":19445:19447   */\n      0x40\n        /* \"#utility.yul\":19438:19460   */\n      mstore\n        /* \"#utility.yul\":19228:19466   */\n      pop\n        /* \"#utility.yul\":19185:19466   */\n      pop\n      pop\n      jump\t// out\n        /* \"#utility.yul\":19472:19572   */\n    tag_256:\n        /* \"#utility.yul\":19511:19518   */\n      0x00\n        /* \"#utility.yul\":19540:19566   */\n      tag_433\n        /* \"#utility.yul\":19560:19565   */\n      dup3\n        /* \"#utility.yul\":19540:19566   */\n      tag_434\n      jump\t// in\n    tag_433:\n        /* \"#utility.yul\":19529:19566   */\n      swap1\n      pop\n        /* \"#utility.yul\":19472:19572   */\n      swap2\n      swap1\n      pop\n      jump\t// out\n        /* \"#utility.yul\":19578:19672   */\n    tag_434:\n        /* \"#utility.yul\":19617:19624   */\n      0x00\n        /* \"#utility.yul\":19646:19666   */\n      tag_436\n        /* \"#utility.yul\":19660:19665   */\n      dup3\n        /* \"#utility.yul\":19646:19666   */\n      tag_437\n      jump\t// in\n    tag_436:\n        /* \"#utility.yul\":19635:19666   */\n      swap1\n      pop\n        /* \"#utility.yul\":19578:19672   */\n      swap2\n      swap1\n      pop\n      jump\t// out\n        /* \"#utility.yul\":19678:19757   */\n    tag_343:\n        /* \"#utility.yul\":19717:19724   */\n      0x00\n        /* \"#utility.yul\":19746:19751   */\n      dup2\n        /* \"#utility.yul\":19735:19751   */\n      swap1\n      pop\n        /* \"#utility.yul\":19678:19757   */\n      swap2\n      swap1\n      pop\n      jump\t// out\n        /* \"#utility.yul\":19763:19943   */\n    tag_408:\n        /* \"#utility.yul\":19811:19888   */\n      0x4e487b7100000000000000000000000000000000000000000000000000000000\n        /* \"#utility.yul\":19808:19809   */\n      0x00\n        /* \"#utility.yul\":19801:19889   */\n      mstore\n        /* \"#utility.yul\":19908:19912   */\n      0x11\n        /* \"#utility.yul\":19905:19906   */\n      0x04\n        /* \"#utility.yul\":19898:19913   */\n      mstore\n        /* \"#utility.yul\":19932:19936   */\n      0x24\n        /* \"#utility.yul\":19929:19930   */\n      0x00\n        /* \"#utility.yul\":19922:19937   */\n      revert\n        /* \"#utility.yul\":19949:20129   */\n    tag_427:\n        /* \"#utility.yul\":19997:20074   */\n      0x4e487b7100000000000000000000000000000000000000000000000000000000\n        /* \"#utility.yul\":19994:19995   */\n      0x00\n        /* \"#utility.yul\":19987:20075   */\n      mstore\n        /* \"#utility.yul\":20094:20098   */\n      0x22\n        /* \"#utility.yul\":20091:20092   */\n      0x04\n        /* \"#utility.yul\":20084:20099   */\n      mstore\n        /* \"#utility.yul\":20118:20122   */\n      0x24\n        /* \"#utility.yul\":20115:20116   */\n      0x00\n        /* \"#utility.yul\":20108:20123   */\n      revert\n        /* \"#utility.yul\":20135:20315   */\n    tag_399:\n        /* \"#utility.yul\":20183:20260   */\n      0x4e487b7100000000000000000000000000000000000000000000000000000000\n        /* \"#utility.yul\":20180:20181   */\n      0x00\n        /* \"#utility.yul\":20173:20261   */\n      mstore\n        /* \"#utility.yul\":20280:20284   */\n      0x41\n        /* \"#utility.yul\":20277:20278   */\n      0x04\n        /* \"#utility.yul\":20270:20285   */\n      mstore\n        /* \"#utility.yul\":20304:20308   */\n      0x24\n        /* \"#utility.yul\":20301:20302   */\n      0x00\n        /* \"#utility.yul\":20294:20309   */\n      revert\n        /* \"#utility.yul\":20321:20438   */\n    tag_213:\n        /* \"#utility.yul\":20430:20431   */\n      0x00\n        /* \"#utility.yul\":20427:20428   */\n      dup1\n        /* \"#utility.yul\":20420:20432   */\n      revert\n        /* \"#utility.yul\":20444:20561   */\n    tag_202:\n        /* \"#utility.yul\":20553:20554   */\n      0x00\n        /* \"#utility.yul\":20550:20551   */\n      dup1\n        /* \"#utility.yul\":20543:20555   */\n      revert\n        /* \"#utility.yul\":20567:20684   */\n    tag_246:\n        /* \"#utility.yul\":20676:20677   */\n      0x00\n        /* \"#utility.yul\":20673:20674   */\n      dup1\n        /* \"#utility.yul\":20666:20678   */\n      revert\n        /* \"#utility.yul\":20690:20807   */\n    tag_222:\n        /* \"#utility.yul\":20799:20800   */\n      0x00\n        /* \"#utility.yul\":20796:20797   */\n      dup1\n        /* \"#utility.yul\":20789:20801   */\n      revert\n        /* \"#utility.yul\":20813:20915   */\n    tag_274:\n        /* \"#utility.yul\":20854:20860   */\n      0x00\n        /* \"#utility.yul\":20905:20907   */\n      0x1f\n        /* \"#utility.yul\":20901:20908   */\n      not\n        /* \"#utility.yul\":20896:20898   */\n      0x1f\n        /* \"#utility.yul\":20889:20894   */\n      dup4\n        /* \"#utility.yul\":20885:20899   */\n      add\n        /* \"#utility.yul\":20881:20909   */\n      and\n        /* \"#utility.yul\":20871:20909   */\n      swap1\n      pop\n        /* \"#utility.yul\":20813:20915   */\n      swap2\n      swap1\n      pop\n      jump\t// out\n        /* \"#utility.yul\":20921:21015   */\n    tag_437:\n        /* \"#utility.yul\":20954:20962   */\n      0x00\n        /* \"#utility.yul\":21002:21007   */\n      dup2\n        /* \"#utility.yul\":20998:21000   */\n      0x60\n        /* \"#utility.yul\":20994:21008   */\n      shl\n        /* \"#utility.yul\":20973:21008   */\n      swap1\n      pop\n        /* \"#utility.yul\":20921:21015   */\n      swap2\n      swap1\n      pop\n      jump\t// out\n        /* \"#utility.yul\":21021:21243   */\n    tag_279:\n        /* \"#utility.yul\":21161:21195   */\n      0x45524332303a207472616e7366657220746f20746865207a65726f2061646472\n        /* \"#utility.yul\":21157:21158   */\n      0x00\n        /* \"#utility.yul\":21149:21155   */\n      dup3\n        /* \"#utility.yul\":21145:21159   */\n      add\n        /* \"#utility.yul\":21138:21196   */\n      mstore\n        /* \"#utility.yul\":21230:21235   */\n      0x6573730000000000000000000000000000000000000000000000000000000000\n        /* \"#utility.yul\":21225:21227   */\n      0x20\n        /* \"#utility.yul\":21217:21223   */\n      dup3\n        /* \"#utility.yul\":21213:21228   */\n      add\n        /* \"#utility.yul\":21206:21236   */\n      mstore\n        /* \"#utility.yul\":21021:21243   */\n      pop\n      jump\t// out\n        /* \"#utility.yul\":21249:21474   */\n    tag_284:\n        /* \"#utility.yul\":21389:21423   */\n      0x4f776e61626c653a206e6577206f776e657220697320746865207a65726f2061\n        /* \"#utility.yul\":21385:21386   */\n      0x00\n        /* \"#utility.yul\":21377:21383   */\n      dup3\n        /* \"#utility.yul\":21373:21387   */\n      add\n        /* \"#utility.yul\":21366:21424   */\n      mstore\n        /* \"#utility.yul\":21458:21466   */\n      0x6464726573730000000000000000000000000000000000000000000000000000\n        /* \"#utility.yul\":21453:21455   */\n      0x20\n        /* \"#utility.yul\":21445:21451   */\n      dup3\n        /* \"#utility.yul\":21441:21456   */\n      add\n        /* \"#utility.yul\":21434:21467   */\n      mstore\n        /* \"#utility.yul\":21249:21474   */\n      pop\n      jump\t// out\n        /* \"#utility.yul\":21480:21701   */\n    tag_289:\n        /* \"#utility.yul\":21620:21654   */\n      0x45524332303a20617070726f766520746f20746865207a65726f206164647265\n        /* \"#utility.yul\":21616:21617   */\n      0x00\n        /* \"#utility.yul\":21608:21614   */\n      dup3\n        /* \"#utility.yul\":21604:21618   */\n      add\n        /* \"#utility.yul\":21597:21655   */\n      mstore\n        /* \"#utility.yul\":21689:21693   */\n      0x7373000000000000000000000000000000000000000000000000000000000000\n        /* \"#utility.yul\":21684:21686   */\n      0x20\n        /* \"#utility.yul\":21676:21682   */\n      dup3\n        /* \"#utility.yul\":21672:21687   */\n      add\n        /* \"#utility.yul\":21665:21694   */\n      mstore\n        /* \"#utility.yul\":21480:21701   */\n      pop\n      jump\t// out\n        /* \"#utility.yul\":21707:21886   */\n    tag_294:\n        /* \"#utility.yul\":21847:21878   */\n      0x45524332303a20696e73756666696369656e7420616c6c6f77616e6365000000\n        /* \"#utility.yul\":21843:21844   */\n      0x00\n        /* \"#utility.yul\":21835:21841   */\n      dup3\n        /* \"#utility.yul\":21831:21845   */\n      add\n        /* \"#utility.yul\":21824:21879   */\n      mstore\n        /* \"#utility.yul\":21707:21886   */\n      pop\n      jump\t// out\n        /* \"#utility.yul\":21892:22117   */\n    tag_299:\n        /* \"#utility.yul\":22032:22066   */\n      0x45524332303a207472616e7366657220616d6f756e7420657863656564732062\n        /* \"#utility.yul\":22028:22029   */\n      0x00\n        /* \"#utility.yul\":22020:22026   */\n      dup3\n        /* \"#utility.yul\":22016:22030   */\n      add\n        /* \"#utility.yul\":22009:22067   */\n      mstore\n        /* \"#utility.yul\":22101:22109   */\n      0x616c616e63650000000000000000000000000000000000000000000000000000\n        /* \"#utility.yul\":22096:22098   */\n      0x20\n        /* \"#utility.yul\":22088:22094   */\n      dup3\n        /* \"#utility.yul\":22084:22099   */\n      add\n        /* \"#utility.yul\":22077:22110   */\n      mstore\n        /* \"#utility.yul\":21892:22117   */\n      pop\n      jump\t// out\n        /* \"#utility.yul\":22123:22305   */\n    tag_304:\n        /* \"#utility.yul\":22263:22297   */\n      0x4f776e61626c653a2063616c6c6572206973206e6f7420746865206f776e6572\n        /* \"#utility.yul\":22259:22260   */\n      0x00\n        /* \"#utility.yul\":22251:22257   */\n      dup3\n        /* \"#utility.yul\":22247:22261   */\n      add\n        /* \"#utility.yul\":22240:22298   */\n      mstore\n        /* \"#utility.yul\":22123:22305   */\n      pop\n      jump\t// out\n        /* \"#utility.yul\":22311:22493   */\n    tag_309:\n        /* \"#utility.yul\":22451:22485   */\n      0x774c4f4e473a206b65792068617320616c7265616479206265656e2075736564\n        /* \"#utility.yul\":22447:22448   */\n      0x00\n        /* \"#utility.yul\":22439:22445   */\n      dup3\n        /* \"#utility.yul\":22435:22449   */\n      add\n        /* \"#utility.yul\":22428:22486   */\n      mstore\n        /* \"#utility.yul\":22311:22493   */\n      pop\n      jump\t// out\n        /* \"#utility.yul\":22499:22723   */\n    tag_314:\n        /* \"#utility.yul\":22639:22673   */\n      0x45524332303a207472616e736665722066726f6d20746865207a65726f206164\n        /* \"#utility.yul\":22635:22636   */\n      0x00\n        /* \"#utility.yul\":22627:22633   */\n      dup3\n        /* \"#utility.yul\":22623:22637   */\n      add\n        /* \"#utility.yul\":22616:22674   */\n      mstore\n        /* \"#utility.yul\":22708:22715   */\n      0x6472657373000000000000000000000000000000000000000000000000000000\n        /* \"#utility.yul\":22703:22705   */\n      0x20\n        /* \"#utility.yul\":22695:22701   */\n      dup3\n        /* \"#utility.yul\":22691:22706   */\n      add\n        /* \"#utility.yul\":22684:22716   */\n      mstore\n        /* \"#utility.yul\":22499:22723   */\n      pop\n      jump\t// out\n        /* \"#utility.yul\":22729:22952   */\n    tag_319:\n        /* \"#utility.yul\":22869:22903   */\n      0x45524332303a20617070726f76652066726f6d20746865207a65726f20616464\n        /* \"#utility.yul\":22865:22866   */\n      0x00\n        /* \"#utility.yul\":22857:22863   */\n      dup3\n        /* \"#utility.yul\":22853:22867   */\n      add\n        /* \"#utility.yul\":22846:22904   */\n      mstore\n        /* \"#utility.yul\":22938:22944   */\n      0x7265737300000000000000000000000000000000000000000000000000000000\n        /* \"#utility.yul\":22933:22935   */\n      0x20\n        /* \"#utility.yul\":22925:22931   */\n      dup3\n        /* \"#utility.yul\":22921:22936   */\n      add\n        /* \"#utility.yul\":22914:22945   */\n      mstore\n        /* \"#utility.yul\":22729:22952   */\n      pop\n      jump\t// out\n        /* \"#utility.yul\":22958:23137   */\n    tag_324:\n        /* \"#utility.yul\":23098:23129   */\n      0x774c4f4e473a207369676e6174757265206973206e6f742076616c6964000000\n        /* \"#utility.yul\":23094:23095   */\n      0x00\n        /* \"#utility.yul\":23086:23092   */\n      dup3\n        /* \"#utility.yul\":23082:23096   */\n      add\n        /* \"#utility.yul\":23075:23130   */\n      mstore\n        /* \"#utility.yul\":22958:23137   */\n      pop\n      jump\t// out\n        /* \"#utility.yul\":23143:23367   */\n    tag_329:\n        /* \"#utility.yul\":23283:23317   */\n      0x45524332303a2064656372656173656420616c6c6f77616e63652062656c6f77\n        /* \"#utility.yul\":23279:23280   */\n      0x00\n        /* \"#utility.yul\":23271:23277   */\n      dup3\n        /* \"#utility.yul\":23267:23281   */\n      add\n        /* \"#utility.yul\":23260:23318   */\n      mstore\n        /* \"#utility.yul\":23352:23359   */\n      0x207a65726f000000000000000000000000000000000000000000000000000000\n        /* \"#utility.yul\":23347:23349   */\n      0x20\n        /* \"#utility.yul\":23339:23345   */\n      dup3\n        /* \"#utility.yul\":23335:23350   */\n      add\n        /* \"#utility.yul\":23328:23360   */\n      mstore\n        /* \"#utility.yul\":23143:23367   */\n      pop\n      jump\t// out\n        /* \"#utility.yul\":23373:23554   */\n    tag_334:\n        /* \"#utility.yul\":23513:23546   */\n      0x45524332303a206d696e7420746f20746865207a65726f206164647265737300\n        /* \"#utility.yul\":23509:23510   */\n      0x00\n        /* \"#utility.yul\":23501:23507   */\n      dup3\n        /* \"#utility.yul\":23497:23511   */\n      add\n        /* \"#utility.yul\":23490:23547   */\n      mstore\n        /* \"#utility.yul\":23373:23554   */\n      pop\n      jump\t// out\n        /* \"#utility.yul\":23560:23682   */\n    tag_208:\n        /* \"#utility.yul\":23633:23657   */\n      tag_461\n        /* \"#utility.yul\":23651:23656   */\n      dup2\n        /* \"#utility.yul\":23633:23657   */\n      tag_251\n      jump\t// in\n    tag_461:\n        /* \"#utility.yul\":23626:23631   */\n      dup2\n        /* \"#utility.yul\":23623:23658   */\n      eq\n        /* \"#utility.yul\":23613:23676   */\n      tag_462\n      jumpi\n        /* \"#utility.yul\":23672:23673   */\n      0x00\n        /* \"#utility.yul\":23669:23670   */\n      dup1\n        /* \"#utility.yul\":23662:23674   */\n      revert\n        /* \"#utility.yul\":23613:23676   */\n    tag_462:\n        /* \"#utility.yul\":23560:23682   */\n      pop\n      jump\t// out\n        /* \"#utility.yul\":23688:23810   */\n    tag_218:\n        /* \"#utility.yul\":23761:23785   */\n      tag_464\n        /* \"#utility.yul\":23779:23784   */\n      dup2\n        /* \"#utility.yul\":23761:23785   */\n      tag_338\n      jump\t// in\n    tag_464:\n        /* \"#utility.yul\":23754:23759   */\n      dup2\n        /* \"#utility.yul\":23751:23786   */\n      eq\n        /* \"#utility.yul\":23741:23804   */\n      tag_465\n      jumpi\n        /* \"#utility.yul\":23800:23801   */\n      0x00\n        /* \"#utility.yul\":23797:23798   */\n      dup1\n        /* \"#utility.yul\":23790:23802   */\n      revert\n        /* \"#utility.yul\":23741:23804   */\n    tag_465:\n        /* \"#utility.yul\":23688:23810   */\n      pop\n      jump\t// out\n\n    auxdata: 0xa26469706673582212206304abf6c0cacb1e01b17644d5e98f9e074ed65c4cb5f4c9309d1a93b034405d64736f6c63430008070033\n}\n",
				"bytecode": {
					"linkReferences": {},
					"object": "60806040523480156200001157600080fd5b506040518060400160405280600c81526020017f77726170706564204c4f4e4700000000000000000000000000000000000000008152506040518060400160405280600581526020017f774c4f4e47000000000000000000000000000000000000000000000000000000815250816003908051906020019062000096929190620001a6565b508060049080519060200190620000af929190620001a6565b505050620000d2620000c6620000d860201b60201c565b620000e060201b60201c565b620002bb565b600033905090565b6000600560009054906101000a900473ffffffffffffffffffffffffffffffffffffffff16905081600560006101000a81548173ffffffffffffffffffffffffffffffffffffffff021916908373ffffffffffffffffffffffffffffffffffffffff1602179055508173ffffffffffffffffffffffffffffffffffffffff168173ffffffffffffffffffffffffffffffffffffffff167f8be0079c531659141344cd1fd0a4f28419497f9722a3daafe3b4186f6b6457e060405160405180910390a35050565b828054620001b49062000256565b90600052602060002090601f016020900481019282620001d8576000855562000224565b82601f10620001f357805160ff191683800117855562000224565b8280016001018555821562000224579182015b828111156200022357825182559160200191906001019062000206565b5b50905062000233919062000237565b5090565b5b808211156200025257600081600090555060010162000238565b5090565b600060028204905060018216806200026f57607f821691505b602082108114156200028657620002856200028c565b5b50919050565b7f4e487b7100000000000000000000000000000000000000000000000000000000600052602260045260246000fd5b611e5080620002cb6000396000f3fe608060405234801561001057600080fd5b50600436106100ea5760003560e01c80638da5cb5b1161008c578063a9059cbb11610066578063a9059cbb14610275578063db7fd408146102a5578063dd62ed3e146102d5578063f2fde38b14610305576100ea565b80638da5cb5b1461020957806395d89b4114610227578063a457c2d714610245576100ea565b806323b872dd116100c857806323b872dd1461015b578063313ce5671461018b57806339509351146101a957806370a08231146101d9576100ea565b806306fdde03146100ef578063095ea7b31461010d57806318160ddd1461013d575b600080fd5b6100f7610321565b6040516101049190611665565b60405180910390f35b610127600480360381019061012291906112cc565b6103b3565b6040516101349190611605565b60405180910390f35b6101456103d6565b6040516101529190611807565b60405180910390f35b61017560048036038101906101709190611279565b6103e0565b6040516101829190611605565b60405180910390f35b61019361040f565b6040516101a09190611822565b60405180910390f35b6101c360048036038101906101be91906112cc565b610414565b6040516101d09190611605565b60405180910390f35b6101f360048036038101906101ee919061120c565b6104be565b6040516102009190611807565b60405180910390f35b610211610506565b60405161021e91906115ea565b60405180910390f35b61022f610530565b60405161023c9190611665565b60405180910390f35b61025f600480360381019061025a91906112cc565b6105c2565b60405161026c9190611605565b60405180910390f35b61028f600480360381019061028a91906112cc565b6106ac565b60405161029c9190611605565b60405180910390f35b6102bf60048036038101906102ba919061130c565b6106cf565b6040516102cc9190611605565b60405180910390f35b6102ef60048036038101906102ea9190611239565b61091b565b6040516102fc9190611807565b60405180910390f35b61031f600480360381019061031a919061120c565b6109a2565b005b606060038054610330906119a6565b80601f016020809104026020016040519081016040528092919081815260200182805461035c906119a6565b80156103a95780601f1061037e576101008083540402835291602001916103a9565b820191906000526020600020905b81548152906001019060200180831161038c57829003601f168201915b5050505050905090565b6000806103be610a9a565b90506103cb818585610aa2565b600191505092915050565b6000600254905090565b6000806103eb610a9a565b90506103f8858285610c6d565b610403858585610cf9565b60019150509392505050565b600090565b60008061041f610a9a565b90506104b3818585600160008673ffffffffffffffffffffffffffffffffffffffff1673ffffffffffffffffffffffffffffffffffffffff16815260200190815260200160002060008973ffffffffffffffffffffffffffffffffffffffff1673ffffffffffffffffffffffffffffffffffffffff168152602001908152602001600020546104ae91906118af565b610aa2565b600191505092915050565b60008060008373ffffffffffffffffffffffffffffffffffffffff1673ffffffffffffffffffffffffffffffffffffffff168152602001908152602001600020549050919050565b6000600560009054906101000a900473ffffffffffffffffffffffffffffffffffffffff16905090565b60606004805461053f906119a6565b80601f016020809104026020016040519081016040528092919081815260200182805461056b906119a6565b80156105b85780601f1061058d576101008083540402835291602001916105b8565b820191906000526020600020905b81548152906001019060200180831161059b57829003601f168201915b5050505050905090565b6000806105cd610a9a565b90506000600160008373ffffffffffffffffffffffffffffffffffffffff1673ffffffffffffffffffffffffffffffffffffffff16815260200190815260200160002060008673ffffffffffffffffffffffffffffffffffffffff1673ffffffffffffffffffffffffffffffffffffffff16815260200190815260200160002054905083811015610693576040517f08c379a000000000000000000000000000000000000000000000000000000000815260040161068a906117c7565b60405180910390fd5b6106a08286868403610aa2565b60019250505092915050565b6000806106b7610a9a565b90506106c4818585610cf9565b600191505092915050565b6000806106da610a9a565b905060008060208501519150604085015190506006600083815260200190815260200160002060009054906101000a900460ff161561074e576040517f08c379a000000000000000000000000000000000000000000000000000000000815260040161074590611747565b60405180910390fd5b600083876040516020016107639291906115be565b6040516020818303038152906040528051906020012090506000600182601b8686604051600081526020016040526040516107a19493929190611620565b6020604051602081039080840390855afa1580156107c3573d6000803e3d6000fd5b5050506020604051035190506000600183601c8787604051600081526020016040526040516107f59493929190611620565b6020604051602081039080840390855afa158015610817573d6000803e3d6000fd5b50505060206040510351905061082b610506565b73ffffffffffffffffffffffffffffffffffffffff168273ffffffffffffffffffffffffffffffffffffffff1614806108965750610867610506565b73ffffffffffffffffffffffffffffffffffffffff168173ffffffffffffffffffffffffffffffffffffffff16145b6108d5576040517f08c379a00000000000000000000000000000000000000000000000000000000081526004016108cc906117a7565b60405180910390fd5b60016006600087815260200190815260200160002060006101000a81548160ff02191690831515021790555061090b868a610f64565b6001965050505050505092915050565b6000600160008473ffffffffffffffffffffffffffffffffffffffff1673ffffffffffffffffffffffffffffffffffffffff16815260200190815260200160002060008373ffffffffffffffffffffffffffffffffffffffff1673ffffffffffffffffffffffffffffffffffffffff16815260200190815260200160002054905092915050565b6109aa610a9a565b73ffffffffffffffffffffffffffffffffffffffff166109c8610506565b73ffffffffffffffffffffffffffffffffffffffff1614610a1e576040517f08c379a0000000000000000000000000000000000000000000000000000000008152600401610a1590611727565b60405180910390fd5b600073ffffffffffffffffffffffffffffffffffffffff168173ffffffffffffffffffffffffffffffffffffffff161415610a8e576040517f08c379a0000000000000000000000000000000000000000000000000000000008152600401610a85906116a7565b60405180910390fd5b610a97816110ac565b50565b600033905090565b600073ffffffffffffffffffffffffffffffffffffffff168373ffffffffffffffffffffffffffffffffffffffff161415610b12576040517f08c379a0000000000000000000000000000000000000000000000000000000008152600401610b0990611787565b60405180910390fd5b600073ffffffffffffffffffffffffffffffffffffffff168273ffffffffffffffffffffffffffffffffffffffff161415610b82576040517f08c379a0000000000000000000000000000000000000000000000000000000008152600401610b79906116c7565b60405180910390fd5b80600160008573ffffffffffffffffffffffffffffffffffffffff1673ffffffffffffffffffffffffffffffffffffffff16815260200190815260200160002060008473ffffffffffffffffffffffffffffffffffffffff1673ffffffffffffffffffffffffffffffffffffffff168152602001908152602001600020819055508173ffffffffffffffffffffffffffffffffffffffff168373ffffffffffffffffffffffffffffffffffffffff167f8c5be1e5ebec7d5bd14f71427d1e84f3dd0314c0f7b2291e5b200ac8c7c3b92583604051610c609190611807565b60405180910390a3505050565b6000610c79848461091b565b90507fffffffffffffffffffffffffffffffffffffffffffffffffffffffffffffffff8114610cf35781811015610ce5576040517f08c379a0000000000000000000000000000000000000000000000000000000008152600401610cdc906116e7565b60405180910390fd5b610cf28484848403610aa2565b5b50505050565b600073ffffffffffffffffffffffffffffffffffffffff168373ffffffffffffffffffffffffffffffffffffffff161415610d69576040517f08c379a0000000000000000000000000000000000000000000000000000000008152600401610d6090611767565b60405180910390fd5b600073ffffffffffffffffffffffffffffffffffffffff168273ffffffffffffffffffffffffffffffffffffffff161415610dd9576040517f08c379a0000000000000000000000000000000000000000000000000000000008152600401610dd090611687565b60405180910390fd5b60008060008573ffffffffffffffffffffffffffffffffffffffff1673ffffffffffffffffffffffffffffffffffffffff16815260200190815260200160002054905081811015610e5f576040517f08c379a0000000000000000000000000000000000000000000000000000000008152600401610e5690611707565b60405180910390fd5b8181036000808673ffffffffffffffffffffffffffffffffffffffff1673ffffffffffffffffffffffffffffffffffffffff16815260200190815260200160002081905550816000808573ffffffffffffffffffffffffffffffffffffffff1673ffffffffffffffffffffffffffffffffffffffff1681526020019081526020016000206000828254610ef291906118af565b925050819055508273ffffffffffffffffffffffffffffffffffffffff168473ffffffffffffffffffffffffffffffffffffffff167fddf252ad1be2c89b69c2b068fc378daa952ba7f163c4a11628f55a4df523b3ef84604051610f569190611807565b60405180910390a350505050565b600073ffffffffffffffffffffffffffffffffffffffff168273ffffffffffffffffffffffffffffffffffffffff161415610fd4576040517f08c379a0000000000000000000000000000000000000000000000000000000008152600401610fcb906117e7565b60405180910390fd5b8060026000828254610fe691906118af565b92505081905550806000808473ffffffffffffffffffffffffffffffffffffffff1673ffffffffffffffffffffffffffffffffffffffff168152602001908152602001600020600082825461103b91906118af565b925050819055508173ffffffffffffffffffffffffffffffffffffffff16600073ffffffffffffffffffffffffffffffffffffffff167fddf252ad1be2c89b69c2b068fc378daa952ba7f163c4a11628f55a4df523b3ef836040516110a09190611807565b60405180910390a35050565b6000600560009054906101000a900473ffffffffffffffffffffffffffffffffffffffff16905081600560006101000a81548173ffffffffffffffffffffffffffffffffffffffff021916908373ffffffffffffffffffffffffffffffffffffffff1602179055508173ffffffffffffffffffffffffffffffffffffffff168173ffffffffffffffffffffffffffffffffffffffff167f8be0079c531659141344cd1fd0a4f28419497f9722a3daafe3b4186f6b6457e060405160405180910390a35050565b600061118561118084611862565b61183d565b9050828152602081018484840111156111a1576111a0611ac9565b5b6111ac848285611964565b509392505050565b6000813590506111c381611dec565b92915050565b600082601f8301126111de576111dd611ac4565b5b81356111ee848260208601611172565b91505092915050565b60008135905061120681611e03565b92915050565b60006020828403121561122257611221611ad3565b5b6000611230848285016111b4565b91505092915050565b600080604083850312156112505761124f611ad3565b5b600061125e858286016111b4565b925050602061126f858286016111b4565b9150509250929050565b60008060006060848603121561129257611291611ad3565b5b60006112a0868287016111b4565b93505060206112b1868287016111b4565b92505060406112c2868287016111f7565b9150509250925092565b600080604083850312156112e3576112e2611ad3565b5b60006112f1858286016111b4565b9250506020611302858286016111f7565b9150509250929050565b6000806040838503121561132357611322611ad3565b5b6000611331858286016111f7565b925050602083013567ffffffffffffffff81111561135257611351611ace565b5b61135e858286016111c9565b9150509250929050565b61137181611905565b82525050565b61138861138382611905565b611a09565b82525050565b61139781611917565b82525050565b6113a681611923565b82525050565b60006113b782611893565b6113c1818561189e565b93506113d1818560208601611973565b6113da81611ad8565b840191505092915050565b60006113f260238361189e565b91506113fd82611af6565b604082019050919050565b600061141560268361189e565b915061142082611b45565b604082019050919050565b600061143860228361189e565b915061144382611b94565b604082019050919050565b600061145b601d8361189e565b915061146682611be3565b602082019050919050565b600061147e60268361189e565b915061148982611c0c565b604082019050919050565b60006114a160208361189e565b91506114ac82611c5b565b602082019050919050565b60006114c460208361189e565b91506114cf82611c84565b602082019050919050565b60006114e760258361189e565b91506114f282611cad565b604082019050919050565b600061150a60248361189e565b915061151582611cfc565b604082019050919050565b600061152d601d8361189e565b915061153882611d4b565b602082019050919050565b600061155060258361189e565b915061155b82611d74565b604082019050919050565b6000611573601f8361189e565b915061157e82611dc3565b602082019050919050565b6115928161194d565b82525050565b6115a96115a48261194d565b611a2d565b82525050565b6115b881611957565b82525050565b60006115ca8285611377565b6014820191506115da8284611598565b6020820191508190509392505050565b60006020820190506115ff6000830184611368565b92915050565b600060208201905061161a600083018461138e565b92915050565b6000608082019050611635600083018761139d565b61164260208301866115af565b61164f604083018561139d565b61165c606083018461139d565b95945050505050565b6000602082019050818103600083015261167f81846113ac565b905092915050565b600060208201905081810360008301526116a0816113e5565b9050919050565b600060208201905081810360008301526116c081611408565b9050919050565b600060208201905081810360008301526116e08161142b565b9050919050565b600060208201905081810360008301526117008161144e565b9050919050565b6000602082019050818103600083015261172081611471565b9050919050565b6000602082019050818103600083015261174081611494565b9050919050565b60006020820190508181036000830152611760816114b7565b9050919050565b60006020820190508181036000830152611780816114da565b9050919050565b600060208201905081810360008301526117a0816114fd565b9050919050565b600060208201905081810360008301526117c081611520565b9050919050565b600060208201905081810360008301526117e081611543565b9050919050565b6000602082019050818103600083015261180081611566565b9050919050565b600060208201905061181c6000830184611589565b92915050565b600060208201905061183760008301846115af565b92915050565b6000611847611858565b905061185382826119d8565b919050565b6000604051905090565b600067ffffffffffffffff82111561187d5761187c611a95565b5b61188682611ad8565b9050602081019050919050565b600081519050919050565b600082825260208201905092915050565b60006118ba8261194d565b91506118c58361194d565b9250827fffffffffffffffffffffffffffffffffffffffffffffffffffffffffffffffff038211156118fa576118f9611a37565b5b828201905092915050565b60006119108261192d565b9050919050565b60008115159050919050565b6000819050919050565b600073ffffffffffffffffffffffffffffffffffffffff82169050919050565b6000819050919050565b600060ff82169050919050565b82818337600083830152505050565b60005b83811015611991578082015181840152602081019050611976565b838111156119a0576000848401525b50505050565b600060028204905060018216806119be57607f821691505b602082108114156119d2576119d1611a66565b5b50919050565b6119e182611ad8565b810181811067ffffffffffffffff82111715611a00576119ff611a95565b5b80604052505050565b6000611a1482611a1b565b9050919050565b6000611a2682611ae9565b9050919050565b6000819050919050565b7f4e487b7100000000000000000000000000000000000000000000000000000000600052601160045260246000fd5b7f4e487b7100000000000000000000000000000000000000000000000000000000600052602260045260246000fd5b7f4e487b7100000000000000000000000000000000000000000000000000000000600052604160045260246000fd5b600080fd5b600080fd5b600080fd5b600080fd5b6000601f19601f8301169050919050565b60008160601b9050919050565b7f45524332303a207472616e7366657220746f20746865207a65726f206164647260008201527f6573730000000000000000000000000000000000000000000000000000000000602082015250565b7f4f776e61626c653a206e6577206f776e657220697320746865207a65726f206160008201527f6464726573730000000000000000000000000000000000000000000000000000602082015250565b7f45524332303a20617070726f766520746f20746865207a65726f20616464726560008201527f7373000000000000000000000000000000000000000000000000000000000000602082015250565b7f45524332303a20696e73756666696369656e7420616c6c6f77616e6365000000600082015250565b7f45524332303a207472616e7366657220616d6f756e742065786365656473206260008201527f616c616e63650000000000000000000000000000000000000000000000000000602082015250565b7f4f776e61626c653a2063616c6c6572206973206e6f7420746865206f776e6572600082015250565b7f774c4f4e473a206b65792068617320616c7265616479206265656e2075736564600082015250565b7f45524332303a207472616e736665722066726f6d20746865207a65726f20616460008201527f6472657373000000000000000000000000000000000000000000000000000000602082015250565b7f45524332303a20617070726f76652066726f6d20746865207a65726f2061646460008201527f7265737300000000000000000000000000000000000000000000000000000000602082015250565b7f774c4f4e473a207369676e6174757265206973206e6f742076616c6964000000600082015250565b7f45524332303a2064656372656173656420616c6c6f77616e63652062656c6f7760008201527f207a65726f000000000000000000000000000000000000000000000000000000602082015250565b7f45524332303a206d696e7420746f20746865207a65726f206164647265737300600082015250565b611df581611905565b8114611e0057600080fd5b50565b611e0c8161194d565b8114611e1757600080fd5b5056fea26469706673582212206304abf6c0cacb1e01b17644d5e98f9e074ed65c4cb5f4c9309d1a93b034405d64736f6c63430008070033",
					"opcodes": "PUSH1 0x80 PUSH1 0x40 MSTORE CALLVALUE DUP1 ISZERO PUSH3 0x11 JUMPI PUSH1 0x0 DUP1 REVERT JUMPDEST POP PUSH1 0x40 MLOAD DUP1 PUSH1 0x40 ADD PUSH1 0x40 MSTORE DUP1 PUSH1 0xC DUP2 MSTORE PUSH1 0x20 ADD PUSH32 0x77726170706564204C4F4E470000000000000000000000000000000000000000 DUP2 MSTORE POP PUSH1 0x40 MLOAD DUP1 PUSH1 0x40 ADD PUSH1 0x40 MSTORE DUP1 PUSH1 0x5 DUP2 MSTORE PUSH1 0x20 ADD PUSH32 0x774C4F4E47000000000000000000000000000000000000000000000000000000 DUP2 MSTORE POP DUP2 PUSH1 0x3 SWAP1 DUP1 MLOAD SWAP1 PUSH1 0x20 ADD SWAP1 PUSH3 0x96 SWAP3 SWAP2 SWAP1 PUSH3 0x1A6 JUMP JUMPDEST POP DUP1 PUSH1 0x4 SWAP1 DUP1 MLOAD SWAP1 PUSH1 0x20 ADD SWAP1 PUSH3 0xAF SWAP3 SWAP2 SWAP1 PUSH3 0x1A6 JUMP JUMPDEST POP POP POP PUSH3 0xD2 PUSH3 0xC6 PUSH3 0xD8 PUSH1 0x20 SHL PUSH1 0x20 SHR JUMP JUMPDEST PUSH3 0xE0 PUSH1 0x20 SHL PUSH1 0x20 SHR JUMP JUMPDEST PUSH3 0x2BB JUMP JUMPDEST PUSH1 0x0 CALLER SWAP1 POP SWAP1 JUMP JUMPDEST PUSH1 0x0 PUSH1 0x5 PUSH1 0x0 SWAP1 SLOAD SWAP1 PUSH2 0x100 EXP SWAP1 DIV PUSH20 0xFFFFFFFFFFFFFFFFFFFFFFFFFFFFFFFFFFFFFFFF AND SWAP1 POP DUP2 PUSH1 0x5 PUSH1 0x0 PUSH2 0x100 EXP DUP2 SLOAD DUP2 PUSH20 0xFFFFFFFFFFFFFFFFFFFFFFFFFFFFFFFFFFFFFFFF MUL NOT AND SWAP1 DUP4 PUSH20 0xFFFFFFFFFFFFFFFFFFFFFFFFFFFFFFFFFFFFFFFF AND MUL OR SWAP1 SSTORE POP DUP2 PUSH20 0xFFFFFFFFFFFFFFFFFFFFFFFFFFFFFFFFFFFFFFFF AND DUP2 PUSH20 0xFFFFFFFFFFFFFFFFFFFFFFFFFFFFFFFFFFFFFFFF AND PUSH32 0x8BE0079C531659141344CD1FD0A4F28419497F9722A3DAAFE3B4186F6B6457E0 PUSH1 0x40 MLOAD PUSH1 0x40 MLOAD DUP1 SWAP2 SUB SWAP1 LOG3 POP POP JUMP JUMPDEST DUP3 DUP1 SLOAD PUSH3 0x1B4 SWAP1 PUSH3 0x256 JUMP JUMPDEST SWAP1 PUSH1 0x0 MSTORE PUSH1 0x20 PUSH1 0x0 KECCAK256 SWAP1 PUSH1 0x1F ADD PUSH1 0x20 SWAP1 DIV DUP2 ADD SWAP3 DUP3 PUSH3 0x1D8 JUMPI PUSH1 0x0 DUP6 SSTORE PUSH3 0x224 JUMP JUMPDEST DUP3 PUSH1 0x1F LT PUSH3 0x1F3 JUMPI DUP1 MLOAD PUSH1 0xFF NOT AND DUP4 DUP1 ADD OR DUP6 SSTORE PUSH3 0x224 JUMP JUMPDEST DUP3 DUP1 ADD PUSH1 0x1 ADD DUP6 SSTORE DUP3 ISZERO PUSH3 0x224 JUMPI SWAP2 DUP3 ADD JUMPDEST DUP3 DUP2 GT ISZERO PUSH3 0x223 JUMPI DUP3 MLOAD DUP3 SSTORE SWAP2 PUSH1 0x20 ADD SWAP2 SWAP1 PUSH1 0x1 ADD SWAP1 PUSH3 0x206 JUMP JUMPDEST JUMPDEST POP SWAP1 POP PUSH3 0x233 SWAP2 SWAP1 PUSH3 0x237 JUMP JUMPDEST POP SWAP1 JUMP JUMPDEST JUMPDEST DUP1 DUP3 GT ISZERO PUSH3 0x252 JUMPI PUSH1 0x0 DUP2 PUSH1 0x0 SWAP1 SSTORE POP PUSH1 0x1 ADD PUSH3 0x238 JUMP JUMPDEST POP SWAP1 JUMP JUMPDEST PUSH1 0x0 PUSH1 0x2 DUP3 DIV SWAP1 POP PUSH1 0x1 DUP3 AND DUP1 PUSH3 0x26F JUMPI PUSH1 0x7F DUP3 AND SWAP2 POP JUMPDEST PUSH1 0x20 DUP3 LT DUP2 EQ ISZERO PUSH3 0x286 JUMPI PUSH3 0x285 PUSH3 0x28C JUMP JUMPDEST JUMPDEST POP SWAP2 SWAP1 POP JUMP JUMPDEST PUSH32 0x4E487B7100000000000000000000000000000000000000000000000000000000 PUSH1 0x0 MSTORE PUSH1 0x22 PUSH1 0x4 MSTORE PUSH1 0x24 PUSH1 0x0 REVERT JUMPDEST PUSH2 0x1E50 DUP1 PUSH3 0x2CB PUSH1 0x0 CODECOPY PUSH1 0x0 RETURN INVALID PUSH1 0x80 PUSH1 0x40 MSTORE CALLVALUE DUP1 ISZERO PUSH2 0x10 JUMPI PUSH1 0x0 DUP1 REVERT JUMPDEST POP PUSH1 0x4 CALLDATASIZE LT PUSH2 0xEA JUMPI PUSH1 0x0 CALLDATALOAD PUSH1 0xE0 SHR DUP1 PUSH4 0x8DA5CB5B GT PUSH2 0x8C JUMPI DUP1 PUSH4 0xA9059CBB GT PUSH2 0x66 JUMPI DUP1 PUSH4 0xA9059CBB EQ PUSH2 0x275 JUMPI DUP1 PUSH4 0xDB7FD408 EQ PUSH2 0x2A5 JUMPI DUP1 PUSH4 0xDD62ED3E EQ PUSH2 0x2D5 JUMPI DUP1 PUSH4 0xF2FDE38B EQ PUSH2 0x305 JUMPI PUSH2 0xEA JUMP JUMPDEST DUP1 PUSH4 0x8DA5CB5B EQ PUSH2 0x209 JUMPI DUP1 PUSH4 0x95D89B41 EQ PUSH2 0x227 JUMPI DUP1 PUSH4 0xA457C2D7 EQ PUSH2 0x245 JUMPI PUSH2 0xEA JUMP JUMPDEST DUP1 PUSH4 0x23B872DD GT PUSH2 0xC8 JUMPI DUP1 PUSH4 0x23B872DD EQ PUSH2 0x15B JUMPI DUP1 PUSH4 0x313CE567 EQ PUSH2 0x18B JUMPI DUP1 PUSH4 0x39509351 EQ PUSH2 0x1A9 JUMPI DUP1 PUSH4 0x70A08231 EQ PUSH2 0x1D9 JUMPI PUSH2 0xEA JUMP JUMPDEST DUP1 PUSH4 0x6FDDE03 EQ PUSH2 0xEF JUMPI DUP1 PUSH4 0x95EA7B3 EQ PUSH2 0x10D JUMPI DUP1 PUSH4 0x18160DDD EQ PUSH2 0x13D JUMPI JUMPDEST PUSH1 0x0 DUP1 REVERT JUMPDEST PUSH2 0xF7 PUSH2 0x321 JUMP JUMPDEST PUSH1 0x40 MLOAD PUSH2 0x104 SWAP2 SWAP1 PUSH2 0x1665 JUMP JUMPDEST PUSH1 0x40 MLOAD DUP1 SWAP2 SUB SWAP1 RETURN JUMPDEST PUSH2 0x127 PUSH1 0x4 DUP1 CALLDATASIZE SUB DUP2 ADD SWAP1 PUSH2 0x122 SWAP2 SWAP1 PUSH2 0x12CC JUMP JUMPDEST PUSH2 0x3B3 JUMP JUMPDEST PUSH1 0x40 MLOAD PUSH2 0x134 SWAP2 SWAP1 PUSH2 0x1605 JUMP JUMPDEST PUSH1 0x40 MLOAD DUP1 SWAP2 SUB SWAP1 RETURN JUMPDEST PUSH2 0x145 PUSH2 0x3D6 JUMP JUMPDEST PUSH1 0x40 MLOAD PUSH2 0x152 SWAP2 SWAP1 PUSH2 0x1807 JUMP JUMPDEST PUSH1 0x40 MLOAD DUP1 SWAP2 SUB SWAP1 RETURN JUMPDEST PUSH2 0x175 PUSH1 0x4 DUP1 CALLDATASIZE SUB DUP2 ADD SWAP1 PUSH2 0x170 SWAP2 SWAP1 PUSH2 0x1279 JUMP JUMPDEST PUSH2 0x3E0 JUMP JUMPDEST PUSH1 0x40 MLOAD PUSH2 0x182 SWAP2 SWAP1 PUSH2 0x1605 JUMP JUMPDEST PUSH1 0x40 MLOAD DUP1 SWAP2 SUB SWAP1 RETURN JUMPDEST PUSH2 0x193 PUSH2 0x40F JUMP JUMPDEST PUSH1 0x40 MLOAD PUSH2 0x1A0 SWAP2 SWAP1 PUSH2 0x1822 JUMP JUMPDEST PUSH1 0x40 MLOAD DUP1 SWAP2 SUB SWAP1 RETURN JUMPDEST PUSH2 0x1C3 PUSH1 0x4 DUP1 CALLDATASIZE SUB DUP2 ADD SWAP1 PUSH2 0x1BE SWAP2 SWAP1 PUSH2 0x12CC JUMP JUMPDEST PUSH2 0x414 JUMP JUMPDEST PUSH1 0x40 MLOAD PUSH2 0x1D0 SWAP2 SWAP1 PUSH2 0x1605 JUMP JUMPDEST PUSH1 0x40 MLOAD DUP1 SWAP2 SUB SWAP1 RETURN JUMPDEST PUSH2 0x1F3 PUSH1 0x4 DUP1 CALLDATASIZE SUB DUP2 ADD SWAP1 PUSH2 0x1EE SWAP2 SWAP1 PUSH2 0x120C JUMP JUMPDEST PUSH2 0x4BE JUMP JUMPDEST PUSH1 0x40 MLOAD PUSH2 0x200 SWAP2 SWAP1 PUSH2 0x1807 JUMP JUMPDEST PUSH1 0x40 MLOAD DUP1 SWAP2 SUB SWAP1 RETURN JUMPDEST PUSH2 0x211 PUSH2 0x506 JUMP JUMPDEST PUSH1 0x40 MLOAD PUSH2 0x21E SWAP2 SWAP1 PUSH2 0x15EA JUMP JUMPDEST PUSH1 0x40 MLOAD DUP1 SWAP2 SUB SWAP1 RETURN JUMPDEST PUSH2 0x22F PUSH2 0x530 JUMP JUMPDEST PUSH1 0x40 MLOAD PUSH2 0x23C SWAP2 SWAP1 PUSH2 0x1665 JUMP JUMPDEST PUSH1 0x40 MLOAD DUP1 SWAP2 SUB SWAP1 RETURN JUMPDEST PUSH2 0x25F PUSH1 0x4 DUP1 CALLDATASIZE SUB DUP2 ADD SWAP1 PUSH2 0x25A SWAP2 SWAP1 PUSH2 0x12CC JUMP JUMPDEST PUSH2 0x5C2 JUMP JUMPDEST PUSH1 0x40 MLOAD PUSH2 0x26C SWAP2 SWAP1 PUSH2 0x1605 JUMP JUMPDEST PUSH1 0x40 MLOAD DUP1 SWAP2 SUB SWAP1 RETURN JUMPDEST PUSH2 0x28F PUSH1 0x4 DUP1 CALLDATASIZE SUB DUP2 ADD SWAP1 PUSH2 0x28A SWAP2 SWAP1 PUSH2 0x12CC JUMP JUMPDEST PUSH2 0x6AC JUMP JUMPDEST PUSH1 0x40 MLOAD PUSH2 0x29C SWAP2 SWAP1 PUSH2 0x1605 JUMP JUMPDEST PUSH1 0x40 MLOAD DUP1 SWAP2 SUB SWAP1 RETURN JUMPDEST PUSH2 0x2BF PUSH1 0x4 DUP1 CALLDATASIZE SUB DUP2 ADD SWAP1 PUSH2 0x2BA SWAP2 SWAP1 PUSH2 0x130C JUMP JUMPDEST PUSH2 0x6CF JUMP JUMPDEST PUSH1 0x40 MLOAD PUSH2 0x2CC SWAP2 SWAP1 PUSH2 0x1605 JUMP JUMPDEST PUSH1 0x40 MLOAD DUP1 SWAP2 SUB SWAP1 RETURN JUMPDEST PUSH2 0x2EF PUSH1 0x4 DUP1 CALLDATASIZE SUB DUP2 ADD SWAP1 PUSH2 0x2EA SWAP2 SWAP1 PUSH2 0x1239 JUMP JUMPDEST PUSH2 0x91B JUMP JUMPDEST PUSH1 0x40 MLOAD PUSH2 0x2FC SWAP2 SWAP1 PUSH2 0x1807 JUMP JUMPDEST PUSH1 0x40 MLOAD DUP1 SWAP2 SUB SWAP1 RETURN JUMPDEST PUSH2 0x31F PUSH1 0x4 DUP1 CALLDATASIZE SUB DUP2 ADD SWAP1 PUSH2 0x31A SWAP2 SWAP1 PUSH2 0x120C JUMP JUMPDEST PUSH2 0x9A2 JUMP JUMPDEST STOP JUMPDEST PUSH1 0x60 PUSH1 0x3 DUP1 SLOAD PUSH2 0x330 SWAP1 PUSH2 0x19A6 JUMP JUMPDEST DUP1 PUSH1 0x1F ADD PUSH1 0x20 DUP1 SWAP2 DIV MUL PUSH1 0x20 ADD PUSH1 0x40 MLOAD SWAP1 DUP2 ADD PUSH1 0x40 MSTORE DUP1 SWAP3 SWAP2 SWAP1 DUP2 DUP2 MSTORE PUSH1 0x20 ADD DUP3 DUP1 SLOAD PUSH2 0x35C SWAP1 PUSH2 0x19A6 JUMP JUMPDEST DUP1 ISZERO PUSH2 0x3A9 JUMPI DUP1 PUSH1 0x1F LT PUSH2 0x37E JUMPI PUSH2 0x100 DUP1 DUP4 SLOAD DIV MUL DUP4 MSTORE SWAP2 PUSH1 0x20 ADD SWAP2 PUSH2 0x3A9 JUMP JUMPDEST DUP3 ADD SWAP2 SWAP1 PUSH1 0x0 MSTORE PUSH1 0x20 PUSH1 0x0 KECCAK256 SWAP1 JUMPDEST DUP2 SLOAD DUP2 MSTORE SWAP1 PUSH1 0x1 ADD SWAP1 PUSH1 0x20 ADD DUP1 DUP4 GT PUSH2 0x38C JUMPI DUP3 SWAP1 SUB PUSH1 0x1F AND DUP3 ADD SWAP2 JUMPDEST POP POP POP POP POP SWAP1 POP SWAP1 JUMP JUMPDEST PUSH1 0x0 DUP1 PUSH2 0x3BE PUSH2 0xA9A JUMP JUMPDEST SWAP1 POP PUSH2 0x3CB DUP2 DUP6 DUP6 PUSH2 0xAA2 JUMP JUMPDEST PUSH1 0x1 SWAP2 POP POP SWAP3 SWAP2 POP POP JUMP JUMPDEST PUSH1 0x0 PUSH1 0x2 SLOAD SWAP1 POP SWAP1 JUMP JUMPDEST PUSH1 0x0 DUP1 PUSH2 0x3EB PUSH2 0xA9A JUMP JUMPDEST SWAP1 POP PUSH2 0x3F8 DUP6 DUP3 DUP6 PUSH2 0xC6D JUMP JUMPDEST PUSH2 0x403 DUP6 DUP6 DUP6 PUSH2 0xCF9 JUMP JUMPDEST PUSH1 0x1 SWAP2 POP POP SWAP4 SWAP3 POP POP POP JUMP JUMPDEST PUSH1 0x0 SWAP1 JUMP JUMPDEST PUSH1 0x0 DUP1 PUSH2 0x41F PUSH2 0xA9A JUMP JUMPDEST SWAP1 POP PUSH2 0x4B3 DUP2 DUP6 DUP6 PUSH1 0x1 PUSH1 0x0 DUP7 PUSH20 0xFFFFFFFFFFFFFFFFFFFFFFFFFFFFFFFFFFFFFFFF AND PUSH20 0xFFFFFFFFFFFFFFFFFFFFFFFFFFFFFFFFFFFFFFFF AND DUP2 MSTORE PUSH1 0x20 ADD SWAP1 DUP2 MSTORE PUSH1 0x20 ADD PUSH1 0x0 KECCAK256 PUSH1 0x0 DUP10 PUSH20 0xFFFFFFFFFFFFFFFFFFFFFFFFFFFFFFFFFFFFFFFF AND PUSH20 0xFFFFFFFFFFFFFFFFFFFFFFFFFFFFFFFFFFFFFFFF AND DUP2 MSTORE PUSH1 0x20 ADD SWAP1 DUP2 MSTORE PUSH1 0x20 ADD PUSH1 0x0 KECCAK256 SLOAD PUSH2 0x4AE SWAP2 SWAP1 PUSH2 0x18AF JUMP JUMPDEST PUSH2 0xAA2 JUMP JUMPDEST PUSH1 0x1 SWAP2 POP POP SWAP3 SWAP2 POP POP JUMP JUMPDEST PUSH1 0x0 DUP1 PUSH1 0x0 DUP4 PUSH20 0xFFFFFFFFFFFFFFFFFFFFFFFFFFFFFFFFFFFFFFFF AND PUSH20 0xFFFFFFFFFFFFFFFFFFFFFFFFFFFFFFFFFFFFFFFF AND DUP2 MSTORE PUSH1 0x20 ADD SWAP1 DUP2 MSTORE PUSH1 0x20 ADD PUSH1 0x0 KECCAK256 SLOAD SWAP1 POP SWAP2 SWAP1 POP JUMP JUMPDEST PUSH1 0x0 PUSH1 0x5 PUSH1 0x0 SWAP1 SLOAD SWAP1 PUSH2 0x100 EXP SWAP1 DIV PUSH20 0xFFFFFFFFFFFFFFFFFFFFFFFFFFFFFFFFFFFFFFFF AND SWAP1 POP SWAP1 JUMP JUMPDEST PUSH1 0x60 PUSH1 0x4 DUP1 SLOAD PUSH2 0x53F SWAP1 PUSH2 0x19A6 JUMP JUMPDEST DUP1 PUSH1 0x1F ADD PUSH1 0x20 DUP1 SWAP2 DIV MUL PUSH1 0x20 ADD PUSH1 0x40 MLOAD SWAP1 DUP2 ADD PUSH1 0x40 MSTORE DUP1 SWAP3 SWAP2 SWAP1 DUP2 DUP2 MSTORE PUSH1 0x20 ADD DUP3 DUP1 SLOAD PUSH2 0x56B SWAP1 PUSH2 0x19A6 JUMP JUMPDEST DUP1 ISZERO PUSH2 0x5B8 JUMPI DUP1 PUSH1 0x1F LT PUSH2 0x58D JUMPI PUSH2 0x100 DUP1 DUP4 SLOAD DIV MUL DUP4 MSTORE SWAP2 PUSH1 0x20 ADD SWAP2 PUSH2 0x5B8 JUMP JUMPDEST DUP3 ADD SWAP2 SWAP1 PUSH1 0x0 MSTORE PUSH1 0x20 PUSH1 0x0 KECCAK256 SWAP1 JUMPDEST DUP2 SLOAD DUP2 MSTORE SWAP1 PUSH1 0x1 ADD SWAP1 PUSH1 0x20 ADD DUP1 DUP4 GT PUSH2 0x59B JUMPI DUP3 SWAP1 SUB PUSH1 0x1F AND DUP3 ADD SWAP2 JUMPDEST POP POP POP POP POP SWAP1 POP SWAP1 JUMP JUMPDEST PUSH1 0x0 DUP1 PUSH2 0x5CD PUSH2 0xA9A JUMP JUMPDEST SWAP1 POP PUSH1 0x0 PUSH1 0x1 PUSH1 0x0 DUP4 PUSH20 0xFFFFFFFFFFFFFFFFFFFFFFFFFFFFFFFFFFFFFFFF AND PUSH20 0xFFFFFFFFFFFFFFFFFFFFFFFFFFFFFFFFFFFFFFFF AND DUP2 MSTORE PUSH1 0x20 ADD SWAP1 DUP2 MSTORE PUSH1 0x20 ADD PUSH1 0x0 KECCAK256 PUSH1 0x0 DUP7 PUSH20 0xFFFFFFFFFFFFFFFFFFFFFFFFFFFFFFFFFFFFFFFF AND PUSH20 0xFFFFFFFFFFFFFFFFFFFFFFFFFFFFFFFFFFFFFFFF AND DUP2 MSTORE PUSH1 0x20 ADD SWAP1 DUP2 MSTORE PUSH1 0x20 ADD PUSH1 0x0 KECCAK256 SLOAD SWAP1 POP DUP4 DUP2 LT ISZERO PUSH2 0x693 JUMPI PUSH1 0x40 MLOAD PUSH32 0x8C379A000000000000000000000000000000000000000000000000000000000 DUP2 MSTORE PUSH1 0x4 ADD PUSH2 0x68A SWAP1 PUSH2 0x17C7 JUMP JUMPDEST PUSH1 0x40 MLOAD DUP1 SWAP2 SUB SWAP1 REVERT JUMPDEST PUSH2 0x6A0 DUP3 DUP7 DUP7 DUP5 SUB PUSH2 0xAA2 JUMP JUMPDEST PUSH1 0x1 SWAP3 POP POP POP SWAP3 SWAP2 POP POP JUMP JUMPDEST PUSH1 0x0 DUP1 PUSH2 0x6B7 PUSH2 0xA9A JUMP JUMPDEST SWAP1 POP PUSH2 0x6C4 DUP2 DUP6 DUP6 PUSH2 0xCF9 JUMP JUMPDEST PUSH1 0x1 SWAP2 POP POP SWAP3 SWAP2 POP POP JUMP JUMPDEST PUSH1 0x0 DUP1 PUSH2 0x6DA PUSH2 0xA9A JUMP JUMPDEST SWAP1 POP PUSH1 0x0 DUP1 PUSH1 0x20 DUP6 ADD MLOAD SWAP2 POP PUSH1 0x40 DUP6 ADD MLOAD SWAP1 POP PUSH1 0x6 PUSH1 0x0 DUP4 DUP2 MSTORE PUSH1 0x20 ADD SWAP1 DUP2 MSTORE PUSH1 0x20 ADD PUSH1 0x0 KECCAK256 PUSH1 0x0 SWAP1 SLOAD SWAP1 PUSH2 0x100 EXP SWAP1 DIV PUSH1 0xFF AND ISZERO PUSH2 0x74E JUMPI PUSH1 0x40 MLOAD PUSH32 0x8C379A000000000000000000000000000000000000000000000000000000000 DUP2 MSTORE PUSH1 0x4 ADD PUSH2 0x745 SWAP1 PUSH2 0x1747 JUMP JUMPDEST PUSH1 0x40 MLOAD DUP1 SWAP2 SUB SWAP1 REVERT JUMPDEST PUSH1 0x0 DUP4 DUP8 PUSH1 0x40 MLOAD PUSH1 0x20 ADD PUSH2 0x763 SWAP3 SWAP2 SWAP1 PUSH2 0x15BE JUMP JUMPDEST PUSH1 0x40 MLOAD PUSH1 0x20 DUP2 DUP4 SUB SUB DUP2 MSTORE SWAP1 PUSH1 0x40 MSTORE DUP1 MLOAD SWAP1 PUSH1 0x20 ADD KECCAK256 SWAP1 POP PUSH1 0x0 PUSH1 0x1 DUP3 PUSH1 0x1B DUP7 DUP7 PUSH1 0x40 MLOAD PUSH1 0x0 DUP2 MSTORE PUSH1 0x20 ADD PUSH1 0x40 MSTORE PUSH1 0x40 MLOAD PUSH2 0x7A1 SWAP5 SWAP4 SWAP3 SWAP2 SWAP1 PUSH2 0x1620 JUMP JUMPDEST PUSH1 0x20 PUSH1 0x40 MLOAD PUSH1 0x20 DUP2 SUB SWAP1 DUP1 DUP5 SUB SWAP1 DUP6 GAS STATICCALL ISZERO DUP1 ISZERO PUSH2 0x7C3 JUMPI RETURNDATASIZE PUSH1 0x0 DUP1 RETURNDATACOPY RETURNDATASIZE PUSH1 0x0 REVERT JUMPDEST POP POP POP PUSH1 0x20 PUSH1 0x40 MLOAD SUB MLOAD SWAP1 POP PUSH1 0x0 PUSH1 0x1 DUP4 PUSH1 0x1C DUP8 DUP8 PUSH1 0x40 MLOAD PUSH1 0x0 DUP2 MSTORE PUSH1 0x20 ADD PUSH1 0x40 MSTORE PUSH1 0x40 MLOAD PUSH2 0x7F5 SWAP5 SWAP4 SWAP3 SWAP2 SWAP1 PUSH2 0x1620 JUMP JUMPDEST PUSH1 0x20 PUSH1 0x40 MLOAD PUSH1 0x20 DUP2 SUB SWAP1 DUP1 DUP5 SUB SWAP1 DUP6 GAS STATICCALL ISZERO DUP1 ISZERO PUSH2 0x817 JUMPI RETURNDATASIZE PUSH1 0x0 DUP1 RETURNDATACOPY RETURNDATASIZE PUSH1 0x0 REVERT JUMPDEST POP POP POP PUSH1 0x20 PUSH1 0x40 MLOAD SUB MLOAD SWAP1 POP PUSH2 0x82B PUSH2 0x506 JUMP JUMPDEST PUSH20 0xFFFFFFFFFFFFFFFFFFFFFFFFFFFFFFFFFFFFFFFF AND DUP3 PUSH20 0xFFFFFFFFFFFFFFFFFFFFFFFFFFFFFFFFFFFFFFFF AND EQ DUP1 PUSH2 0x896 JUMPI POP PUSH2 0x867 PUSH2 0x506 JUMP JUMPDEST PUSH20 0xFFFFFFFFFFFFFFFFFFFFFFFFFFFFFFFFFFFFFFFF AND DUP2 PUSH20 0xFFFFFFFFFFFFFFFFFFFFFFFFFFFFFFFFFFFFFFFF AND EQ JUMPDEST PUSH2 0x8D5 JUMPI PUSH1 0x40 MLOAD PUSH32 0x8C379A000000000000000000000000000000000000000000000000000000000 DUP2 MSTORE PUSH1 0x4 ADD PUSH2 0x8CC SWAP1 PUSH2 0x17A7 JUMP JUMPDEST PUSH1 0x40 MLOAD DUP1 SWAP2 SUB SWAP1 REVERT JUMPDEST PUSH1 0x1 PUSH1 0x6 PUSH1 0x0 DUP8 DUP2 MSTORE PUSH1 0x20 ADD SWAP1 DUP2 MSTORE PUSH1 0x20 ADD PUSH1 0x0 KECCAK256 PUSH1 0x0 PUSH2 0x100 EXP DUP2 SLOAD DUP2 PUSH1 0xFF MUL NOT AND SWAP1 DUP4 ISZERO ISZERO MUL OR SWAP1 SSTORE POP PUSH2 0x90B DUP7 DUP11 PUSH2 0xF64 JUMP JUMPDEST PUSH1 0x1 SWAP7 POP POP POP POP POP POP POP SWAP3 SWAP2 POP POP JUMP JUMPDEST PUSH1 0x0 PUSH1 0x1 PUSH1 0x0 DUP5 PUSH20 0xFFFFFFFFFFFFFFFFFFFFFFFFFFFFFFFFFFFFFFFF AND PUSH20 0xFFFFFFFFFFFFFFFFFFFFFFFFFFFFFFFFFFFFFFFF AND DUP2 MSTORE PUSH1 0x20 ADD SWAP1 DUP2 MSTORE PUSH1 0x20 ADD PUSH1 0x0 KECCAK256 PUSH1 0x0 DUP4 PUSH20 0xFFFFFFFFFFFFFFFFFFFFFFFFFFFFFFFFFFFFFFFF AND PUSH20 0xFFFFFFFFFFFFFFFFFFFFFFFFFFFFFFFFFFFFFFFF AND DUP2 MSTORE PUSH1 0x20 ADD SWAP1 DUP2 MSTORE PUSH1 0x20 ADD PUSH1 0x0 KECCAK256 SLOAD SWAP1 POP SWAP3 SWAP2 POP POP JUMP JUMPDEST PUSH2 0x9AA PUSH2 0xA9A JUMP JUMPDEST PUSH20 0xFFFFFFFFFFFFFFFFFFFFFFFFFFFFFFFFFFFFFFFF AND PUSH2 0x9C8 PUSH2 0x506 JUMP JUMPDEST PUSH20 0xFFFFFFFFFFFFFFFFFFFFFFFFFFFFFFFFFFFFFFFF AND EQ PUSH2 0xA1E JUMPI PUSH1 0x40 MLOAD PUSH32 0x8C379A000000000000000000000000000000000000000000000000000000000 DUP2 MSTORE PUSH1 0x4 ADD PUSH2 0xA15 SWAP1 PUSH2 0x1727 JUMP JUMPDEST PUSH1 0x40 MLOAD DUP1 SWAP2 SUB SWAP1 REVERT JUMPDEST PUSH1 0x0 PUSH20 0xFFFFFFFFFFFFFFFFFFFFFFFFFFFFFFFFFFFFFFFF AND DUP2 PUSH20 0xFFFFFFFFFFFFFFFFFFFFFFFFFFFFFFFFFFFFFFFF AND EQ ISZERO PUSH2 0xA8E JUMPI PUSH1 0x40 MLOAD PUSH32 0x8C379A000000000000000000000000000000000000000000000000000000000 DUP2 MSTORE PUSH1 0x4 ADD PUSH2 0xA85 SWAP1 PUSH2 0x16A7 JUMP JUMPDEST PUSH1 0x40 MLOAD DUP1 SWAP2 SUB SWAP1 REVERT JUMPDEST PUSH2 0xA97 DUP2 PUSH2 0x10AC JUMP JUMPDEST POP JUMP JUMPDEST PUSH1 0x0 CALLER SWAP1 POP SWAP1 JUMP JUMPDEST PUSH1 0x0 PUSH20 0xFFFFFFFFFFFFFFFFFFFFFFFFFFFFFFFFFFFFFFFF AND DUP4 PUSH20 0xFFFFFFFFFFFFFFFFFFFFFFFFFFFFFFFFFFFFFFFF AND EQ ISZERO PUSH2 0xB12 JUMPI PUSH1 0x40 MLOAD PUSH32 0x8C379A000000000000000000000000000000000000000000000000000000000 DUP2 MSTORE PUSH1 0x4 ADD PUSH2 0xB09 SWAP1 PUSH2 0x1787 JUMP JUMPDEST PUSH1 0x40 MLOAD DUP1 SWAP2 SUB SWAP1 REVERT JUMPDEST PUSH1 0x0 PUSH20 0xFFFFFFFFFFFFFFFFFFFFFFFFFFFFFFFFFFFFFFFF AND DUP3 PUSH20 0xFFFFFFFFFFFFFFFFFFFFFFFFFFFFFFFFFFFFFFFF AND EQ ISZERO PUSH2 0xB82 JUMPI PUSH1 0x40 MLOAD PUSH32 0x8C379A000000000000000000000000000000000000000000000000000000000 DUP2 MSTORE PUSH1 0x4 ADD PUSH2 0xB79 SWAP1 PUSH2 0x16C7 JUMP JUMPDEST PUSH1 0x40 MLOAD DUP1 SWAP2 SUB SWAP1 REVERT JUMPDEST DUP1 PUSH1 0x1 PUSH1 0x0 DUP6 PUSH20 0xFFFFFFFFFFFFFFFFFFFFFFFFFFFFFFFFFFFFFFFF AND PUSH20 0xFFFFFFFFFFFFFFFFFFFFFFFFFFFFFFFFFFFFFFFF AND DUP2 MSTORE PUSH1 0x20 ADD SWAP1 DUP2 MSTORE PUSH1 0x20 ADD PUSH1 0x0 KECCAK256 PUSH1 0x0 DUP5 PUSH20 0xFFFFFFFFFFFFFFFFFFFFFFFFFFFFFFFFFFFFFFFF AND PUSH20 0xFFFFFFFFFFFFFFFFFFFFFFFFFFFFFFFFFFFFFFFF AND DUP2 MSTORE PUSH1 0x20 ADD SWAP1 DUP2 MSTORE PUSH1 0x20 ADD PUSH1 0x0 KECCAK256 DUP2 SWAP1 SSTORE POP DUP2 PUSH20 0xFFFFFFFFFFFFFFFFFFFFFFFFFFFFFFFFFFFFFFFF AND DUP4 PUSH20 0xFFFFFFFFFFFFFFFFFFFFFFFFFFFFFFFFFFFFFFFF AND PUSH32 0x8C5BE1E5EBEC7D5BD14F71427D1E84F3DD0314C0F7B2291E5B200AC8C7C3B925 DUP4 PUSH1 0x40 MLOAD PUSH2 0xC60 SWAP2 SWAP1 PUSH2 0x1807 JUMP JUMPDEST PUSH1 0x40 MLOAD DUP1 SWAP2 SUB SWAP1 LOG3 POP POP POP JUMP JUMPDEST PUSH1 0x0 PUSH2 0xC79 DUP5 DUP5 PUSH2 0x91B JUMP JUMPDEST SWAP1 POP PUSH32 0xFFFFFFFFFFFFFFFFFFFFFFFFFFFFFFFFFFFFFFFFFFFFFFFFFFFFFFFFFFFFFFFF DUP2 EQ PUSH2 0xCF3 JUMPI DUP2 DUP2 LT ISZERO PUSH2 0xCE5 JUMPI PUSH1 0x40 MLOAD PUSH32 0x8C379A000000000000000000000000000000000000000000000000000000000 DUP2 MSTORE PUSH1 0x4 ADD PUSH2 0xCDC SWAP1 PUSH2 0x16E7 JUMP JUMPDEST PUSH1 0x40 MLOAD DUP1 SWAP2 SUB SWAP1 REVERT JUMPDEST PUSH2 0xCF2 DUP5 DUP5 DUP5 DUP5 SUB PUSH2 0xAA2 JUMP JUMPDEST JUMPDEST POP POP POP POP JUMP JUMPDEST PUSH1 0x0 PUSH20 0xFFFFFFFFFFFFFFFFFFFFFFFFFFFFFFFFFFFFFFFF AND DUP4 PUSH20 0xFFFFFFFFFFFFFFFFFFFFFFFFFFFFFFFFFFFFFFFF AND EQ ISZERO PUSH2 0xD69 JUMPI PUSH1 0x40 MLOAD PUSH32 0x8C379A000000000000000000000000000000000000000000000000000000000 DUP2 MSTORE PUSH1 0x4 ADD PUSH2 0xD60 SWAP1 PUSH2 0x1767 JUMP JUMPDEST PUSH1 0x40 MLOAD DUP1 SWAP2 SUB SWAP1 REVERT JUMPDEST PUSH1 0x0 PUSH20 0xFFFFFFFFFFFFFFFFFFFFFFFFFFFFFFFFFFFFFFFF AND DUP3 PUSH20 0xFFFFFFFFFFFFFFFFFFFFFFFFFFFFFFFFFFFFFFFF AND EQ ISZERO PUSH2 0xDD9 JUMPI PUSH1 0x40 MLOAD PUSH32 0x8C379A000000000000000000000000000000000000000000000000000000000 DUP2 MSTORE PUSH1 0x4 ADD PUSH2 0xDD0 SWAP1 PUSH2 0x1687 JUMP JUMPDEST PUSH1 0x40 MLOAD DUP1 SWAP2 SUB SWAP1 REVERT JUMPDEST PUSH1 0x0 DUP1 PUSH1 0x0 DUP6 PUSH20 0xFFFFFFFFFFFFFFFFFFFFFFFFFFFFFFFFFFFFFFFF AND PUSH20 0xFFFFFFFFFFFFFFFFFFFFFFFFFFFFFFFFFFFFFFFF AND DUP2 MSTORE PUSH1 0x20 ADD SWAP1 DUP2 MSTORE PUSH1 0x20 ADD PUSH1 0x0 KECCAK256 SLOAD SWAP1 POP DUP2 DUP2 LT ISZERO PUSH2 0xE5F JUMPI PUSH1 0x40 MLOAD PUSH32 0x8C379A000000000000000000000000000000000000000000000000000000000 DUP2 MSTORE PUSH1 0x4 ADD PUSH2 0xE56 SWAP1 PUSH2 0x1707 JUMP JUMPDEST PUSH1 0x40 MLOAD DUP1 SWAP2 SUB SWAP1 REVERT JUMPDEST DUP2 DUP2 SUB PUSH1 0x0 DUP1 DUP7 PUSH20 0xFFFFFFFFFFFFFFFFFFFFFFFFFFFFFFFFFFFFFFFF AND PUSH20 0xFFFFFFFFFFFFFFFFFFFFFFFFFFFFFFFFFFFFFFFF AND DUP2 MSTORE PUSH1 0x20 ADD SWAP1 DUP2 MSTORE PUSH1 0x20 ADD PUSH1 0x0 KECCAK256 DUP2 SWAP1 SSTORE POP DUP2 PUSH1 0x0 DUP1 DUP6 PUSH20 0xFFFFFFFFFFFFFFFFFFFFFFFFFFFFFFFFFFFFFFFF AND PUSH20 0xFFFFFFFFFFFFFFFFFFFFFFFFFFFFFFFFFFFFFFFF AND DUP2 MSTORE PUSH1 0x20 ADD SWAP1 DUP2 MSTORE PUSH1 0x20 ADD PUSH1 0x0 KECCAK256 PUSH1 0x0 DUP3 DUP3 SLOAD PUSH2 0xEF2 SWAP2 SWAP1 PUSH2 0x18AF JUMP JUMPDEST SWAP3 POP POP DUP2 SWAP1 SSTORE POP DUP3 PUSH20 0xFFFFFFFFFFFFFFFFFFFFFFFFFFFFFFFFFFFFFFFF AND DUP5 PUSH20 0xFFFFFFFFFFFFFFFFFFFFFFFFFFFFFFFFFFFFFFFF AND PUSH32 0xDDF252AD1BE2C89B69C2B068FC378DAA952BA7F163C4A11628F55A4DF523B3EF DUP5 PUSH1 0x40 MLOAD PUSH2 0xF56 SWAP2 SWAP1 PUSH2 0x1807 JUMP JUMPDEST PUSH1 0x40 MLOAD DUP1 SWAP2 SUB SWAP1 LOG3 POP POP POP POP JUMP JUMPDEST PUSH1 0x0 PUSH20 0xFFFFFFFFFFFFFFFFFFFFFFFFFFFFFFFFFFFFFFFF AND DUP3 PUSH20 0xFFFFFFFFFFFFFFFFFFFFFFFFFFFFFFFFFFFFFFFF AND EQ ISZERO PUSH2 0xFD4 JUMPI PUSH1 0x40 MLOAD PUSH32 0x8C379A000000000000000000000000000000000000000000000000000000000 DUP2 MSTORE PUSH1 0x4 ADD PUSH2 0xFCB SWAP1 PUSH2 0x17E7 JUMP JUMPDEST PUSH1 0x40 MLOAD DUP1 SWAP2 SUB SWAP1 REVERT JUMPDEST DUP1 PUSH1 0x2 PUSH1 0x0 DUP3 DUP3 SLOAD PUSH2 0xFE6 SWAP2 SWAP1 PUSH2 0x18AF JUMP JUMPDEST SWAP3 POP POP DUP2 SWAP1 SSTORE POP DUP1 PUSH1 0x0 DUP1 DUP5 PUSH20 0xFFFFFFFFFFFFFFFFFFFFFFFFFFFFFFFFFFFFFFFF AND PUSH20 0xFFFFFFFFFFFFFFFFFFFFFFFFFFFFFFFFFFFFFFFF AND DUP2 MSTORE PUSH1 0x20 ADD SWAP1 DUP2 MSTORE PUSH1 0x20 ADD PUSH1 0x0 KECCAK256 PUSH1 0x0 DUP3 DUP3 SLOAD PUSH2 0x103B SWAP2 SWAP1 PUSH2 0x18AF JUMP JUMPDEST SWAP3 POP POP DUP2 SWAP1 SSTORE POP DUP2 PUSH20 0xFFFFFFFFFFFFFFFFFFFFFFFFFFFFFFFFFFFFFFFF AND PUSH1 0x0 PUSH20 0xFFFFFFFFFFFFFFFFFFFFFFFFFFFFFFFFFFFFFFFF AND PUSH32 0xDDF252AD1BE2C89B69C2B068FC378DAA952BA7F163C4A11628F55A4DF523B3EF DUP4 PUSH1 0x40 MLOAD PUSH2 0x10A0 SWAP2 SWAP1 PUSH2 0x1807 JUMP JUMPDEST PUSH1 0x40 MLOAD DUP1 SWAP2 SUB SWAP1 LOG3 POP POP JUMP JUMPDEST PUSH1 0x0 PUSH1 0x5 PUSH1 0x0 SWAP1 SLOAD SWAP1 PUSH2 0x100 EXP SWAP1 DIV PUSH20 0xFFFFFFFFFFFFFFFFFFFFFFFFFFFFFFFFFFFFFFFF AND SWAP1 POP DUP2 PUSH1 0x5 PUSH1 0x0 PUSH2 0x100 EXP DUP2 SLOAD DUP2 PUSH20 0xFFFFFFFFFFFFFFFFFFFFFFFFFFFFFFFFFFFFFFFF MUL NOT AND SWAP1 DUP4 PUSH20 0xFFFFFFFFFFFFFFFFFFFFFFFFFFFFFFFFFFFFFFFF AND MUL OR SWAP1 SSTORE POP DUP2 PUSH20 0xFFFFFFFFFFFFFFFFFFFFFFFFFFFFFFFFFFFFFFFF AND DUP2 PUSH20 0xFFFFFFFFFFFFFFFFFFFFFFFFFFFFFFFFFFFFFFFF AND PUSH32 0x8BE0079C531659141344CD1FD0A4F28419497F9722A3DAAFE3B4186F6B6457E0 PUSH1 0x40 MLOAD PUSH1 0x40 MLOAD DUP1 SWAP2 SUB SWAP1 LOG3 POP POP JUMP JUMPDEST PUSH1 0x0 PUSH2 0x1185 PUSH2 0x1180 DUP5 PUSH2 0x1862 JUMP JUMPDEST PUSH2 0x183D JUMP JUMPDEST SWAP1 POP DUP3 DUP2 MSTORE PUSH1 0x20 DUP2 ADD DUP5 DUP5 DUP5 ADD GT ISZERO PUSH2 0x11A1 JUMPI PUSH2 0x11A0 PUSH2 0x1AC9 JUMP JUMPDEST JUMPDEST PUSH2 0x11AC DUP5 DUP3 DUP6 PUSH2 0x1964 JUMP JUMPDEST POP SWAP4 SWAP3 POP POP POP JUMP JUMPDEST PUSH1 0x0 DUP2 CALLDATALOAD SWAP1 POP PUSH2 0x11C3 DUP2 PUSH2 0x1DEC JUMP JUMPDEST SWAP3 SWAP2 POP POP JUMP JUMPDEST PUSH1 0x0 DUP3 PUSH1 0x1F DUP4 ADD SLT PUSH2 0x11DE JUMPI PUSH2 0x11DD PUSH2 0x1AC4 JUMP JUMPDEST JUMPDEST DUP2 CALLDATALOAD PUSH2 0x11EE DUP5 DUP3 PUSH1 0x20 DUP7 ADD PUSH2 0x1172 JUMP JUMPDEST SWAP2 POP POP SWAP3 SWAP2 POP POP JUMP JUMPDEST PUSH1 0x0 DUP2 CALLDATALOAD SWAP1 POP PUSH2 0x1206 DUP2 PUSH2 0x1E03 JUMP JUMPDEST SWAP3 SWAP2 POP POP JUMP JUMPDEST PUSH1 0x0 PUSH1 0x20 DUP3 DUP5 SUB SLT ISZERO PUSH2 0x1222 JUMPI PUSH2 0x1221 PUSH2 0x1AD3 JUMP JUMPDEST JUMPDEST PUSH1 0x0 PUSH2 0x1230 DUP5 DUP3 DUP6 ADD PUSH2 0x11B4 JUMP JUMPDEST SWAP2 POP POP SWAP3 SWAP2 POP POP JUMP JUMPDEST PUSH1 0x0 DUP1 PUSH1 0x40 DUP4 DUP6 SUB SLT ISZERO PUSH2 0x1250 JUMPI PUSH2 0x124F PUSH2 0x1AD3 JUMP JUMPDEST JUMPDEST PUSH1 0x0 PUSH2 0x125E DUP6 DUP3 DUP7 ADD PUSH2 0x11B4 JUMP JUMPDEST SWAP3 POP POP PUSH1 0x20 PUSH2 0x126F DUP6 DUP3 DUP7 ADD PUSH2 0x11B4 JUMP JUMPDEST SWAP2 POP POP SWAP3 POP SWAP3 SWAP1 POP JUMP JUMPDEST PUSH1 0x0 DUP1 PUSH1 0x0 PUSH1 0x60 DUP5 DUP7 SUB SLT ISZERO PUSH2 0x1292 JUMPI PUSH2 0x1291 PUSH2 0x1AD3 JUMP JUMPDEST JUMPDEST PUSH1 0x0 PUSH2 0x12A0 DUP7 DUP3 DUP8 ADD PUSH2 0x11B4 JUMP JUMPDEST SWAP4 POP POP PUSH1 0x20 PUSH2 0x12B1 DUP7 DUP3 DUP8 ADD PUSH2 0x11B4 JUMP JUMPDEST SWAP3 POP POP PUSH1 0x40 PUSH2 0x12C2 DUP7 DUP3 DUP8 ADD PUSH2 0x11F7 JUMP JUMPDEST SWAP2 POP POP SWAP3 POP SWAP3 POP SWAP3 JUMP JUMPDEST PUSH1 0x0 DUP1 PUSH1 0x40 DUP4 DUP6 SUB SLT ISZERO PUSH2 0x12E3 JUMPI PUSH2 0x12E2 PUSH2 0x1AD3 JUMP JUMPDEST JUMPDEST PUSH1 0x0 PUSH2 0x12F1 DUP6 DUP3 DUP7 ADD PUSH2 0x11B4 JUMP JUMPDEST SWAP3 POP POP PUSH1 0x20 PUSH2 0x1302 DUP6 DUP3 DUP7 ADD PUSH2 0x11F7 JUMP JUMPDEST SWAP2 POP POP SWAP3 POP SWAP3 SWAP1 POP JUMP JUMPDEST PUSH1 0x0 DUP1 PUSH1 0x40 DUP4 DUP6 SUB SLT ISZERO PUSH2 0x1323 JUMPI PUSH2 0x1322 PUSH2 0x1AD3 JUMP JUMPDEST JUMPDEST PUSH1 0x0 PUSH2 0x1331 DUP6 DUP3 DUP7 ADD PUSH2 0x11F7 JUMP JUMPDEST SWAP3 POP POP PUSH1 0x20 DUP4 ADD CALLDATALOAD PUSH8 0xFFFFFFFFFFFFFFFF DUP2 GT ISZERO PUSH2 0x1352 JUMPI PUSH2 0x1351 PUSH2 0x1ACE JUMP JUMPDEST JUMPDEST PUSH2 0x135E DUP6 DUP3 DUP7 ADD PUSH2 0x11C9 JUMP JUMPDEST SWAP2 POP POP SWAP3 POP SWAP3 SWAP1 POP JUMP JUMPDEST PUSH2 0x1371 DUP2 PUSH2 0x1905 JUMP JUMPDEST DUP3 MSTORE POP POP JUMP JUMPDEST PUSH2 0x1388 PUSH2 0x1383 DUP3 PUSH2 0x1905 JUMP JUMPDEST PUSH2 0x1A09 JUMP JUMPDEST DUP3 MSTORE POP POP JUMP JUMPDEST PUSH2 0x1397 DUP2 PUSH2 0x1917 JUMP JUMPDEST DUP3 MSTORE POP POP JUMP JUMPDEST PUSH2 0x13A6 DUP2 PUSH2 0x1923 JUMP JUMPDEST DUP3 MSTORE POP POP JUMP JUMPDEST PUSH1 0x0 PUSH2 0x13B7 DUP3 PUSH2 0x1893 JUMP JUMPDEST PUSH2 0x13C1 DUP2 DUP6 PUSH2 0x189E JUMP JUMPDEST SWAP4 POP PUSH2 0x13D1 DUP2 DUP6 PUSH1 0x20 DUP7 ADD PUSH2 0x1973 JUMP JUMPDEST PUSH2 0x13DA DUP2 PUSH2 0x1AD8 JUMP JUMPDEST DUP5 ADD SWAP2 POP POP SWAP3 SWAP2 POP POP JUMP JUMPDEST PUSH1 0x0 PUSH2 0x13F2 PUSH1 0x23 DUP4 PUSH2 0x189E JUMP JUMPDEST SWAP2 POP PUSH2 0x13FD DUP3 PUSH2 0x1AF6 JUMP JUMPDEST PUSH1 0x40 DUP3 ADD SWAP1 POP SWAP2 SWAP1 POP JUMP JUMPDEST PUSH1 0x0 PUSH2 0x1415 PUSH1 0x26 DUP4 PUSH2 0x189E JUMP JUMPDEST SWAP2 POP PUSH2 0x1420 DUP3 PUSH2 0x1B45 JUMP JUMPDEST PUSH1 0x40 DUP3 ADD SWAP1 POP SWAP2 SWAP1 POP JUMP JUMPDEST PUSH1 0x0 PUSH2 0x1438 PUSH1 0x22 DUP4 PUSH2 0x189E JUMP JUMPDEST SWAP2 POP PUSH2 0x1443 DUP3 PUSH2 0x1B94 JUMP JUMPDEST PUSH1 0x40 DUP3 ADD SWAP1 POP SWAP2 SWAP1 POP JUMP JUMPDEST PUSH1 0x0 PUSH2 0x145B PUSH1 0x1D DUP4 PUSH2 0x189E JUMP JUMPDEST SWAP2 POP PUSH2 0x1466 DUP3 PUSH2 0x1BE3 JUMP JUMPDEST PUSH1 0x20 DUP3 ADD SWAP1 POP SWAP2 SWAP1 POP JUMP JUMPDEST PUSH1 0x0 PUSH2 0x147E PUSH1 0x26 DUP4 PUSH2 0x189E JUMP JUMPDEST SWAP2 POP PUSH2 0x1489 DUP3 PUSH2 0x1C0C JUMP JUMPDEST PUSH1 0x40 DUP3 ADD SWAP1 POP SWAP2 SWAP1 POP JUMP JUMPDEST PUSH1 0x0 PUSH2 0x14A1 PUSH1 0x20 DUP4 PUSH2 0x189E JUMP JUMPDEST SWAP2 POP PUSH2 0x14AC DUP3 PUSH2 0x1C5B JUMP JUMPDEST PUSH1 0x20 DUP3 ADD SWAP1 POP SWAP2 SWAP1 POP JUMP JUMPDEST PUSH1 0x0 PUSH2 0x14C4 PUSH1 0x20 DUP4 PUSH2 0x189E JUMP JUMPDEST SWAP2 POP PUSH2 0x14CF DUP3 PUSH2 0x1C84 JUMP JUMPDEST PUSH1 0x20 DUP3 ADD SWAP1 POP SWAP2 SWAP1 POP JUMP JUMPDEST PUSH1 0x0 PUSH2 0x14E7 PUSH1 0x25 DUP4 PUSH2 0x189E JUMP JUMPDEST SWAP2 POP PUSH2 0x14F2 DUP3 PUSH2 0x1CAD JUMP JUMPDEST PUSH1 0x40 DUP3 ADD SWAP1 POP SWAP2 SWAP1 POP JUMP JUMPDEST PUSH1 0x0 PUSH2 0x150A PUSH1 0x24 DUP4 PUSH2 0x189E JUMP JUMPDEST SWAP2 POP PUSH2 0x1515 DUP3 PUSH2 0x1CFC JUMP JUMPDEST PUSH1 0x40 DUP3 ADD SWAP1 POP SWAP2 SWAP1 POP JUMP JUMPDEST PUSH1 0x0 PUSH2 0x152D PUSH1 0x1D DUP4 PUSH2 0x189E JUMP JUMPDEST SWAP2 POP PUSH2 0x1538 DUP3 PUSH2 0x1D4B JUMP JUMPDEST PUSH1 0x20 DUP3 ADD SWAP1 POP SWAP2 SWAP1 POP JUMP JUMPDEST PUSH1 0x0 PUSH2 0x1550 PUSH1 0x25 DUP4 PUSH2 0x189E JUMP JUMPDEST SWAP2 POP PUSH2 0x155B DUP3 PUSH2 0x1D74 JUMP JUMPDEST PUSH1 0x40 DUP3 ADD SWAP1 POP SWAP2 SWAP1 POP JUMP JUMPDEST PUSH1 0x0 PUSH2 0x1573 PUSH1 0x1F DUP4 PUSH2 0x189E JUMP JUMPDEST SWAP2 POP PUSH2 0x157E DUP3 PUSH2 0x1DC3 JUMP JUMPDEST PUSH1 0x20 DUP3 ADD SWAP1 POP SWAP2 SWAP1 POP JUMP JUMPDEST PUSH2 0x1592 DUP2 PUSH2 0x194D JUMP JUMPDEST DUP3 MSTORE POP POP JUMP JUMPDEST PUSH2 0x15A9 PUSH2 0x15A4 DUP3 PUSH2 0x194D JUMP JUMPDEST PUSH2 0x1A2D JUMP JUMPDEST DUP3 MSTORE POP POP JUMP JUMPDEST PUSH2 0x15B8 DUP2 PUSH2 0x1957 JUMP JUMPDEST DUP3 MSTORE POP POP JUMP JUMPDEST PUSH1 0x0 PUSH2 0x15CA DUP3 DUP6 PUSH2 0x1377 JUMP JUMPDEST PUSH1 0x14 DUP3 ADD SWAP2 POP PUSH2 0x15DA DUP3 DUP5 PUSH2 0x1598 JUMP JUMPDEST PUSH1 0x20 DUP3 ADD SWAP2 POP DUP2 SWAP1 POP SWAP4 SWAP3 POP POP POP JUMP JUMPDEST PUSH1 0x0 PUSH1 0x20 DUP3 ADD SWAP1 POP PUSH2 0x15FF PUSH1 0x0 DUP4 ADD DUP5 PUSH2 0x1368 JUMP JUMPDEST SWAP3 SWAP2 POP POP JUMP JUMPDEST PUSH1 0x0 PUSH1 0x20 DUP3 ADD SWAP1 POP PUSH2 0x161A PUSH1 0x0 DUP4 ADD DUP5 PUSH2 0x138E JUMP JUMPDEST SWAP3 SWAP2 POP POP JUMP JUMPDEST PUSH1 0x0 PUSH1 0x80 DUP3 ADD SWAP1 POP PUSH2 0x1635 PUSH1 0x0 DUP4 ADD DUP8 PUSH2 0x139D JUMP JUMPDEST PUSH2 0x1642 PUSH1 0x20 DUP4 ADD DUP7 PUSH2 0x15AF JUMP JUMPDEST PUSH2 0x164F PUSH1 0x40 DUP4 ADD DUP6 PUSH2 0x139D JUMP JUMPDEST PUSH2 0x165C PUSH1 0x60 DUP4 ADD DUP5 PUSH2 0x139D JUMP JUMPDEST SWAP6 SWAP5 POP POP POP POP POP JUMP JUMPDEST PUSH1 0x0 PUSH1 0x20 DUP3 ADD SWAP1 POP DUP2 DUP2 SUB PUSH1 0x0 DUP4 ADD MSTORE PUSH2 0x167F DUP2 DUP5 PUSH2 0x13AC JUMP JUMPDEST SWAP1 POP SWAP3 SWAP2 POP POP JUMP JUMPDEST PUSH1 0x0 PUSH1 0x20 DUP3 ADD SWAP1 POP DUP2 DUP2 SUB PUSH1 0x0 DUP4 ADD MSTORE PUSH2 0x16A0 DUP2 PUSH2 0x13E5 JUMP JUMPDEST SWAP1 POP SWAP2 SWAP1 POP JUMP JUMPDEST PUSH1 0x0 PUSH1 0x20 DUP3 ADD SWAP1 POP DUP2 DUP2 SUB PUSH1 0x0 DUP4 ADD MSTORE PUSH2 0x16C0 DUP2 PUSH2 0x1408 JUMP JUMPDEST SWAP1 POP SWAP2 SWAP1 POP JUMP JUMPDEST PUSH1 0x0 PUSH1 0x20 DUP3 ADD SWAP1 POP DUP2 DUP2 SUB PUSH1 0x0 DUP4 ADD MSTORE PUSH2 0x16E0 DUP2 PUSH2 0x142B JUMP JUMPDEST SWAP1 POP SWAP2 SWAP1 POP JUMP JUMPDEST PUSH1 0x0 PUSH1 0x20 DUP3 ADD SWAP1 POP DUP2 DUP2 SUB PUSH1 0x0 DUP4 ADD MSTORE PUSH2 0x1700 DUP2 PUSH2 0x144E JUMP JUMPDEST SWAP1 POP SWAP2 SWAP1 POP JUMP JUMPDEST PUSH1 0x0 PUSH1 0x20 DUP3 ADD SWAP1 POP DUP2 DUP2 SUB PUSH1 0x0 DUP4 ADD MSTORE PUSH2 0x1720 DUP2 PUSH2 0x1471 JUMP JUMPDEST SWAP1 POP SWAP2 SWAP1 POP JUMP JUMPDEST PUSH1 0x0 PUSH1 0x20 DUP3 ADD SWAP1 POP DUP2 DUP2 SUB PUSH1 0x0 DUP4 ADD MSTORE PUSH2 0x1740 DUP2 PUSH2 0x1494 JUMP JUMPDEST SWAP1 POP SWAP2 SWAP1 POP JUMP JUMPDEST PUSH1 0x0 PUSH1 0x20 DUP3 ADD SWAP1 POP DUP2 DUP2 SUB PUSH1 0x0 DUP4 ADD MSTORE PUSH2 0x1760 DUP2 PUSH2 0x14B7 JUMP JUMPDEST SWAP1 POP SWAP2 SWAP1 POP JUMP JUMPDEST PUSH1 0x0 PUSH1 0x20 DUP3 ADD SWAP1 POP DUP2 DUP2 SUB PUSH1 0x0 DUP4 ADD MSTORE PUSH2 0x1780 DUP2 PUSH2 0x14DA JUMP JUMPDEST SWAP1 POP SWAP2 SWAP1 POP JUMP JUMPDEST PUSH1 0x0 PUSH1 0x20 DUP3 ADD SWAP1 POP DUP2 DUP2 SUB PUSH1 0x0 DUP4 ADD MSTORE PUSH2 0x17A0 DUP2 PUSH2 0x14FD JUMP JUMPDEST SWAP1 POP SWAP2 SWAP1 POP JUMP JUMPDEST PUSH1 0x0 PUSH1 0x20 DUP3 ADD SWAP1 POP DUP2 DUP2 SUB PUSH1 0x0 DUP4 ADD MSTORE PUSH2 0x17C0 DUP2 PUSH2 0x1520 JUMP JUMPDEST SWAP1 POP SWAP2 SWAP1 POP JUMP JUMPDEST PUSH1 0x0 PUSH1 0x20 DUP3 ADD SWAP1 POP DUP2 DUP2 SUB PUSH1 0x0 DUP4 ADD MSTORE PUSH2 0x17E0 DUP2 PUSH2 0x1543 JUMP JUMPDEST SWAP1 POP SWAP2 SWAP1 POP JUMP JUMPDEST PUSH1 0x0 PUSH1 0x20 DUP3 ADD SWAP1 POP DUP2 DUP2 SUB PUSH1 0x0 DUP4 ADD MSTORE PUSH2 0x1800 DUP2 PUSH2 0x1566 JUMP JUMPDEST SWAP1 POP SWAP2 SWAP1 POP JUMP JUMPDEST PUSH1 0x0 PUSH1 0x20 DUP3 ADD SWAP1 POP PUSH2 0x181C PUSH1 0x0 DUP4 ADD DUP5 PUSH2 0x1589 JUMP JUMPDEST SWAP3 SWAP2 POP POP JUMP JUMPDEST PUSH1 0x0 PUSH1 0x20 DUP3 ADD SWAP1 POP PUSH2 0x1837 PUSH1 0x0 DUP4 ADD DUP5 PUSH2 0x15AF JUMP JUMPDEST SWAP3 SWAP2 POP POP JUMP JUMPDEST PUSH1 0x0 PUSH2 0x1847 PUSH2 0x1858 JUMP JUMPDEST SWAP1 POP PUSH2 0x1853 DUP3 DUP3 PUSH2 0x19D8 JUMP JUMPDEST SWAP2 SWAP1 POP JUMP JUMPDEST PUSH1 0x0 PUSH1 0x40 MLOAD SWAP1 POP SWAP1 JUMP JUMPDEST PUSH1 0x0 PUSH8 0xFFFFFFFFFFFFFFFF DUP3 GT ISZERO PUSH2 0x187D JUMPI PUSH2 0x187C PUSH2 0x1A95 JUMP JUMPDEST JUMPDEST PUSH2 0x1886 DUP3 PUSH2 0x1AD8 JUMP JUMPDEST SWAP1 POP PUSH1 0x20 DUP2 ADD SWAP1 POP SWAP2 SWAP1 POP JUMP JUMPDEST PUSH1 0x0 DUP2 MLOAD SWAP1 POP SWAP2 SWAP1 POP JUMP JUMPDEST PUSH1 0x0 DUP3 DUP3 MSTORE PUSH1 0x20 DUP3 ADD SWAP1 POP SWAP3 SWAP2 POP POP JUMP JUMPDEST PUSH1 0x0 PUSH2 0x18BA DUP3 PUSH2 0x194D JUMP JUMPDEST SWAP2 POP PUSH2 0x18C5 DUP4 PUSH2 0x194D JUMP JUMPDEST SWAP3 POP DUP3 PUSH32 0xFFFFFFFFFFFFFFFFFFFFFFFFFFFFFFFFFFFFFFFFFFFFFFFFFFFFFFFFFFFFFFFF SUB DUP3 GT ISZERO PUSH2 0x18FA JUMPI PUSH2 0x18F9 PUSH2 0x1A37 JUMP JUMPDEST JUMPDEST DUP3 DUP3 ADD SWAP1 POP SWAP3 SWAP2 POP POP JUMP JUMPDEST PUSH1 0x0 PUSH2 0x1910 DUP3 PUSH2 0x192D JUMP JUMPDEST SWAP1 POP SWAP2 SWAP1 POP JUMP JUMPDEST PUSH1 0x0 DUP2 ISZERO ISZERO SWAP1 POP SWAP2 SWAP1 POP JUMP JUMPDEST PUSH1 0x0 DUP2 SWAP1 POP SWAP2 SWAP1 POP JUMP JUMPDEST PUSH1 0x0 PUSH20 0xFFFFFFFFFFFFFFFFFFFFFFFFFFFFFFFFFFFFFFFF DUP3 AND SWAP1 POP SWAP2 SWAP1 POP JUMP JUMPDEST PUSH1 0x0 DUP2 SWAP1 POP SWAP2 SWAP1 POP JUMP JUMPDEST PUSH1 0x0 PUSH1 0xFF DUP3 AND SWAP1 POP SWAP2 SWAP1 POP JUMP JUMPDEST DUP3 DUP2 DUP4 CALLDATACOPY PUSH1 0x0 DUP4 DUP4 ADD MSTORE POP POP POP JUMP JUMPDEST PUSH1 0x0 JUMPDEST DUP4 DUP2 LT ISZERO PUSH2 0x1991 JUMPI DUP1 DUP3 ADD MLOAD DUP2 DUP5 ADD MSTORE PUSH1 0x20 DUP2 ADD SWAP1 POP PUSH2 0x1976 JUMP JUMPDEST DUP4 DUP2 GT ISZERO PUSH2 0x19A0 JUMPI PUSH1 0x0 DUP5 DUP5 ADD MSTORE JUMPDEST POP POP POP POP JUMP JUMPDEST PUSH1 0x0 PUSH1 0x2 DUP3 DIV SWAP1 POP PUSH1 0x1 DUP3 AND DUP1 PUSH2 0x19BE JUMPI PUSH1 0x7F DUP3 AND SWAP2 POP JUMPDEST PUSH1 0x20 DUP3 LT DUP2 EQ ISZERO PUSH2 0x19D2 JUMPI PUSH2 0x19D1 PUSH2 0x1A66 JUMP JUMPDEST JUMPDEST POP SWAP2 SWAP1 POP JUMP JUMPDEST PUSH2 0x19E1 DUP3 PUSH2 0x1AD8 JUMP JUMPDEST DUP2 ADD DUP2 DUP2 LT PUSH8 0xFFFFFFFFFFFFFFFF DUP3 GT OR ISZERO PUSH2 0x1A00 JUMPI PUSH2 0x19FF PUSH2 0x1A95 JUMP JUMPDEST JUMPDEST DUP1 PUSH1 0x40 MSTORE POP POP POP JUMP JUMPDEST PUSH1 0x0 PUSH2 0x1A14 DUP3 PUSH2 0x1A1B JUMP JUMPDEST SWAP1 POP SWAP2 SWAP1 POP JUMP JUMPDEST PUSH1 0x0 PUSH2 0x1A26 DUP3 PUSH2 0x1AE9 JUMP JUMPDEST SWAP1 POP SWAP2 SWAP1 POP JUMP JUMPDEST PUSH1 0x0 DUP2 SWAP1 POP SWAP2 SWAP1 POP JUMP JUMPDEST PUSH32 0x4E487B7100000000000000000000000000000000000000000000000000000000 PUSH1 0x0 MSTORE PUSH1 0x11 PUSH1 0x4 MSTORE PUSH1 0x24 PUSH1 0x0 REVERT JUMPDEST PUSH32 0x4E487B7100000000000000000000000000000000000000000000000000000000 PUSH1 0x0 MSTORE PUSH1 0x22 PUSH1 0x4 MSTORE PUSH1 0x24 PUSH1 0x0 REVERT JUMPDEST PUSH32 0x4E487B7100000000000000000000000000000000000000000000000000000000 PUSH1 0x0 MSTORE PUSH1 0x41 PUSH1 0x4 MSTORE PUSH1 0x24 PUSH1 0x0 REVERT JUMPDEST PUSH1 0x0 DUP1 REVERT JUMPDEST PUSH1 0x0 DUP1 REVERT JUMPDEST PUSH1 0x0 DUP1 REVERT JUMPDEST PUSH1 0x0 DUP1 REVERT JUMPDEST PUSH1 0x0 PUSH1 0x1F NOT PUSH1 0x1F DUP4 ADD AND SWAP1 POP SWAP2 SWAP1 POP JUMP JUMPDEST PUSH1 0x0 DUP2 PUSH1 0x60 SHL SWAP1 POP SWAP2 SWAP1 POP JUMP JUMPDEST PUSH32 0x45524332303A207472616E7366657220746F20746865207A65726F2061646472 PUSH1 0x0 DUP3 ADD MSTORE PUSH32 0x6573730000000000000000000000000000000000000000000000000000000000 PUSH1 0x20 DUP3 ADD MSTORE POP JUMP JUMPDEST PUSH32 0x4F776E61626C653A206E6577206F776E657220697320746865207A65726F2061 PUSH1 0x0 DUP3 ADD MSTORE PUSH32 0x6464726573730000000000000000000000000000000000000000000000000000 PUSH1 0x20 DUP3 ADD MSTORE POP JUMP JUMPDEST PUSH32 0x45524332303A20617070726F766520746F20746865207A65726F206164647265 PUSH1 0x0 DUP3 ADD MSTORE PUSH32 0x7373000000000000000000000000000000000000000000000000000000000000 PUSH1 0x20 DUP3 ADD MSTORE POP JUMP JUMPDEST PUSH32 0x45524332303A20696E73756666696369656E7420616C6C6F77616E6365000000 PUSH1 0x0 DUP3 ADD MSTORE POP JUMP JUMPDEST PUSH32 0x45524332303A207472616E7366657220616D6F756E7420657863656564732062 PUSH1 0x0 DUP3 ADD MSTORE PUSH32 0x616C616E63650000000000000000000000000000000000000000000000000000 PUSH1 0x20 DUP3 ADD MSTORE POP JUMP JUMPDEST PUSH32 0x4F776E61626C653A2063616C6C6572206973206E6F7420746865206F776E6572 PUSH1 0x0 DUP3 ADD MSTORE POP JUMP JUMPDEST PUSH32 0x774C4F4E473A206B65792068617320616C7265616479206265656E2075736564 PUSH1 0x0 DUP3 ADD MSTORE POP JUMP JUMPDEST PUSH32 0x45524332303A207472616E736665722066726F6D20746865207A65726F206164 PUSH1 0x0 DUP3 ADD MSTORE PUSH32 0x6472657373000000000000000000000000000000000000000000000000000000 PUSH1 0x20 DUP3 ADD MSTORE POP JUMP JUMPDEST PUSH32 0x45524332303A20617070726F76652066726F6D20746865207A65726F20616464 PUSH1 0x0 DUP3 ADD MSTORE PUSH32 0x7265737300000000000000000000000000000000000000000000000000000000 PUSH1 0x20 DUP3 ADD MSTORE POP JUMP JUMPDEST PUSH32 0x774C4F4E473A207369676E6174757265206973206E6F742076616C6964000000 PUSH1 0x0 DUP3 ADD MSTORE POP JUMP JUMPDEST PUSH32 0x45524332303A2064656372656173656420616C6C6F77616E63652062656C6F77 PUSH1 0x0 DUP3 ADD MSTORE PUSH32 0x207A65726F000000000000000000000000000000000000000000000000000000 PUSH1 0x20 DUP3 ADD MSTORE POP JUMP JUMPDEST PUSH32 0x45524332303A206D696E7420746F20746865207A65726F206164647265737300 PUSH1 0x0 DUP3 ADD MSTORE POP JUMP JUMPDEST PUSH2 0x1DF5 DUP2 PUSH2 0x1905 JUMP JUMPDEST DUP2 EQ PUSH2 0x1E00 JUMPI PUSH1 0x0 DUP1 REVERT JUMPDEST POP JUMP JUMPDEST PUSH2 0x1E0C DUP2 PUSH2 0x194D JUMP JUMPDEST DUP2 EQ PUSH2 0x1E17 JUMPI PUSH1 0x0 DUP1 REVERT JUMPDEST POP JUMP INVALID LOG2 PUSH5 0x6970667358 0x22 SLT KECCAK256 PUSH4 0x4ABF6C0 0xCA 0xCB 0x1E ADD 0xB1 PUSH23 0x44D5E98F9E074ED65C4CB5F4C9309D1A93B034405D6473 PUSH16 0x6C634300080700330000000000000000 "
				},
				"gasEstimates": {
					"creation": {
						"codeDepositCost": "1552000",
						"executionCost": "infinite",
						"totalCost": "infinite"
					},
					"external": {
						"allowance(address,address)": "infinite",
						"approve(address,uint256)": "infinite",
						"balanceOf(address)": "2930",
						"decimals()": "380",
						"decreaseAllowance(address,uint256)": "infinite",
						"increaseAllowance(address,uint256)": "infinite",
						"mint(uint256,bytes)": "infinite",
						"name()": "infinite",
						"owner()": "2545",
						"symbol()": "infinite",
						"totalSupply()": "2505",
						"transfer(address,uint256)": "infinite",
						"transferFrom(address,address,uint256)": "infinite",
						"transferOwnership(address)": "30811"
					},
					"internal": {
						"_toEthSignedMessageHash(bytes32)": "infinite"
					}
				},
				"methodIdentifiers": {
					"allowance(address,address)": "dd62ed3e",
					"approve(address,uint256)": "095ea7b3",
					"balanceOf(address)": "70a08231",
					"decimals()": "313ce567",
					"decreaseAllowance(address,uint256)": "a457c2d7",
					"increaseAllowance(address,uint256)": "39509351",
					"mint(uint256,bytes)": "db7fd408",
					"name()": "06fdde03",
					"owner()": "8da5cb5b",
					"symbol()": "95d89b41",
					"totalSupply()": "18160ddd",
					"transfer(address,uint256)": "a9059cbb",
					"transferFrom(address,address,uint256)": "23b872dd",
					"transferOwnership(address)": "f2fde38b"
				}
			},
			"userdoc": {
				"kind": "user",
				"methods": {},
				"version": 1
			}
		}
	}
}